{
	"data": {
		"bytecode": {
			"linkReferences": {},
			"object": "6101606040523480156200001257600080fd5b503060601b60805260408051630890357360e41b81529051600091339163890357309160048082019260a092909190829003018186803b1580156200005657600080fd5b505afa1580156200006b573d6000803e3d6000fd5b505050506040513d60a08110156200008257600080fd5b508051602080830151604084015160608086015160809096015160e896871b6001600160e81b0319166101005291811b6001600160601b031990811660e05292811b831660c0529390931b1660a052600282810b900b90921b610120529150620000f79082906200010f811b62002d9217901c565b60801b6001600160801b03191661014052506200017d565b60008082600281900b620d89e719816200012557fe5b05029050600083600281900b620d89e8816200013d57fe5b0502905060008460020b83830360020b816200015557fe5b0560010190508062ffffff166001600160801b038016816200017357fe5b0495945050505050565b60805160601c60a05160601c60c05160601c60e05160601c6101005160e81c6101205160e81c6101405160801c615c326200024a6000398061216a528061506f52806150a6525080610c355280612abd52806150da528061510c525080610d245280611aff5280611b365280612b0552508061125b5280611bb9528061207052806125fb5280612ae152806141e35250806108d252806113a35280611b88528061200a5280612575528061406c525080612210528061242b5280612a99525080612e095250615c326000f3fe608060405234801561001057600080fd5b50600436106101ae5760003560e01c806370cf754a116100ee578063c45a015511610097578063ddca3f4311610071578063ddca3f4314610800578063f305839914610820578063f30dba9314610828578063f637731d146108aa576101ae565b8063c45a0155146107d1578063d0c93a7c146107d9578063d21220a7146107f8576101ae565b8063883bdbfd116100c8578063883bdbfd14610633578063a34123a71461073c578063a38807f214610776576101ae565b806370cf754a146105c65780638206a4d1146105ce57806385b66729146105f6576101ae565b80633850c7bd1161015b578063490e6cbc11610135578063490e6cbc146104705780634f1eb3d8146104fc578063514ea4bf1461054d5780635339c296146105a6576101ae565b80633850c7bd1461035b5780633c8a7d8d146103b45780634614131914610456576101ae565b80631ad8b03b1161018c5780631ad8b03b146102aa578063252c09d7146102e157806332148f6714610338576101ae565b80630dfe1681146101b3578063128acb08146101d75780631a68650214610286575b600080fd5b6101bb6108d0565b604080516001600160a01b039092168252519081900360200190f35b61026d600480360360a08110156101ed57600080fd5b6001600160a01b0382358116926020810135151592604082013592606083013516919081019060a08101608082013564010000000081111561022e57600080fd5b82018360208201111561024057600080fd5b8035906020019184600183028401116401000000008311171561026257600080fd5b5090925090506108f4565b6040805192835260208301919091528051918290030190f35b61028e611575565b604080516001600160801b039092168252519081900360200190f35b6102b2611584565b60405180836001600160801b03168152602001826001600160801b031681526020019250505060405180910390f35b6102fe600480360360208110156102f757600080fd5b503561159e565b6040805163ffffffff909516855260069390930b60208501526001600160a01b039091168383015215156060830152519081900360800190f35b6103596004803603602081101561034e57600080fd5b503561ffff166115e4565b005b6103636116f8565b604080516001600160a01b03909816885260029690960b602088015261ffff9485168787015292841660608701529216608085015260ff90911660a0840152151560c0830152519081900360e00190f35b61026d600480360360a08110156103ca57600080fd5b6001600160a01b03823516916020810135600290810b92604083013590910b916001600160801b036060820135169181019060a08101608082013564010000000081111561041757600080fd5b82018360208201111561042957600080fd5b8035906020019184600183028401116401000000008311171561044b57600080fd5b509092509050611748565b61045e611a3a565b60408051918252519081900360200190f35b6103596004803603608081101561048657600080fd5b6001600160a01b0382351691602081013591604082013591908101906080810160608201356401000000008111156104bd57600080fd5b8201836020820111156104cf57600080fd5b803590602001918460018302840111640100000000831117156104f157600080fd5b509092509050611a40565b6102b2600480360360a081101561051257600080fd5b506001600160a01b03813516906020810135600290810b91604081013590910b906001600160801b0360608201358116916080013516611ef6565b61056a6004803603602081101561056357600080fd5b5035612119565b604080516001600160801b0396871681526020810195909552848101939093529084166060840152909216608082015290519081900360a00190f35b61045e600480360360208110156105bc57600080fd5b503560010b612156565b61028e612168565b610359600480360360408110156105e457600080fd5b5060ff8135811691602001351661218c565b6102b26004803603606081101561060c57600080fd5b506001600160a01b03813516906001600160801b03602082013581169160400135166123a4565b6106a36004803603602081101561064957600080fd5b81019060208101813564010000000081111561066457600080fd5b82018360208201111561067657600080fd5b8035906020019184602083028401116401000000008311171561069857600080fd5b509092509050612693565b604051808060200180602001838103835285818151815260200191508051906020019060200280838360005b838110156106e75781810151838201526020016106cf565b50505050905001838103825284818151815260200191508051906020019060200280838360005b8381101561072657818101518382015260200161070e565b5050505090500194505050505060405180910390f35b61026d6004803603606081101561075257600080fd5b508035600290810b91602081013590910b90604001356001600160801b0316612720565b6107a06004803603604081101561078c57600080fd5b508035600290810b9160200135900b6128a0565b6040805160069490940b84526001600160a01b03909216602084015263ffffffff1682820152519081900360600190f35b6101bb612a97565b6107e1612abb565b6040805160029290920b8252519081900360200190f35b6101bb612adf565b610808612b03565b6040805162ffffff9092168252519081900360200190f35b61045e612b27565b6108486004803603602081101561083e57600080fd5b503560020b612b2d565b604080516001600160801b039099168952600f9790970b602089015287870195909552606087019390935260069190910b60808601526001600160a01b031660a085015263ffffffff1660c0840152151560e083015251908190036101000190f35b610359600480360360208110156108c057600080fd5b50356001600160a01b0316612b9b565b7f000000000000000000000000000000000000000000000000000000000000000081565b6000806108ff612dfe565b85610951576040805162461bcd60e51b815260206004820152600260248201527f4153000000000000000000000000000000000000000000000000000000000000604482015290519081900360640190fd5b6040805160e0810182526000546001600160a01b0381168252600160a01b8104600290810b810b900b602083015261ffff600160b81b8204811693830193909352600160c81b810483166060830152600160d81b8104909216608082015260ff600160e81b8304811660a0830152600160f01b909204909116151560c08201819052610a0a576040805162461bcd60e51b81526020600482015260036024820152624c4f4b60e81b604482015290519081900360640190fd5b87610a555780600001516001600160a01b0316866001600160a01b0316118015610a50575073fffd8963efd1fc6a506488495d951d5263988d266001600160a01b038716105b610a87565b80600001516001600160a01b0316866001600160a01b0316108015610a8757506401000276a36001600160a01b038716115b610ad8576040805162461bcd60e51b815260206004820152600360248201527f53504c0000000000000000000000000000000000000000000000000000000000604482015290519081900360640190fd5b6000805460ff60f01b191681556040805160c08101909152808a610b075760048460a0015160ff16901c610b1a565b60108460a0015160ff1681610b1857fe5b065b60ff1681526004546001600160801b03166020820152604001610b3b612e35565b63ffffffff168152602001600060060b815260200160006001600160a01b031681526020016000151581525090506000808913905060006040518060e001604052808b81526020016000815260200185600001516001600160a01b03168152602001856020015160020b81526020018c610bb757600254610bbb565b6001545b815260200160006001600160801b0316815260200184602001516001600160801b031681525090505b805115801590610c0a5750886001600160a01b031681604001516001600160a01b031614155b15610fd457610c17615b99565b60408201516001600160a01b031681526060820151610c5a906006907f00000000000000000000000000000000000000000000000000000000000000008f612e39565b15156040830152600290810b810b60208301819052620d89e719910b1215610c8b57620d89e7196020820152610caa565b6020810151620d89e860029190910b1315610caa57620d89e860208201525b610cb78160200151612f7b565b6001600160a01b031660608201526040820151610d48908d610cf1578b6001600160a01b031683606001516001600160a01b031611610d0b565b8b6001600160a01b031683606001516001600160a01b0316105b610d19578260600151610d1b565b8b5b60c085015185517f00000000000000000000000000000000000000000000000000000000000000006132c9565b60c085015260a084015260808301526001600160a01b031660408301528215610daa57610d7e8160c001518260800151016134bb565b825103825260a0810151610da090610d95906134bb565b6020840151906134ed565b6020830152610de5565b610db78160a001516134bb565b825101825260c08101516080820151610ddf91610dd491016134bb565b602084015190613509565b60208301525b835160ff1615610e2b576000846000015160ff168260c0015181610e0557fe5b60c0840180519290910491829003905260a0840180519091016001600160801b03169052505b60c08201516001600160801b031615610e6a57610e5e8160c00151600160801b8460c001516001600160801b031661351f565b60808301805190910190525b80606001516001600160a01b031682604001516001600160a01b03161415610f9357806040015115610f6a578360a00151610ef457610ed2846040015160008760200151886040015188602001518a6060015160086135cf909695949392919063ffffffff16565b6001600160a01b03166080860152600690810b900b6060850152600160a08501525b6000610f4082602001518e610f0b57600154610f11565b84608001515b8f610f20578560800151610f24565b6002545b608089015160608a015160408b01516005959493929190613762565b90508c15610f4c576000035b610f5a8360c001518261384d565b6001600160801b031660c0840152505b8b610f79578060200151610f82565b60018160200151035b600290810b900b6060830152610fce565b80600001516001600160a01b031682604001516001600160a01b031614610fce57610fc18260400151613939565b600290810b900b60608301525b50610be4565b836020015160020b816060015160020b146110fc5760008061102286604001518660400151886020015188602001518a606001518b608001516008613c90909695949392919063ffffffff16565b60408501516060860151600080547fffffffffff0000ffffffffffffffffffffffffffffffffffffffffffffffffff16600160c81b61ffff95861602177fffffffffffffff0000ffffffffffffffffffffffffffffffffffffffffffffff16600160b81b9590941694909402929092177fffffffffffffffffff000000ffffffffffffffffffffffffffffffffffffffff16600160a01b62ffffff60029490940b93909316929092029190911773ffffffffffffffffffffffffffffffffffffffff19166001600160a01b039091161790555061112e9050565b60408101516000805473ffffffffffffffffffffffffffffffffffffffff19166001600160a01b039092169190911790555b8060c001516001600160801b031683602001516001600160801b03161461117d5760c0810151600480546fffffffffffffffffffffffffffffffff19166001600160801b039092169190911790555b8a156111d657608081015160015560a08101516001600160801b0316156111d15760a0810151600380546fffffffffffffffffffffffffffffffff1981166001600160801b03918216909301169190911790555b61121c565b608081015160025560a08101516001600160801b03161561121c5760a0810151600380546001600160801b03808216600160801b92839004821690940116029190911790555b8115158b15151461123557602081015181518b03611242565b80600001518a0381602001515b90965094508a15611395576000851215611284576112847f00000000000000000000000000000000000000000000000000000000000000008d87600003613e59565b600061128e613ff0565b9050336001600160a01b031663fa461e3388888c8c6040518563ffffffff1660e01b815260040180858152602001848152602001806020018281038252848482818152602001925080828437600081840152601f19601f82011690508083019250505095505050505050600060405180830381600087803b15801561131257600080fd5b505af1158015611326573d6000803e3d6000fd5b50505050611332613ff0565b61133c8289614157565b111561138f576040805162461bcd60e51b815260206004820152600360248201527f4949410000000000000000000000000000000000000000000000000000000000604482015290519081900360640190fd5b506114d9565b60008612156113cc576113cc7f00000000000000000000000000000000000000000000000000000000000000008d88600003613e59565b60006113d6614167565b9050336001600160a01b031663fa461e3388888c8c6040518563ffffffff1660e01b815260040180858152602001848152602001806020018281038252848482818152602001925080828437600081840152601f19601f82011690508083019250505095505050505050600060405180830381600087803b15801561145a57600080fd5b505af115801561146e573d6000803e3d6000fd5b5050505061147a614167565b6114848288614157565b11156114d7576040805162461bcd60e51b815260206004820152600360248201527f4949410000000000000000000000000000000000000000000000000000000000604482015290519081900360640190fd5b505b60408082015160c083015160608085015184518b8152602081018b90526001600160a01b03948516818701526001600160801b039093169183019190915260020b60808201529151908e169133917fc42079f94a6350d7e6235f29174924f928cc2ac818eb64fed8004e115fbcca679181900360a00190a350506000805460ff60f01b1916600160f01b17905550919890975095505050505050565b6004546001600160801b031681565b6003546001600160801b0380821691600160801b90041682565b60088161ffff81106115af57600080fd5b015463ffffffff81169150640100000000810460060b90600160581b81046001600160a01b031690600160f81b900460ff1684565b600054600160f01b900460ff16611628576040805162461bcd60e51b81526020600482015260036024820152624c4f4b60e81b604482015290519081900360640190fd5b6000805460ff60f01b1916905561163d612dfe565b60008054600160d81b900461ffff16906116596008838561422d565b6000805461ffff808416600160d81b81027fffffff0000ffffffffffffffffffffffffffffffffffffffffffffffffffffff909316929092179092559192508316146116e0576040805161ffff80851682528316602082015281517fac49e518f90a358f652e4400164f05a5d8f7e35e7747279bc3a93dbf584e125a929181900390910190a15b50506000805460ff60f01b1916600160f01b17905550565b6000546001600160a01b03811690600160a01b810460020b9061ffff600160b81b8204811691600160c81b8104821691600160d81b8204169060ff600160e81b8204811691600160f01b90041687565b600080548190600160f01b900460ff1661178f576040805162461bcd60e51b81526020600482015260036024820152624c4f4b60e81b604482015290519081900360640190fd5b6000805460ff60f01b191690556001600160801b0385166117af57600080fd5b6000806117fd60405180608001604052808c6001600160a01b031681526020018b60020b81526020018a60020b81526020016117f38a6001600160801b03166142ec565b600f0b90526142fd565b9250925050819350809250600080600086111561181f5761181c613ff0565b91505b84156118305761182d614167565b90505b336001600160a01b031663d348799787878b8b6040518563ffffffff1660e01b815260040180858152602001848152602001806020018281038252848482818152602001925080828437600081840152601f19601f82011690508083019250505095505050505050600060405180830381600087803b1580156118b257600080fd5b505af11580156118c6573d6000803e3d6000fd5b505050506000861115611938576118db613ff0565b6118e58388614157565b1115611938576040805162461bcd60e51b815260206004820152600260248201527f4d30000000000000000000000000000000000000000000000000000000000000604482015290519081900360640190fd5b84156119a357611946614167565b6119508287614157565b11156119a3576040805162461bcd60e51b815260206004820152600260248201527f4d31000000000000000000000000000000000000000000000000000000000000604482015290519081900360640190fd5b8960020b8b60020b8d6001600160a01b03167f7a53080ba414158be7ec69b987b5fb7d07dee101fe85488f0853ae16239d0bde338d8b8b60405180856001600160a01b03168152602001846001600160801b0316815260200183815260200182815260200194505050505060405180910390a450506000805460ff60f01b1916600160f01b17905550919890975095505050505050565b60025481565b600054600160f01b900460ff16611a84576040805162461bcd60e51b81526020600482015260036024820152624c4f4b60e81b604482015290519081900360640190fd5b6000805460ff60f01b19169055611a99612dfe565b6004546001600160801b031680611af7576040805162461bcd60e51b815260206004820152600160248201527f4c00000000000000000000000000000000000000000000000000000000000000604482015290519081900360640190fd5b6000611b2c867f000000000000000000000000000000000000000000000000000000000000000062ffffff16620f424061457a565b90506000611b63867f000000000000000000000000000000000000000000000000000000000000000062ffffff16620f424061457a565b90506000611b6f613ff0565b90506000611b7b614167565b90508815611bae57611bae7f00000000000000000000000000000000000000000000000000000000000000008b8b613e59565b8715611bdf57611bdf7f00000000000000000000000000000000000000000000000000000000000000008b8a613e59565b336001600160a01b031663e9cbafb085858a8a6040518563ffffffff1660e01b815260040180858152602001848152602001806020018281038252848482818152602001925080828437600081840152601f19601f82011690508083019250505095505050505050600060405180830381600087803b158015611c6157600080fd5b505af1158015611c75573d6000803e3d6000fd5b505050506000611c83613ff0565b90506000611c8f614167565b905081611c9c8588614157565b1115611cef576040805162461bcd60e51b815260206004820152600260248201527f4630000000000000000000000000000000000000000000000000000000000000604482015290519081900360640190fd5b80611cfa8487614157565b1115611d4d576040805162461bcd60e51b815260206004820152600260248201527f4631000000000000000000000000000000000000000000000000000000000000604482015290519081900360640190fd5b8382038382038115611de55760008054600160e81b9004600f16908115611d80578160ff168481611d7a57fe5b04611d83565b60005b90506001600160801b03811615611dbf57600380546001600160801b038082168401166fffffffffffffffffffffffffffffffff199091161790555b611dd9818503600160801b8d6001600160801b031661351f565b60018054909101905550505b8015611e705760008054600160e81b900460041c600f16908115611e15578160ff168381611e0f57fe5b04611e18565b60005b90506001600160801b03811615611e4a57600380546001600160801b03600160801b8083048216850182160291161790555b611e64818403600160801b8d6001600160801b031661351f565b60028054909101905550505b8d6001600160a01b0316336001600160a01b03167fbdbdb71d7860376ba52b25a5028beea23581364a40522f6bcfb86bb1f2dca6338f8f86866040518085815260200184815260200183815260200182815260200194505050505060405180910390a350506000805460ff60f01b1916600160f01b179055505050505050505050505050565b600080548190600160f01b900460ff16611f3d576040805162461bcd60e51b81526020600482015260036024820152624c4f4b60e81b604482015290519081900360640190fd5b6000805460ff60f01b19168155611f5760073389896145b4565b60038101549091506001600160801b0390811690861611611f785784611f87565b60038101546001600160801b03165b60038201549093506001600160801b03600160801b909104811690851611611faf5783611fc5565b6003810154600160801b90046001600160801b03165b91506001600160801b03831615612033576003810180546fffffffffffffffffffffffffffffffff1981166001600160801b03918216869003821617909155612033907f0000000000000000000000000000000000000000000000000000000000000000908a908616613e59565b6001600160801b03821615612099576003810180546001600160801b03600160801b808304821686900382160291811691909117909155612099907f0000000000000000000000000000000000000000000000000000000000000000908a908516613e59565b604080516001600160a01b038a1681526001600160801b0380861660208301528416818301529051600288810b92908a900b9133917f70935338e69775456a85ddef226c395fb668b63fa0115f5f20610b388e6ca9c0919081900360600190a4506000805460ff60f01b1916600160f01b17905590969095509350505050565b60076020526000908152604090208054600182015460028301546003909301546001600160801b0392831693919281811691600160801b90041685565b60066020526000908152604090205481565b7f000000000000000000000000000000000000000000000000000000000000000081565b600054600160f01b900460ff166121d0576040805162461bcd60e51b81526020600482015260036024820152624c4f4b60e81b604482015290519081900360640190fd5b6000805460ff60f01b19169055604080517f8da5cb5b00000000000000000000000000000000000000000000000000000000815290516001600160a01b037f00000000000000000000000000000000000000000000000000000000000000001691638da5cb5b916004808301926020929190829003018186803b15801561225657600080fd5b505afa15801561226a573d6000803e3d6000fd5b505050506040513d602081101561228057600080fd5b50516001600160a01b0316331461229657600080fd5b60ff821615806122b9575060048260ff16101580156122b95750600a8260ff1611155b80156122e3575060ff811615806122e3575060048160ff16101580156122e35750600a8160ff1611155b6122ec57600080fd5b60008054610ff0600484901b16840160ff908116600160e81b9081027fffff00ffffffffffffffffffffffffffffffffffffffffffffffffffffffffff841617909355919004167f973d8d92bb299f4af6ce49b52a8adb85ae46b9f214c4c4fc06ac77401237b1336010826040805160ff9390920683168252600f600486901c16602083015286831682820152918516606082015290519081900360800190a150506000805460ff60f01b1916600160f01b17905550565b600080548190600160f01b900460ff166123eb576040805162461bcd60e51b81526020600482015260036024820152624c4f4b60e81b604482015290519081900360640190fd5b6000805460ff60f01b19169055604080517f8da5cb5b00000000000000000000000000000000000000000000000000000000815290516001600160a01b037f00000000000000000000000000000000000000000000000000000000000000001691638da5cb5b916004808301926020929190829003018186803b15801561247157600080fd5b505afa158015612485573d6000803e3d6000fd5b505050506040513d602081101561249b57600080fd5b50516001600160a01b031633146124b157600080fd5b6003546001600160801b03908116908516116124cd57836124da565b6003546001600160801b03165b6003549092506001600160801b03600160801b9091048116908416116125005782612514565b600354600160801b90046001600160801b03165b90506001600160801b0382161561259e576003546001600160801b038381169116141561254357600019909101905b600380546fffffffffffffffffffffffffffffffff1981166001600160801b0391821685900382161790915561259e907f00000000000000000000000000000000000000000000000000000000000000009087908516613e59565b6001600160801b03811615612624576003546001600160801b03828116600160801b9092041614156125cf57600019015b600380546001600160801b03600160801b808304821685900382160291811691909117909155612624907f00000000000000000000000000000000000000000000000000000000000000009087908416613e59565b604080516001600160801b0380851682528316602082015281516001600160a01b0388169233927f596b573906218d3411850b26a6b437d6c4522fdb43d2d2386263f86d50b8b151929081900390910190a36000805460ff60f01b1916600160f01b1790559094909350915050565b60608061269e612dfe565b6127156126a9612e35565b858580806020026020016040519081016040528093929190818152602001838360200280828437600092018290525054600454600896959450600160a01b820460020b935061ffff600160b81b8304811693506001600160801b0390911691600160c81b90041661462b565b915091509250929050565b600080548190600160f01b900460ff16612767576040805162461bcd60e51b81526020600482015260036024820152624c4f4b60e81b604482015290519081900360640190fd5b6000805460ff60f01b1916815560408051608081018252338152600288810b602083015287900b91810191909152819081906127c090606081016127b36001600160801b038a166142ec565b600003600f0b90526142fd565b92509250925081600003945080600003935060008511806127e15750600084115b15612829576003830180546001600160801b038082168089018216600160801b93849004831689019092169092029091176fffffffffffffffffffffffffffffffff19161790555b604080516001600160801b0388168152602081018790528082018690529051600289810b92908b900b9133917f0c396cd989a39f4459b5fa1aed6a9a8dcdbc45908acfd67e028cd568da98982c919081900360600190a450506000805460ff60f01b1916600160f01b179055509094909350915050565b60008060006128ad612dfe565b6128b785856147a1565b600285810b810b60009081526005602052604080822087840b90930b825281206003830154600681900b9367010000000000000082046001600160a01b0316928492600160d81b810463ffffffff169284929091600160f81b900460ff168061291f57600080fd5b6003820154600681900b985067010000000000000081046001600160a01b03169650600160d81b810463ffffffff169450600160f81b900460ff168061296457600080fd5b50506040805160e0810182526000546001600160a01b0381168252600160a01b8104600290810b810b810b6020840181905261ffff600160b81b8404811695850195909552600160c81b830485166060850152600160d81b8304909416608084015260ff600160e81b8304811660a0850152600160f01b909204909116151560c08301529093508e810b91900b12159050612a0d57509390940396509003935090039050612a90565b8a60020b816020015160020b1215612a81576000612a29612e35565b6020830151604084015160045460608601519394506000938493612a5f936008938893879392916001600160801b0316906135cf565b9a9003989098039b505094909603929092039650909103039250612a90915050565b50949093039650039350900390505b9250925092565b7f000000000000000000000000000000000000000000000000000000000000000081565b7f000000000000000000000000000000000000000000000000000000000000000081565b7f000000000000000000000000000000000000000000000000000000000000000081565b7f000000000000000000000000000000000000000000000000000000000000000081565b60015481565b60056020526000908152604090208054600182015460028301546003909301546001600160801b03831693600160801b909304600f0b9290600681900b9067010000000000000081046001600160a01b031690600160d81b810463ffffffff1690600160f81b900460ff1688565b6000546001600160a01b031615612bf9576040805162461bcd60e51b815260206004820152600260248201527f4149000000000000000000000000000000000000000000000000000000000000604482015290519081900360640190fd5b6000612c0482613939565b9050600080612c1c612c14612e35565b6008906148b8565b6040805160e0810182526001600160a01b038816808252600288810b6020808501829052600085870181905261ffff898116606088018190529089166080880181905260a08801839052600160c0909801979097528154600160f01b73ffffffffffffffffffffffffffffffffffffffff1990911687177fffffffffffffffffff000000ffffffffffffffffffffffffffffffffffffffff16600160a01b62ffffff9787900b9790971696909602959095177fffffffffff00000000ffffffffffffffffffffffffffffffffffffffffffffff16600160c81b909102177fffffff0000ffffffffffffffffffffffffffffffffffffffffffffffffffffff16600160d81b909602959095177fff0000ffffffffffffffffffffffffffffffffffffffffffffffffffffffffff1692909217909355835191825281019190915281519395509193507f98636036cb66a9c19a37435efc1e90142190214e8abeb821bdba3f2990dd4c9592918290030190a150505050565b60008082600281900b620d89e71981612da757fe5b05029050600083600281900b620d89e881612dbe57fe5b0502905060008460020b83830360020b81612dd557fe5b0560010190508062ffffff166001600160801b03801681612df257fe5b0493505050505b919050565b306001600160a01b037f00000000000000000000000000000000000000000000000000000000000000001614612e3357600080fd5b565b4290565b60008060008460020b8660020b81612e4d57fe5b05905060008660020b128015612e7457508460020b8660020b81612e6d57fe5b0760020b15155b15612e7e57600019015b8315612ef357600080612e9083614904565b600182810b810b600090815260208d9052604090205460ff83169190911b80016000190190811680151597509294509092509085612ed557888360ff16860302612ee8565b88612edf82614916565b840360ff168603025b965050505050612f71565b600080612f0283600101614904565b91509150600060018260ff166001901b031990506000818b60008660010b60010b8152602001908152602001600020541690508060001415955085612f5457888360ff0360ff16866001010102612f6a565b8883612f5f836149b6565b0360ff168660010101025b9650505050505b5094509492505050565b60008060008360020b12612f92578260020b612f9a565b8260020b6000035b9050620d89e8811115612ff4576040805162461bcd60e51b815260206004820152600160248201527f5400000000000000000000000000000000000000000000000000000000000000604482015290519081900360640190fd5b60006001821661300857600160801b61301a565b6ffffcb933bd6fad37aa2d162d1a5940015b70ffffffffffffffffffffffffffffffffff169050600282161561304e576ffff97272373d413259a46990580e213a0260801c5b600482161561306d576ffff2e50f5f656932ef12357cf3c7fdcc0260801c5b600882161561308c576fffe5caca7e10e4e61c3624eaa0941cd00260801c5b60108216156130ab576fffcb9843d60f6159c9db58835c9266440260801c5b60208216156130ca576fff973b41fa98c081472e6896dfb254c00260801c5b60408216156130e9576fff2ea16466c96a3843ec78b326b528610260801c5b6080821615613108576ffe5dee046a99a2a811c461f1969c30530260801c5b610100821615613128576ffcbe86c7900a88aedcffc83b479aa3a40260801c5b610200821615613148576ff987a7253ac413176f2b074cf7815e540260801c5b610400821615613168576ff3392b0822b70005940c7a398e4b70f30260801c5b610800821615613188576fe7159475a2c29b7443b29c7fa6e889d90260801c5b6110008216156131a8576fd097f3bdfd2022b8845ad8f792aa58250260801c5b6120008216156131c8576fa9f746462d870fdf8a65dc1f90e061e50260801c5b6140008216156131e8576f70d869a156d2a1b890bb3df62baf32f70260801c5b618000821615613208576f31be135f97d08fd981231505542fcfa60260801c5b62010000821615613229576f09aa508b5b7a84e1c677de54f3e99bc90260801c5b62020000821615613249576e5d6af8dedb81196699c329225ee6040260801c5b62040000821615613268576d2216e584f5fa1ea926041bedfe980260801c5b62080000821615613285576b048a170391f7dc42444e8fa20260801c5b60008460020b13156132a057806000198161329c57fe5b0490505b6401000000008106156132b45760016132b7565b60005b60ff16602082901c0192505050919050565b60008080806001600160a01b03808916908a16101581871280159061334e5760006133028989620f42400362ffffff16620f424061351f565b90508261331b576133168c8c8c6001614b36565b613328565b6133288b8d8c6001614bc3565b9550858110613339578a9650613348565b6133458c8b8386614c80565b96505b50613398565b81613365576133608b8b8b6000614bc3565b613372565b6133728a8c8b6000614b36565b935083886000031061338657899550613398565b6133958b8a8a60000385614ccc565b95505b6001600160a01b038a81169087161482156133fb578080156133b75750815b6133cd576133c8878d8c6001614bc3565b6133cf565b855b95508080156133dc575081155b6133f2576133ed878d8c6000614b36565b6133f4565b845b9450613445565b8080156134055750815b61341b576134168c888c6001614b36565b61341d565b855b955080801561342a575081155b6134405761343b8c888c6000614bc3565b613442565b845b94505b8115801561345557508860000385115b15613461578860000394505b81801561348057508a6001600160a01b0316876001600160a01b031614155b1561348f5785890393506134ac565b6134a9868962ffffff168a620f42400362ffffff1661457a565b93505b50505095509550955095915050565b60007f800000000000000000000000000000000000000000000000000000000000000082106134e957600080fd5b5090565b8082038281131560008312151461350357600080fd5b92915050565b8181018281121560008312151461350357600080fd5b6000808060001985870986860292508281109083900303905080613555576000841161354a57600080fd5b5082900490506135c8565b80841161356157600080fd5b6000848688096000868103871696879004966002600389028118808a02820302808a02820302808a02820302808a02820302808a02820302808a02909103029181900381900460010186841190950394909402919094039290920491909117919091029150505b9392505050565b60008063ffffffff8716613676576000898661ffff1661ffff81106135f057fe5b60408051608081018252919092015463ffffffff8082168084526401000000008304600690810b810b900b6020850152600160581b83046001600160a01b031694840194909452600160f81b90910460ff16151560608301529092508a16146136625761365f818a8988614d18565b90505b806020015181604001519250925050613756565b86880360008061368b8c8c858c8c8c8c614dc8565b91509150816000015163ffffffff168363ffffffff1614156136bd578160200151826040015194509450505050613756565b805163ffffffff848116911614156136e5578060200151816040015194509450505050613756565b8151815160208085015190840151918390039286039163ffffffff80841692908516910360060b8161371357fe5b05028460200151018263ffffffff168263ffffffff1686604001518660400151036001600160a01b0316028161374557fe5b048560400151019650965050505050505b97509795505050505050565b600295860b860b60009081526020979097526040909620600181018054909503909455938301805490920390915560038201805463ffffffff600160d81b6001600160a01b036701000000000000008085048216909603169094027fffffffffff0000000000000000000000000000000000000000ffffffffffffff90921691909117600681810b90960390950b66ffffffffffffff1666ffffffffffffff19909516949094178281048516909503909316027fff00000000ffffffffffffffffffffffffffffffffffffffffffffffffffffff90931692909217905554600160801b9004600f0b90565b60008082600f0b12156138cd57826001600160801b03168260000384039150816001600160801b0316106138c8576040805162461bcd60e51b815260206004820152600260248201527f4c53000000000000000000000000000000000000000000000000000000000000604482015290519081900360640190fd5b613503565b826001600160801b03168284019150816001600160801b03161015613503576040805162461bcd60e51b815260206004820152600260248201527f4c41000000000000000000000000000000000000000000000000000000000000604482015290519081900360640190fd5b60006401000276a36001600160a01b03831610801590613975575073fffd8963efd1fc6a506488495d951d5263988d266001600160a01b038316105b6139c6576040805162461bcd60e51b815260206004820152600160248201527f5200000000000000000000000000000000000000000000000000000000000000604482015290519081900360640190fd5b77ffffffffffffffffffffffffffffffffffffffff00000000602083901b166001600160801b03811160071b81811c67ffffffffffffffff811160061b90811c63ffffffff811160051b90811c61ffff811160041b90811c60ff8111600390811b91821c600f811160021b90811c918211600190811b92831c97908811961790941790921717909117171760808110613a6757607f810383901c9150613a71565b80607f0383901b91505b908002607f81811c60ff83811c9190911c800280831c81831c1c800280841c81841c1c800280851c81851c1c800280861c81861c1c800280871c81871c1c800280881c81881c1c800280891c81891c1c8002808a1c818a1c1c8002808b1c818b1c1c8002808c1c818c1c1c8002808d1c818d1c1c8002808e1c9c81901c9c909c1c80029c8d901c9e9d607f198f0160401b60c09190911c678000000000000000161760c19b909b1c674000000000000000169a909a1760c29990991c672000000000000000169890981760c39790971c671000000000000000169690961760c49590951c670800000000000000169490941760c59390931c670400000000000000169290921760c69190911c670200000000000000161760c79190911c670100000000000000161760c89190911c6680000000000000161760c99190911c6640000000000000161760ca9190911c6620000000000000161760cb9190911c6610000000000000161760cc9190911c6608000000000000161760cd9190911c66040000000000001617693627a301d71055774c8581027ffffffffffffffffffffffffffffffffffd709b7e5480fba5a50fed5e62ffc5568101608090811d906fdb2df09e81959a81455e260799a0632f8301901d600281810b9083900b14613c8157886001600160a01b0316613c6582612f7b565b6001600160a01b03161115613c7a5781613c7c565b805b613c83565b815b9998505050505050505050565b6000806000898961ffff1661ffff8110613ca657fe5b60408051608081018252919092015463ffffffff8082168084526401000000008304600690810b810b900b6020850152600160581b83046001600160a01b031694840194909452600160f81b90910460ff161515606083015290925089161415613d165788859250925050613756565b8461ffff168461ffff16118015613d3757506001850361ffff168961ffff16145b15613d4457839150613d48565b8491505b8161ffff168960010161ffff1681613d5c57fe5b069250613d6b81898989614d18565b8a8461ffff1661ffff8110613d7c57fe5b825191018054602084015160408501516060909501511515600160f81b027effffffffffffffffffffffffffffffffffffffffffffffffffffffffffffff6001600160a01b03909616600160581b027fff0000000000000000000000000000000000000000ffffffffffffffffffffff60069390930b66ffffffffffffff16640100000000027fffffffffffffffffffffffffffffffffffffffffff00000000000000ffffffff63ffffffff90971663ffffffff199095169490941795909516929092171692909217929092161790555097509795505050505050565b604080516001600160a01b038481166024830152604480830185905283518084039091018152606490920183526020820180517bffffffffffffffffffffffffffffffffffffffffffffffffffffffff167fa9059cbb000000000000000000000000000000000000000000000000000000001781529251825160009485949389169392918291908083835b60208310613f035780518252601f199092019160209182019101613ee4565b6001836020036101000a0380198251168184511680821785525050505050509050019150506000604051808303816000865af19150503d8060008114613f65576040519150601f19603f3d011682016040523d82523d6000602084013e613f6a565b606091505b5091509150818015613f98575080511580613f985750808060200190516020811015613f9557600080fd5b50515b613fe9576040805162461bcd60e51b815260206004820152600260248201527f5446000000000000000000000000000000000000000000000000000000000000604482015290519081900360640190fd5b5050505050565b604080513060248083019190915282518083039091018152604490910182526020810180517bffffffffffffffffffffffffffffffffffffffffffffffffffffffff167f70a082310000000000000000000000000000000000000000000000000000000017815291518151600093849384936001600160a01b037f00000000000000000000000000000000000000000000000000000000000000001693919290918291908083835b602083106140b75780518252601f199092019160209182019101614098565b6001836020036101000a038019825116818451168082178552505050505050905001915050600060405180830381855afa9150503d8060008114614117576040519150601f19603f3d011682016040523d82523d6000602084013e61411c565b606091505b509150915081801561413057506020815110155b61413957600080fd5b80806020019051602081101561414e57600080fd5b50519250505090565b8082018281101561350357600080fd5b604080513060248083019190915282518083039091018152604490910182526020810180517bffffffffffffffffffffffffffffffffffffffffffffffffffffffff167f70a082310000000000000000000000000000000000000000000000000000000017815291518151600093849384936001600160a01b037f0000000000000000000000000000000000000000000000000000000000000000169391929091829190808383602083106140b75780518252601f199092019160209182019101614098565b6000808361ffff1611614287576040805162461bcd60e51b815260206004820152600160248201527f4900000000000000000000000000000000000000000000000000000000000000604482015290519081900360640190fd5b8261ffff168261ffff161161429d5750816135c8565b825b8261ffff168161ffff1610156142e3576001858261ffff1661ffff81106142c257fe5b01805463ffffffff191663ffffffff9290921691909117905560010161429f565b50909392505050565b80600f81900b8114612df957600080fd5b600080600061430a612dfe565b61431c846020015185604001516147a1565b6040805160e0810182526000546001600160a01b0381168252600160a01b8104600290810b810b900b602080840182905261ffff600160b81b8404811685870152600160c81b84048116606080870191909152600160d81b8504909116608086015260ff600160e81b8504811660a0870152600160f01b909404909316151560c0850152885190890151948901519289015193946143c09491939092909190614fdf565b93508460600151600f0b60001461457257846020015160020b816020015160020b12156144155761440e6143f78660200151612f7b565b6144048760400151612f7b565b8760600151615194565b9250614572565b846040015160020b816020015160020b12156145485760045460408201516001600160801b03909116906144679061444b612e35565b6020850151606086015160808701516008949392918791613c90565b600080547fffffffffff0000ffffffffffffffffffffffffffffffffffffffffffffffffff16600160c81b61ffff93841602177fffffffffffffff0000ffffffffffffffffffffffffffffffffffffffffffffff16600160b81b9390921692909202179055815160408701516144eb91906144e190612f7b565b8860600151615194565b93506145096144fd8760200151612f7b565b835160608901516151d8565b925061451981876060015161384d565b600480546fffffffffffffffffffffffffffffffff19166001600160801b039290921691909117905550614572565b61456f6145588660200151612f7b565b6145658760400151612f7b565b87606001516151d8565b91505b509193909250565b600061458784848461351f565b90506000828061459357fe5b84860911156135c85760001981106145aa57600080fd5b6001019392505050565b6040805160609490941b7fffffffffffffffffffffffffffffffffffffffff00000000000000000000000016602080860191909152600293840b60e890811b60348701529290930b90911b60378401528051808403601a018152603a90930181528251928201929092206000908152929052902090565b60608060008361ffff1611614687576040805162461bcd60e51b815260206004820152600160248201527f4900000000000000000000000000000000000000000000000000000000000000604482015290519081900360640190fd5b865167ffffffffffffffff8111801561469f57600080fd5b506040519080825280602002602001820160405280156146c9578160200160208202803683370190505b509150865167ffffffffffffffff811180156146e457600080fd5b5060405190808252806020026020018201604052801561470e578160200160208202803683370190505b50905060005b87518110156147945761473f8a8a8a848151811061472e57fe5b60200260200101518a8a8a8a6135cf565b84838151811061474b57fe5b6020026020010184848151811061475e57fe5b60200260200101826001600160a01b03166001600160a01b03168152508260060b60060b81525050508080600101915050614714565b5097509795505050505050565b8060020b8260020b126147fb576040805162461bcd60e51b815260206004820152600360248201527f544c550000000000000000000000000000000000000000000000000000000000604482015290519081900360640190fd5b620d89e719600283900b1215614858576040805162461bcd60e51b815260206004820152600360248201527f544c4d0000000000000000000000000000000000000000000000000000000000604482015290519081900360640190fd5b620d89e8600282900b13156148b4576040805162461bcd60e51b815260206004820152600360248201527f54554d0000000000000000000000000000000000000000000000000000000000604482015290519081900360640190fd5b5050565b6040805160808101825263ffffffff9283168082526000602083018190529282019290925260016060909101819052835463ffffffff1916909117909116600160f81b17909155908190565b60020b600881901d9161010090910790565b600080821161492457600080fd5b600160801b821061493757608091821c91015b68010000000000000000821061494f57604091821c91015b640100000000821061496357602091821c91015b62010000821061497557601091821c91015b610100821061498657600891821c91015b6010821061499657600491821c91015b600482106149a657600291821c91015b60028210612df957600101919050565b60008082116149c457600080fd5b5060ff6001600160801b038216156149df57607f19016149e7565b608082901c91505b67ffffffffffffffff821615614a1e577fffffffffffffffffffffffffffffffffffffffffffffffffffffffffffffffc001614a26565b604082901c91505b63ffffffff821615614a3b57601f1901614a43565b602082901c91505b61ffff821615614a74577ffffffffffffffffffffffffffffffffffffffffffffffffffffffffffffffff001614a7c565b601082901c91505b60ff821615614aac577ffffffffffffffffffffffffffffffffffffffffffffffffffffffffffffffff801614ab4565b600882901c91505b600f821615614ae4577ffffffffffffffffffffffffffffffffffffffffffffffffffffffffffffffffc01614aec565b600482901c91505b6003821615614b1c577ffffffffffffffffffffffffffffffffffffffffffffffffffffffffffffffffe01614b24565b600282901c91505b6001821615612df95760001901919050565b6000836001600160a01b0316856001600160a01b03161115614b56579293925b81614b8c57614b87836001600160801b03168686036001600160a01b03166c0100000000000000000000000061351f565b614bb8565b614bb8836001600160801b03168686036001600160a01b03166c0100000000000000000000000061457a565b90505b949350505050565b6000836001600160a01b0316856001600160a01b03161115614be3579293925b7bffffffffffffffffffffffffffffffff000000000000000000000000606084901b166001600160a01b038686038116908716614c1f57600080fd5b83614c4f57866001600160a01b0316614c428383896001600160a01b031661351f565b81614c4957fe5b04614c75565b614c75614c668383896001600160a01b031661457a565b886001600160a01b0316615207565b979650505050505050565b600080856001600160a01b031611614c9757600080fd5b6000846001600160801b031611614cad57600080fd5b81614cbf57614b878585856001615212565b614bb88585856001615305565b600080856001600160a01b031611614ce357600080fd5b6000846001600160801b031611614cf957600080fd5b81614d0b57614b878585856000615305565b614bb88585856000615212565b614d20615bd5565b600085600001518503905060405180608001604052808663ffffffff1681526020018263ffffffff168660020b0288602001510160060b81526020016000856001600160801b031611614d74576001614d76565b845b6001600160801b031673ffffffff00000000000000000000000000000000608085901b1681614da157fe5b048860400151016001600160a01b0316815260200160011515815250915050949350505050565b614dd0615bd5565b614dd8615bd5565b888561ffff1661ffff8110614de957fe5b60408051608081018252919092015463ffffffff81168083526401000000008204600690810b810b900b6020840152600160581b82046001600160a01b031693830193909352600160f81b900460ff16151560608201529250614e4e908990896153fa565b15614e86578663ffffffff16826000015163ffffffff161415614e7057613756565b81614e7d83898988614d18565b91509150613756565b888361ffff168660010161ffff1681614e9b57fe5b0661ffff1661ffff8110614eab57fe5b60408051608081018252929091015463ffffffff811683526401000000008104600690810b810b900b60208401526001600160a01b03600160581b8204169183019190915260ff600160f81b90910416151560608201819052909250614f6257604080516080810182528a5463ffffffff811682526401000000008104600690810b810b900b6020830152600160581b81046001600160a01b031692820192909252600160f81b90910460ff161515606082015291505b614f71888360000151896153fa565b614fc2576040805162461bcd60e51b815260206004820152600360248201527f4f4c440000000000000000000000000000000000000000000000000000000000604482015290519081900360640190fd5b614fcf89898988876154bd565b9150915097509795505050505050565b6000614fee60078787876145b4565b60015460025491925090600080600f87900b1561513457600061500f612e35565b60008054600454929350909182916150599160089186918591600160a01b810460020b9161ffff600160b81b83048116926001600160801b0390921691600160c81b9004166135cf565b909250905061509360058d8b8d8b8b87898b60007f000000000000000000000000000000000000000000000000000000000000000061565d565b94506150ca60058c8b8d8b8b87898b60017f000000000000000000000000000000000000000000000000000000000000000061565d565b935084156150fe576150fe60068d7f0000000000000000000000000000000000000000000000000000000000000000615883565b83156151305761513060068c7f0000000000000000000000000000000000000000000000000000000000000000615883565b5050505b60008061514660058c8c8b8a8a6158e9565b9092509050615157878a8484615995565b600089600f0b12156151855783156151745761517460058c615b57565b82156151855761518560058b615b57565b50505050505095945050505050565b60008082600f0b126151ba576151b56151b08585856001614bc3565b6134bb565b614bbb565b6151cd6151b08585856000036000614bc3565b600003949350505050565b60008082600f0b126151f4576151b56151b08585856001614b36565b6151cd6151b08585856000036000614b36565b808204910615150190565b6000811561528e5760006001600160a01b038411156152515761524c846c01000000000000000000000000876001600160801b031661351f565b615269565b6001600160801b038516606085901b8161526757fe5b045b90506152866152816001600160a01b03881683614157565b615b83565b915050614bbb565b60006001600160a01b038411156152c5576152c0846c01000000000000000000000000876001600160801b031661457a565b6152dc565b6152dc606085901b6001600160801b038716615207565b905080866001600160a01b0316116152f357600080fd5b6001600160a01b038616039050614bbb565b600082615313575083614bbb565b7bffffffffffffffffffffffffffffffff000000000000000000000000606085901b1682156153b3576001600160a01b0386168481029085828161535357fe5b041415615384578181018281106153825761537883896001600160a01b03168361457a565b9350505050614bbb565b505b6153aa826153a5878a6001600160a01b0316868161539e57fe5b0490614157565b615207565b92505050614bbb565b6001600160a01b038616848102908582816153ca57fe5b041480156153d757508082115b6153e057600080fd5b808203615378615281846001600160a01b038b168461457a565b60008363ffffffff168363ffffffff161115801561542457508363ffffffff168263ffffffff1611155b15615440578163ffffffff168363ffffffff16111590506135c8565b60008463ffffffff168463ffffffff1611615468578363ffffffff1664010000000001615470565b8363ffffffff165b64ffffffffff16905060008563ffffffff168463ffffffff16116154a1578363ffffffff16640100000000016154a9565b8363ffffffff165b64ffffffffff169091111595945050505050565b6154c5615bd5565b6154cd615bd5565b60008361ffff168560010161ffff16816154e357fe5b0661ffff169050600060018561ffff16830103905060005b506002818301048961ffff8716828161551057fe5b0661ffff811061551c57fe5b60408051608081018252929091015463ffffffff811683526401000000008104600690810b810b900b60208401526001600160a01b03600160581b8204169183019190915260ff600160f81b90910416151560608201819052909550615587578060010192506154fb565b898661ffff16826001018161559857fe5b0661ffff81106155a457fe5b60408051608081018252929091015463ffffffff811683526401000000008104600690810b810b900b60208401526001600160a01b03600160581b8204169183019190915260ff600160f81b9091041615156060820152855190945060009061560f908b908b6153fa565b905080801561562857506156288a8a87600001516153fa565b156156335750615650565b806156435760018203925061564a565b8160010193505b506154fb565b5050509550959350505050565b60028a810b900b600090815260208c90526040812080546001600160801b031682615688828d61384d565b9050846001600160801b0316816001600160801b031611156156f1576040805162461bcd60e51b815260206004820152600260248201527f4c4f000000000000000000000000000000000000000000000000000000000000604482015290519081900360640190fd5b6001600160801b0382811615908216158114159450156157df578c60020b8e60020b136157af57600183018b9055600283018a90556003830180547fffffffffff0000000000000000000000000000000000000000ffffffffffffff166701000000000000006001600160a01b038c16021766ffffffffffffff191666ffffffffffffff60068b900b16177fff00000000ffffffffffffffffffffffffffffffffffffffffffffffffffffff16600160d81b63ffffffff8a16021790555b6003830180547effffffffffffffffffffffffffffffffffffffffffffffffffffffffffffff16600160f81b1790555b82546fffffffffffffffffffffffffffffffff19166001600160801b0382161783558561583157825461582c9061582790600160801b9004600f90810b810b908f900b613509565b6142ec565b615852565b82546158529061582790600160801b9004600f90810b810b908f900b6134ed565b8354600f9190910b6001600160801b03908116600160801b0291161790925550909c9b505050505050505050505050565b8060020b8260020b8161589257fe5b0760020b156158a057600080fd5b6000806158bb8360020b8560020b816158b557fe5b05614904565b600191820b820b60009081526020979097526040909620805460ff9097169190911b90951890945550505050565b600285810b80820b60009081526020899052604080822088850b850b83529082209193849391929184918291908a900b1261592f57505060018201546002830154615942565b8360010154880391508360020154870390505b6000808b60020b8b60020b121561596457505060018301546002840154615977565b84600101548a0391508460020154890390505b92909803979097039b96909503949094039850939650505050505050565b6040805160a08101825285546001600160801b0390811682526001870154602083015260028701549282019290925260038601548083166060830152600160801b900490911660808201526000600f85900b615a4f5781516001600160801b0316615a47576040805162461bcd60e51b815260206004820152600260248201527f4e50000000000000000000000000000000000000000000000000000000000000604482015290519081900360640190fd5b508051615a5e565b8151615a5b908661384d565b90505b6000615a828360200151860384600001516001600160801b0316600160801b61351f565b90506000615aa88460400151860385600001516001600160801b0316600160801b61351f565b905086600f0b600014615ad85787546fffffffffffffffffffffffffffffffff19166001600160801b0384161788555b60018801869055600288018590556001600160801b038216151580615b0657506000816001600160801b0316115b15615b4d576003880180546fffffffffffffffffffffffffffffffff1981166001600160801b039182168501821617808216600160801b9182900483168501909216021790555b5050505050505050565b600290810b810b6000908152602092909252604082208281556001810183905590810182905560030155565b806001600160a01b0381168114612df957600080fd5b6040805160e081018252600080825260208201819052918101829052606081018290526080810182905260a0810182905260c081019190915290565b6040805160808101825260008082526020820181905291810182905260608101919091529056fea2646970667358221220882421bf256ed91eaa30dab35decebb7d5d3cfd8bb2bf3c6c3ed4f25d2d6fbd064736f6c63430007060033",
			"opcodes": "PUSH2 0x160 PUSH1 0x40 MSTORE CALLVALUE DUP1 ISZERO PUSH3 0x12 JUMPI PUSH1 0x0 DUP1 REVERT JUMPDEST POP ADDRESS PUSH1 0x60 SHL PUSH1 0x80 MSTORE PUSH1 0x40 DUP1 MLOAD PUSH4 0x8903573 PUSH1 0xE4 SHL DUP2 MSTORE SWAP1 MLOAD PUSH1 0x0 SWAP2 CALLER SWAP2 PUSH4 0x89035730 SWAP2 PUSH1 0x4 DUP1 DUP3 ADD SWAP3 PUSH1 0xA0 SWAP3 SWAP1 SWAP2 SWAP1 DUP3 SWAP1 SUB ADD DUP2 DUP7 DUP1 EXTCODESIZE ISZERO DUP1 ISZERO PUSH3 0x56 JUMPI PUSH1 0x0 DUP1 REVERT JUMPDEST POP GAS STATICCALL ISZERO DUP1 ISZERO PUSH3 0x6B JUMPI RETURNDATASIZE PUSH1 0x0 DUP1 RETURNDATACOPY RETURNDATASIZE PUSH1 0x0 REVERT JUMPDEST POP POP POP POP PUSH1 0x40 MLOAD RETURNDATASIZE PUSH1 0xA0 DUP2 LT ISZERO PUSH3 0x82 JUMPI PUSH1 0x0 DUP1 REVERT JUMPDEST POP DUP1 MLOAD PUSH1 0x20 DUP1 DUP4 ADD MLOAD PUSH1 0x40 DUP5 ADD MLOAD PUSH1 0x60 DUP1 DUP7 ADD MLOAD PUSH1 0x80 SWAP1 SWAP7 ADD MLOAD PUSH1 0xE8 SWAP7 DUP8 SHL PUSH1 0x1 PUSH1 0x1 PUSH1 0xE8 SHL SUB NOT AND PUSH2 0x100 MSTORE SWAP2 DUP2 SHL PUSH1 0x1 PUSH1 0x1 PUSH1 0x60 SHL SUB NOT SWAP1 DUP2 AND PUSH1 0xE0 MSTORE SWAP3 DUP2 SHL DUP4 AND PUSH1 0xC0 MSTORE SWAP4 SWAP1 SWAP4 SHL AND PUSH1 0xA0 MSTORE PUSH1 0x2 DUP3 DUP2 SIGNEXTEND SWAP1 SIGNEXTEND SWAP1 SWAP3 SHL PUSH2 0x120 MSTORE SWAP2 POP PUSH3 0xF7 SWAP1 DUP3 SWAP1 PUSH3 0x10F DUP2 SHL PUSH3 0x2D92 OR SWAP1 SHR JUMP JUMPDEST PUSH1 0x80 SHL PUSH1 0x1 PUSH1 0x1 PUSH1 0x80 SHL SUB NOT AND PUSH2 0x140 MSTORE POP PUSH3 0x17D JUMP JUMPDEST PUSH1 0x0 DUP1 DUP3 PUSH1 0x2 DUP2 SWAP1 SIGNEXTEND PUSH3 0xD89E7 NOT DUP2 PUSH3 0x125 JUMPI INVALID JUMPDEST SDIV MUL SWAP1 POP PUSH1 0x0 DUP4 PUSH1 0x2 DUP2 SWAP1 SIGNEXTEND PUSH3 0xD89E8 DUP2 PUSH3 0x13D JUMPI INVALID JUMPDEST SDIV MUL SWAP1 POP PUSH1 0x0 DUP5 PUSH1 0x2 SIGNEXTEND DUP4 DUP4 SUB PUSH1 0x2 SIGNEXTEND DUP2 PUSH3 0x155 JUMPI INVALID JUMPDEST SDIV PUSH1 0x1 ADD SWAP1 POP DUP1 PUSH3 0xFFFFFF AND PUSH1 0x1 PUSH1 0x1 PUSH1 0x80 SHL SUB DUP1 AND DUP2 PUSH3 0x173 JUMPI INVALID JUMPDEST DIV SWAP6 SWAP5 POP POP POP POP POP JUMP JUMPDEST PUSH1 0x80 MLOAD PUSH1 0x60 SHR PUSH1 0xA0 MLOAD PUSH1 0x60 SHR PUSH1 0xC0 MLOAD PUSH1 0x60 SHR PUSH1 0xE0 MLOAD PUSH1 0x60 SHR PUSH2 0x100 MLOAD PUSH1 0xE8 SHR PUSH2 0x120 MLOAD PUSH1 0xE8 SHR PUSH2 0x140 MLOAD PUSH1 0x80 SHR PUSH2 0x5C32 PUSH3 0x24A PUSH1 0x0 CODECOPY DUP1 PUSH2 0x216A MSTORE DUP1 PUSH2 0x506F MSTORE DUP1 PUSH2 0x50A6 MSTORE POP DUP1 PUSH2 0xC35 MSTORE DUP1 PUSH2 0x2ABD MSTORE DUP1 PUSH2 0x50DA MSTORE DUP1 PUSH2 0x510C MSTORE POP DUP1 PUSH2 0xD24 MSTORE DUP1 PUSH2 0x1AFF MSTORE DUP1 PUSH2 0x1B36 MSTORE DUP1 PUSH2 0x2B05 MSTORE POP DUP1 PUSH2 0x125B MSTORE DUP1 PUSH2 0x1BB9 MSTORE DUP1 PUSH2 0x2070 MSTORE DUP1 PUSH2 0x25FB MSTORE DUP1 PUSH2 0x2AE1 MSTORE DUP1 PUSH2 0x41E3 MSTORE POP DUP1 PUSH2 0x8D2 MSTORE DUP1 PUSH2 0x13A3 MSTORE DUP1 PUSH2 0x1B88 MSTORE DUP1 PUSH2 0x200A MSTORE DUP1 PUSH2 0x2575 MSTORE DUP1 PUSH2 0x406C MSTORE POP DUP1 PUSH2 0x2210 MSTORE DUP1 PUSH2 0x242B MSTORE DUP1 PUSH2 0x2A99 MSTORE POP DUP1 PUSH2 0x2E09 MSTORE POP PUSH2 0x5C32 PUSH1 0x0 RETURN INVALID PUSH1 0x80 PUSH1 0x40 MSTORE CALLVALUE DUP1 ISZERO PUSH2 0x10 JUMPI PUSH1 0x0 DUP1 REVERT JUMPDEST POP PUSH1 0x4 CALLDATASIZE LT PUSH2 0x1AE JUMPI PUSH1 0x0 CALLDATALOAD PUSH1 0xE0 SHR DUP1 PUSH4 0x70CF754A GT PUSH2 0xEE JUMPI DUP1 PUSH4 0xC45A0155 GT PUSH2 0x97 JUMPI DUP1 PUSH4 0xDDCA3F43 GT PUSH2 0x71 JUMPI DUP1 PUSH4 0xDDCA3F43 EQ PUSH2 0x800 JUMPI DUP1 PUSH4 0xF3058399 EQ PUSH2 0x820 JUMPI DUP1 PUSH4 0xF30DBA93 EQ PUSH2 0x828 JUMPI DUP1 PUSH4 0xF637731D EQ PUSH2 0x8AA JUMPI PUSH2 0x1AE JUMP JUMPDEST DUP1 PUSH4 0xC45A0155 EQ PUSH2 0x7D1 JUMPI DUP1 PUSH4 0xD0C93A7C EQ PUSH2 0x7D9 JUMPI DUP1 PUSH4 0xD21220A7 EQ PUSH2 0x7F8 JUMPI PUSH2 0x1AE JUMP JUMPDEST DUP1 PUSH4 0x883BDBFD GT PUSH2 0xC8 JUMPI DUP1 PUSH4 0x883BDBFD EQ PUSH2 0x633 JUMPI DUP1 PUSH4 0xA34123A7 EQ PUSH2 0x73C JUMPI DUP1 PUSH4 0xA38807F2 EQ PUSH2 0x776 JUMPI PUSH2 0x1AE JUMP JUMPDEST DUP1 PUSH4 0x70CF754A EQ PUSH2 0x5C6 JUMPI DUP1 PUSH4 0x8206A4D1 EQ PUSH2 0x5CE JUMPI DUP1 PUSH4 0x85B66729 EQ PUSH2 0x5F6 JUMPI PUSH2 0x1AE JUMP JUMPDEST DUP1 PUSH4 0x3850C7BD GT PUSH2 0x15B JUMPI DUP1 PUSH4 0x490E6CBC GT PUSH2 0x135 JUMPI DUP1 PUSH4 0x490E6CBC EQ PUSH2 0x470 JUMPI DUP1 PUSH4 0x4F1EB3D8 EQ PUSH2 0x4FC JUMPI DUP1 PUSH4 0x514EA4BF EQ PUSH2 0x54D JUMPI DUP1 PUSH4 0x5339C296 EQ PUSH2 0x5A6 JUMPI PUSH2 0x1AE JUMP JUMPDEST DUP1 PUSH4 0x3850C7BD EQ PUSH2 0x35B JUMPI DUP1 PUSH4 0x3C8A7D8D EQ PUSH2 0x3B4 JUMPI DUP1 PUSH4 0x46141319 EQ PUSH2 0x456 JUMPI PUSH2 0x1AE JUMP JUMPDEST DUP1 PUSH4 0x1AD8B03B GT PUSH2 0x18C JUMPI DUP1 PUSH4 0x1AD8B03B EQ PUSH2 0x2AA JUMPI DUP1 PUSH4 0x252C09D7 EQ PUSH2 0x2E1 JUMPI DUP1 PUSH4 0x32148F67 EQ PUSH2 0x338 JUMPI PUSH2 0x1AE JUMP JUMPDEST DUP1 PUSH4 0xDFE1681 EQ PUSH2 0x1B3 JUMPI DUP1 PUSH4 0x128ACB08 EQ PUSH2 0x1D7 JUMPI DUP1 PUSH4 0x1A686502 EQ PUSH2 0x286 JUMPI JUMPDEST PUSH1 0x0 DUP1 REVERT JUMPDEST PUSH2 0x1BB PUSH2 0x8D0 JUMP JUMPDEST PUSH1 0x40 DUP1 MLOAD PUSH1 0x1 PUSH1 0x1 PUSH1 0xA0 SHL SUB SWAP1 SWAP3 AND DUP3 MSTORE MLOAD SWAP1 DUP2 SWAP1 SUB PUSH1 0x20 ADD SWAP1 RETURN JUMPDEST PUSH2 0x26D PUSH1 0x4 DUP1 CALLDATASIZE SUB PUSH1 0xA0 DUP2 LT ISZERO PUSH2 0x1ED JUMPI PUSH1 0x0 DUP1 REVERT JUMPDEST PUSH1 0x1 PUSH1 0x1 PUSH1 0xA0 SHL SUB DUP3 CALLDATALOAD DUP2 AND SWAP3 PUSH1 0x20 DUP2 ADD CALLDATALOAD ISZERO ISZERO SWAP3 PUSH1 0x40 DUP3 ADD CALLDATALOAD SWAP3 PUSH1 0x60 DUP4 ADD CALLDATALOAD AND SWAP2 SWAP1 DUP2 ADD SWAP1 PUSH1 0xA0 DUP2 ADD PUSH1 0x80 DUP3 ADD CALLDATALOAD PUSH5 0x100000000 DUP2 GT ISZERO PUSH2 0x22E JUMPI PUSH1 0x0 DUP1 REVERT JUMPDEST DUP3 ADD DUP4 PUSH1 0x20 DUP3 ADD GT ISZERO PUSH2 0x240 JUMPI PUSH1 0x0 DUP1 REVERT JUMPDEST DUP1 CALLDATALOAD SWAP1 PUSH1 0x20 ADD SWAP2 DUP5 PUSH1 0x1 DUP4 MUL DUP5 ADD GT PUSH5 0x100000000 DUP4 GT OR ISZERO PUSH2 0x262 JUMPI PUSH1 0x0 DUP1 REVERT JUMPDEST POP SWAP1 SWAP3 POP SWAP1 POP PUSH2 0x8F4 JUMP JUMPDEST PUSH1 0x40 DUP1 MLOAD SWAP3 DUP4 MSTORE PUSH1 0x20 DUP4 ADD SWAP2 SWAP1 SWAP2 MSTORE DUP1 MLOAD SWAP2 DUP3 SWAP1 SUB ADD SWAP1 RETURN JUMPDEST PUSH2 0x28E PUSH2 0x1575 JUMP JUMPDEST PUSH1 0x40 DUP1 MLOAD PUSH1 0x1 PUSH1 0x1 PUSH1 0x80 SHL SUB SWAP1 SWAP3 AND DUP3 MSTORE MLOAD SWAP1 DUP2 SWAP1 SUB PUSH1 0x20 ADD SWAP1 RETURN JUMPDEST PUSH2 0x2B2 PUSH2 0x1584 JUMP JUMPDEST PUSH1 0x40 MLOAD DUP1 DUP4 PUSH1 0x1 PUSH1 0x1 PUSH1 0x80 SHL SUB AND DUP2 MSTORE PUSH1 0x20 ADD DUP3 PUSH1 0x1 PUSH1 0x1 PUSH1 0x80 SHL SUB AND DUP2 MSTORE PUSH1 0x20 ADD SWAP3 POP POP POP PUSH1 0x40 MLOAD DUP1 SWAP2 SUB SWAP1 RETURN JUMPDEST PUSH2 0x2FE PUSH1 0x4 DUP1 CALLDATASIZE SUB PUSH1 0x20 DUP2 LT ISZERO PUSH2 0x2F7 JUMPI PUSH1 0x0 DUP1 REVERT JUMPDEST POP CALLDATALOAD PUSH2 0x159E JUMP JUMPDEST PUSH1 0x40 DUP1 MLOAD PUSH4 0xFFFFFFFF SWAP1 SWAP6 AND DUP6 MSTORE PUSH1 0x6 SWAP4 SWAP1 SWAP4 SIGNEXTEND PUSH1 0x20 DUP6 ADD MSTORE PUSH1 0x1 PUSH1 0x1 PUSH1 0xA0 SHL SUB SWAP1 SWAP2 AND DUP4 DUP4 ADD MSTORE ISZERO ISZERO PUSH1 0x60 DUP4 ADD MSTORE MLOAD SWAP1 DUP2 SWAP1 SUB PUSH1 0x80 ADD SWAP1 RETURN JUMPDEST PUSH2 0x359 PUSH1 0x4 DUP1 CALLDATASIZE SUB PUSH1 0x20 DUP2 LT ISZERO PUSH2 0x34E JUMPI PUSH1 0x0 DUP1 REVERT JUMPDEST POP CALLDATALOAD PUSH2 0xFFFF AND PUSH2 0x15E4 JUMP JUMPDEST STOP JUMPDEST PUSH2 0x363 PUSH2 0x16F8 JUMP JUMPDEST PUSH1 0x40 DUP1 MLOAD PUSH1 0x1 PUSH1 0x1 PUSH1 0xA0 SHL SUB SWAP1 SWAP9 AND DUP9 MSTORE PUSH1 0x2 SWAP7 SWAP1 SWAP7 SIGNEXTEND PUSH1 0x20 DUP9 ADD MSTORE PUSH2 0xFFFF SWAP5 DUP6 AND DUP8 DUP8 ADD MSTORE SWAP3 DUP5 AND PUSH1 0x60 DUP8 ADD MSTORE SWAP3 AND PUSH1 0x80 DUP6 ADD MSTORE PUSH1 0xFF SWAP1 SWAP2 AND PUSH1 0xA0 DUP5 ADD MSTORE ISZERO ISZERO PUSH1 0xC0 DUP4 ADD MSTORE MLOAD SWAP1 DUP2 SWAP1 SUB PUSH1 0xE0 ADD SWAP1 RETURN JUMPDEST PUSH2 0x26D PUSH1 0x4 DUP1 CALLDATASIZE SUB PUSH1 0xA0 DUP2 LT ISZERO PUSH2 0x3CA JUMPI PUSH1 0x0 DUP1 REVERT JUMPDEST PUSH1 0x1 PUSH1 0x1 PUSH1 0xA0 SHL SUB DUP3 CALLDATALOAD AND SWAP2 PUSH1 0x20 DUP2 ADD CALLDATALOAD PUSH1 0x2 SWAP1 DUP2 SIGNEXTEND SWAP3 PUSH1 0x40 DUP4 ADD CALLDATALOAD SWAP1 SWAP2 SIGNEXTEND SWAP2 PUSH1 0x1 PUSH1 0x1 PUSH1 0x80 SHL SUB PUSH1 0x60 DUP3 ADD CALLDATALOAD AND SWAP2 DUP2 ADD SWAP1 PUSH1 0xA0 DUP2 ADD PUSH1 0x80 DUP3 ADD CALLDATALOAD PUSH5 0x100000000 DUP2 GT ISZERO PUSH2 0x417 JUMPI PUSH1 0x0 DUP1 REVERT JUMPDEST DUP3 ADD DUP4 PUSH1 0x20 DUP3 ADD GT ISZERO PUSH2 0x429 JUMPI PUSH1 0x0 DUP1 REVERT JUMPDEST DUP1 CALLDATALOAD SWAP1 PUSH1 0x20 ADD SWAP2 DUP5 PUSH1 0x1 DUP4 MUL DUP5 ADD GT PUSH5 0x100000000 DUP4 GT OR ISZERO PUSH2 0x44B JUMPI PUSH1 0x0 DUP1 REVERT JUMPDEST POP SWAP1 SWAP3 POP SWAP1 POP PUSH2 0x1748 JUMP JUMPDEST PUSH2 0x45E PUSH2 0x1A3A JUMP JUMPDEST PUSH1 0x40 DUP1 MLOAD SWAP2 DUP3 MSTORE MLOAD SWAP1 DUP2 SWAP1 SUB PUSH1 0x20 ADD SWAP1 RETURN JUMPDEST PUSH2 0x359 PUSH1 0x4 DUP1 CALLDATASIZE SUB PUSH1 0x80 DUP2 LT ISZERO PUSH2 0x486 JUMPI PUSH1 0x0 DUP1 REVERT JUMPDEST PUSH1 0x1 PUSH1 0x1 PUSH1 0xA0 SHL SUB DUP3 CALLDATALOAD AND SWAP2 PUSH1 0x20 DUP2 ADD CALLDATALOAD SWAP2 PUSH1 0x40 DUP3 ADD CALLDATALOAD SWAP2 SWAP1 DUP2 ADD SWAP1 PUSH1 0x80 DUP2 ADD PUSH1 0x60 DUP3 ADD CALLDATALOAD PUSH5 0x100000000 DUP2 GT ISZERO PUSH2 0x4BD JUMPI PUSH1 0x0 DUP1 REVERT JUMPDEST DUP3 ADD DUP4 PUSH1 0x20 DUP3 ADD GT ISZERO PUSH2 0x4CF JUMPI PUSH1 0x0 DUP1 REVERT JUMPDEST DUP1 CALLDATALOAD SWAP1 PUSH1 0x20 ADD SWAP2 DUP5 PUSH1 0x1 DUP4 MUL DUP5 ADD GT PUSH5 0x100000000 DUP4 GT OR ISZERO PUSH2 0x4F1 JUMPI PUSH1 0x0 DUP1 REVERT JUMPDEST POP SWAP1 SWAP3 POP SWAP1 POP PUSH2 0x1A40 JUMP JUMPDEST PUSH2 0x2B2 PUSH1 0x4 DUP1 CALLDATASIZE SUB PUSH1 0xA0 DUP2 LT ISZERO PUSH2 0x512 JUMPI PUSH1 0x0 DUP1 REVERT JUMPDEST POP PUSH1 0x1 PUSH1 0x1 PUSH1 0xA0 SHL SUB DUP2 CALLDATALOAD AND SWAP1 PUSH1 0x20 DUP2 ADD CALLDATALOAD PUSH1 0x2 SWAP1 DUP2 SIGNEXTEND SWAP2 PUSH1 0x40 DUP2 ADD CALLDATALOAD SWAP1 SWAP2 SIGNEXTEND SWAP1 PUSH1 0x1 PUSH1 0x1 PUSH1 0x80 SHL SUB PUSH1 0x60 DUP3 ADD CALLDATALOAD DUP2 AND SWAP2 PUSH1 0x80 ADD CALLDATALOAD AND PUSH2 0x1EF6 JUMP JUMPDEST PUSH2 0x56A PUSH1 0x4 DUP1 CALLDATASIZE SUB PUSH1 0x20 DUP2 LT ISZERO PUSH2 0x563 JUMPI PUSH1 0x0 DUP1 REVERT JUMPDEST POP CALLDATALOAD PUSH2 0x2119 JUMP JUMPDEST PUSH1 0x40 DUP1 MLOAD PUSH1 0x1 PUSH1 0x1 PUSH1 0x80 SHL SUB SWAP7 DUP8 AND DUP2 MSTORE PUSH1 0x20 DUP2 ADD SWAP6 SWAP1 SWAP6 MSTORE DUP5 DUP2 ADD SWAP4 SWAP1 SWAP4 MSTORE SWAP1 DUP5 AND PUSH1 0x60 DUP5 ADD MSTORE SWAP1 SWAP3 AND PUSH1 0x80 DUP3 ADD MSTORE SWAP1 MLOAD SWAP1 DUP2 SWAP1 SUB PUSH1 0xA0 ADD SWAP1 RETURN JUMPDEST PUSH2 0x45E PUSH1 0x4 DUP1 CALLDATASIZE SUB PUSH1 0x20 DUP2 LT ISZERO PUSH2 0x5BC JUMPI PUSH1 0x0 DUP1 REVERT JUMPDEST POP CALLDATALOAD PUSH1 0x1 SIGNEXTEND PUSH2 0x2156 JUMP JUMPDEST PUSH2 0x28E PUSH2 0x2168 JUMP JUMPDEST PUSH2 0x359 PUSH1 0x4 DUP1 CALLDATASIZE SUB PUSH1 0x40 DUP2 LT ISZERO PUSH2 0x5E4 JUMPI PUSH1 0x0 DUP1 REVERT JUMPDEST POP PUSH1 0xFF DUP2 CALLDATALOAD DUP2 AND SWAP2 PUSH1 0x20 ADD CALLDATALOAD AND PUSH2 0x218C JUMP JUMPDEST PUSH2 0x2B2 PUSH1 0x4 DUP1 CALLDATASIZE SUB PUSH1 0x60 DUP2 LT ISZERO PUSH2 0x60C JUMPI PUSH1 0x0 DUP1 REVERT JUMPDEST POP PUSH1 0x1 PUSH1 0x1 PUSH1 0xA0 SHL SUB DUP2 CALLDATALOAD AND SWAP1 PUSH1 0x1 PUSH1 0x1 PUSH1 0x80 SHL SUB PUSH1 0x20 DUP3 ADD CALLDATALOAD DUP2 AND SWAP2 PUSH1 0x40 ADD CALLDATALOAD AND PUSH2 0x23A4 JUMP JUMPDEST PUSH2 0x6A3 PUSH1 0x4 DUP1 CALLDATASIZE SUB PUSH1 0x20 DUP2 LT ISZERO PUSH2 0x649 JUMPI PUSH1 0x0 DUP1 REVERT JUMPDEST DUP2 ADD SWAP1 PUSH1 0x20 DUP2 ADD DUP2 CALLDATALOAD PUSH5 0x100000000 DUP2 GT ISZERO PUSH2 0x664 JUMPI PUSH1 0x0 DUP1 REVERT JUMPDEST DUP3 ADD DUP4 PUSH1 0x20 DUP3 ADD GT ISZERO PUSH2 0x676 JUMPI PUSH1 0x0 DUP1 REVERT JUMPDEST DUP1 CALLDATALOAD SWAP1 PUSH1 0x20 ADD SWAP2 DUP5 PUSH1 0x20 DUP4 MUL DUP5 ADD GT PUSH5 0x100000000 DUP4 GT OR ISZERO PUSH2 0x698 JUMPI PUSH1 0x0 DUP1 REVERT JUMPDEST POP SWAP1 SWAP3 POP SWAP1 POP PUSH2 0x2693 JUMP JUMPDEST PUSH1 0x40 MLOAD DUP1 DUP1 PUSH1 0x20 ADD DUP1 PUSH1 0x20 ADD DUP4 DUP2 SUB DUP4 MSTORE DUP6 DUP2 DUP2 MLOAD DUP2 MSTORE PUSH1 0x20 ADD SWAP2 POP DUP1 MLOAD SWAP1 PUSH1 0x20 ADD SWAP1 PUSH1 0x20 MUL DUP1 DUP4 DUP4 PUSH1 0x0 JUMPDEST DUP4 DUP2 LT ISZERO PUSH2 0x6E7 JUMPI DUP2 DUP2 ADD MLOAD DUP4 DUP3 ADD MSTORE PUSH1 0x20 ADD PUSH2 0x6CF JUMP JUMPDEST POP POP POP POP SWAP1 POP ADD DUP4 DUP2 SUB DUP3 MSTORE DUP5 DUP2 DUP2 MLOAD DUP2 MSTORE PUSH1 0x20 ADD SWAP2 POP DUP1 MLOAD SWAP1 PUSH1 0x20 ADD SWAP1 PUSH1 0x20 MUL DUP1 DUP4 DUP4 PUSH1 0x0 JUMPDEST DUP4 DUP2 LT ISZERO PUSH2 0x726 JUMPI DUP2 DUP2 ADD MLOAD DUP4 DUP3 ADD MSTORE PUSH1 0x20 ADD PUSH2 0x70E JUMP JUMPDEST POP POP POP POP SWAP1 POP ADD SWAP5 POP POP POP POP POP PUSH1 0x40 MLOAD DUP1 SWAP2 SUB SWAP1 RETURN JUMPDEST PUSH2 0x26D PUSH1 0x4 DUP1 CALLDATASIZE SUB PUSH1 0x60 DUP2 LT ISZERO PUSH2 0x752 JUMPI PUSH1 0x0 DUP1 REVERT JUMPDEST POP DUP1 CALLDATALOAD PUSH1 0x2 SWAP1 DUP2 SIGNEXTEND SWAP2 PUSH1 0x20 DUP2 ADD CALLDATALOAD SWAP1 SWAP2 SIGNEXTEND SWAP1 PUSH1 0x40 ADD CALLDATALOAD PUSH1 0x1 PUSH1 0x1 PUSH1 0x80 SHL SUB AND PUSH2 0x2720 JUMP JUMPDEST PUSH2 0x7A0 PUSH1 0x4 DUP1 CALLDATASIZE SUB PUSH1 0x40 DUP2 LT ISZERO PUSH2 0x78C JUMPI PUSH1 0x0 DUP1 REVERT JUMPDEST POP DUP1 CALLDATALOAD PUSH1 0x2 SWAP1 DUP2 SIGNEXTEND SWAP2 PUSH1 0x20 ADD CALLDATALOAD SWAP1 SIGNEXTEND PUSH2 0x28A0 JUMP JUMPDEST PUSH1 0x40 DUP1 MLOAD PUSH1 0x6 SWAP5 SWAP1 SWAP5 SIGNEXTEND DUP5 MSTORE PUSH1 0x1 PUSH1 0x1 PUSH1 0xA0 SHL SUB SWAP1 SWAP3 AND PUSH1 0x20 DUP5 ADD MSTORE PUSH4 0xFFFFFFFF AND DUP3 DUP3 ADD MSTORE MLOAD SWAP1 DUP2 SWAP1 SUB PUSH1 0x60 ADD SWAP1 RETURN JUMPDEST PUSH2 0x1BB PUSH2 0x2A97 JUMP JUMPDEST PUSH2 0x7E1 PUSH2 0x2ABB JUMP JUMPDEST PUSH1 0x40 DUP1 MLOAD PUSH1 0x2 SWAP3 SWAP1 SWAP3 SIGNEXTEND DUP3 MSTORE MLOAD SWAP1 DUP2 SWAP1 SUB PUSH1 0x20 ADD SWAP1 RETURN JUMPDEST PUSH2 0x1BB PUSH2 0x2ADF JUMP JUMPDEST PUSH2 0x808 PUSH2 0x2B03 JUMP JUMPDEST PUSH1 0x40 DUP1 MLOAD PUSH3 0xFFFFFF SWAP1 SWAP3 AND DUP3 MSTORE MLOAD SWAP1 DUP2 SWAP1 SUB PUSH1 0x20 ADD SWAP1 RETURN JUMPDEST PUSH2 0x45E PUSH2 0x2B27 JUMP JUMPDEST PUSH2 0x848 PUSH1 0x4 DUP1 CALLDATASIZE SUB PUSH1 0x20 DUP2 LT ISZERO PUSH2 0x83E JUMPI PUSH1 0x0 DUP1 REVERT JUMPDEST POP CALLDATALOAD PUSH1 0x2 SIGNEXTEND PUSH2 0x2B2D JUMP JUMPDEST PUSH1 0x40 DUP1 MLOAD PUSH1 0x1 PUSH1 0x1 PUSH1 0x80 SHL SUB SWAP1 SWAP10 AND DUP10 MSTORE PUSH1 0xF SWAP8 SWAP1 SWAP8 SIGNEXTEND PUSH1 0x20 DUP10 ADD MSTORE DUP8 DUP8 ADD SWAP6 SWAP1 SWAP6 MSTORE PUSH1 0x60 DUP8 ADD SWAP4 SWAP1 SWAP4 MSTORE PUSH1 0x6 SWAP2 SWAP1 SWAP2 SIGNEXTEND PUSH1 0x80 DUP7 ADD MSTORE PUSH1 0x1 PUSH1 0x1 PUSH1 0xA0 SHL SUB AND PUSH1 0xA0 DUP6 ADD MSTORE PUSH4 0xFFFFFFFF AND PUSH1 0xC0 DUP5 ADD MSTORE ISZERO ISZERO PUSH1 0xE0 DUP4 ADD MSTORE MLOAD SWAP1 DUP2 SWAP1 SUB PUSH2 0x100 ADD SWAP1 RETURN JUMPDEST PUSH2 0x359 PUSH1 0x4 DUP1 CALLDATASIZE SUB PUSH1 0x20 DUP2 LT ISZERO PUSH2 0x8C0 JUMPI PUSH1 0x0 DUP1 REVERT JUMPDEST POP CALLDATALOAD PUSH1 0x1 PUSH1 0x1 PUSH1 0xA0 SHL SUB AND PUSH2 0x2B9B JUMP JUMPDEST PUSH32 0x0 DUP2 JUMP JUMPDEST PUSH1 0x0 DUP1 PUSH2 0x8FF PUSH2 0x2DFE JUMP JUMPDEST DUP6 PUSH2 0x951 JUMPI PUSH1 0x40 DUP1 MLOAD PUSH3 0x461BCD PUSH1 0xE5 SHL DUP2 MSTORE PUSH1 0x20 PUSH1 0x4 DUP3 ADD MSTORE PUSH1 0x2 PUSH1 0x24 DUP3 ADD MSTORE PUSH32 0x4153000000000000000000000000000000000000000000000000000000000000 PUSH1 0x44 DUP3 ADD MSTORE SWAP1 MLOAD SWAP1 DUP2 SWAP1 SUB PUSH1 0x64 ADD SWAP1 REVERT JUMPDEST PUSH1 0x40 DUP1 MLOAD PUSH1 0xE0 DUP2 ADD DUP3 MSTORE PUSH1 0x0 SLOAD PUSH1 0x1 PUSH1 0x1 PUSH1 0xA0 SHL SUB DUP2 AND DUP3 MSTORE PUSH1 0x1 PUSH1 0xA0 SHL DUP2 DIV PUSH1 0x2 SWAP1 DUP2 SIGNEXTEND DUP2 SIGNEXTEND SWAP1 SIGNEXTEND PUSH1 0x20 DUP4 ADD MSTORE PUSH2 0xFFFF PUSH1 0x1 PUSH1 0xB8 SHL DUP3 DIV DUP2 AND SWAP4 DUP4 ADD SWAP4 SWAP1 SWAP4 MSTORE PUSH1 0x1 PUSH1 0xC8 SHL DUP2 DIV DUP4 AND PUSH1 0x60 DUP4 ADD MSTORE PUSH1 0x1 PUSH1 0xD8 SHL DUP2 DIV SWAP1 SWAP3 AND PUSH1 0x80 DUP3 ADD MSTORE PUSH1 0xFF PUSH1 0x1 PUSH1 0xE8 SHL DUP4 DIV DUP2 AND PUSH1 0xA0 DUP4 ADD MSTORE PUSH1 0x1 PUSH1 0xF0 SHL SWAP1 SWAP3 DIV SWAP1 SWAP2 AND ISZERO ISZERO PUSH1 0xC0 DUP3 ADD DUP2 SWAP1 MSTORE PUSH2 0xA0A JUMPI PUSH1 0x40 DUP1 MLOAD PUSH3 0x461BCD PUSH1 0xE5 SHL DUP2 MSTORE PUSH1 0x20 PUSH1 0x4 DUP3 ADD MSTORE PUSH1 0x3 PUSH1 0x24 DUP3 ADD MSTORE PUSH3 0x4C4F4B PUSH1 0xE8 SHL PUSH1 0x44 DUP3 ADD MSTORE SWAP1 MLOAD SWAP1 DUP2 SWAP1 SUB PUSH1 0x64 ADD SWAP1 REVERT JUMPDEST DUP8 PUSH2 0xA55 JUMPI DUP1 PUSH1 0x0 ADD MLOAD PUSH1 0x1 PUSH1 0x1 PUSH1 0xA0 SHL SUB AND DUP7 PUSH1 0x1 PUSH1 0x1 PUSH1 0xA0 SHL SUB AND GT DUP1 ISZERO PUSH2 0xA50 JUMPI POP PUSH20 0xFFFD8963EFD1FC6A506488495D951D5263988D26 PUSH1 0x1 PUSH1 0x1 PUSH1 0xA0 SHL SUB DUP8 AND LT JUMPDEST PUSH2 0xA87 JUMP JUMPDEST DUP1 PUSH1 0x0 ADD MLOAD PUSH1 0x1 PUSH1 0x1 PUSH1 0xA0 SHL SUB AND DUP7 PUSH1 0x1 PUSH1 0x1 PUSH1 0xA0 SHL SUB AND LT DUP1 ISZERO PUSH2 0xA87 JUMPI POP PUSH5 0x1000276A3 PUSH1 0x1 PUSH1 0x1 PUSH1 0xA0 SHL SUB DUP8 AND GT JUMPDEST PUSH2 0xAD8 JUMPI PUSH1 0x40 DUP1 MLOAD PUSH3 0x461BCD PUSH1 0xE5 SHL DUP2 MSTORE PUSH1 0x20 PUSH1 0x4 DUP3 ADD MSTORE PUSH1 0x3 PUSH1 0x24 DUP3 ADD MSTORE PUSH32 0x53504C0000000000000000000000000000000000000000000000000000000000 PUSH1 0x44 DUP3 ADD MSTORE SWAP1 MLOAD SWAP1 DUP2 SWAP1 SUB PUSH1 0x64 ADD SWAP1 REVERT JUMPDEST PUSH1 0x0 DUP1 SLOAD PUSH1 0xFF PUSH1 0xF0 SHL NOT AND DUP2 SSTORE PUSH1 0x40 DUP1 MLOAD PUSH1 0xC0 DUP2 ADD SWAP1 SWAP2 MSTORE DUP1 DUP11 PUSH2 0xB07 JUMPI PUSH1 0x4 DUP5 PUSH1 0xA0 ADD MLOAD PUSH1 0xFF AND SWAP1 SHR PUSH2 0xB1A JUMP JUMPDEST PUSH1 0x10 DUP5 PUSH1 0xA0 ADD MLOAD PUSH1 0xFF AND DUP2 PUSH2 0xB18 JUMPI INVALID JUMPDEST MOD JUMPDEST PUSH1 0xFF AND DUP2 MSTORE PUSH1 0x4 SLOAD PUSH1 0x1 PUSH1 0x1 PUSH1 0x80 SHL SUB AND PUSH1 0x20 DUP3 ADD MSTORE PUSH1 0x40 ADD PUSH2 0xB3B PUSH2 0x2E35 JUMP JUMPDEST PUSH4 0xFFFFFFFF AND DUP2 MSTORE PUSH1 0x20 ADD PUSH1 0x0 PUSH1 0x6 SIGNEXTEND DUP2 MSTORE PUSH1 0x20 ADD PUSH1 0x0 PUSH1 0x1 PUSH1 0x1 PUSH1 0xA0 SHL SUB AND DUP2 MSTORE PUSH1 0x20 ADD PUSH1 0x0 ISZERO ISZERO DUP2 MSTORE POP SWAP1 POP PUSH1 0x0 DUP1 DUP10 SGT SWAP1 POP PUSH1 0x0 PUSH1 0x40 MLOAD DUP1 PUSH1 0xE0 ADD PUSH1 0x40 MSTORE DUP1 DUP12 DUP2 MSTORE PUSH1 0x20 ADD PUSH1 0x0 DUP2 MSTORE PUSH1 0x20 ADD DUP6 PUSH1 0x0 ADD MLOAD PUSH1 0x1 PUSH1 0x1 PUSH1 0xA0 SHL SUB AND DUP2 MSTORE PUSH1 0x20 ADD DUP6 PUSH1 0x20 ADD MLOAD PUSH1 0x2 SIGNEXTEND DUP2 MSTORE PUSH1 0x20 ADD DUP13 PUSH2 0xBB7 JUMPI PUSH1 0x2 SLOAD PUSH2 0xBBB JUMP JUMPDEST PUSH1 0x1 SLOAD JUMPDEST DUP2 MSTORE PUSH1 0x20 ADD PUSH1 0x0 PUSH1 0x1 PUSH1 0x1 PUSH1 0x80 SHL SUB AND DUP2 MSTORE PUSH1 0x20 ADD DUP5 PUSH1 0x20 ADD MLOAD PUSH1 0x1 PUSH1 0x1 PUSH1 0x80 SHL SUB AND DUP2 MSTORE POP SWAP1 POP JUMPDEST DUP1 MLOAD ISZERO DUP1 ISZERO SWAP1 PUSH2 0xC0A JUMPI POP DUP9 PUSH1 0x1 PUSH1 0x1 PUSH1 0xA0 SHL SUB AND DUP2 PUSH1 0x40 ADD MLOAD PUSH1 0x1 PUSH1 0x1 PUSH1 0xA0 SHL SUB AND EQ ISZERO JUMPDEST ISZERO PUSH2 0xFD4 JUMPI PUSH2 0xC17 PUSH2 0x5B99 JUMP JUMPDEST PUSH1 0x40 DUP3 ADD MLOAD PUSH1 0x1 PUSH1 0x1 PUSH1 0xA0 SHL SUB AND DUP2 MSTORE PUSH1 0x60 DUP3 ADD MLOAD PUSH2 0xC5A SWAP1 PUSH1 0x6 SWAP1 PUSH32 0x0 DUP16 PUSH2 0x2E39 JUMP JUMPDEST ISZERO ISZERO PUSH1 0x40 DUP4 ADD MSTORE PUSH1 0x2 SWAP1 DUP2 SIGNEXTEND DUP2 SIGNEXTEND PUSH1 0x20 DUP4 ADD DUP2 SWAP1 MSTORE PUSH3 0xD89E7 NOT SWAP2 SIGNEXTEND SLT ISZERO PUSH2 0xC8B JUMPI PUSH3 0xD89E7 NOT PUSH1 0x20 DUP3 ADD MSTORE PUSH2 0xCAA JUMP JUMPDEST PUSH1 0x20 DUP2 ADD MLOAD PUSH3 0xD89E8 PUSH1 0x2 SWAP2 SWAP1 SWAP2 SIGNEXTEND SGT ISZERO PUSH2 0xCAA JUMPI PUSH3 0xD89E8 PUSH1 0x20 DUP3 ADD MSTORE JUMPDEST PUSH2 0xCB7 DUP2 PUSH1 0x20 ADD MLOAD PUSH2 0x2F7B JUMP JUMPDEST PUSH1 0x1 PUSH1 0x1 PUSH1 0xA0 SHL SUB AND PUSH1 0x60 DUP3 ADD MSTORE PUSH1 0x40 DUP3 ADD MLOAD PUSH2 0xD48 SWAP1 DUP14 PUSH2 0xCF1 JUMPI DUP12 PUSH1 0x1 PUSH1 0x1 PUSH1 0xA0 SHL SUB AND DUP4 PUSH1 0x60 ADD MLOAD PUSH1 0x1 PUSH1 0x1 PUSH1 0xA0 SHL SUB AND GT PUSH2 0xD0B JUMP JUMPDEST DUP12 PUSH1 0x1 PUSH1 0x1 PUSH1 0xA0 SHL SUB AND DUP4 PUSH1 0x60 ADD MLOAD PUSH1 0x1 PUSH1 0x1 PUSH1 0xA0 SHL SUB AND LT JUMPDEST PUSH2 0xD19 JUMPI DUP3 PUSH1 0x60 ADD MLOAD PUSH2 0xD1B JUMP JUMPDEST DUP12 JUMPDEST PUSH1 0xC0 DUP6 ADD MLOAD DUP6 MLOAD PUSH32 0x0 PUSH2 0x32C9 JUMP JUMPDEST PUSH1 0xC0 DUP6 ADD MSTORE PUSH1 0xA0 DUP5 ADD MSTORE PUSH1 0x80 DUP4 ADD MSTORE PUSH1 0x1 PUSH1 0x1 PUSH1 0xA0 SHL SUB AND PUSH1 0x40 DUP4 ADD MSTORE DUP3 ISZERO PUSH2 0xDAA JUMPI PUSH2 0xD7E DUP2 PUSH1 0xC0 ADD MLOAD DUP3 PUSH1 0x80 ADD MLOAD ADD PUSH2 0x34BB JUMP JUMPDEST DUP3 MLOAD SUB DUP3 MSTORE PUSH1 0xA0 DUP2 ADD MLOAD PUSH2 0xDA0 SWAP1 PUSH2 0xD95 SWAP1 PUSH2 0x34BB JUMP JUMPDEST PUSH1 0x20 DUP5 ADD MLOAD SWAP1 PUSH2 0x34ED JUMP JUMPDEST PUSH1 0x20 DUP4 ADD MSTORE PUSH2 0xDE5 JUMP JUMPDEST PUSH2 0xDB7 DUP2 PUSH1 0xA0 ADD MLOAD PUSH2 0x34BB JUMP JUMPDEST DUP3 MLOAD ADD DUP3 MSTORE PUSH1 0xC0 DUP2 ADD MLOAD PUSH1 0x80 DUP3 ADD MLOAD PUSH2 0xDDF SWAP2 PUSH2 0xDD4 SWAP2 ADD PUSH2 0x34BB JUMP JUMPDEST PUSH1 0x20 DUP5 ADD MLOAD SWAP1 PUSH2 0x3509 JUMP JUMPDEST PUSH1 0x20 DUP4 ADD MSTORE JUMPDEST DUP4 MLOAD PUSH1 0xFF AND ISZERO PUSH2 0xE2B JUMPI PUSH1 0x0 DUP5 PUSH1 0x0 ADD MLOAD PUSH1 0xFF AND DUP3 PUSH1 0xC0 ADD MLOAD DUP2 PUSH2 0xE05 JUMPI INVALID JUMPDEST PUSH1 0xC0 DUP5 ADD DUP1 MLOAD SWAP3 SWAP1 SWAP2 DIV SWAP2 DUP3 SWAP1 SUB SWAP1 MSTORE PUSH1 0xA0 DUP5 ADD DUP1 MLOAD SWAP1 SWAP2 ADD PUSH1 0x1 PUSH1 0x1 PUSH1 0x80 SHL SUB AND SWAP1 MSTORE POP JUMPDEST PUSH1 0xC0 DUP3 ADD MLOAD PUSH1 0x1 PUSH1 0x1 PUSH1 0x80 SHL SUB AND ISZERO PUSH2 0xE6A JUMPI PUSH2 0xE5E DUP2 PUSH1 0xC0 ADD MLOAD PUSH1 0x1 PUSH1 0x80 SHL DUP5 PUSH1 0xC0 ADD MLOAD PUSH1 0x1 PUSH1 0x1 PUSH1 0x80 SHL SUB AND PUSH2 0x351F JUMP JUMPDEST PUSH1 0x80 DUP4 ADD DUP1 MLOAD SWAP1 SWAP2 ADD SWAP1 MSTORE JUMPDEST DUP1 PUSH1 0x60 ADD MLOAD PUSH1 0x1 PUSH1 0x1 PUSH1 0xA0 SHL SUB AND DUP3 PUSH1 0x40 ADD MLOAD PUSH1 0x1 PUSH1 0x1 PUSH1 0xA0 SHL SUB AND EQ ISZERO PUSH2 0xF93 JUMPI DUP1 PUSH1 0x40 ADD MLOAD ISZERO PUSH2 0xF6A JUMPI DUP4 PUSH1 0xA0 ADD MLOAD PUSH2 0xEF4 JUMPI PUSH2 0xED2 DUP5 PUSH1 0x40 ADD MLOAD PUSH1 0x0 DUP8 PUSH1 0x20 ADD MLOAD DUP9 PUSH1 0x40 ADD MLOAD DUP9 PUSH1 0x20 ADD MLOAD DUP11 PUSH1 0x60 ADD MLOAD PUSH1 0x8 PUSH2 0x35CF SWAP1 SWAP7 SWAP6 SWAP5 SWAP4 SWAP3 SWAP2 SWAP1 PUSH4 0xFFFFFFFF AND JUMP JUMPDEST PUSH1 0x1 PUSH1 0x1 PUSH1 0xA0 SHL SUB AND PUSH1 0x80 DUP7 ADD MSTORE PUSH1 0x6 SWAP1 DUP2 SIGNEXTEND SWAP1 SIGNEXTEND PUSH1 0x60 DUP6 ADD MSTORE PUSH1 0x1 PUSH1 0xA0 DUP6 ADD MSTORE JUMPDEST PUSH1 0x0 PUSH2 0xF40 DUP3 PUSH1 0x20 ADD MLOAD DUP15 PUSH2 0xF0B JUMPI PUSH1 0x1 SLOAD PUSH2 0xF11 JUMP JUMPDEST DUP5 PUSH1 0x80 ADD MLOAD JUMPDEST DUP16 PUSH2 0xF20 JUMPI DUP6 PUSH1 0x80 ADD MLOAD PUSH2 0xF24 JUMP JUMPDEST PUSH1 0x2 SLOAD JUMPDEST PUSH1 0x80 DUP10 ADD MLOAD PUSH1 0x60 DUP11 ADD MLOAD PUSH1 0x40 DUP12 ADD MLOAD PUSH1 0x5 SWAP6 SWAP5 SWAP4 SWAP3 SWAP2 SWAP1 PUSH2 0x3762 JUMP JUMPDEST SWAP1 POP DUP13 ISZERO PUSH2 0xF4C JUMPI PUSH1 0x0 SUB JUMPDEST PUSH2 0xF5A DUP4 PUSH1 0xC0 ADD MLOAD DUP3 PUSH2 0x384D JUMP JUMPDEST PUSH1 0x1 PUSH1 0x1 PUSH1 0x80 SHL SUB AND PUSH1 0xC0 DUP5 ADD MSTORE POP JUMPDEST DUP12 PUSH2 0xF79 JUMPI DUP1 PUSH1 0x20 ADD MLOAD PUSH2 0xF82 JUMP JUMPDEST PUSH1 0x1 DUP2 PUSH1 0x20 ADD MLOAD SUB JUMPDEST PUSH1 0x2 SWAP1 DUP2 SIGNEXTEND SWAP1 SIGNEXTEND PUSH1 0x60 DUP4 ADD MSTORE PUSH2 0xFCE JUMP JUMPDEST DUP1 PUSH1 0x0 ADD MLOAD PUSH1 0x1 PUSH1 0x1 PUSH1 0xA0 SHL SUB AND DUP3 PUSH1 0x40 ADD MLOAD PUSH1 0x1 PUSH1 0x1 PUSH1 0xA0 SHL SUB AND EQ PUSH2 0xFCE JUMPI PUSH2 0xFC1 DUP3 PUSH1 0x40 ADD MLOAD PUSH2 0x3939 JUMP JUMPDEST PUSH1 0x2 SWAP1 DUP2 SIGNEXTEND SWAP1 SIGNEXTEND PUSH1 0x60 DUP4 ADD MSTORE JUMPDEST POP PUSH2 0xBE4 JUMP JUMPDEST DUP4 PUSH1 0x20 ADD MLOAD PUSH1 0x2 SIGNEXTEND DUP2 PUSH1 0x60 ADD MLOAD PUSH1 0x2 SIGNEXTEND EQ PUSH2 0x10FC JUMPI PUSH1 0x0 DUP1 PUSH2 0x1022 DUP7 PUSH1 0x40 ADD MLOAD DUP7 PUSH1 0x40 ADD MLOAD DUP9 PUSH1 0x20 ADD MLOAD DUP9 PUSH1 0x20 ADD MLOAD DUP11 PUSH1 0x60 ADD MLOAD DUP12 PUSH1 0x80 ADD MLOAD PUSH1 0x8 PUSH2 0x3C90 SWAP1 SWAP7 SWAP6 SWAP5 SWAP4 SWAP3 SWAP2 SWAP1 PUSH4 0xFFFFFFFF AND JUMP JUMPDEST PUSH1 0x40 DUP6 ADD MLOAD PUSH1 0x60 DUP7 ADD MLOAD PUSH1 0x0 DUP1 SLOAD PUSH32 0xFFFFFFFFFF0000FFFFFFFFFFFFFFFFFFFFFFFFFFFFFFFFFFFFFFFFFFFFFFFFFF AND PUSH1 0x1 PUSH1 0xC8 SHL PUSH2 0xFFFF SWAP6 DUP7 AND MUL OR PUSH32 0xFFFFFFFFFFFFFF0000FFFFFFFFFFFFFFFFFFFFFFFFFFFFFFFFFFFFFFFFFFFFFF AND PUSH1 0x1 PUSH1 0xB8 SHL SWAP6 SWAP1 SWAP5 AND SWAP5 SWAP1 SWAP5 MUL SWAP3 SWAP1 SWAP3 OR PUSH32 0xFFFFFFFFFFFFFFFFFF000000FFFFFFFFFFFFFFFFFFFFFFFFFFFFFFFFFFFFFFFF AND PUSH1 0x1 PUSH1 0xA0 SHL PUSH3 0xFFFFFF PUSH1 0x2 SWAP5 SWAP1 SWAP5 SIGNEXTEND SWAP4 SWAP1 SWAP4 AND SWAP3 SWAP1 SWAP3 MUL SWAP2 SWAP1 SWAP2 OR PUSH20 0xFFFFFFFFFFFFFFFFFFFFFFFFFFFFFFFFFFFFFFFF NOT AND PUSH1 0x1 PUSH1 0x1 PUSH1 0xA0 SHL SUB SWAP1 SWAP2 AND OR SWAP1 SSTORE POP PUSH2 0x112E SWAP1 POP JUMP JUMPDEST PUSH1 0x40 DUP2 ADD MLOAD PUSH1 0x0 DUP1 SLOAD PUSH20 0xFFFFFFFFFFFFFFFFFFFFFFFFFFFFFFFFFFFFFFFF NOT AND PUSH1 0x1 PUSH1 0x1 PUSH1 0xA0 SHL SUB SWAP1 SWAP3 AND SWAP2 SWAP1 SWAP2 OR SWAP1 SSTORE JUMPDEST DUP1 PUSH1 0xC0 ADD MLOAD PUSH1 0x1 PUSH1 0x1 PUSH1 0x80 SHL SUB AND DUP4 PUSH1 0x20 ADD MLOAD PUSH1 0x1 PUSH1 0x1 PUSH1 0x80 SHL SUB AND EQ PUSH2 0x117D JUMPI PUSH1 0xC0 DUP2 ADD MLOAD PUSH1 0x4 DUP1 SLOAD PUSH16 0xFFFFFFFFFFFFFFFFFFFFFFFFFFFFFFFF NOT AND PUSH1 0x1 PUSH1 0x1 PUSH1 0x80 SHL SUB SWAP1 SWAP3 AND SWAP2 SWAP1 SWAP2 OR SWAP1 SSTORE JUMPDEST DUP11 ISZERO PUSH2 0x11D6 JUMPI PUSH1 0x80 DUP2 ADD MLOAD PUSH1 0x1 SSTORE PUSH1 0xA0 DUP2 ADD MLOAD PUSH1 0x1 PUSH1 0x1 PUSH1 0x80 SHL SUB AND ISZERO PUSH2 0x11D1 JUMPI PUSH1 0xA0 DUP2 ADD MLOAD PUSH1 0x3 DUP1 SLOAD PUSH16 0xFFFFFFFFFFFFFFFFFFFFFFFFFFFFFFFF NOT DUP2 AND PUSH1 0x1 PUSH1 0x1 PUSH1 0x80 SHL SUB SWAP2 DUP3 AND SWAP1 SWAP4 ADD AND SWAP2 SWAP1 SWAP2 OR SWAP1 SSTORE JUMPDEST PUSH2 0x121C JUMP JUMPDEST PUSH1 0x80 DUP2 ADD MLOAD PUSH1 0x2 SSTORE PUSH1 0xA0 DUP2 ADD MLOAD PUSH1 0x1 PUSH1 0x1 PUSH1 0x80 SHL SUB AND ISZERO PUSH2 0x121C JUMPI PUSH1 0xA0 DUP2 ADD MLOAD PUSH1 0x3 DUP1 SLOAD PUSH1 0x1 PUSH1 0x1 PUSH1 0x80 SHL SUB DUP1 DUP3 AND PUSH1 0x1 PUSH1 0x80 SHL SWAP3 DUP4 SWAP1 DIV DUP3 AND SWAP1 SWAP5 ADD AND MUL SWAP2 SWAP1 SWAP2 OR SWAP1 SSTORE JUMPDEST DUP2 ISZERO ISZERO DUP12 ISZERO ISZERO EQ PUSH2 0x1235 JUMPI PUSH1 0x20 DUP2 ADD MLOAD DUP2 MLOAD DUP12 SUB PUSH2 0x1242 JUMP JUMPDEST DUP1 PUSH1 0x0 ADD MLOAD DUP11 SUB DUP2 PUSH1 0x20 ADD MLOAD JUMPDEST SWAP1 SWAP7 POP SWAP5 POP DUP11 ISZERO PUSH2 0x1395 JUMPI PUSH1 0x0 DUP6 SLT ISZERO PUSH2 0x1284 JUMPI PUSH2 0x1284 PUSH32 0x0 DUP14 DUP8 PUSH1 0x0 SUB PUSH2 0x3E59 JUMP JUMPDEST PUSH1 0x0 PUSH2 0x128E PUSH2 0x3FF0 JUMP JUMPDEST SWAP1 POP CALLER PUSH1 0x1 PUSH1 0x1 PUSH1 0xA0 SHL SUB AND PUSH4 0xFA461E33 DUP9 DUP9 DUP13 DUP13 PUSH1 0x40 MLOAD DUP6 PUSH4 0xFFFFFFFF AND PUSH1 0xE0 SHL DUP2 MSTORE PUSH1 0x4 ADD DUP1 DUP6 DUP2 MSTORE PUSH1 0x20 ADD DUP5 DUP2 MSTORE PUSH1 0x20 ADD DUP1 PUSH1 0x20 ADD DUP3 DUP2 SUB DUP3 MSTORE DUP5 DUP5 DUP3 DUP2 DUP2 MSTORE PUSH1 0x20 ADD SWAP3 POP DUP1 DUP3 DUP5 CALLDATACOPY PUSH1 0x0 DUP2 DUP5 ADD MSTORE PUSH1 0x1F NOT PUSH1 0x1F DUP3 ADD AND SWAP1 POP DUP1 DUP4 ADD SWAP3 POP POP POP SWAP6 POP POP POP POP POP POP PUSH1 0x0 PUSH1 0x40 MLOAD DUP1 DUP4 SUB DUP2 PUSH1 0x0 DUP8 DUP1 EXTCODESIZE ISZERO DUP1 ISZERO PUSH2 0x1312 JUMPI PUSH1 0x0 DUP1 REVERT JUMPDEST POP GAS CALL ISZERO DUP1 ISZERO PUSH2 0x1326 JUMPI RETURNDATASIZE PUSH1 0x0 DUP1 RETURNDATACOPY RETURNDATASIZE PUSH1 0x0 REVERT JUMPDEST POP POP POP POP PUSH2 0x1332 PUSH2 0x3FF0 JUMP JUMPDEST PUSH2 0x133C DUP3 DUP10 PUSH2 0x4157 JUMP JUMPDEST GT ISZERO PUSH2 0x138F JUMPI PUSH1 0x40 DUP1 MLOAD PUSH3 0x461BCD PUSH1 0xE5 SHL DUP2 MSTORE PUSH1 0x20 PUSH1 0x4 DUP3 ADD MSTORE PUSH1 0x3 PUSH1 0x24 DUP3 ADD MSTORE PUSH32 0x4949410000000000000000000000000000000000000000000000000000000000 PUSH1 0x44 DUP3 ADD MSTORE SWAP1 MLOAD SWAP1 DUP2 SWAP1 SUB PUSH1 0x64 ADD SWAP1 REVERT JUMPDEST POP PUSH2 0x14D9 JUMP JUMPDEST PUSH1 0x0 DUP7 SLT ISZERO PUSH2 0x13CC JUMPI PUSH2 0x13CC PUSH32 0x0 DUP14 DUP9 PUSH1 0x0 SUB PUSH2 0x3E59 JUMP JUMPDEST PUSH1 0x0 PUSH2 0x13D6 PUSH2 0x4167 JUMP JUMPDEST SWAP1 POP CALLER PUSH1 0x1 PUSH1 0x1 PUSH1 0xA0 SHL SUB AND PUSH4 0xFA461E33 DUP9 DUP9 DUP13 DUP13 PUSH1 0x40 MLOAD DUP6 PUSH4 0xFFFFFFFF AND PUSH1 0xE0 SHL DUP2 MSTORE PUSH1 0x4 ADD DUP1 DUP6 DUP2 MSTORE PUSH1 0x20 ADD DUP5 DUP2 MSTORE PUSH1 0x20 ADD DUP1 PUSH1 0x20 ADD DUP3 DUP2 SUB DUP3 MSTORE DUP5 DUP5 DUP3 DUP2 DUP2 MSTORE PUSH1 0x20 ADD SWAP3 POP DUP1 DUP3 DUP5 CALLDATACOPY PUSH1 0x0 DUP2 DUP5 ADD MSTORE PUSH1 0x1F NOT PUSH1 0x1F DUP3 ADD AND SWAP1 POP DUP1 DUP4 ADD SWAP3 POP POP POP SWAP6 POP POP POP POP POP POP PUSH1 0x0 PUSH1 0x40 MLOAD DUP1 DUP4 SUB DUP2 PUSH1 0x0 DUP8 DUP1 EXTCODESIZE ISZERO DUP1 ISZERO PUSH2 0x145A JUMPI PUSH1 0x0 DUP1 REVERT JUMPDEST POP GAS CALL ISZERO DUP1 ISZERO PUSH2 0x146E JUMPI RETURNDATASIZE PUSH1 0x0 DUP1 RETURNDATACOPY RETURNDATASIZE PUSH1 0x0 REVERT JUMPDEST POP POP POP POP PUSH2 0x147A PUSH2 0x4167 JUMP JUMPDEST PUSH2 0x1484 DUP3 DUP9 PUSH2 0x4157 JUMP JUMPDEST GT ISZERO PUSH2 0x14D7 JUMPI PUSH1 0x40 DUP1 MLOAD PUSH3 0x461BCD PUSH1 0xE5 SHL DUP2 MSTORE PUSH1 0x20 PUSH1 0x4 DUP3 ADD MSTORE PUSH1 0x3 PUSH1 0x24 DUP3 ADD MSTORE PUSH32 0x4949410000000000000000000000000000000000000000000000000000000000 PUSH1 0x44 DUP3 ADD MSTORE SWAP1 MLOAD SWAP1 DUP2 SWAP1 SUB PUSH1 0x64 ADD SWAP1 REVERT JUMPDEST POP JUMPDEST PUSH1 0x40 DUP1 DUP3 ADD MLOAD PUSH1 0xC0 DUP4 ADD MLOAD PUSH1 0x60 DUP1 DUP6 ADD MLOAD DUP5 MLOAD DUP12 DUP2 MSTORE PUSH1 0x20 DUP2 ADD DUP12 SWAP1 MSTORE PUSH1 0x1 PUSH1 0x1 PUSH1 0xA0 SHL SUB SWAP5 DUP6 AND DUP2 DUP8 ADD MSTORE PUSH1 0x1 PUSH1 0x1 PUSH1 0x80 SHL SUB SWAP1 SWAP4 AND SWAP2 DUP4 ADD SWAP2 SWAP1 SWAP2 MSTORE PUSH1 0x2 SIGNEXTEND PUSH1 0x80 DUP3 ADD MSTORE SWAP2 MLOAD SWAP1 DUP15 AND SWAP2 CALLER SWAP2 PUSH32 0xC42079F94A6350D7E6235F29174924F928CC2AC818EB64FED8004E115FBCCA67 SWAP2 DUP2 SWAP1 SUB PUSH1 0xA0 ADD SWAP1 LOG3 POP POP PUSH1 0x0 DUP1 SLOAD PUSH1 0xFF PUSH1 0xF0 SHL NOT AND PUSH1 0x1 PUSH1 0xF0 SHL OR SWAP1 SSTORE POP SWAP2 SWAP9 SWAP1 SWAP8 POP SWAP6 POP POP POP POP POP POP JUMP JUMPDEST PUSH1 0x4 SLOAD PUSH1 0x1 PUSH1 0x1 PUSH1 0x80 SHL SUB AND DUP2 JUMP JUMPDEST PUSH1 0x3 SLOAD PUSH1 0x1 PUSH1 0x1 PUSH1 0x80 SHL SUB DUP1 DUP3 AND SWAP2 PUSH1 0x1 PUSH1 0x80 SHL SWAP1 DIV AND DUP3 JUMP JUMPDEST PUSH1 0x8 DUP2 PUSH2 0xFFFF DUP2 LT PUSH2 0x15AF JUMPI PUSH1 0x0 DUP1 REVERT JUMPDEST ADD SLOAD PUSH4 0xFFFFFFFF DUP2 AND SWAP2 POP PUSH5 0x100000000 DUP2 DIV PUSH1 0x6 SIGNEXTEND SWAP1 PUSH1 0x1 PUSH1 0x58 SHL DUP2 DIV PUSH1 0x1 PUSH1 0x1 PUSH1 0xA0 SHL SUB AND SWAP1 PUSH1 0x1 PUSH1 0xF8 SHL SWAP1 DIV PUSH1 0xFF AND DUP5 JUMP JUMPDEST PUSH1 0x0 SLOAD PUSH1 0x1 PUSH1 0xF0 SHL SWAP1 DIV PUSH1 0xFF AND PUSH2 0x1628 JUMPI PUSH1 0x40 DUP1 MLOAD PUSH3 0x461BCD PUSH1 0xE5 SHL DUP2 MSTORE PUSH1 0x20 PUSH1 0x4 DUP3 ADD MSTORE PUSH1 0x3 PUSH1 0x24 DUP3 ADD MSTORE PUSH3 0x4C4F4B PUSH1 0xE8 SHL PUSH1 0x44 DUP3 ADD MSTORE SWAP1 MLOAD SWAP1 DUP2 SWAP1 SUB PUSH1 0x64 ADD SWAP1 REVERT JUMPDEST PUSH1 0x0 DUP1 SLOAD PUSH1 0xFF PUSH1 0xF0 SHL NOT AND SWAP1 SSTORE PUSH2 0x163D PUSH2 0x2DFE JUMP JUMPDEST PUSH1 0x0 DUP1 SLOAD PUSH1 0x1 PUSH1 0xD8 SHL SWAP1 DIV PUSH2 0xFFFF AND SWAP1 PUSH2 0x1659 PUSH1 0x8 DUP4 DUP6 PUSH2 0x422D JUMP JUMPDEST PUSH1 0x0 DUP1 SLOAD PUSH2 0xFFFF DUP1 DUP5 AND PUSH1 0x1 PUSH1 0xD8 SHL DUP2 MUL PUSH32 0xFFFFFF0000FFFFFFFFFFFFFFFFFFFFFFFFFFFFFFFFFFFFFFFFFFFFFFFFFFFFFF SWAP1 SWAP4 AND SWAP3 SWAP1 SWAP3 OR SWAP1 SWAP3 SSTORE SWAP2 SWAP3 POP DUP4 AND EQ PUSH2 0x16E0 JUMPI PUSH1 0x40 DUP1 MLOAD PUSH2 0xFFFF DUP1 DUP6 AND DUP3 MSTORE DUP4 AND PUSH1 0x20 DUP3 ADD MSTORE DUP2 MLOAD PUSH32 0xAC49E518F90A358F652E4400164F05A5D8F7E35E7747279BC3A93DBF584E125A SWAP3 SWAP2 DUP2 SWAP1 SUB SWAP1 SWAP2 ADD SWAP1 LOG1 JUMPDEST POP POP PUSH1 0x0 DUP1 SLOAD PUSH1 0xFF PUSH1 0xF0 SHL NOT AND PUSH1 0x1 PUSH1 0xF0 SHL OR SWAP1 SSTORE POP JUMP JUMPDEST PUSH1 0x0 SLOAD PUSH1 0x1 PUSH1 0x1 PUSH1 0xA0 SHL SUB DUP2 AND SWAP1 PUSH1 0x1 PUSH1 0xA0 SHL DUP2 DIV PUSH1 0x2 SIGNEXTEND SWAP1 PUSH2 0xFFFF PUSH1 0x1 PUSH1 0xB8 SHL DUP3 DIV DUP2 AND SWAP2 PUSH1 0x1 PUSH1 0xC8 SHL DUP2 DIV DUP3 AND SWAP2 PUSH1 0x1 PUSH1 0xD8 SHL DUP3 DIV AND SWAP1 PUSH1 0xFF PUSH1 0x1 PUSH1 0xE8 SHL DUP3 DIV DUP2 AND SWAP2 PUSH1 0x1 PUSH1 0xF0 SHL SWAP1 DIV AND DUP8 JUMP JUMPDEST PUSH1 0x0 DUP1 SLOAD DUP2 SWAP1 PUSH1 0x1 PUSH1 0xF0 SHL SWAP1 DIV PUSH1 0xFF AND PUSH2 0x178F JUMPI PUSH1 0x40 DUP1 MLOAD PUSH3 0x461BCD PUSH1 0xE5 SHL DUP2 MSTORE PUSH1 0x20 PUSH1 0x4 DUP3 ADD MSTORE PUSH1 0x3 PUSH1 0x24 DUP3 ADD MSTORE PUSH3 0x4C4F4B PUSH1 0xE8 SHL PUSH1 0x44 DUP3 ADD MSTORE SWAP1 MLOAD SWAP1 DUP2 SWAP1 SUB PUSH1 0x64 ADD SWAP1 REVERT JUMPDEST PUSH1 0x0 DUP1 SLOAD PUSH1 0xFF PUSH1 0xF0 SHL NOT AND SWAP1 SSTORE PUSH1 0x1 PUSH1 0x1 PUSH1 0x80 SHL SUB DUP6 AND PUSH2 0x17AF JUMPI PUSH1 0x0 DUP1 REVERT JUMPDEST PUSH1 0x0 DUP1 PUSH2 0x17FD PUSH1 0x40 MLOAD DUP1 PUSH1 0x80 ADD PUSH1 0x40 MSTORE DUP1 DUP13 PUSH1 0x1 PUSH1 0x1 PUSH1 0xA0 SHL SUB AND DUP2 MSTORE PUSH1 0x20 ADD DUP12 PUSH1 0x2 SIGNEXTEND DUP2 MSTORE PUSH1 0x20 ADD DUP11 PUSH1 0x2 SIGNEXTEND DUP2 MSTORE PUSH1 0x20 ADD PUSH2 0x17F3 DUP11 PUSH1 0x1 PUSH1 0x1 PUSH1 0x80 SHL SUB AND PUSH2 0x42EC JUMP JUMPDEST PUSH1 0xF SIGNEXTEND SWAP1 MSTORE PUSH2 0x42FD JUMP JUMPDEST SWAP3 POP SWAP3 POP POP DUP2 SWAP4 POP DUP1 SWAP3 POP PUSH1 0x0 DUP1 PUSH1 0x0 DUP7 GT ISZERO PUSH2 0x181F JUMPI PUSH2 0x181C PUSH2 0x3FF0 JUMP JUMPDEST SWAP2 POP JUMPDEST DUP5 ISZERO PUSH2 0x1830 JUMPI PUSH2 0x182D PUSH2 0x4167 JUMP JUMPDEST SWAP1 POP JUMPDEST CALLER PUSH1 0x1 PUSH1 0x1 PUSH1 0xA0 SHL SUB AND PUSH4 0xD3487997 DUP8 DUP8 DUP12 DUP12 PUSH1 0x40 MLOAD DUP6 PUSH4 0xFFFFFFFF AND PUSH1 0xE0 SHL DUP2 MSTORE PUSH1 0x4 ADD DUP1 DUP6 DUP2 MSTORE PUSH1 0x20 ADD DUP5 DUP2 MSTORE PUSH1 0x20 ADD DUP1 PUSH1 0x20 ADD DUP3 DUP2 SUB DUP3 MSTORE DUP5 DUP5 DUP3 DUP2 DUP2 MSTORE PUSH1 0x20 ADD SWAP3 POP DUP1 DUP3 DUP5 CALLDATACOPY PUSH1 0x0 DUP2 DUP5 ADD MSTORE PUSH1 0x1F NOT PUSH1 0x1F DUP3 ADD AND SWAP1 POP DUP1 DUP4 ADD SWAP3 POP POP POP SWAP6 POP POP POP POP POP POP PUSH1 0x0 PUSH1 0x40 MLOAD DUP1 DUP4 SUB DUP2 PUSH1 0x0 DUP8 DUP1 EXTCODESIZE ISZERO DUP1 ISZERO PUSH2 0x18B2 JUMPI PUSH1 0x0 DUP1 REVERT JUMPDEST POP GAS CALL ISZERO DUP1 ISZERO PUSH2 0x18C6 JUMPI RETURNDATASIZE PUSH1 0x0 DUP1 RETURNDATACOPY RETURNDATASIZE PUSH1 0x0 REVERT JUMPDEST POP POP POP POP PUSH1 0x0 DUP7 GT ISZERO PUSH2 0x1938 JUMPI PUSH2 0x18DB PUSH2 0x3FF0 JUMP JUMPDEST PUSH2 0x18E5 DUP4 DUP9 PUSH2 0x4157 JUMP JUMPDEST GT ISZERO PUSH2 0x1938 JUMPI PUSH1 0x40 DUP1 MLOAD PUSH3 0x461BCD PUSH1 0xE5 SHL DUP2 MSTORE PUSH1 0x20 PUSH1 0x4 DUP3 ADD MSTORE PUSH1 0x2 PUSH1 0x24 DUP3 ADD MSTORE PUSH32 0x4D30000000000000000000000000000000000000000000000000000000000000 PUSH1 0x44 DUP3 ADD MSTORE SWAP1 MLOAD SWAP1 DUP2 SWAP1 SUB PUSH1 0x64 ADD SWAP1 REVERT JUMPDEST DUP5 ISZERO PUSH2 0x19A3 JUMPI PUSH2 0x1946 PUSH2 0x4167 JUMP JUMPDEST PUSH2 0x1950 DUP3 DUP8 PUSH2 0x4157 JUMP JUMPDEST GT ISZERO PUSH2 0x19A3 JUMPI PUSH1 0x40 DUP1 MLOAD PUSH3 0x461BCD PUSH1 0xE5 SHL DUP2 MSTORE PUSH1 0x20 PUSH1 0x4 DUP3 ADD MSTORE PUSH1 0x2 PUSH1 0x24 DUP3 ADD MSTORE PUSH32 0x4D31000000000000000000000000000000000000000000000000000000000000 PUSH1 0x44 DUP3 ADD MSTORE SWAP1 MLOAD SWAP1 DUP2 SWAP1 SUB PUSH1 0x64 ADD SWAP1 REVERT JUMPDEST DUP10 PUSH1 0x2 SIGNEXTEND DUP12 PUSH1 0x2 SIGNEXTEND DUP14 PUSH1 0x1 PUSH1 0x1 PUSH1 0xA0 SHL SUB AND PUSH32 0x7A53080BA414158BE7EC69B987B5FB7D07DEE101FE85488F0853AE16239D0BDE CALLER DUP14 DUP12 DUP12 PUSH1 0x40 MLOAD DUP1 DUP6 PUSH1 0x1 PUSH1 0x1 PUSH1 0xA0 SHL SUB AND DUP2 MSTORE PUSH1 0x20 ADD DUP5 PUSH1 0x1 PUSH1 0x1 PUSH1 0x80 SHL SUB AND DUP2 MSTORE PUSH1 0x20 ADD DUP4 DUP2 MSTORE PUSH1 0x20 ADD DUP3 DUP2 MSTORE PUSH1 0x20 ADD SWAP5 POP POP POP POP POP PUSH1 0x40 MLOAD DUP1 SWAP2 SUB SWAP1 LOG4 POP POP PUSH1 0x0 DUP1 SLOAD PUSH1 0xFF PUSH1 0xF0 SHL NOT AND PUSH1 0x1 PUSH1 0xF0 SHL OR SWAP1 SSTORE POP SWAP2 SWAP9 SWAP1 SWAP8 POP SWAP6 POP POP POP POP POP POP JUMP JUMPDEST PUSH1 0x2 SLOAD DUP2 JUMP JUMPDEST PUSH1 0x0 SLOAD PUSH1 0x1 PUSH1 0xF0 SHL SWAP1 DIV PUSH1 0xFF AND PUSH2 0x1A84 JUMPI PUSH1 0x40 DUP1 MLOAD PUSH3 0x461BCD PUSH1 0xE5 SHL DUP2 MSTORE PUSH1 0x20 PUSH1 0x4 DUP3 ADD MSTORE PUSH1 0x3 PUSH1 0x24 DUP3 ADD MSTORE PUSH3 0x4C4F4B PUSH1 0xE8 SHL PUSH1 0x44 DUP3 ADD MSTORE SWAP1 MLOAD SWAP1 DUP2 SWAP1 SUB PUSH1 0x64 ADD SWAP1 REVERT JUMPDEST PUSH1 0x0 DUP1 SLOAD PUSH1 0xFF PUSH1 0xF0 SHL NOT AND SWAP1 SSTORE PUSH2 0x1A99 PUSH2 0x2DFE JUMP JUMPDEST PUSH1 0x4 SLOAD PUSH1 0x1 PUSH1 0x1 PUSH1 0x80 SHL SUB AND DUP1 PUSH2 0x1AF7 JUMPI PUSH1 0x40 DUP1 MLOAD PUSH3 0x461BCD PUSH1 0xE5 SHL DUP2 MSTORE PUSH1 0x20 PUSH1 0x4 DUP3 ADD MSTORE PUSH1 0x1 PUSH1 0x24 DUP3 ADD MSTORE PUSH32 0x4C00000000000000000000000000000000000000000000000000000000000000 PUSH1 0x44 DUP3 ADD MSTORE SWAP1 MLOAD SWAP1 DUP2 SWAP1 SUB PUSH1 0x64 ADD SWAP1 REVERT JUMPDEST PUSH1 0x0 PUSH2 0x1B2C DUP7 PUSH32 0x0 PUSH3 0xFFFFFF AND PUSH3 0xF4240 PUSH2 0x457A JUMP JUMPDEST SWAP1 POP PUSH1 0x0 PUSH2 0x1B63 DUP7 PUSH32 0x0 PUSH3 0xFFFFFF AND PUSH3 0xF4240 PUSH2 0x457A JUMP JUMPDEST SWAP1 POP PUSH1 0x0 PUSH2 0x1B6F PUSH2 0x3FF0 JUMP JUMPDEST SWAP1 POP PUSH1 0x0 PUSH2 0x1B7B PUSH2 0x4167 JUMP JUMPDEST SWAP1 POP DUP9 ISZERO PUSH2 0x1BAE JUMPI PUSH2 0x1BAE PUSH32 0x0 DUP12 DUP12 PUSH2 0x3E59 JUMP JUMPDEST DUP8 ISZERO PUSH2 0x1BDF JUMPI PUSH2 0x1BDF PUSH32 0x0 DUP12 DUP11 PUSH2 0x3E59 JUMP JUMPDEST CALLER PUSH1 0x1 PUSH1 0x1 PUSH1 0xA0 SHL SUB AND PUSH4 0xE9CBAFB0 DUP6 DUP6 DUP11 DUP11 PUSH1 0x40 MLOAD DUP6 PUSH4 0xFFFFFFFF AND PUSH1 0xE0 SHL DUP2 MSTORE PUSH1 0x4 ADD DUP1 DUP6 DUP2 MSTORE PUSH1 0x20 ADD DUP5 DUP2 MSTORE PUSH1 0x20 ADD DUP1 PUSH1 0x20 ADD DUP3 DUP2 SUB DUP3 MSTORE DUP5 DUP5 DUP3 DUP2 DUP2 MSTORE PUSH1 0x20 ADD SWAP3 POP DUP1 DUP3 DUP5 CALLDATACOPY PUSH1 0x0 DUP2 DUP5 ADD MSTORE PUSH1 0x1F NOT PUSH1 0x1F DUP3 ADD AND SWAP1 POP DUP1 DUP4 ADD SWAP3 POP POP POP SWAP6 POP POP POP POP POP POP PUSH1 0x0 PUSH1 0x40 MLOAD DUP1 DUP4 SUB DUP2 PUSH1 0x0 DUP8 DUP1 EXTCODESIZE ISZERO DUP1 ISZERO PUSH2 0x1C61 JUMPI PUSH1 0x0 DUP1 REVERT JUMPDEST POP GAS CALL ISZERO DUP1 ISZERO PUSH2 0x1C75 JUMPI RETURNDATASIZE PUSH1 0x0 DUP1 RETURNDATACOPY RETURNDATASIZE PUSH1 0x0 REVERT JUMPDEST POP POP POP POP PUSH1 0x0 PUSH2 0x1C83 PUSH2 0x3FF0 JUMP JUMPDEST SWAP1 POP PUSH1 0x0 PUSH2 0x1C8F PUSH2 0x4167 JUMP JUMPDEST SWAP1 POP DUP2 PUSH2 0x1C9C DUP6 DUP9 PUSH2 0x4157 JUMP JUMPDEST GT ISZERO PUSH2 0x1CEF JUMPI PUSH1 0x40 DUP1 MLOAD PUSH3 0x461BCD PUSH1 0xE5 SHL DUP2 MSTORE PUSH1 0x20 PUSH1 0x4 DUP3 ADD MSTORE PUSH1 0x2 PUSH1 0x24 DUP3 ADD MSTORE PUSH32 0x4630000000000000000000000000000000000000000000000000000000000000 PUSH1 0x44 DUP3 ADD MSTORE SWAP1 MLOAD SWAP1 DUP2 SWAP1 SUB PUSH1 0x64 ADD SWAP1 REVERT JUMPDEST DUP1 PUSH2 0x1CFA DUP5 DUP8 PUSH2 0x4157 JUMP JUMPDEST GT ISZERO PUSH2 0x1D4D JUMPI PUSH1 0x40 DUP1 MLOAD PUSH3 0x461BCD PUSH1 0xE5 SHL DUP2 MSTORE PUSH1 0x20 PUSH1 0x4 DUP3 ADD MSTORE PUSH1 0x2 PUSH1 0x24 DUP3 ADD MSTORE PUSH32 0x4631000000000000000000000000000000000000000000000000000000000000 PUSH1 0x44 DUP3 ADD MSTORE SWAP1 MLOAD SWAP1 DUP2 SWAP1 SUB PUSH1 0x64 ADD SWAP1 REVERT JUMPDEST DUP4 DUP3 SUB DUP4 DUP3 SUB DUP2 ISZERO PUSH2 0x1DE5 JUMPI PUSH1 0x0 DUP1 SLOAD PUSH1 0x1 PUSH1 0xE8 SHL SWAP1 DIV PUSH1 0xF AND SWAP1 DUP2 ISZERO PUSH2 0x1D80 JUMPI DUP2 PUSH1 0xFF AND DUP5 DUP2 PUSH2 0x1D7A JUMPI INVALID JUMPDEST DIV PUSH2 0x1D83 JUMP JUMPDEST PUSH1 0x0 JUMPDEST SWAP1 POP PUSH1 0x1 PUSH1 0x1 PUSH1 0x80 SHL SUB DUP2 AND ISZERO PUSH2 0x1DBF JUMPI PUSH1 0x3 DUP1 SLOAD PUSH1 0x1 PUSH1 0x1 PUSH1 0x80 SHL SUB DUP1 DUP3 AND DUP5 ADD AND PUSH16 0xFFFFFFFFFFFFFFFFFFFFFFFFFFFFFFFF NOT SWAP1 SWAP2 AND OR SWAP1 SSTORE JUMPDEST PUSH2 0x1DD9 DUP2 DUP6 SUB PUSH1 0x1 PUSH1 0x80 SHL DUP14 PUSH1 0x1 PUSH1 0x1 PUSH1 0x80 SHL SUB AND PUSH2 0x351F JUMP JUMPDEST PUSH1 0x1 DUP1 SLOAD SWAP1 SWAP2 ADD SWAP1 SSTORE POP POP JUMPDEST DUP1 ISZERO PUSH2 0x1E70 JUMPI PUSH1 0x0 DUP1 SLOAD PUSH1 0x1 PUSH1 0xE8 SHL SWAP1 DIV PUSH1 0x4 SHR PUSH1 0xF AND SWAP1 DUP2 ISZERO PUSH2 0x1E15 JUMPI DUP2 PUSH1 0xFF AND DUP4 DUP2 PUSH2 0x1E0F JUMPI INVALID JUMPDEST DIV PUSH2 0x1E18 JUMP JUMPDEST PUSH1 0x0 JUMPDEST SWAP1 POP PUSH1 0x1 PUSH1 0x1 PUSH1 0x80 SHL SUB DUP2 AND ISZERO PUSH2 0x1E4A JUMPI PUSH1 0x3 DUP1 SLOAD PUSH1 0x1 PUSH1 0x1 PUSH1 0x80 SHL SUB PUSH1 0x1 PUSH1 0x80 SHL DUP1 DUP4 DIV DUP3 AND DUP6 ADD DUP3 AND MUL SWAP2 AND OR SWAP1 SSTORE JUMPDEST PUSH2 0x1E64 DUP2 DUP5 SUB PUSH1 0x1 PUSH1 0x80 SHL DUP14 PUSH1 0x1 PUSH1 0x1 PUSH1 0x80 SHL SUB AND PUSH2 0x351F JUMP JUMPDEST PUSH1 0x2 DUP1 SLOAD SWAP1 SWAP2 ADD SWAP1 SSTORE POP POP JUMPDEST DUP14 PUSH1 0x1 PUSH1 0x1 PUSH1 0xA0 SHL SUB AND CALLER PUSH1 0x1 PUSH1 0x1 PUSH1 0xA0 SHL SUB AND PUSH32 0xBDBDB71D7860376BA52B25A5028BEEA23581364A40522F6BCFB86BB1F2DCA633 DUP16 DUP16 DUP7 DUP7 PUSH1 0x40 MLOAD DUP1 DUP6 DUP2 MSTORE PUSH1 0x20 ADD DUP5 DUP2 MSTORE PUSH1 0x20 ADD DUP4 DUP2 MSTORE PUSH1 0x20 ADD DUP3 DUP2 MSTORE PUSH1 0x20 ADD SWAP5 POP POP POP POP POP PUSH1 0x40 MLOAD DUP1 SWAP2 SUB SWAP1 LOG3 POP POP PUSH1 0x0 DUP1 SLOAD PUSH1 0xFF PUSH1 0xF0 SHL NOT AND PUSH1 0x1 PUSH1 0xF0 SHL OR SWAP1 SSTORE POP POP POP POP POP POP POP POP POP POP POP POP JUMP JUMPDEST PUSH1 0x0 DUP1 SLOAD DUP2 SWAP1 PUSH1 0x1 PUSH1 0xF0 SHL SWAP1 DIV PUSH1 0xFF AND PUSH2 0x1F3D JUMPI PUSH1 0x40 DUP1 MLOAD PUSH3 0x461BCD PUSH1 0xE5 SHL DUP2 MSTORE PUSH1 0x20 PUSH1 0x4 DUP3 ADD MSTORE PUSH1 0x3 PUSH1 0x24 DUP3 ADD MSTORE PUSH3 0x4C4F4B PUSH1 0xE8 SHL PUSH1 0x44 DUP3 ADD MSTORE SWAP1 MLOAD SWAP1 DUP2 SWAP1 SUB PUSH1 0x64 ADD SWAP1 REVERT JUMPDEST PUSH1 0x0 DUP1 SLOAD PUSH1 0xFF PUSH1 0xF0 SHL NOT AND DUP2 SSTORE PUSH2 0x1F57 PUSH1 0x7 CALLER DUP10 DUP10 PUSH2 0x45B4 JUMP JUMPDEST PUSH1 0x3 DUP2 ADD SLOAD SWAP1 SWAP2 POP PUSH1 0x1 PUSH1 0x1 PUSH1 0x80 SHL SUB SWAP1 DUP2 AND SWAP1 DUP7 AND GT PUSH2 0x1F78 JUMPI DUP5 PUSH2 0x1F87 JUMP JUMPDEST PUSH1 0x3 DUP2 ADD SLOAD PUSH1 0x1 PUSH1 0x1 PUSH1 0x80 SHL SUB AND JUMPDEST PUSH1 0x3 DUP3 ADD SLOAD SWAP1 SWAP4 POP PUSH1 0x1 PUSH1 0x1 PUSH1 0x80 SHL SUB PUSH1 0x1 PUSH1 0x80 SHL SWAP1 SWAP2 DIV DUP2 AND SWAP1 DUP6 AND GT PUSH2 0x1FAF JUMPI DUP4 PUSH2 0x1FC5 JUMP JUMPDEST PUSH1 0x3 DUP2 ADD SLOAD PUSH1 0x1 PUSH1 0x80 SHL SWAP1 DIV PUSH1 0x1 PUSH1 0x1 PUSH1 0x80 SHL SUB AND JUMPDEST SWAP2 POP PUSH1 0x1 PUSH1 0x1 PUSH1 0x80 SHL SUB DUP4 AND ISZERO PUSH2 0x2033 JUMPI PUSH1 0x3 DUP2 ADD DUP1 SLOAD PUSH16 0xFFFFFFFFFFFFFFFFFFFFFFFFFFFFFFFF NOT DUP2 AND PUSH1 0x1 PUSH1 0x1 PUSH1 0x80 SHL SUB SWAP2 DUP3 AND DUP7 SWAP1 SUB DUP3 AND OR SWAP1 SWAP2 SSTORE PUSH2 0x2033 SWAP1 PUSH32 0x0 SWAP1 DUP11 SWAP1 DUP7 AND PUSH2 0x3E59 JUMP JUMPDEST PUSH1 0x1 PUSH1 0x1 PUSH1 0x80 SHL SUB DUP3 AND ISZERO PUSH2 0x2099 JUMPI PUSH1 0x3 DUP2 ADD DUP1 SLOAD PUSH1 0x1 PUSH1 0x1 PUSH1 0x80 SHL SUB PUSH1 0x1 PUSH1 0x80 SHL DUP1 DUP4 DIV DUP3 AND DUP7 SWAP1 SUB DUP3 AND MUL SWAP2 DUP2 AND SWAP2 SWAP1 SWAP2 OR SWAP1 SWAP2 SSTORE PUSH2 0x2099 SWAP1 PUSH32 0x0 SWAP1 DUP11 SWAP1 DUP6 AND PUSH2 0x3E59 JUMP JUMPDEST PUSH1 0x40 DUP1 MLOAD PUSH1 0x1 PUSH1 0x1 PUSH1 0xA0 SHL SUB DUP11 AND DUP2 MSTORE PUSH1 0x1 PUSH1 0x1 PUSH1 0x80 SHL SUB DUP1 DUP7 AND PUSH1 0x20 DUP4 ADD MSTORE DUP5 AND DUP2 DUP4 ADD MSTORE SWAP1 MLOAD PUSH1 0x2 DUP9 DUP2 SIGNEXTEND SWAP3 SWAP1 DUP11 SWAP1 SIGNEXTEND SWAP2 CALLER SWAP2 PUSH32 0x70935338E69775456A85DDEF226C395FB668B63FA0115F5F20610B388E6CA9C0 SWAP2 SWAP1 DUP2 SWAP1 SUB PUSH1 0x60 ADD SWAP1 LOG4 POP PUSH1 0x0 DUP1 SLOAD PUSH1 0xFF PUSH1 0xF0 SHL NOT AND PUSH1 0x1 PUSH1 0xF0 SHL OR SWAP1 SSTORE SWAP1 SWAP7 SWAP1 SWAP6 POP SWAP4 POP POP POP POP JUMP JUMPDEST PUSH1 0x7 PUSH1 0x20 MSTORE PUSH1 0x0 SWAP1 DUP2 MSTORE PUSH1 0x40 SWAP1 KECCAK256 DUP1 SLOAD PUSH1 0x1 DUP3 ADD SLOAD PUSH1 0x2 DUP4 ADD SLOAD PUSH1 0x3 SWAP1 SWAP4 ADD SLOAD PUSH1 0x1 PUSH1 0x1 PUSH1 0x80 SHL SUB SWAP3 DUP4 AND SWAP4 SWAP2 SWAP3 DUP2 DUP2 AND SWAP2 PUSH1 0x1 PUSH1 0x80 SHL SWAP1 DIV AND DUP6 JUMP JUMPDEST PUSH1 0x6 PUSH1 0x20 MSTORE PUSH1 0x0 SWAP1 DUP2 MSTORE PUSH1 0x40 SWAP1 KECCAK256 SLOAD DUP2 JUMP JUMPDEST PUSH32 0x0 DUP2 JUMP JUMPDEST PUSH1 0x0 SLOAD PUSH1 0x1 PUSH1 0xF0 SHL SWAP1 DIV PUSH1 0xFF AND PUSH2 0x21D0 JUMPI PUSH1 0x40 DUP1 MLOAD PUSH3 0x461BCD PUSH1 0xE5 SHL DUP2 MSTORE PUSH1 0x20 PUSH1 0x4 DUP3 ADD MSTORE PUSH1 0x3 PUSH1 0x24 DUP3 ADD MSTORE PUSH3 0x4C4F4B PUSH1 0xE8 SHL PUSH1 0x44 DUP3 ADD MSTORE SWAP1 MLOAD SWAP1 DUP2 SWAP1 SUB PUSH1 0x64 ADD SWAP1 REVERT JUMPDEST PUSH1 0x0 DUP1 SLOAD PUSH1 0xFF PUSH1 0xF0 SHL NOT AND SWAP1 SSTORE PUSH1 0x40 DUP1 MLOAD PUSH32 0x8DA5CB5B00000000000000000000000000000000000000000000000000000000 DUP2 MSTORE SWAP1 MLOAD PUSH1 0x1 PUSH1 0x1 PUSH1 0xA0 SHL SUB PUSH32 0x0 AND SWAP2 PUSH4 0x8DA5CB5B SWAP2 PUSH1 0x4 DUP1 DUP4 ADD SWAP3 PUSH1 0x20 SWAP3 SWAP2 SWAP1 DUP3 SWAP1 SUB ADD DUP2 DUP7 DUP1 EXTCODESIZE ISZERO DUP1 ISZERO PUSH2 0x2256 JUMPI PUSH1 0x0 DUP1 REVERT JUMPDEST POP GAS STATICCALL ISZERO DUP1 ISZERO PUSH2 0x226A JUMPI RETURNDATASIZE PUSH1 0x0 DUP1 RETURNDATACOPY RETURNDATASIZE PUSH1 0x0 REVERT JUMPDEST POP POP POP POP PUSH1 0x40 MLOAD RETURNDATASIZE PUSH1 0x20 DUP2 LT ISZERO PUSH2 0x2280 JUMPI PUSH1 0x0 DUP1 REVERT JUMPDEST POP MLOAD PUSH1 0x1 PUSH1 0x1 PUSH1 0xA0 SHL SUB AND CALLER EQ PUSH2 0x2296 JUMPI PUSH1 0x0 DUP1 REVERT JUMPDEST PUSH1 0xFF DUP3 AND ISZERO DUP1 PUSH2 0x22B9 JUMPI POP PUSH1 0x4 DUP3 PUSH1 0xFF AND LT ISZERO DUP1 ISZERO PUSH2 0x22B9 JUMPI POP PUSH1 0xA DUP3 PUSH1 0xFF AND GT ISZERO JUMPDEST DUP1 ISZERO PUSH2 0x22E3 JUMPI POP PUSH1 0xFF DUP2 AND ISZERO DUP1 PUSH2 0x22E3 JUMPI POP PUSH1 0x4 DUP2 PUSH1 0xFF AND LT ISZERO DUP1 ISZERO PUSH2 0x22E3 JUMPI POP PUSH1 0xA DUP2 PUSH1 0xFF AND GT ISZERO JUMPDEST PUSH2 0x22EC JUMPI PUSH1 0x0 DUP1 REVERT JUMPDEST PUSH1 0x0 DUP1 SLOAD PUSH2 0xFF0 PUSH1 0x4 DUP5 SWAP1 SHL AND DUP5 ADD PUSH1 0xFF SWAP1 DUP2 AND PUSH1 0x1 PUSH1 0xE8 SHL SWAP1 DUP2 MUL PUSH32 0xFFFF00FFFFFFFFFFFFFFFFFFFFFFFFFFFFFFFFFFFFFFFFFFFFFFFFFFFFFFFFFF DUP5 AND OR SWAP1 SWAP4 SSTORE SWAP2 SWAP1 DIV AND PUSH32 0x973D8D92BB299F4AF6CE49B52A8ADB85AE46B9F214C4C4FC06AC77401237B133 PUSH1 0x10 DUP3 PUSH1 0x40 DUP1 MLOAD PUSH1 0xFF SWAP4 SWAP1 SWAP3 MOD DUP4 AND DUP3 MSTORE PUSH1 0xF PUSH1 0x4 DUP7 SWAP1 SHR AND PUSH1 0x20 DUP4 ADD MSTORE DUP7 DUP4 AND DUP3 DUP3 ADD MSTORE SWAP2 DUP6 AND PUSH1 0x60 DUP3 ADD MSTORE SWAP1 MLOAD SWAP1 DUP2 SWAP1 SUB PUSH1 0x80 ADD SWAP1 LOG1 POP POP PUSH1 0x0 DUP1 SLOAD PUSH1 0xFF PUSH1 0xF0 SHL NOT AND PUSH1 0x1 PUSH1 0xF0 SHL OR SWAP1 SSTORE POP JUMP JUMPDEST PUSH1 0x0 DUP1 SLOAD DUP2 SWAP1 PUSH1 0x1 PUSH1 0xF0 SHL SWAP1 DIV PUSH1 0xFF AND PUSH2 0x23EB JUMPI PUSH1 0x40 DUP1 MLOAD PUSH3 0x461BCD PUSH1 0xE5 SHL DUP2 MSTORE PUSH1 0x20 PUSH1 0x4 DUP3 ADD MSTORE PUSH1 0x3 PUSH1 0x24 DUP3 ADD MSTORE PUSH3 0x4C4F4B PUSH1 0xE8 SHL PUSH1 0x44 DUP3 ADD MSTORE SWAP1 MLOAD SWAP1 DUP2 SWAP1 SUB PUSH1 0x64 ADD SWAP1 REVERT JUMPDEST PUSH1 0x0 DUP1 SLOAD PUSH1 0xFF PUSH1 0xF0 SHL NOT AND SWAP1 SSTORE PUSH1 0x40 DUP1 MLOAD PUSH32 0x8DA5CB5B00000000000000000000000000000000000000000000000000000000 DUP2 MSTORE SWAP1 MLOAD PUSH1 0x1 PUSH1 0x1 PUSH1 0xA0 SHL SUB PUSH32 0x0 AND SWAP2 PUSH4 0x8DA5CB5B SWAP2 PUSH1 0x4 DUP1 DUP4 ADD SWAP3 PUSH1 0x20 SWAP3 SWAP2 SWAP1 DUP3 SWAP1 SUB ADD DUP2 DUP7 DUP1 EXTCODESIZE ISZERO DUP1 ISZERO PUSH2 0x2471 JUMPI PUSH1 0x0 DUP1 REVERT JUMPDEST POP GAS STATICCALL ISZERO DUP1 ISZERO PUSH2 0x2485 JUMPI RETURNDATASIZE PUSH1 0x0 DUP1 RETURNDATACOPY RETURNDATASIZE PUSH1 0x0 REVERT JUMPDEST POP POP POP POP PUSH1 0x40 MLOAD RETURNDATASIZE PUSH1 0x20 DUP2 LT ISZERO PUSH2 0x249B JUMPI PUSH1 0x0 DUP1 REVERT JUMPDEST POP MLOAD PUSH1 0x1 PUSH1 0x1 PUSH1 0xA0 SHL SUB AND CALLER EQ PUSH2 0x24B1 JUMPI PUSH1 0x0 DUP1 REVERT JUMPDEST PUSH1 0x3 SLOAD PUSH1 0x1 PUSH1 0x1 PUSH1 0x80 SHL SUB SWAP1 DUP2 AND SWAP1 DUP6 AND GT PUSH2 0x24CD JUMPI DUP4 PUSH2 0x24DA JUMP JUMPDEST PUSH1 0x3 SLOAD PUSH1 0x1 PUSH1 0x1 PUSH1 0x80 SHL SUB AND JUMPDEST PUSH1 0x3 SLOAD SWAP1 SWAP3 POP PUSH1 0x1 PUSH1 0x1 PUSH1 0x80 SHL SUB PUSH1 0x1 PUSH1 0x80 SHL SWAP1 SWAP2 DIV DUP2 AND SWAP1 DUP5 AND GT PUSH2 0x2500 JUMPI DUP3 PUSH2 0x2514 JUMP JUMPDEST PUSH1 0x3 SLOAD PUSH1 0x1 PUSH1 0x80 SHL SWAP1 DIV PUSH1 0x1 PUSH1 0x1 PUSH1 0x80 SHL SUB AND JUMPDEST SWAP1 POP PUSH1 0x1 PUSH1 0x1 PUSH1 0x80 SHL SUB DUP3 AND ISZERO PUSH2 0x259E JUMPI PUSH1 0x3 SLOAD PUSH1 0x1 PUSH1 0x1 PUSH1 0x80 SHL SUB DUP4 DUP2 AND SWAP2 AND EQ ISZERO PUSH2 0x2543 JUMPI PUSH1 0x0 NOT SWAP1 SWAP2 ADD SWAP1 JUMPDEST PUSH1 0x3 DUP1 SLOAD PUSH16 0xFFFFFFFFFFFFFFFFFFFFFFFFFFFFFFFF NOT DUP2 AND PUSH1 0x1 PUSH1 0x1 PUSH1 0x80 SHL SUB SWAP2 DUP3 AND DUP6 SWAP1 SUB DUP3 AND OR SWAP1 SWAP2 SSTORE PUSH2 0x259E SWAP1 PUSH32 0x0 SWAP1 DUP8 SWAP1 DUP6 AND PUSH2 0x3E59 JUMP JUMPDEST PUSH1 0x1 PUSH1 0x1 PUSH1 0x80 SHL SUB DUP2 AND ISZERO PUSH2 0x2624 JUMPI PUSH1 0x3 SLOAD PUSH1 0x1 PUSH1 0x1 PUSH1 0x80 SHL SUB DUP3 DUP2 AND PUSH1 0x1 PUSH1 0x80 SHL SWAP1 SWAP3 DIV AND EQ ISZERO PUSH2 0x25CF JUMPI PUSH1 0x0 NOT ADD JUMPDEST PUSH1 0x3 DUP1 SLOAD PUSH1 0x1 PUSH1 0x1 PUSH1 0x80 SHL SUB PUSH1 0x1 PUSH1 0x80 SHL DUP1 DUP4 DIV DUP3 AND DUP6 SWAP1 SUB DUP3 AND MUL SWAP2 DUP2 AND SWAP2 SWAP1 SWAP2 OR SWAP1 SWAP2 SSTORE PUSH2 0x2624 SWAP1 PUSH32 0x0 SWAP1 DUP8 SWAP1 DUP5 AND PUSH2 0x3E59 JUMP JUMPDEST PUSH1 0x40 DUP1 MLOAD PUSH1 0x1 PUSH1 0x1 PUSH1 0x80 SHL SUB DUP1 DUP6 AND DUP3 MSTORE DUP4 AND PUSH1 0x20 DUP3 ADD MSTORE DUP2 MLOAD PUSH1 0x1 PUSH1 0x1 PUSH1 0xA0 SHL SUB DUP9 AND SWAP3 CALLER SWAP3 PUSH32 0x596B573906218D3411850B26A6B437D6C4522FDB43D2D2386263F86D50B8B151 SWAP3 SWAP1 DUP2 SWAP1 SUB SWAP1 SWAP2 ADD SWAP1 LOG3 PUSH1 0x0 DUP1 SLOAD PUSH1 0xFF PUSH1 0xF0 SHL NOT AND PUSH1 0x1 PUSH1 0xF0 SHL OR SWAP1 SSTORE SWAP1 SWAP5 SWAP1 SWAP4 POP SWAP2 POP POP JUMP JUMPDEST PUSH1 0x60 DUP1 PUSH2 0x269E PUSH2 0x2DFE JUMP JUMPDEST PUSH2 0x2715 PUSH2 0x26A9 PUSH2 0x2E35 JUMP JUMPDEST DUP6 DUP6 DUP1 DUP1 PUSH1 0x20 MUL PUSH1 0x20 ADD PUSH1 0x40 MLOAD SWAP1 DUP2 ADD PUSH1 0x40 MSTORE DUP1 SWAP4 SWAP3 SWAP2 SWAP1 DUP2 DUP2 MSTORE PUSH1 0x20 ADD DUP4 DUP4 PUSH1 0x20 MUL DUP1 DUP3 DUP5 CALLDATACOPY PUSH1 0x0 SWAP3 ADD DUP3 SWAP1 MSTORE POP SLOAD PUSH1 0x4 SLOAD PUSH1 0x8 SWAP7 SWAP6 SWAP5 POP PUSH1 0x1 PUSH1 0xA0 SHL DUP3 DIV PUSH1 0x2 SIGNEXTEND SWAP4 POP PUSH2 0xFFFF PUSH1 0x1 PUSH1 0xB8 SHL DUP4 DIV DUP2 AND SWAP4 POP PUSH1 0x1 PUSH1 0x1 PUSH1 0x80 SHL SUB SWAP1 SWAP2 AND SWAP2 PUSH1 0x1 PUSH1 0xC8 SHL SWAP1 DIV AND PUSH2 0x462B JUMP JUMPDEST SWAP2 POP SWAP2 POP SWAP3 POP SWAP3 SWAP1 POP JUMP JUMPDEST PUSH1 0x0 DUP1 SLOAD DUP2 SWAP1 PUSH1 0x1 PUSH1 0xF0 SHL SWAP1 DIV PUSH1 0xFF AND PUSH2 0x2767 JUMPI PUSH1 0x40 DUP1 MLOAD PUSH3 0x461BCD PUSH1 0xE5 SHL DUP2 MSTORE PUSH1 0x20 PUSH1 0x4 DUP3 ADD MSTORE PUSH1 0x3 PUSH1 0x24 DUP3 ADD MSTORE PUSH3 0x4C4F4B PUSH1 0xE8 SHL PUSH1 0x44 DUP3 ADD MSTORE SWAP1 MLOAD SWAP1 DUP2 SWAP1 SUB PUSH1 0x64 ADD SWAP1 REVERT JUMPDEST PUSH1 0x0 DUP1 SLOAD PUSH1 0xFF PUSH1 0xF0 SHL NOT AND DUP2 SSTORE PUSH1 0x40 DUP1 MLOAD PUSH1 0x80 DUP2 ADD DUP3 MSTORE CALLER DUP2 MSTORE PUSH1 0x2 DUP9 DUP2 SIGNEXTEND PUSH1 0x20 DUP4 ADD MSTORE DUP8 SWAP1 SIGNEXTEND SWAP2 DUP2 ADD SWAP2 SWAP1 SWAP2 MSTORE DUP2 SWAP1 DUP2 SWAP1 PUSH2 0x27C0 SWAP1 PUSH1 0x60 DUP2 ADD PUSH2 0x27B3 PUSH1 0x1 PUSH1 0x1 PUSH1 0x80 SHL SUB DUP11 AND PUSH2 0x42EC JUMP JUMPDEST PUSH1 0x0 SUB PUSH1 0xF SIGNEXTEND SWAP1 MSTORE PUSH2 0x42FD JUMP JUMPDEST SWAP3 POP SWAP3 POP SWAP3 POP DUP2 PUSH1 0x0 SUB SWAP5 POP DUP1 PUSH1 0x0 SUB SWAP4 POP PUSH1 0x0 DUP6 GT DUP1 PUSH2 0x27E1 JUMPI POP PUSH1 0x0 DUP5 GT JUMPDEST ISZERO PUSH2 0x2829 JUMPI PUSH1 0x3 DUP4 ADD DUP1 SLOAD PUSH1 0x1 PUSH1 0x1 PUSH1 0x80 SHL SUB DUP1 DUP3 AND DUP1 DUP10 ADD DUP3 AND PUSH1 0x1 PUSH1 0x80 SHL SWAP4 DUP5 SWAP1 DIV DUP4 AND DUP10 ADD SWAP1 SWAP3 AND SWAP1 SWAP3 MUL SWAP1 SWAP2 OR PUSH16 0xFFFFFFFFFFFFFFFFFFFFFFFFFFFFFFFF NOT AND OR SWAP1 SSTORE JUMPDEST PUSH1 0x40 DUP1 MLOAD PUSH1 0x1 PUSH1 0x1 PUSH1 0x80 SHL SUB DUP9 AND DUP2 MSTORE PUSH1 0x20 DUP2 ADD DUP8 SWAP1 MSTORE DUP1 DUP3 ADD DUP7 SWAP1 MSTORE SWAP1 MLOAD PUSH1 0x2 DUP10 DUP2 SIGNEXTEND SWAP3 SWAP1 DUP12 SWAP1 SIGNEXTEND SWAP2 CALLER SWAP2 PUSH32 0xC396CD989A39F4459B5FA1AED6A9A8DCDBC45908ACFD67E028CD568DA98982C SWAP2 SWAP1 DUP2 SWAP1 SUB PUSH1 0x60 ADD SWAP1 LOG4 POP POP PUSH1 0x0 DUP1 SLOAD PUSH1 0xFF PUSH1 0xF0 SHL NOT AND PUSH1 0x1 PUSH1 0xF0 SHL OR SWAP1 SSTORE POP SWAP1 SWAP5 SWAP1 SWAP4 POP SWAP2 POP POP JUMP JUMPDEST PUSH1 0x0 DUP1 PUSH1 0x0 PUSH2 0x28AD PUSH2 0x2DFE JUMP JUMPDEST PUSH2 0x28B7 DUP6 DUP6 PUSH2 0x47A1 JUMP JUMPDEST PUSH1 0x2 DUP6 DUP2 SIGNEXTEND DUP2 SIGNEXTEND PUSH1 0x0 SWAP1 DUP2 MSTORE PUSH1 0x5 PUSH1 0x20 MSTORE PUSH1 0x40 DUP1 DUP3 KECCAK256 DUP8 DUP5 SIGNEXTEND SWAP1 SWAP4 SIGNEXTEND DUP3 MSTORE DUP2 KECCAK256 PUSH1 0x3 DUP4 ADD SLOAD PUSH1 0x6 DUP2 SWAP1 SIGNEXTEND SWAP4 PUSH8 0x100000000000000 DUP3 DIV PUSH1 0x1 PUSH1 0x1 PUSH1 0xA0 SHL SUB AND SWAP3 DUP5 SWAP3 PUSH1 0x1 PUSH1 0xD8 SHL DUP2 DIV PUSH4 0xFFFFFFFF AND SWAP3 DUP5 SWAP3 SWAP1 SWAP2 PUSH1 0x1 PUSH1 0xF8 SHL SWAP1 DIV PUSH1 0xFF AND DUP1 PUSH2 0x291F JUMPI PUSH1 0x0 DUP1 REVERT JUMPDEST PUSH1 0x3 DUP3 ADD SLOAD PUSH1 0x6 DUP2 SWAP1 SIGNEXTEND SWAP9 POP PUSH8 0x100000000000000 DUP2 DIV PUSH1 0x1 PUSH1 0x1 PUSH1 0xA0 SHL SUB AND SWAP7 POP PUSH1 0x1 PUSH1 0xD8 SHL DUP2 DIV PUSH4 0xFFFFFFFF AND SWAP5 POP PUSH1 0x1 PUSH1 0xF8 SHL SWAP1 DIV PUSH1 0xFF AND DUP1 PUSH2 0x2964 JUMPI PUSH1 0x0 DUP1 REVERT JUMPDEST POP POP PUSH1 0x40 DUP1 MLOAD PUSH1 0xE0 DUP2 ADD DUP3 MSTORE PUSH1 0x0 SLOAD PUSH1 0x1 PUSH1 0x1 PUSH1 0xA0 SHL SUB DUP2 AND DUP3 MSTORE PUSH1 0x1 PUSH1 0xA0 SHL DUP2 DIV PUSH1 0x2 SWAP1 DUP2 SIGNEXTEND DUP2 SIGNEXTEND DUP2 SIGNEXTEND PUSH1 0x20 DUP5 ADD DUP2 SWAP1 MSTORE PUSH2 0xFFFF PUSH1 0x1 PUSH1 0xB8 SHL DUP5 DIV DUP2 AND SWAP6 DUP6 ADD SWAP6 SWAP1 SWAP6 MSTORE PUSH1 0x1 PUSH1 0xC8 SHL DUP4 DIV DUP6 AND PUSH1 0x60 DUP6 ADD MSTORE PUSH1 0x1 PUSH1 0xD8 SHL DUP4 DIV SWAP1 SWAP5 AND PUSH1 0x80 DUP5 ADD MSTORE PUSH1 0xFF PUSH1 0x1 PUSH1 0xE8 SHL DUP4 DIV DUP2 AND PUSH1 0xA0 DUP6 ADD MSTORE PUSH1 0x1 PUSH1 0xF0 SHL SWAP1 SWAP3 DIV SWAP1 SWAP2 AND ISZERO ISZERO PUSH1 0xC0 DUP4 ADD MSTORE SWAP1 SWAP4 POP DUP15 DUP2 SIGNEXTEND SWAP2 SWAP1 SIGNEXTEND SLT ISZERO SWAP1 POP PUSH2 0x2A0D JUMPI POP SWAP4 SWAP1 SWAP5 SUB SWAP7 POP SWAP1 SUB SWAP4 POP SWAP1 SUB SWAP1 POP PUSH2 0x2A90 JUMP JUMPDEST DUP11 PUSH1 0x2 SIGNEXTEND DUP2 PUSH1 0x20 ADD MLOAD PUSH1 0x2 SIGNEXTEND SLT ISZERO PUSH2 0x2A81 JUMPI PUSH1 0x0 PUSH2 0x2A29 PUSH2 0x2E35 JUMP JUMPDEST PUSH1 0x20 DUP4 ADD MLOAD PUSH1 0x40 DUP5 ADD MLOAD PUSH1 0x4 SLOAD PUSH1 0x60 DUP7 ADD MLOAD SWAP4 SWAP5 POP PUSH1 0x0 SWAP4 DUP5 SWAP4 PUSH2 0x2A5F SWAP4 PUSH1 0x8 SWAP4 DUP9 SWAP4 DUP8 SWAP4 SWAP3 SWAP2 PUSH1 0x1 PUSH1 0x1 PUSH1 0x80 SHL SUB AND SWAP1 PUSH2 0x35CF JUMP JUMPDEST SWAP11 SWAP1 SUB SWAP9 SWAP1 SWAP9 SUB SWAP12 POP POP SWAP5 SWAP1 SWAP7 SUB SWAP3 SWAP1 SWAP3 SUB SWAP7 POP SWAP1 SWAP2 SUB SUB SWAP3 POP PUSH2 0x2A90 SWAP2 POP POP JUMP JUMPDEST POP SWAP5 SWAP1 SWAP4 SUB SWAP7 POP SUB SWAP4 POP SWAP1 SUB SWAP1 POP JUMPDEST SWAP3 POP SWAP3 POP SWAP3 JUMP JUMPDEST PUSH32 0x0 DUP2 JUMP JUMPDEST PUSH32 0x0 DUP2 JUMP JUMPDEST PUSH32 0x0 DUP2 JUMP JUMPDEST PUSH32 0x0 DUP2 JUMP JUMPDEST PUSH1 0x1 SLOAD DUP2 JUMP JUMPDEST PUSH1 0x5 PUSH1 0x20 MSTORE PUSH1 0x0 SWAP1 DUP2 MSTORE PUSH1 0x40 SWAP1 KECCAK256 DUP1 SLOAD PUSH1 0x1 DUP3 ADD SLOAD PUSH1 0x2 DUP4 ADD SLOAD PUSH1 0x3 SWAP1 SWAP4 ADD SLOAD PUSH1 0x1 PUSH1 0x1 PUSH1 0x80 SHL SUB DUP4 AND SWAP4 PUSH1 0x1 PUSH1 0x80 SHL SWAP1 SWAP4 DIV PUSH1 0xF SIGNEXTEND SWAP3 SWAP1 PUSH1 0x6 DUP2 SWAP1 SIGNEXTEND SWAP1 PUSH8 0x100000000000000 DUP2 DIV PUSH1 0x1 PUSH1 0x1 PUSH1 0xA0 SHL SUB AND SWAP1 PUSH1 0x1 PUSH1 0xD8 SHL DUP2 DIV PUSH4 0xFFFFFFFF AND SWAP1 PUSH1 0x1 PUSH1 0xF8 SHL SWAP1 DIV PUSH1 0xFF AND DUP9 JUMP JUMPDEST PUSH1 0x0 SLOAD PUSH1 0x1 PUSH1 0x1 PUSH1 0xA0 SHL SUB AND ISZERO PUSH2 0x2BF9 JUMPI PUSH1 0x40 DUP1 MLOAD PUSH3 0x461BCD PUSH1 0xE5 SHL DUP2 MSTORE PUSH1 0x20 PUSH1 0x4 DUP3 ADD MSTORE PUSH1 0x2 PUSH1 0x24 DUP3 ADD MSTORE PUSH32 0x4149000000000000000000000000000000000000000000000000000000000000 PUSH1 0x44 DUP3 ADD MSTORE SWAP1 MLOAD SWAP1 DUP2 SWAP1 SUB PUSH1 0x64 ADD SWAP1 REVERT JUMPDEST PUSH1 0x0 PUSH2 0x2C04 DUP3 PUSH2 0x3939 JUMP JUMPDEST SWAP1 POP PUSH1 0x0 DUP1 PUSH2 0x2C1C PUSH2 0x2C14 PUSH2 0x2E35 JUMP JUMPDEST PUSH1 0x8 SWAP1 PUSH2 0x48B8 JUMP JUMPDEST PUSH1 0x40 DUP1 MLOAD PUSH1 0xE0 DUP2 ADD DUP3 MSTORE PUSH1 0x1 PUSH1 0x1 PUSH1 0xA0 SHL SUB DUP9 AND DUP1 DUP3 MSTORE PUSH1 0x2 DUP9 DUP2 SIGNEXTEND PUSH1 0x20 DUP1 DUP6 ADD DUP3 SWAP1 MSTORE PUSH1 0x0 DUP6 DUP8 ADD DUP2 SWAP1 MSTORE PUSH2 0xFFFF DUP10 DUP2 AND PUSH1 0x60 DUP9 ADD DUP2 SWAP1 MSTORE SWAP1 DUP10 AND PUSH1 0x80 DUP9 ADD DUP2 SWAP1 MSTORE PUSH1 0xA0 DUP9 ADD DUP4 SWAP1 MSTORE PUSH1 0x1 PUSH1 0xC0 SWAP1 SWAP9 ADD SWAP8 SWAP1 SWAP8 MSTORE DUP2 SLOAD PUSH1 0x1 PUSH1 0xF0 SHL PUSH20 0xFFFFFFFFFFFFFFFFFFFFFFFFFFFFFFFFFFFFFFFF NOT SWAP1 SWAP2 AND DUP8 OR PUSH32 0xFFFFFFFFFFFFFFFFFF000000FFFFFFFFFFFFFFFFFFFFFFFFFFFFFFFFFFFFFFFF AND PUSH1 0x1 PUSH1 0xA0 SHL PUSH3 0xFFFFFF SWAP8 DUP8 SWAP1 SIGNEXTEND SWAP8 SWAP1 SWAP8 AND SWAP7 SWAP1 SWAP7 MUL SWAP6 SWAP1 SWAP6 OR PUSH32 0xFFFFFFFFFF00000000FFFFFFFFFFFFFFFFFFFFFFFFFFFFFFFFFFFFFFFFFFFFFF AND PUSH1 0x1 PUSH1 0xC8 SHL SWAP1 SWAP2 MUL OR PUSH32 0xFFFFFF0000FFFFFFFFFFFFFFFFFFFFFFFFFFFFFFFFFFFFFFFFFFFFFFFFFFFFFF AND PUSH1 0x1 PUSH1 0xD8 SHL SWAP1 SWAP7 MUL SWAP6 SWAP1 SWAP6 OR PUSH32 0xFF0000FFFFFFFFFFFFFFFFFFFFFFFFFFFFFFFFFFFFFFFFFFFFFFFFFFFFFFFFFF AND SWAP3 SWAP1 SWAP3 OR SWAP1 SWAP4 SSTORE DUP4 MLOAD SWAP2 DUP3 MSTORE DUP2 ADD SWAP2 SWAP1 SWAP2 MSTORE DUP2 MLOAD SWAP4 SWAP6 POP SWAP2 SWAP4 POP PUSH32 0x98636036CB66A9C19A37435EFC1E90142190214E8ABEB821BDBA3F2990DD4C95 SWAP3 SWAP2 DUP3 SWAP1 SUB ADD SWAP1 LOG1 POP POP POP POP JUMP JUMPDEST PUSH1 0x0 DUP1 DUP3 PUSH1 0x2 DUP2 SWAP1 SIGNEXTEND PUSH3 0xD89E7 NOT DUP2 PUSH2 0x2DA7 JUMPI INVALID JUMPDEST SDIV MUL SWAP1 POP PUSH1 0x0 DUP4 PUSH1 0x2 DUP2 SWAP1 SIGNEXTEND PUSH3 0xD89E8 DUP2 PUSH2 0x2DBE JUMPI INVALID JUMPDEST SDIV MUL SWAP1 POP PUSH1 0x0 DUP5 PUSH1 0x2 SIGNEXTEND DUP4 DUP4 SUB PUSH1 0x2 SIGNEXTEND DUP2 PUSH2 0x2DD5 JUMPI INVALID JUMPDEST SDIV PUSH1 0x1 ADD SWAP1 POP DUP1 PUSH3 0xFFFFFF AND PUSH1 0x1 PUSH1 0x1 PUSH1 0x80 SHL SUB DUP1 AND DUP2 PUSH2 0x2DF2 JUMPI INVALID JUMPDEST DIV SWAP4 POP POP POP POP JUMPDEST SWAP2 SWAP1 POP JUMP JUMPDEST ADDRESS PUSH1 0x1 PUSH1 0x1 PUSH1 0xA0 SHL SUB PUSH32 0x0 AND EQ PUSH2 0x2E33 JUMPI PUSH1 0x0 DUP1 REVERT JUMPDEST JUMP JUMPDEST TIMESTAMP SWAP1 JUMP JUMPDEST PUSH1 0x0 DUP1 PUSH1 0x0 DUP5 PUSH1 0x2 SIGNEXTEND DUP7 PUSH1 0x2 SIGNEXTEND DUP2 PUSH2 0x2E4D JUMPI INVALID JUMPDEST SDIV SWAP1 POP PUSH1 0x0 DUP7 PUSH1 0x2 SIGNEXTEND SLT DUP1 ISZERO PUSH2 0x2E74 JUMPI POP DUP5 PUSH1 0x2 SIGNEXTEND DUP7 PUSH1 0x2 SIGNEXTEND DUP2 PUSH2 0x2E6D JUMPI INVALID JUMPDEST SMOD PUSH1 0x2 SIGNEXTEND ISZERO ISZERO JUMPDEST ISZERO PUSH2 0x2E7E JUMPI PUSH1 0x0 NOT ADD JUMPDEST DUP4 ISZERO PUSH2 0x2EF3 JUMPI PUSH1 0x0 DUP1 PUSH2 0x2E90 DUP4 PUSH2 0x4904 JUMP JUMPDEST PUSH1 0x1 DUP3 DUP2 SIGNEXTEND DUP2 SIGNEXTEND PUSH1 0x0 SWAP1 DUP2 MSTORE PUSH1 0x20 DUP14 SWAP1 MSTORE PUSH1 0x40 SWAP1 KECCAK256 SLOAD PUSH1 0xFF DUP4 AND SWAP2 SWAP1 SWAP2 SHL DUP1 ADD PUSH1 0x0 NOT ADD SWAP1 DUP2 AND DUP1 ISZERO ISZERO SWAP8 POP SWAP3 SWAP5 POP SWAP1 SWAP3 POP SWAP1 DUP6 PUSH2 0x2ED5 JUMPI DUP9 DUP4 PUSH1 0xFF AND DUP7 SUB MUL PUSH2 0x2EE8 JUMP JUMPDEST DUP9 PUSH2 0x2EDF DUP3 PUSH2 0x4916 JUMP JUMPDEST DUP5 SUB PUSH1 0xFF AND DUP7 SUB MUL JUMPDEST SWAP7 POP POP POP POP POP PUSH2 0x2F71 JUMP JUMPDEST PUSH1 0x0 DUP1 PUSH2 0x2F02 DUP4 PUSH1 0x1 ADD PUSH2 0x4904 JUMP JUMPDEST SWAP2 POP SWAP2 POP PUSH1 0x0 PUSH1 0x1 DUP3 PUSH1 0xFF AND PUSH1 0x1 SWAP1 SHL SUB NOT SWAP1 POP PUSH1 0x0 DUP2 DUP12 PUSH1 0x0 DUP7 PUSH1 0x1 SIGNEXTEND PUSH1 0x1 SIGNEXTEND DUP2 MSTORE PUSH1 0x20 ADD SWAP1 DUP2 MSTORE PUSH1 0x20 ADD PUSH1 0x0 KECCAK256 SLOAD AND SWAP1 POP DUP1 PUSH1 0x0 EQ ISZERO SWAP6 POP DUP6 PUSH2 0x2F54 JUMPI DUP9 DUP4 PUSH1 0xFF SUB PUSH1 0xFF AND DUP7 PUSH1 0x1 ADD ADD MUL PUSH2 0x2F6A JUMP JUMPDEST DUP9 DUP4 PUSH2 0x2F5F DUP4 PUSH2 0x49B6 JUMP JUMPDEST SUB PUSH1 0xFF AND DUP7 PUSH1 0x1 ADD ADD MUL JUMPDEST SWAP7 POP POP POP POP POP JUMPDEST POP SWAP5 POP SWAP5 SWAP3 POP POP POP JUMP JUMPDEST PUSH1 0x0 DUP1 PUSH1 0x0 DUP4 PUSH1 0x2 SIGNEXTEND SLT PUSH2 0x2F92 JUMPI DUP3 PUSH1 0x2 SIGNEXTEND PUSH2 0x2F9A JUMP JUMPDEST DUP3 PUSH1 0x2 SIGNEXTEND PUSH1 0x0 SUB JUMPDEST SWAP1 POP PUSH3 0xD89E8 DUP2 GT ISZERO PUSH2 0x2FF4 JUMPI PUSH1 0x40 DUP1 MLOAD PUSH3 0x461BCD PUSH1 0xE5 SHL DUP2 MSTORE PUSH1 0x20 PUSH1 0x4 DUP3 ADD MSTORE PUSH1 0x1 PUSH1 0x24 DUP3 ADD MSTORE PUSH32 0x5400000000000000000000000000000000000000000000000000000000000000 PUSH1 0x44 DUP3 ADD MSTORE SWAP1 MLOAD SWAP1 DUP2 SWAP1 SUB PUSH1 0x64 ADD SWAP1 REVERT JUMPDEST PUSH1 0x0 PUSH1 0x1 DUP3 AND PUSH2 0x3008 JUMPI PUSH1 0x1 PUSH1 0x80 SHL PUSH2 0x301A JUMP JUMPDEST PUSH16 0xFFFCB933BD6FAD37AA2D162D1A594001 JUMPDEST PUSH17 0xFFFFFFFFFFFFFFFFFFFFFFFFFFFFFFFFFF AND SWAP1 POP PUSH1 0x2 DUP3 AND ISZERO PUSH2 0x304E JUMPI PUSH16 0xFFF97272373D413259A46990580E213A MUL PUSH1 0x80 SHR JUMPDEST PUSH1 0x4 DUP3 AND ISZERO PUSH2 0x306D JUMPI PUSH16 0xFFF2E50F5F656932EF12357CF3C7FDCC MUL PUSH1 0x80 SHR JUMPDEST PUSH1 0x8 DUP3 AND ISZERO PUSH2 0x308C JUMPI PUSH16 0xFFE5CACA7E10E4E61C3624EAA0941CD0 MUL PUSH1 0x80 SHR JUMPDEST PUSH1 0x10 DUP3 AND ISZERO PUSH2 0x30AB JUMPI PUSH16 0xFFCB9843D60F6159C9DB58835C926644 MUL PUSH1 0x80 SHR JUMPDEST PUSH1 0x20 DUP3 AND ISZERO PUSH2 0x30CA JUMPI PUSH16 0xFF973B41FA98C081472E6896DFB254C0 MUL PUSH1 0x80 SHR JUMPDEST PUSH1 0x40 DUP3 AND ISZERO PUSH2 0x30E9 JUMPI PUSH16 0xFF2EA16466C96A3843EC78B326B52861 MUL PUSH1 0x80 SHR JUMPDEST PUSH1 0x80 DUP3 AND ISZERO PUSH2 0x3108 JUMPI PUSH16 0xFE5DEE046A99A2A811C461F1969C3053 MUL PUSH1 0x80 SHR JUMPDEST PUSH2 0x100 DUP3 AND ISZERO PUSH2 0x3128 JUMPI PUSH16 0xFCBE86C7900A88AEDCFFC83B479AA3A4 MUL PUSH1 0x80 SHR JUMPDEST PUSH2 0x200 DUP3 AND ISZERO PUSH2 0x3148 JUMPI PUSH16 0xF987A7253AC413176F2B074CF7815E54 MUL PUSH1 0x80 SHR JUMPDEST PUSH2 0x400 DUP3 AND ISZERO PUSH2 0x3168 JUMPI PUSH16 0xF3392B0822B70005940C7A398E4B70F3 MUL PUSH1 0x80 SHR JUMPDEST PUSH2 0x800 DUP3 AND ISZERO PUSH2 0x3188 JUMPI PUSH16 0xE7159475A2C29B7443B29C7FA6E889D9 MUL PUSH1 0x80 SHR JUMPDEST PUSH2 0x1000 DUP3 AND ISZERO PUSH2 0x31A8 JUMPI PUSH16 0xD097F3BDFD2022B8845AD8F792AA5825 MUL PUSH1 0x80 SHR JUMPDEST PUSH2 0x2000 DUP3 AND ISZERO PUSH2 0x31C8 JUMPI PUSH16 0xA9F746462D870FDF8A65DC1F90E061E5 MUL PUSH1 0x80 SHR JUMPDEST PUSH2 0x4000 DUP3 AND ISZERO PUSH2 0x31E8 JUMPI PUSH16 0x70D869A156D2A1B890BB3DF62BAF32F7 MUL PUSH1 0x80 SHR JUMPDEST PUSH2 0x8000 DUP3 AND ISZERO PUSH2 0x3208 JUMPI PUSH16 0x31BE135F97D08FD981231505542FCFA6 MUL PUSH1 0x80 SHR JUMPDEST PUSH3 0x10000 DUP3 AND ISZERO PUSH2 0x3229 JUMPI PUSH16 0x9AA508B5B7A84E1C677DE54F3E99BC9 MUL PUSH1 0x80 SHR JUMPDEST PUSH3 0x20000 DUP3 AND ISZERO PUSH2 0x3249 JUMPI PUSH15 0x5D6AF8DEDB81196699C329225EE604 MUL PUSH1 0x80 SHR JUMPDEST PUSH3 0x40000 DUP3 AND ISZERO PUSH2 0x3268 JUMPI PUSH14 0x2216E584F5FA1EA926041BEDFE98 MUL PUSH1 0x80 SHR JUMPDEST PUSH3 0x80000 DUP3 AND ISZERO PUSH2 0x3285 JUMPI PUSH12 0x48A170391F7DC42444E8FA2 MUL PUSH1 0x80 SHR JUMPDEST PUSH1 0x0 DUP5 PUSH1 0x2 SIGNEXTEND SGT ISZERO PUSH2 0x32A0 JUMPI DUP1 PUSH1 0x0 NOT DUP2 PUSH2 0x329C JUMPI INVALID JUMPDEST DIV SWAP1 POP JUMPDEST PUSH5 0x100000000 DUP2 MOD ISZERO PUSH2 0x32B4 JUMPI PUSH1 0x1 PUSH2 0x32B7 JUMP JUMPDEST PUSH1 0x0 JUMPDEST PUSH1 0xFF AND PUSH1 0x20 DUP3 SWAP1 SHR ADD SWAP3 POP POP POP SWAP2 SWAP1 POP JUMP JUMPDEST PUSH1 0x0 DUP1 DUP1 DUP1 PUSH1 0x1 PUSH1 0x1 PUSH1 0xA0 SHL SUB DUP1 DUP10 AND SWAP1 DUP11 AND LT ISZERO DUP2 DUP8 SLT DUP1 ISZERO SWAP1 PUSH2 0x334E JUMPI PUSH1 0x0 PUSH2 0x3302 DUP10 DUP10 PUSH3 0xF4240 SUB PUSH3 0xFFFFFF AND PUSH3 0xF4240 PUSH2 0x351F JUMP JUMPDEST SWAP1 POP DUP3 PUSH2 0x331B JUMPI PUSH2 0x3316 DUP13 DUP13 DUP13 PUSH1 0x1 PUSH2 0x4B36 JUMP JUMPDEST PUSH2 0x3328 JUMP JUMPDEST PUSH2 0x3328 DUP12 DUP14 DUP13 PUSH1 0x1 PUSH2 0x4BC3 JUMP JUMPDEST SWAP6 POP DUP6 DUP2 LT PUSH2 0x3339 JUMPI DUP11 SWAP7 POP PUSH2 0x3348 JUMP JUMPDEST PUSH2 0x3345 DUP13 DUP12 DUP4 DUP7 PUSH2 0x4C80 JUMP JUMPDEST SWAP7 POP JUMPDEST POP PUSH2 0x3398 JUMP JUMPDEST DUP2 PUSH2 0x3365 JUMPI PUSH2 0x3360 DUP12 DUP12 DUP12 PUSH1 0x0 PUSH2 0x4BC3 JUMP JUMPDEST PUSH2 0x3372 JUMP JUMPDEST PUSH2 0x3372 DUP11 DUP13 DUP12 PUSH1 0x0 PUSH2 0x4B36 JUMP JUMPDEST SWAP4 POP DUP4 DUP9 PUSH1 0x0 SUB LT PUSH2 0x3386 JUMPI DUP10 SWAP6 POP PUSH2 0x3398 JUMP JUMPDEST PUSH2 0x3395 DUP12 DUP11 DUP11 PUSH1 0x0 SUB DUP6 PUSH2 0x4CCC JUMP JUMPDEST SWAP6 POP JUMPDEST PUSH1 0x1 PUSH1 0x1 PUSH1 0xA0 SHL SUB DUP11 DUP2 AND SWAP1 DUP8 AND EQ DUP3 ISZERO PUSH2 0x33FB JUMPI DUP1 DUP1 ISZERO PUSH2 0x33B7 JUMPI POP DUP2 JUMPDEST PUSH2 0x33CD JUMPI PUSH2 0x33C8 DUP8 DUP14 DUP13 PUSH1 0x1 PUSH2 0x4BC3 JUMP JUMPDEST PUSH2 0x33CF JUMP JUMPDEST DUP6 JUMPDEST SWAP6 POP DUP1 DUP1 ISZERO PUSH2 0x33DC JUMPI POP DUP2 ISZERO JUMPDEST PUSH2 0x33F2 JUMPI PUSH2 0x33ED DUP8 DUP14 DUP13 PUSH1 0x0 PUSH2 0x4B36 JUMP JUMPDEST PUSH2 0x33F4 JUMP JUMPDEST DUP5 JUMPDEST SWAP5 POP PUSH2 0x3445 JUMP JUMPDEST DUP1 DUP1 ISZERO PUSH2 0x3405 JUMPI POP DUP2 JUMPDEST PUSH2 0x341B JUMPI PUSH2 0x3416 DUP13 DUP9 DUP13 PUSH1 0x1 PUSH2 0x4B36 JUMP JUMPDEST PUSH2 0x341D JUMP JUMPDEST DUP6 JUMPDEST SWAP6 POP DUP1 DUP1 ISZERO PUSH2 0x342A JUMPI POP DUP2 ISZERO JUMPDEST PUSH2 0x3440 JUMPI PUSH2 0x343B DUP13 DUP9 DUP13 PUSH1 0x0 PUSH2 0x4BC3 JUMP JUMPDEST PUSH2 0x3442 JUMP JUMPDEST DUP5 JUMPDEST SWAP5 POP JUMPDEST DUP2 ISZERO DUP1 ISZERO PUSH2 0x3455 JUMPI POP DUP9 PUSH1 0x0 SUB DUP6 GT JUMPDEST ISZERO PUSH2 0x3461 JUMPI DUP9 PUSH1 0x0 SUB SWAP5 POP JUMPDEST DUP2 DUP1 ISZERO PUSH2 0x3480 JUMPI POP DUP11 PUSH1 0x1 PUSH1 0x1 PUSH1 0xA0 SHL SUB AND DUP8 PUSH1 0x1 PUSH1 0x1 PUSH1 0xA0 SHL SUB AND EQ ISZERO JUMPDEST ISZERO PUSH2 0x348F JUMPI DUP6 DUP10 SUB SWAP4 POP PUSH2 0x34AC JUMP JUMPDEST PUSH2 0x34A9 DUP7 DUP10 PUSH3 0xFFFFFF AND DUP11 PUSH3 0xF4240 SUB PUSH3 0xFFFFFF AND PUSH2 0x457A JUMP JUMPDEST SWAP4 POP JUMPDEST POP POP POP SWAP6 POP SWAP6 POP SWAP6 POP SWAP6 SWAP2 POP POP JUMP JUMPDEST PUSH1 0x0 PUSH32 0x8000000000000000000000000000000000000000000000000000000000000000 DUP3 LT PUSH2 0x34E9 JUMPI PUSH1 0x0 DUP1 REVERT JUMPDEST POP SWAP1 JUMP JUMPDEST DUP1 DUP3 SUB DUP3 DUP2 SGT ISZERO PUSH1 0x0 DUP4 SLT ISZERO EQ PUSH2 0x3503 JUMPI PUSH1 0x0 DUP1 REVERT JUMPDEST SWAP3 SWAP2 POP POP JUMP JUMPDEST DUP2 DUP2 ADD DUP3 DUP2 SLT ISZERO PUSH1 0x0 DUP4 SLT ISZERO EQ PUSH2 0x3503 JUMPI PUSH1 0x0 DUP1 REVERT JUMPDEST PUSH1 0x0 DUP1 DUP1 PUSH1 0x0 NOT DUP6 DUP8 MULMOD DUP7 DUP7 MUL SWAP3 POP DUP3 DUP2 LT SWAP1 DUP4 SWAP1 SUB SUB SWAP1 POP DUP1 PUSH2 0x3555 JUMPI PUSH1 0x0 DUP5 GT PUSH2 0x354A JUMPI PUSH1 0x0 DUP1 REVERT JUMPDEST POP DUP3 SWAP1 DIV SWAP1 POP PUSH2 0x35C8 JUMP JUMPDEST DUP1 DUP5 GT PUSH2 0x3561 JUMPI PUSH1 0x0 DUP1 REVERT JUMPDEST PUSH1 0x0 DUP5 DUP7 DUP9 MULMOD PUSH1 0x0 DUP7 DUP2 SUB DUP8 AND SWAP7 DUP8 SWAP1 DIV SWAP7 PUSH1 0x2 PUSH1 0x3 DUP10 MUL DUP2 XOR DUP1 DUP11 MUL DUP3 SUB MUL DUP1 DUP11 MUL DUP3 SUB MUL DUP1 DUP11 MUL DUP3 SUB MUL DUP1 DUP11 MUL DUP3 SUB MUL DUP1 DUP11 MUL DUP3 SUB MUL DUP1 DUP11 MUL SWAP1 SWAP2 SUB MUL SWAP2 DUP2 SWAP1 SUB DUP2 SWAP1 DIV PUSH1 0x1 ADD DUP7 DUP5 GT SWAP1 SWAP6 SUB SWAP5 SWAP1 SWAP5 MUL SWAP2 SWAP1 SWAP5 SUB SWAP3 SWAP1 SWAP3 DIV SWAP2 SWAP1 SWAP2 OR SWAP2 SWAP1 SWAP2 MUL SWAP2 POP POP JUMPDEST SWAP4 SWAP3 POP POP POP JUMP JUMPDEST PUSH1 0x0 DUP1 PUSH4 0xFFFFFFFF DUP8 AND PUSH2 0x3676 JUMPI PUSH1 0x0 DUP10 DUP7 PUSH2 0xFFFF AND PUSH2 0xFFFF DUP2 LT PUSH2 0x35F0 JUMPI INVALID JUMPDEST PUSH1 0x40 DUP1 MLOAD PUSH1 0x80 DUP2 ADD DUP3 MSTORE SWAP2 SWAP1 SWAP3 ADD SLOAD PUSH4 0xFFFFFFFF DUP1 DUP3 AND DUP1 DUP5 MSTORE PUSH5 0x100000000 DUP4 DIV PUSH1 0x6 SWAP1 DUP2 SIGNEXTEND DUP2 SIGNEXTEND SWAP1 SIGNEXTEND PUSH1 0x20 DUP6 ADD MSTORE PUSH1 0x1 PUSH1 0x58 SHL DUP4 DIV PUSH1 0x1 PUSH1 0x1 PUSH1 0xA0 SHL SUB AND SWAP5 DUP5 ADD SWAP5 SWAP1 SWAP5 MSTORE PUSH1 0x1 PUSH1 0xF8 SHL SWAP1 SWAP2 DIV PUSH1 0xFF AND ISZERO ISZERO PUSH1 0x60 DUP4 ADD MSTORE SWAP1 SWAP3 POP DUP11 AND EQ PUSH2 0x3662 JUMPI PUSH2 0x365F DUP2 DUP11 DUP10 DUP9 PUSH2 0x4D18 JUMP JUMPDEST SWAP1 POP JUMPDEST DUP1 PUSH1 0x20 ADD MLOAD DUP2 PUSH1 0x40 ADD MLOAD SWAP3 POP SWAP3 POP POP PUSH2 0x3756 JUMP JUMPDEST DUP7 DUP9 SUB PUSH1 0x0 DUP1 PUSH2 0x368B DUP13 DUP13 DUP6 DUP13 DUP13 DUP13 DUP13 PUSH2 0x4DC8 JUMP JUMPDEST SWAP2 POP SWAP2 POP DUP2 PUSH1 0x0 ADD MLOAD PUSH4 0xFFFFFFFF AND DUP4 PUSH4 0xFFFFFFFF AND EQ ISZERO PUSH2 0x36BD JUMPI DUP2 PUSH1 0x20 ADD MLOAD DUP3 PUSH1 0x40 ADD MLOAD SWAP5 POP SWAP5 POP POP POP POP PUSH2 0x3756 JUMP JUMPDEST DUP1 MLOAD PUSH4 0xFFFFFFFF DUP5 DUP2 AND SWAP2 AND EQ ISZERO PUSH2 0x36E5 JUMPI DUP1 PUSH1 0x20 ADD MLOAD DUP2 PUSH1 0x40 ADD MLOAD SWAP5 POP SWAP5 POP POP POP POP PUSH2 0x3756 JUMP JUMPDEST DUP2 MLOAD DUP2 MLOAD PUSH1 0x20 DUP1 DUP6 ADD MLOAD SWAP1 DUP5 ADD MLOAD SWAP2 DUP4 SWAP1 SUB SWAP3 DUP7 SUB SWAP2 PUSH4 0xFFFFFFFF DUP1 DUP5 AND SWAP3 SWAP1 DUP6 AND SWAP2 SUB PUSH1 0x6 SIGNEXTEND DUP2 PUSH2 0x3713 JUMPI INVALID JUMPDEST SDIV MUL DUP5 PUSH1 0x20 ADD MLOAD ADD DUP3 PUSH4 0xFFFFFFFF AND DUP3 PUSH4 0xFFFFFFFF AND DUP7 PUSH1 0x40 ADD MLOAD DUP7 PUSH1 0x40 ADD MLOAD SUB PUSH1 0x1 PUSH1 0x1 PUSH1 0xA0 SHL SUB AND MUL DUP2 PUSH2 0x3745 JUMPI INVALID JUMPDEST DIV DUP6 PUSH1 0x40 ADD MLOAD ADD SWAP7 POP SWAP7 POP POP POP POP POP POP JUMPDEST SWAP8 POP SWAP8 SWAP6 POP POP POP POP POP POP JUMP JUMPDEST PUSH1 0x2 SWAP6 DUP7 SIGNEXTEND DUP7 SIGNEXTEND PUSH1 0x0 SWAP1 DUP2 MSTORE PUSH1 0x20 SWAP8 SWAP1 SWAP8 MSTORE PUSH1 0x40 SWAP1 SWAP7 KECCAK256 PUSH1 0x1 DUP2 ADD DUP1 SLOAD SWAP1 SWAP6 SUB SWAP1 SWAP5 SSTORE SWAP4 DUP4 ADD DUP1 SLOAD SWAP1 SWAP3 SUB SWAP1 SWAP2 SSTORE PUSH1 0x3 DUP3 ADD DUP1 SLOAD PUSH4 0xFFFFFFFF PUSH1 0x1 PUSH1 0xD8 SHL PUSH1 0x1 PUSH1 0x1 PUSH1 0xA0 SHL SUB PUSH8 0x100000000000000 DUP1 DUP6 DIV DUP3 AND SWAP1 SWAP7 SUB AND SWAP1 SWAP5 MUL PUSH32 0xFFFFFFFFFF0000000000000000000000000000000000000000FFFFFFFFFFFFFF SWAP1 SWAP3 AND SWAP2 SWAP1 SWAP2 OR PUSH1 0x6 DUP2 DUP2 SIGNEXTEND SWAP1 SWAP7 SUB SWAP1 SWAP6 SIGNEXTEND PUSH7 0xFFFFFFFFFFFFFF AND PUSH7 0xFFFFFFFFFFFFFF NOT SWAP1 SWAP6 AND SWAP5 SWAP1 SWAP5 OR DUP3 DUP2 DIV DUP6 AND SWAP1 SWAP6 SUB SWAP1 SWAP4 AND MUL PUSH32 0xFF00000000FFFFFFFFFFFFFFFFFFFFFFFFFFFFFFFFFFFFFFFFFFFFFFFFFFFFFF SWAP1 SWAP4 AND SWAP3 SWAP1 SWAP3 OR SWAP1 SSTORE SLOAD PUSH1 0x1 PUSH1 0x80 SHL SWAP1 DIV PUSH1 0xF SIGNEXTEND SWAP1 JUMP JUMPDEST PUSH1 0x0 DUP1 DUP3 PUSH1 0xF SIGNEXTEND SLT ISZERO PUSH2 0x38CD JUMPI DUP3 PUSH1 0x1 PUSH1 0x1 PUSH1 0x80 SHL SUB AND DUP3 PUSH1 0x0 SUB DUP5 SUB SWAP2 POP DUP2 PUSH1 0x1 PUSH1 0x1 PUSH1 0x80 SHL SUB AND LT PUSH2 0x38C8 JUMPI PUSH1 0x40 DUP1 MLOAD PUSH3 0x461BCD PUSH1 0xE5 SHL DUP2 MSTORE PUSH1 0x20 PUSH1 0x4 DUP3 ADD MSTORE PUSH1 0x2 PUSH1 0x24 DUP3 ADD MSTORE PUSH32 0x4C53000000000000000000000000000000000000000000000000000000000000 PUSH1 0x44 DUP3 ADD MSTORE SWAP1 MLOAD SWAP1 DUP2 SWAP1 SUB PUSH1 0x64 ADD SWAP1 REVERT JUMPDEST PUSH2 0x3503 JUMP JUMPDEST DUP3 PUSH1 0x1 PUSH1 0x1 PUSH1 0x80 SHL SUB AND DUP3 DUP5 ADD SWAP2 POP DUP2 PUSH1 0x1 PUSH1 0x1 PUSH1 0x80 SHL SUB AND LT ISZERO PUSH2 0x3503 JUMPI PUSH1 0x40 DUP1 MLOAD PUSH3 0x461BCD PUSH1 0xE5 SHL DUP2 MSTORE PUSH1 0x20 PUSH1 0x4 DUP3 ADD MSTORE PUSH1 0x2 PUSH1 0x24 DUP3 ADD MSTORE PUSH32 0x4C41000000000000000000000000000000000000000000000000000000000000 PUSH1 0x44 DUP3 ADD MSTORE SWAP1 MLOAD SWAP1 DUP2 SWAP1 SUB PUSH1 0x64 ADD SWAP1 REVERT JUMPDEST PUSH1 0x0 PUSH5 0x1000276A3 PUSH1 0x1 PUSH1 0x1 PUSH1 0xA0 SHL SUB DUP4 AND LT DUP1 ISZERO SWAP1 PUSH2 0x3975 JUMPI POP PUSH20 0xFFFD8963EFD1FC6A506488495D951D5263988D26 PUSH1 0x1 PUSH1 0x1 PUSH1 0xA0 SHL SUB DUP4 AND LT JUMPDEST PUSH2 0x39C6 JUMPI PUSH1 0x40 DUP1 MLOAD PUSH3 0x461BCD PUSH1 0xE5 SHL DUP2 MSTORE PUSH1 0x20 PUSH1 0x4 DUP3 ADD MSTORE PUSH1 0x1 PUSH1 0x24 DUP3 ADD MSTORE PUSH32 0x5200000000000000000000000000000000000000000000000000000000000000 PUSH1 0x44 DUP3 ADD MSTORE SWAP1 MLOAD SWAP1 DUP2 SWAP1 SUB PUSH1 0x64 ADD SWAP1 REVERT JUMPDEST PUSH24 0xFFFFFFFFFFFFFFFFFFFFFFFFFFFFFFFFFFFFFFFF00000000 PUSH1 0x20 DUP4 SWAP1 SHL AND PUSH1 0x1 PUSH1 0x1 PUSH1 0x80 SHL SUB DUP2 GT PUSH1 0x7 SHL DUP2 DUP2 SHR PUSH8 0xFFFFFFFFFFFFFFFF DUP2 GT PUSH1 0x6 SHL SWAP1 DUP2 SHR PUSH4 0xFFFFFFFF DUP2 GT PUSH1 0x5 SHL SWAP1 DUP2 SHR PUSH2 0xFFFF DUP2 GT PUSH1 0x4 SHL SWAP1 DUP2 SHR PUSH1 0xFF DUP2 GT PUSH1 0x3 SWAP1 DUP2 SHL SWAP2 DUP3 SHR PUSH1 0xF DUP2 GT PUSH1 0x2 SHL SWAP1 DUP2 SHR SWAP2 DUP3 GT PUSH1 0x1 SWAP1 DUP2 SHL SWAP3 DUP4 SHR SWAP8 SWAP1 DUP9 GT SWAP7 OR SWAP1 SWAP5 OR SWAP1 SWAP3 OR OR SWAP1 SWAP2 OR OR OR PUSH1 0x80 DUP2 LT PUSH2 0x3A67 JUMPI PUSH1 0x7F DUP2 SUB DUP4 SWAP1 SHR SWAP2 POP PUSH2 0x3A71 JUMP JUMPDEST DUP1 PUSH1 0x7F SUB DUP4 SWAP1 SHL SWAP2 POP JUMPDEST SWAP1 DUP1 MUL PUSH1 0x7F DUP2 DUP2 SHR PUSH1 0xFF DUP4 DUP2 SHR SWAP2 SWAP1 SWAP2 SHR DUP1 MUL DUP1 DUP4 SHR DUP2 DUP4 SHR SHR DUP1 MUL DUP1 DUP5 SHR DUP2 DUP5 SHR SHR DUP1 MUL DUP1 DUP6 SHR DUP2 DUP6 SHR SHR DUP1 MUL DUP1 DUP7 SHR DUP2 DUP7 SHR SHR DUP1 MUL DUP1 DUP8 SHR DUP2 DUP8 SHR SHR DUP1 MUL DUP1 DUP9 SHR DUP2 DUP9 SHR SHR DUP1 MUL DUP1 DUP10 SHR DUP2 DUP10 SHR SHR DUP1 MUL DUP1 DUP11 SHR DUP2 DUP11 SHR SHR DUP1 MUL DUP1 DUP12 SHR DUP2 DUP12 SHR SHR DUP1 MUL DUP1 DUP13 SHR DUP2 DUP13 SHR SHR DUP1 MUL DUP1 DUP14 SHR DUP2 DUP14 SHR SHR DUP1 MUL DUP1 DUP15 SHR SWAP13 DUP2 SWAP1 SHR SWAP13 SWAP1 SWAP13 SHR DUP1 MUL SWAP13 DUP14 SWAP1 SHR SWAP15 SWAP14 PUSH1 0x7F NOT DUP16 ADD PUSH1 0x40 SHL PUSH1 0xC0 SWAP2 SWAP1 SWAP2 SHR PUSH8 0x8000000000000000 AND OR PUSH1 0xC1 SWAP12 SWAP1 SWAP12 SHR PUSH8 0x4000000000000000 AND SWAP11 SWAP1 SWAP11 OR PUSH1 0xC2 SWAP10 SWAP1 SWAP10 SHR PUSH8 0x2000000000000000 AND SWAP9 SWAP1 SWAP9 OR PUSH1 0xC3 SWAP8 SWAP1 SWAP8 SHR PUSH8 0x1000000000000000 AND SWAP7 SWAP1 SWAP7 OR PUSH1 0xC4 SWAP6 SWAP1 SWAP6 SHR PUSH8 0x800000000000000 AND SWAP5 SWAP1 SWAP5 OR PUSH1 0xC5 SWAP4 SWAP1 SWAP4 SHR PUSH8 0x400000000000000 AND SWAP3 SWAP1 SWAP3 OR PUSH1 0xC6 SWAP2 SWAP1 SWAP2 SHR PUSH8 0x200000000000000 AND OR PUSH1 0xC7 SWAP2 SWAP1 SWAP2 SHR PUSH8 0x100000000000000 AND OR PUSH1 0xC8 SWAP2 SWAP1 SWAP2 SHR PUSH7 0x80000000000000 AND OR PUSH1 0xC9 SWAP2 SWAP1 SWAP2 SHR PUSH7 0x40000000000000 AND OR PUSH1 0xCA SWAP2 SWAP1 SWAP2 SHR PUSH7 0x20000000000000 AND OR PUSH1 0xCB SWAP2 SWAP1 SWAP2 SHR PUSH7 0x10000000000000 AND OR PUSH1 0xCC SWAP2 SWAP1 SWAP2 SHR PUSH7 0x8000000000000 AND OR PUSH1 0xCD SWAP2 SWAP1 SWAP2 SHR PUSH7 0x4000000000000 AND OR PUSH10 0x3627A301D71055774C85 DUP2 MUL PUSH32 0xFFFFFFFFFFFFFFFFFFFFFFFFFFFFFFFFFD709B7E5480FBA5A50FED5E62FFC556 DUP2 ADD PUSH1 0x80 SWAP1 DUP2 SAR SWAP1 PUSH16 0xDB2DF09E81959A81455E260799A0632F DUP4 ADD SWAP1 SAR PUSH1 0x2 DUP2 DUP2 SIGNEXTEND SWAP1 DUP4 SWAP1 SIGNEXTEND EQ PUSH2 0x3C81 JUMPI DUP9 PUSH1 0x1 PUSH1 0x1 PUSH1 0xA0 SHL SUB AND PUSH2 0x3C65 DUP3 PUSH2 0x2F7B JUMP JUMPDEST PUSH1 0x1 PUSH1 0x1 PUSH1 0xA0 SHL SUB AND GT ISZERO PUSH2 0x3C7A JUMPI DUP2 PUSH2 0x3C7C JUMP JUMPDEST DUP1 JUMPDEST PUSH2 0x3C83 JUMP JUMPDEST DUP2 JUMPDEST SWAP10 SWAP9 POP POP POP POP POP POP POP POP POP JUMP JUMPDEST PUSH1 0x0 DUP1 PUSH1 0x0 DUP10 DUP10 PUSH2 0xFFFF AND PUSH2 0xFFFF DUP2 LT PUSH2 0x3CA6 JUMPI INVALID JUMPDEST PUSH1 0x40 DUP1 MLOAD PUSH1 0x80 DUP2 ADD DUP3 MSTORE SWAP2 SWAP1 SWAP3 ADD SLOAD PUSH4 0xFFFFFFFF DUP1 DUP3 AND DUP1 DUP5 MSTORE PUSH5 0x100000000 DUP4 DIV PUSH1 0x6 SWAP1 DUP2 SIGNEXTEND DUP2 SIGNEXTEND SWAP1 SIGNEXTEND PUSH1 0x20 DUP6 ADD MSTORE PUSH1 0x1 PUSH1 0x58 SHL DUP4 DIV PUSH1 0x1 PUSH1 0x1 PUSH1 0xA0 SHL SUB AND SWAP5 DUP5 ADD SWAP5 SWAP1 SWAP5 MSTORE PUSH1 0x1 PUSH1 0xF8 SHL SWAP1 SWAP2 DIV PUSH1 0xFF AND ISZERO ISZERO PUSH1 0x60 DUP4 ADD MSTORE SWAP1 SWAP3 POP DUP10 AND EQ ISZERO PUSH2 0x3D16 JUMPI DUP9 DUP6 SWAP3 POP SWAP3 POP POP PUSH2 0x3756 JUMP JUMPDEST DUP5 PUSH2 0xFFFF AND DUP5 PUSH2 0xFFFF AND GT DUP1 ISZERO PUSH2 0x3D37 JUMPI POP PUSH1 0x1 DUP6 SUB PUSH2 0xFFFF AND DUP10 PUSH2 0xFFFF AND EQ JUMPDEST ISZERO PUSH2 0x3D44 JUMPI DUP4 SWAP2 POP PUSH2 0x3D48 JUMP JUMPDEST DUP5 SWAP2 POP JUMPDEST DUP2 PUSH2 0xFFFF AND DUP10 PUSH1 0x1 ADD PUSH2 0xFFFF AND DUP2 PUSH2 0x3D5C JUMPI INVALID JUMPDEST MOD SWAP3 POP PUSH2 0x3D6B DUP2 DUP10 DUP10 DUP10 PUSH2 0x4D18 JUMP JUMPDEST DUP11 DUP5 PUSH2 0xFFFF AND PUSH2 0xFFFF DUP2 LT PUSH2 0x3D7C JUMPI INVALID JUMPDEST DUP3 MLOAD SWAP2 ADD DUP1 SLOAD PUSH1 0x20 DUP5 ADD MLOAD PUSH1 0x40 DUP6 ADD MLOAD PUSH1 0x60 SWAP1 SWAP6 ADD MLOAD ISZERO ISZERO PUSH1 0x1 PUSH1 0xF8 SHL MUL PUSH31 0xFFFFFFFFFFFFFFFFFFFFFFFFFFFFFFFFFFFFFFFFFFFFFFFFFFFFFFFFFFFFFF PUSH1 0x1 PUSH1 0x1 PUSH1 0xA0 SHL SUB SWAP1 SWAP7 AND PUSH1 0x1 PUSH1 0x58 SHL MUL PUSH32 0xFF0000000000000000000000000000000000000000FFFFFFFFFFFFFFFFFFFFFF PUSH1 0x6 SWAP4 SWAP1 SWAP4 SIGNEXTEND PUSH7 0xFFFFFFFFFFFFFF AND PUSH5 0x100000000 MUL PUSH32 0xFFFFFFFFFFFFFFFFFFFFFFFFFFFFFFFFFFFFFFFFFF00000000000000FFFFFFFF PUSH4 0xFFFFFFFF SWAP1 SWAP8 AND PUSH4 0xFFFFFFFF NOT SWAP1 SWAP6 AND SWAP5 SWAP1 SWAP5 OR SWAP6 SWAP1 SWAP6 AND SWAP3 SWAP1 SWAP3 OR AND SWAP3 SWAP1 SWAP3 OR SWAP3 SWAP1 SWAP3 AND OR SWAP1 SSTORE POP SWAP8 POP SWAP8 SWAP6 POP POP POP POP POP POP JUMP JUMPDEST PUSH1 0x40 DUP1 MLOAD PUSH1 0x1 PUSH1 0x1 PUSH1 0xA0 SHL SUB DUP5 DUP2 AND PUSH1 0x24 DUP4 ADD MSTORE PUSH1 0x44 DUP1 DUP4 ADD DUP6 SWAP1 MSTORE DUP4 MLOAD DUP1 DUP5 SUB SWAP1 SWAP2 ADD DUP2 MSTORE PUSH1 0x64 SWAP1 SWAP3 ADD DUP4 MSTORE PUSH1 0x20 DUP3 ADD DUP1 MLOAD PUSH28 0xFFFFFFFFFFFFFFFFFFFFFFFFFFFFFFFFFFFFFFFFFFFFFFFFFFFFFFFF AND PUSH32 0xA9059CBB00000000000000000000000000000000000000000000000000000000 OR DUP2 MSTORE SWAP3 MLOAD DUP3 MLOAD PUSH1 0x0 SWAP5 DUP6 SWAP5 SWAP4 DUP10 AND SWAP4 SWAP3 SWAP2 DUP3 SWAP2 SWAP1 DUP1 DUP4 DUP4 JUMPDEST PUSH1 0x20 DUP4 LT PUSH2 0x3F03 JUMPI DUP1 MLOAD DUP3 MSTORE PUSH1 0x1F NOT SWAP1 SWAP3 ADD SWAP2 PUSH1 0x20 SWAP2 DUP3 ADD SWAP2 ADD PUSH2 0x3EE4 JUMP JUMPDEST PUSH1 0x1 DUP4 PUSH1 0x20 SUB PUSH2 0x100 EXP SUB DUP1 NOT DUP3 MLOAD AND DUP2 DUP5 MLOAD AND DUP1 DUP3 OR DUP6 MSTORE POP POP POP POP POP POP SWAP1 POP ADD SWAP2 POP POP PUSH1 0x0 PUSH1 0x40 MLOAD DUP1 DUP4 SUB DUP2 PUSH1 0x0 DUP7 GAS CALL SWAP2 POP POP RETURNDATASIZE DUP1 PUSH1 0x0 DUP2 EQ PUSH2 0x3F65 JUMPI PUSH1 0x40 MLOAD SWAP2 POP PUSH1 0x1F NOT PUSH1 0x3F RETURNDATASIZE ADD AND DUP3 ADD PUSH1 0x40 MSTORE RETURNDATASIZE DUP3 MSTORE RETURNDATASIZE PUSH1 0x0 PUSH1 0x20 DUP5 ADD RETURNDATACOPY PUSH2 0x3F6A JUMP JUMPDEST PUSH1 0x60 SWAP2 POP JUMPDEST POP SWAP2 POP SWAP2 POP DUP2 DUP1 ISZERO PUSH2 0x3F98 JUMPI POP DUP1 MLOAD ISZERO DUP1 PUSH2 0x3F98 JUMPI POP DUP1 DUP1 PUSH1 0x20 ADD SWAP1 MLOAD PUSH1 0x20 DUP2 LT ISZERO PUSH2 0x3F95 JUMPI PUSH1 0x0 DUP1 REVERT JUMPDEST POP MLOAD JUMPDEST PUSH2 0x3FE9 JUMPI PUSH1 0x40 DUP1 MLOAD PUSH3 0x461BCD PUSH1 0xE5 SHL DUP2 MSTORE PUSH1 0x20 PUSH1 0x4 DUP3 ADD MSTORE PUSH1 0x2 PUSH1 0x24 DUP3 ADD MSTORE PUSH32 0x5446000000000000000000000000000000000000000000000000000000000000 PUSH1 0x44 DUP3 ADD MSTORE SWAP1 MLOAD SWAP1 DUP2 SWAP1 SUB PUSH1 0x64 ADD SWAP1 REVERT JUMPDEST POP POP POP POP POP JUMP JUMPDEST PUSH1 0x40 DUP1 MLOAD ADDRESS PUSH1 0x24 DUP1 DUP4 ADD SWAP2 SWAP1 SWAP2 MSTORE DUP3 MLOAD DUP1 DUP4 SUB SWAP1 SWAP2 ADD DUP2 MSTORE PUSH1 0x44 SWAP1 SWAP2 ADD DUP3 MSTORE PUSH1 0x20 DUP2 ADD DUP1 MLOAD PUSH28 0xFFFFFFFFFFFFFFFFFFFFFFFFFFFFFFFFFFFFFFFFFFFFFFFFFFFFFFFF AND PUSH32 0x70A0823100000000000000000000000000000000000000000000000000000000 OR DUP2 MSTORE SWAP2 MLOAD DUP2 MLOAD PUSH1 0x0 SWAP4 DUP5 SWAP4 DUP5 SWAP4 PUSH1 0x1 PUSH1 0x1 PUSH1 0xA0 SHL SUB PUSH32 0x0 AND SWAP4 SWAP2 SWAP3 SWAP1 SWAP2 DUP3 SWAP2 SWAP1 DUP1 DUP4 DUP4 JUMPDEST PUSH1 0x20 DUP4 LT PUSH2 0x40B7 JUMPI DUP1 MLOAD DUP3 MSTORE PUSH1 0x1F NOT SWAP1 SWAP3 ADD SWAP2 PUSH1 0x20 SWAP2 DUP3 ADD SWAP2 ADD PUSH2 0x4098 JUMP JUMPDEST PUSH1 0x1 DUP4 PUSH1 0x20 SUB PUSH2 0x100 EXP SUB DUP1 NOT DUP3 MLOAD AND DUP2 DUP5 MLOAD AND DUP1 DUP3 OR DUP6 MSTORE POP POP POP POP POP POP SWAP1 POP ADD SWAP2 POP POP PUSH1 0x0 PUSH1 0x40 MLOAD DUP1 DUP4 SUB DUP2 DUP6 GAS STATICCALL SWAP2 POP POP RETURNDATASIZE DUP1 PUSH1 0x0 DUP2 EQ PUSH2 0x4117 JUMPI PUSH1 0x40 MLOAD SWAP2 POP PUSH1 0x1F NOT PUSH1 0x3F RETURNDATASIZE ADD AND DUP3 ADD PUSH1 0x40 MSTORE RETURNDATASIZE DUP3 MSTORE RETURNDATASIZE PUSH1 0x0 PUSH1 0x20 DUP5 ADD RETURNDATACOPY PUSH2 0x411C JUMP JUMPDEST PUSH1 0x60 SWAP2 POP JUMPDEST POP SWAP2 POP SWAP2 POP DUP2 DUP1 ISZERO PUSH2 0x4130 JUMPI POP PUSH1 0x20 DUP2 MLOAD LT ISZERO JUMPDEST PUSH2 0x4139 JUMPI PUSH1 0x0 DUP1 REVERT JUMPDEST DUP1 DUP1 PUSH1 0x20 ADD SWAP1 MLOAD PUSH1 0x20 DUP2 LT ISZERO PUSH2 0x414E JUMPI PUSH1 0x0 DUP1 REVERT JUMPDEST POP MLOAD SWAP3 POP POP POP SWAP1 JUMP JUMPDEST DUP1 DUP3 ADD DUP3 DUP2 LT ISZERO PUSH2 0x3503 JUMPI PUSH1 0x0 DUP1 REVERT JUMPDEST PUSH1 0x40 DUP1 MLOAD ADDRESS PUSH1 0x24 DUP1 DUP4 ADD SWAP2 SWAP1 SWAP2 MSTORE DUP3 MLOAD DUP1 DUP4 SUB SWAP1 SWAP2 ADD DUP2 MSTORE PUSH1 0x44 SWAP1 SWAP2 ADD DUP3 MSTORE PUSH1 0x20 DUP2 ADD DUP1 MLOAD PUSH28 0xFFFFFFFFFFFFFFFFFFFFFFFFFFFFFFFFFFFFFFFFFFFFFFFFFFFFFFFF AND PUSH32 0x70A0823100000000000000000000000000000000000000000000000000000000 OR DUP2 MSTORE SWAP2 MLOAD DUP2 MLOAD PUSH1 0x0 SWAP4 DUP5 SWAP4 DUP5 SWAP4 PUSH1 0x1 PUSH1 0x1 PUSH1 0xA0 SHL SUB PUSH32 0x0 AND SWAP4 SWAP2 SWAP3 SWAP1 SWAP2 DUP3 SWAP2 SWAP1 DUP1 DUP4 DUP4 PUSH1 0x20 DUP4 LT PUSH2 0x40B7 JUMPI DUP1 MLOAD DUP3 MSTORE PUSH1 0x1F NOT SWAP1 SWAP3 ADD SWAP2 PUSH1 0x20 SWAP2 DUP3 ADD SWAP2 ADD PUSH2 0x4098 JUMP JUMPDEST PUSH1 0x0 DUP1 DUP4 PUSH2 0xFFFF AND GT PUSH2 0x4287 JUMPI PUSH1 0x40 DUP1 MLOAD PUSH3 0x461BCD PUSH1 0xE5 SHL DUP2 MSTORE PUSH1 0x20 PUSH1 0x4 DUP3 ADD MSTORE PUSH1 0x1 PUSH1 0x24 DUP3 ADD MSTORE PUSH32 0x4900000000000000000000000000000000000000000000000000000000000000 PUSH1 0x44 DUP3 ADD MSTORE SWAP1 MLOAD SWAP1 DUP2 SWAP1 SUB PUSH1 0x64 ADD SWAP1 REVERT JUMPDEST DUP3 PUSH2 0xFFFF AND DUP3 PUSH2 0xFFFF AND GT PUSH2 0x429D JUMPI POP DUP2 PUSH2 0x35C8 JUMP JUMPDEST DUP3 JUMPDEST DUP3 PUSH2 0xFFFF AND DUP2 PUSH2 0xFFFF AND LT ISZERO PUSH2 0x42E3 JUMPI PUSH1 0x1 DUP6 DUP3 PUSH2 0xFFFF AND PUSH2 0xFFFF DUP2 LT PUSH2 0x42C2 JUMPI INVALID JUMPDEST ADD DUP1 SLOAD PUSH4 0xFFFFFFFF NOT AND PUSH4 0xFFFFFFFF SWAP3 SWAP1 SWAP3 AND SWAP2 SWAP1 SWAP2 OR SWAP1 SSTORE PUSH1 0x1 ADD PUSH2 0x429F JUMP JUMPDEST POP SWAP1 SWAP4 SWAP3 POP POP POP JUMP JUMPDEST DUP1 PUSH1 0xF DUP2 SWAP1 SIGNEXTEND DUP2 EQ PUSH2 0x2DF9 JUMPI PUSH1 0x0 DUP1 REVERT JUMPDEST PUSH1 0x0 DUP1 PUSH1 0x0 PUSH2 0x430A PUSH2 0x2DFE JUMP JUMPDEST PUSH2 0x431C DUP5 PUSH1 0x20 ADD MLOAD DUP6 PUSH1 0x40 ADD MLOAD PUSH2 0x47A1 JUMP JUMPDEST PUSH1 0x40 DUP1 MLOAD PUSH1 0xE0 DUP2 ADD DUP3 MSTORE PUSH1 0x0 SLOAD PUSH1 0x1 PUSH1 0x1 PUSH1 0xA0 SHL SUB DUP2 AND DUP3 MSTORE PUSH1 0x1 PUSH1 0xA0 SHL DUP2 DIV PUSH1 0x2 SWAP1 DUP2 SIGNEXTEND DUP2 SIGNEXTEND SWAP1 SIGNEXTEND PUSH1 0x20 DUP1 DUP5 ADD DUP3 SWAP1 MSTORE PUSH2 0xFFFF PUSH1 0x1 PUSH1 0xB8 SHL DUP5 DIV DUP2 AND DUP6 DUP8 ADD MSTORE PUSH1 0x1 PUSH1 0xC8 SHL DUP5 DIV DUP2 AND PUSH1 0x60 DUP1 DUP8 ADD SWAP2 SWAP1 SWAP2 MSTORE PUSH1 0x1 PUSH1 0xD8 SHL DUP6 DIV SWAP1 SWAP2 AND PUSH1 0x80 DUP7 ADD MSTORE PUSH1 0xFF PUSH1 0x1 PUSH1 0xE8 SHL DUP6 DIV DUP2 AND PUSH1 0xA0 DUP8 ADD MSTORE PUSH1 0x1 PUSH1 0xF0 SHL SWAP1 SWAP5 DIV SWAP1 SWAP4 AND ISZERO ISZERO PUSH1 0xC0 DUP6 ADD MSTORE DUP9 MLOAD SWAP1 DUP10 ADD MLOAD SWAP5 DUP10 ADD MLOAD SWAP3 DUP10 ADD MLOAD SWAP4 SWAP5 PUSH2 0x43C0 SWAP5 SWAP2 SWAP4 SWAP1 SWAP3 SWAP1 SWAP2 SWAP1 PUSH2 0x4FDF JUMP JUMPDEST SWAP4 POP DUP5 PUSH1 0x60 ADD MLOAD PUSH1 0xF SIGNEXTEND PUSH1 0x0 EQ PUSH2 0x4572 JUMPI DUP5 PUSH1 0x20 ADD MLOAD PUSH1 0x2 SIGNEXTEND DUP2 PUSH1 0x20 ADD MLOAD PUSH1 0x2 SIGNEXTEND SLT ISZERO PUSH2 0x4415 JUMPI PUSH2 0x440E PUSH2 0x43F7 DUP7 PUSH1 0x20 ADD MLOAD PUSH2 0x2F7B JUMP JUMPDEST PUSH2 0x4404 DUP8 PUSH1 0x40 ADD MLOAD PUSH2 0x2F7B JUMP JUMPDEST DUP8 PUSH1 0x60 ADD MLOAD PUSH2 0x5194 JUMP JUMPDEST SWAP3 POP PUSH2 0x4572 JUMP JUMPDEST DUP5 PUSH1 0x40 ADD MLOAD PUSH1 0x2 SIGNEXTEND DUP2 PUSH1 0x20 ADD MLOAD PUSH1 0x2 SIGNEXTEND SLT ISZERO PUSH2 0x4548 JUMPI PUSH1 0x4 SLOAD PUSH1 0x40 DUP3 ADD MLOAD PUSH1 0x1 PUSH1 0x1 PUSH1 0x80 SHL SUB SWAP1 SWAP2 AND SWAP1 PUSH2 0x4467 SWAP1 PUSH2 0x444B PUSH2 0x2E35 JUMP JUMPDEST PUSH1 0x20 DUP6 ADD MLOAD PUSH1 0x60 DUP7 ADD MLOAD PUSH1 0x80 DUP8 ADD MLOAD PUSH1 0x8 SWAP5 SWAP4 SWAP3 SWAP2 DUP8 SWAP2 PUSH2 0x3C90 JUMP JUMPDEST PUSH1 0x0 DUP1 SLOAD PUSH32 0xFFFFFFFFFF0000FFFFFFFFFFFFFFFFFFFFFFFFFFFFFFFFFFFFFFFFFFFFFFFFFF AND PUSH1 0x1 PUSH1 0xC8 SHL PUSH2 0xFFFF SWAP4 DUP5 AND MUL OR PUSH32 0xFFFFFFFFFFFFFF0000FFFFFFFFFFFFFFFFFFFFFFFFFFFFFFFFFFFFFFFFFFFFFF AND PUSH1 0x1 PUSH1 0xB8 SHL SWAP4 SWAP1 SWAP3 AND SWAP3 SWAP1 SWAP3 MUL OR SWAP1 SSTORE DUP2 MLOAD PUSH1 0x40 DUP8 ADD MLOAD PUSH2 0x44EB SWAP2 SWAP1 PUSH2 0x44E1 SWAP1 PUSH2 0x2F7B JUMP JUMPDEST DUP9 PUSH1 0x60 ADD MLOAD PUSH2 0x5194 JUMP JUMPDEST SWAP4 POP PUSH2 0x4509 PUSH2 0x44FD DUP8 PUSH1 0x20 ADD MLOAD PUSH2 0x2F7B JUMP JUMPDEST DUP4 MLOAD PUSH1 0x60 DUP10 ADD MLOAD PUSH2 0x51D8 JUMP JUMPDEST SWAP3 POP PUSH2 0x4519 DUP2 DUP8 PUSH1 0x60 ADD MLOAD PUSH2 0x384D JUMP JUMPDEST PUSH1 0x4 DUP1 SLOAD PUSH16 0xFFFFFFFFFFFFFFFFFFFFFFFFFFFFFFFF NOT AND PUSH1 0x1 PUSH1 0x1 PUSH1 0x80 SHL SUB SWAP3 SWAP1 SWAP3 AND SWAP2 SWAP1 SWAP2 OR SWAP1 SSTORE POP PUSH2 0x4572 JUMP JUMPDEST PUSH2 0x456F PUSH2 0x4558 DUP7 PUSH1 0x20 ADD MLOAD PUSH2 0x2F7B JUMP JUMPDEST PUSH2 0x4565 DUP8 PUSH1 0x40 ADD MLOAD PUSH2 0x2F7B JUMP JUMPDEST DUP8 PUSH1 0x60 ADD MLOAD PUSH2 0x51D8 JUMP JUMPDEST SWAP2 POP JUMPDEST POP SWAP2 SWAP4 SWAP1 SWAP3 POP JUMP JUMPDEST PUSH1 0x0 PUSH2 0x4587 DUP5 DUP5 DUP5 PUSH2 0x351F JUMP JUMPDEST SWAP1 POP PUSH1 0x0 DUP3 DUP1 PUSH2 0x4593 JUMPI INVALID JUMPDEST DUP5 DUP7 MULMOD GT ISZERO PUSH2 0x35C8 JUMPI PUSH1 0x0 NOT DUP2 LT PUSH2 0x45AA JUMPI PUSH1 0x0 DUP1 REVERT JUMPDEST PUSH1 0x1 ADD SWAP4 SWAP3 POP POP POP JUMP JUMPDEST PUSH1 0x40 DUP1 MLOAD PUSH1 0x60 SWAP5 SWAP1 SWAP5 SHL PUSH32 0xFFFFFFFFFFFFFFFFFFFFFFFFFFFFFFFFFFFFFFFF000000000000000000000000 AND PUSH1 0x20 DUP1 DUP7 ADD SWAP2 SWAP1 SWAP2 MSTORE PUSH1 0x2 SWAP4 DUP5 SIGNEXTEND PUSH1 0xE8 SWAP1 DUP2 SHL PUSH1 0x34 DUP8 ADD MSTORE SWAP3 SWAP1 SWAP4 SIGNEXTEND SWAP1 SWAP2 SHL PUSH1 0x37 DUP5 ADD MSTORE DUP1 MLOAD DUP1 DUP5 SUB PUSH1 0x1A ADD DUP2 MSTORE PUSH1 0x3A SWAP1 SWAP4 ADD DUP2 MSTORE DUP3 MLOAD SWAP3 DUP3 ADD SWAP3 SWAP1 SWAP3 KECCAK256 PUSH1 0x0 SWAP1 DUP2 MSTORE SWAP3 SWAP1 MSTORE SWAP1 KECCAK256 SWAP1 JUMP JUMPDEST PUSH1 0x60 DUP1 PUSH1 0x0 DUP4 PUSH2 0xFFFF AND GT PUSH2 0x4687 JUMPI PUSH1 0x40 DUP1 MLOAD PUSH3 0x461BCD PUSH1 0xE5 SHL DUP2 MSTORE PUSH1 0x20 PUSH1 0x4 DUP3 ADD MSTORE PUSH1 0x1 PUSH1 0x24 DUP3 ADD MSTORE PUSH32 0x4900000000000000000000000000000000000000000000000000000000000000 PUSH1 0x44 DUP3 ADD MSTORE SWAP1 MLOAD SWAP1 DUP2 SWAP1 SUB PUSH1 0x64 ADD SWAP1 REVERT JUMPDEST DUP7 MLOAD PUSH8 0xFFFFFFFFFFFFFFFF DUP2 GT DUP1 ISZERO PUSH2 0x469F JUMPI PUSH1 0x0 DUP1 REVERT JUMPDEST POP PUSH1 0x40 MLOAD SWAP1 DUP1 DUP3 MSTORE DUP1 PUSH1 0x20 MUL PUSH1 0x20 ADD DUP3 ADD PUSH1 0x40 MSTORE DUP1 ISZERO PUSH2 0x46C9 JUMPI DUP2 PUSH1 0x20 ADD PUSH1 0x20 DUP3 MUL DUP1 CALLDATASIZE DUP4 CALLDATACOPY ADD SWAP1 POP JUMPDEST POP SWAP2 POP DUP7 MLOAD PUSH8 0xFFFFFFFFFFFFFFFF DUP2 GT DUP1 ISZERO PUSH2 0x46E4 JUMPI PUSH1 0x0 DUP1 REVERT JUMPDEST POP PUSH1 0x40 MLOAD SWAP1 DUP1 DUP3 MSTORE DUP1 PUSH1 0x20 MUL PUSH1 0x20 ADD DUP3 ADD PUSH1 0x40 MSTORE DUP1 ISZERO PUSH2 0x470E JUMPI DUP2 PUSH1 0x20 ADD PUSH1 0x20 DUP3 MUL DUP1 CALLDATASIZE DUP4 CALLDATACOPY ADD SWAP1 POP JUMPDEST POP SWAP1 POP PUSH1 0x0 JUMPDEST DUP8 MLOAD DUP2 LT ISZERO PUSH2 0x4794 JUMPI PUSH2 0x473F DUP11 DUP11 DUP11 DUP5 DUP2 MLOAD DUP2 LT PUSH2 0x472E JUMPI INVALID JUMPDEST PUSH1 0x20 MUL PUSH1 0x20 ADD ADD MLOAD DUP11 DUP11 DUP11 DUP11 PUSH2 0x35CF JUMP JUMPDEST DUP5 DUP4 DUP2 MLOAD DUP2 LT PUSH2 0x474B JUMPI INVALID JUMPDEST PUSH1 0x20 MUL PUSH1 0x20 ADD ADD DUP5 DUP5 DUP2 MLOAD DUP2 LT PUSH2 0x475E JUMPI INVALID JUMPDEST PUSH1 0x20 MUL PUSH1 0x20 ADD ADD DUP3 PUSH1 0x1 PUSH1 0x1 PUSH1 0xA0 SHL SUB AND PUSH1 0x1 PUSH1 0x1 PUSH1 0xA0 SHL SUB AND DUP2 MSTORE POP DUP3 PUSH1 0x6 SIGNEXTEND PUSH1 0x6 SIGNEXTEND DUP2 MSTORE POP POP POP DUP1 DUP1 PUSH1 0x1 ADD SWAP2 POP POP PUSH2 0x4714 JUMP JUMPDEST POP SWAP8 POP SWAP8 SWAP6 POP POP POP POP POP POP JUMP JUMPDEST DUP1 PUSH1 0x2 SIGNEXTEND DUP3 PUSH1 0x2 SIGNEXTEND SLT PUSH2 0x47FB JUMPI PUSH1 0x40 DUP1 MLOAD PUSH3 0x461BCD PUSH1 0xE5 SHL DUP2 MSTORE PUSH1 0x20 PUSH1 0x4 DUP3 ADD MSTORE PUSH1 0x3 PUSH1 0x24 DUP3 ADD MSTORE PUSH32 0x544C550000000000000000000000000000000000000000000000000000000000 PUSH1 0x44 DUP3 ADD MSTORE SWAP1 MLOAD SWAP1 DUP2 SWAP1 SUB PUSH1 0x64 ADD SWAP1 REVERT JUMPDEST PUSH3 0xD89E7 NOT PUSH1 0x2 DUP4 SWAP1 SIGNEXTEND SLT ISZERO PUSH2 0x4858 JUMPI PUSH1 0x40 DUP1 MLOAD PUSH3 0x461BCD PUSH1 0xE5 SHL DUP2 MSTORE PUSH1 0x20 PUSH1 0x4 DUP3 ADD MSTORE PUSH1 0x3 PUSH1 0x24 DUP3 ADD MSTORE PUSH32 0x544C4D0000000000000000000000000000000000000000000000000000000000 PUSH1 0x44 DUP3 ADD MSTORE SWAP1 MLOAD SWAP1 DUP2 SWAP1 SUB PUSH1 0x64 ADD SWAP1 REVERT JUMPDEST PUSH3 0xD89E8 PUSH1 0x2 DUP3 SWAP1 SIGNEXTEND SGT ISZERO PUSH2 0x48B4 JUMPI PUSH1 0x40 DUP1 MLOAD PUSH3 0x461BCD PUSH1 0xE5 SHL DUP2 MSTORE PUSH1 0x20 PUSH1 0x4 DUP3 ADD MSTORE PUSH1 0x3 PUSH1 0x24 DUP3 ADD MSTORE PUSH32 0x54554D0000000000000000000000000000000000000000000000000000000000 PUSH1 0x44 DUP3 ADD MSTORE SWAP1 MLOAD SWAP1 DUP2 SWAP1 SUB PUSH1 0x64 ADD SWAP1 REVERT JUMPDEST POP POP JUMP JUMPDEST PUSH1 0x40 DUP1 MLOAD PUSH1 0x80 DUP2 ADD DUP3 MSTORE PUSH4 0xFFFFFFFF SWAP3 DUP4 AND DUP1 DUP3 MSTORE PUSH1 0x0 PUSH1 0x20 DUP4 ADD DUP2 SWAP1 MSTORE SWAP3 DUP3 ADD SWAP3 SWAP1 SWAP3 MSTORE PUSH1 0x1 PUSH1 0x60 SWAP1 SWAP2 ADD DUP2 SWAP1 MSTORE DUP4 SLOAD PUSH4 0xFFFFFFFF NOT AND SWAP1 SWAP2 OR SWAP1 SWAP2 AND PUSH1 0x1 PUSH1 0xF8 SHL OR SWAP1 SWAP2 SSTORE SWAP1 DUP2 SWAP1 JUMP JUMPDEST PUSH1 0x2 SIGNEXTEND PUSH1 0x8 DUP2 SWAP1 SAR SWAP2 PUSH2 0x100 SWAP1 SWAP2 SMOD SWAP1 JUMP JUMPDEST PUSH1 0x0 DUP1 DUP3 GT PUSH2 0x4924 JUMPI PUSH1 0x0 DUP1 REVERT JUMPDEST PUSH1 0x1 PUSH1 0x80 SHL DUP3 LT PUSH2 0x4937 JUMPI PUSH1 0x80 SWAP2 DUP3 SHR SWAP2 ADD JUMPDEST PUSH9 0x10000000000000000 DUP3 LT PUSH2 0x494F JUMPI PUSH1 0x40 SWAP2 DUP3 SHR SWAP2 ADD JUMPDEST PUSH5 0x100000000 DUP3 LT PUSH2 0x4963 JUMPI PUSH1 0x20 SWAP2 DUP3 SHR SWAP2 ADD JUMPDEST PUSH3 0x10000 DUP3 LT PUSH2 0x4975 JUMPI PUSH1 0x10 SWAP2 DUP3 SHR SWAP2 ADD JUMPDEST PUSH2 0x100 DUP3 LT PUSH2 0x4986 JUMPI PUSH1 0x8 SWAP2 DUP3 SHR SWAP2 ADD JUMPDEST PUSH1 0x10 DUP3 LT PUSH2 0x4996 JUMPI PUSH1 0x4 SWAP2 DUP3 SHR SWAP2 ADD JUMPDEST PUSH1 0x4 DUP3 LT PUSH2 0x49A6 JUMPI PUSH1 0x2 SWAP2 DUP3 SHR SWAP2 ADD JUMPDEST PUSH1 0x2 DUP3 LT PUSH2 0x2DF9 JUMPI PUSH1 0x1 ADD SWAP2 SWAP1 POP JUMP JUMPDEST PUSH1 0x0 DUP1 DUP3 GT PUSH2 0x49C4 JUMPI PUSH1 0x0 DUP1 REVERT JUMPDEST POP PUSH1 0xFF PUSH1 0x1 PUSH1 0x1 PUSH1 0x80 SHL SUB DUP3 AND ISZERO PUSH2 0x49DF JUMPI PUSH1 0x7F NOT ADD PUSH2 0x49E7 JUMP JUMPDEST PUSH1 0x80 DUP3 SWAP1 SHR SWAP2 POP JUMPDEST PUSH8 0xFFFFFFFFFFFFFFFF DUP3 AND ISZERO PUSH2 0x4A1E JUMPI PUSH32 0xFFFFFFFFFFFFFFFFFFFFFFFFFFFFFFFFFFFFFFFFFFFFFFFFFFFFFFFFFFFFFFC0 ADD PUSH2 0x4A26 JUMP JUMPDEST PUSH1 0x40 DUP3 SWAP1 SHR SWAP2 POP JUMPDEST PUSH4 0xFFFFFFFF DUP3 AND ISZERO PUSH2 0x4A3B JUMPI PUSH1 0x1F NOT ADD PUSH2 0x4A43 JUMP JUMPDEST PUSH1 0x20 DUP3 SWAP1 SHR SWAP2 POP JUMPDEST PUSH2 0xFFFF DUP3 AND ISZERO PUSH2 0x4A74 JUMPI PUSH32 0xFFFFFFFFFFFFFFFFFFFFFFFFFFFFFFFFFFFFFFFFFFFFFFFFFFFFFFFFFFFFFFF0 ADD PUSH2 0x4A7C JUMP JUMPDEST PUSH1 0x10 DUP3 SWAP1 SHR SWAP2 POP JUMPDEST PUSH1 0xFF DUP3 AND ISZERO PUSH2 0x4AAC JUMPI PUSH32 0xFFFFFFFFFFFFFFFFFFFFFFFFFFFFFFFFFFFFFFFFFFFFFFFFFFFFFFFFFFFFFFF8 ADD PUSH2 0x4AB4 JUMP JUMPDEST PUSH1 0x8 DUP3 SWAP1 SHR SWAP2 POP JUMPDEST PUSH1 0xF DUP3 AND ISZERO PUSH2 0x4AE4 JUMPI PUSH32 0xFFFFFFFFFFFFFFFFFFFFFFFFFFFFFFFFFFFFFFFFFFFFFFFFFFFFFFFFFFFFFFFC ADD PUSH2 0x4AEC JUMP JUMPDEST PUSH1 0x4 DUP3 SWAP1 SHR SWAP2 POP JUMPDEST PUSH1 0x3 DUP3 AND ISZERO PUSH2 0x4B1C JUMPI PUSH32 0xFFFFFFFFFFFFFFFFFFFFFFFFFFFFFFFFFFFFFFFFFFFFFFFFFFFFFFFFFFFFFFFE ADD PUSH2 0x4B24 JUMP JUMPDEST PUSH1 0x2 DUP3 SWAP1 SHR SWAP2 POP JUMPDEST PUSH1 0x1 DUP3 AND ISZERO PUSH2 0x2DF9 JUMPI PUSH1 0x0 NOT ADD SWAP2 SWAP1 POP JUMP JUMPDEST PUSH1 0x0 DUP4 PUSH1 0x1 PUSH1 0x1 PUSH1 0xA0 SHL SUB AND DUP6 PUSH1 0x1 PUSH1 0x1 PUSH1 0xA0 SHL SUB AND GT ISZERO PUSH2 0x4B56 JUMPI SWAP3 SWAP4 SWAP3 JUMPDEST DUP2 PUSH2 0x4B8C JUMPI PUSH2 0x4B87 DUP4 PUSH1 0x1 PUSH1 0x1 PUSH1 0x80 SHL SUB AND DUP7 DUP7 SUB PUSH1 0x1 PUSH1 0x1 PUSH1 0xA0 SHL SUB AND PUSH13 0x1000000000000000000000000 PUSH2 0x351F JUMP JUMPDEST PUSH2 0x4BB8 JUMP JUMPDEST PUSH2 0x4BB8 DUP4 PUSH1 0x1 PUSH1 0x1 PUSH1 0x80 SHL SUB AND DUP7 DUP7 SUB PUSH1 0x1 PUSH1 0x1 PUSH1 0xA0 SHL SUB AND PUSH13 0x1000000000000000000000000 PUSH2 0x457A JUMP JUMPDEST SWAP1 POP JUMPDEST SWAP5 SWAP4 POP POP POP POP JUMP JUMPDEST PUSH1 0x0 DUP4 PUSH1 0x1 PUSH1 0x1 PUSH1 0xA0 SHL SUB AND DUP6 PUSH1 0x1 PUSH1 0x1 PUSH1 0xA0 SHL SUB AND GT ISZERO PUSH2 0x4BE3 JUMPI SWAP3 SWAP4 SWAP3 JUMPDEST PUSH28 0xFFFFFFFFFFFFFFFFFFFFFFFFFFFFFFFF000000000000000000000000 PUSH1 0x60 DUP5 SWAP1 SHL AND PUSH1 0x1 PUSH1 0x1 PUSH1 0xA0 SHL SUB DUP7 DUP7 SUB DUP2 AND SWAP1 DUP8 AND PUSH2 0x4C1F JUMPI PUSH1 0x0 DUP1 REVERT JUMPDEST DUP4 PUSH2 0x4C4F JUMPI DUP7 PUSH1 0x1 PUSH1 0x1 PUSH1 0xA0 SHL SUB AND PUSH2 0x4C42 DUP4 DUP4 DUP10 PUSH1 0x1 PUSH1 0x1 PUSH1 0xA0 SHL SUB AND PUSH2 0x351F JUMP JUMPDEST DUP2 PUSH2 0x4C49 JUMPI INVALID JUMPDEST DIV PUSH2 0x4C75 JUMP JUMPDEST PUSH2 0x4C75 PUSH2 0x4C66 DUP4 DUP4 DUP10 PUSH1 0x1 PUSH1 0x1 PUSH1 0xA0 SHL SUB AND PUSH2 0x457A JUMP JUMPDEST DUP9 PUSH1 0x1 PUSH1 0x1 PUSH1 0xA0 SHL SUB AND PUSH2 0x5207 JUMP JUMPDEST SWAP8 SWAP7 POP POP POP POP POP POP POP JUMP JUMPDEST PUSH1 0x0 DUP1 DUP6 PUSH1 0x1 PUSH1 0x1 PUSH1 0xA0 SHL SUB AND GT PUSH2 0x4C97 JUMPI PUSH1 0x0 DUP1 REVERT JUMPDEST PUSH1 0x0 DUP5 PUSH1 0x1 PUSH1 0x1 PUSH1 0x80 SHL SUB AND GT PUSH2 0x4CAD JUMPI PUSH1 0x0 DUP1 REVERT JUMPDEST DUP2 PUSH2 0x4CBF JUMPI PUSH2 0x4B87 DUP6 DUP6 DUP6 PUSH1 0x1 PUSH2 0x5212 JUMP JUMPDEST PUSH2 0x4BB8 DUP6 DUP6 DUP6 PUSH1 0x1 PUSH2 0x5305 JUMP JUMPDEST PUSH1 0x0 DUP1 DUP6 PUSH1 0x1 PUSH1 0x1 PUSH1 0xA0 SHL SUB AND GT PUSH2 0x4CE3 JUMPI PUSH1 0x0 DUP1 REVERT JUMPDEST PUSH1 0x0 DUP5 PUSH1 0x1 PUSH1 0x1 PUSH1 0x80 SHL SUB AND GT PUSH2 0x4CF9 JUMPI PUSH1 0x0 DUP1 REVERT JUMPDEST DUP2 PUSH2 0x4D0B JUMPI PUSH2 0x4B87 DUP6 DUP6 DUP6 PUSH1 0x0 PUSH2 0x5305 JUMP JUMPDEST PUSH2 0x4BB8 DUP6 DUP6 DUP6 PUSH1 0x0 PUSH2 0x5212 JUMP JUMPDEST PUSH2 0x4D20 PUSH2 0x5BD5 JUMP JUMPDEST PUSH1 0x0 DUP6 PUSH1 0x0 ADD MLOAD DUP6 SUB SWAP1 POP PUSH1 0x40 MLOAD DUP1 PUSH1 0x80 ADD PUSH1 0x40 MSTORE DUP1 DUP7 PUSH4 0xFFFFFFFF AND DUP2 MSTORE PUSH1 0x20 ADD DUP3 PUSH4 0xFFFFFFFF AND DUP7 PUSH1 0x2 SIGNEXTEND MUL DUP9 PUSH1 0x20 ADD MLOAD ADD PUSH1 0x6 SIGNEXTEND DUP2 MSTORE PUSH1 0x20 ADD PUSH1 0x0 DUP6 PUSH1 0x1 PUSH1 0x1 PUSH1 0x80 SHL SUB AND GT PUSH2 0x4D74 JUMPI PUSH1 0x1 PUSH2 0x4D76 JUMP JUMPDEST DUP5 JUMPDEST PUSH1 0x1 PUSH1 0x1 PUSH1 0x80 SHL SUB AND PUSH20 0xFFFFFFFF00000000000000000000000000000000 PUSH1 0x80 DUP6 SWAP1 SHL AND DUP2 PUSH2 0x4DA1 JUMPI INVALID JUMPDEST DIV DUP9 PUSH1 0x40 ADD MLOAD ADD PUSH1 0x1 PUSH1 0x1 PUSH1 0xA0 SHL SUB AND DUP2 MSTORE PUSH1 0x20 ADD PUSH1 0x1 ISZERO ISZERO DUP2 MSTORE POP SWAP2 POP POP SWAP5 SWAP4 POP POP POP POP JUMP JUMPDEST PUSH2 0x4DD0 PUSH2 0x5BD5 JUMP JUMPDEST PUSH2 0x4DD8 PUSH2 0x5BD5 JUMP JUMPDEST DUP9 DUP6 PUSH2 0xFFFF AND PUSH2 0xFFFF DUP2 LT PUSH2 0x4DE9 JUMPI INVALID JUMPDEST PUSH1 0x40 DUP1 MLOAD PUSH1 0x80 DUP2 ADD DUP3 MSTORE SWAP2 SWAP1 SWAP3 ADD SLOAD PUSH4 0xFFFFFFFF DUP2 AND DUP1 DUP4 MSTORE PUSH5 0x100000000 DUP3 DIV PUSH1 0x6 SWAP1 DUP2 SIGNEXTEND DUP2 SIGNEXTEND SWAP1 SIGNEXTEND PUSH1 0x20 DUP5 ADD MSTORE PUSH1 0x1 PUSH1 0x58 SHL DUP3 DIV PUSH1 0x1 PUSH1 0x1 PUSH1 0xA0 SHL SUB AND SWAP4 DUP4 ADD SWAP4 SWAP1 SWAP4 MSTORE PUSH1 0x1 PUSH1 0xF8 SHL SWAP1 DIV PUSH1 0xFF AND ISZERO ISZERO PUSH1 0x60 DUP3 ADD MSTORE SWAP3 POP PUSH2 0x4E4E SWAP1 DUP10 SWAP1 DUP10 PUSH2 0x53FA JUMP JUMPDEST ISZERO PUSH2 0x4E86 JUMPI DUP7 PUSH4 0xFFFFFFFF AND DUP3 PUSH1 0x0 ADD MLOAD PUSH4 0xFFFFFFFF AND EQ ISZERO PUSH2 0x4E70 JUMPI PUSH2 0x3756 JUMP JUMPDEST DUP2 PUSH2 0x4E7D DUP4 DUP10 DUP10 DUP9 PUSH2 0x4D18 JUMP JUMPDEST SWAP2 POP SWAP2 POP PUSH2 0x3756 JUMP JUMPDEST DUP9 DUP4 PUSH2 0xFFFF AND DUP7 PUSH1 0x1 ADD PUSH2 0xFFFF AND DUP2 PUSH2 0x4E9B JUMPI INVALID JUMPDEST MOD PUSH2 0xFFFF AND PUSH2 0xFFFF DUP2 LT PUSH2 0x4EAB JUMPI INVALID JUMPDEST PUSH1 0x40 DUP1 MLOAD PUSH1 0x80 DUP2 ADD DUP3 MSTORE SWAP3 SWAP1 SWAP2 ADD SLOAD PUSH4 0xFFFFFFFF DUP2 AND DUP4 MSTORE PUSH5 0x100000000 DUP2 DIV PUSH1 0x6 SWAP1 DUP2 SIGNEXTEND DUP2 SIGNEXTEND SWAP1 SIGNEXTEND PUSH1 0x20 DUP5 ADD MSTORE PUSH1 0x1 PUSH1 0x1 PUSH1 0xA0 SHL SUB PUSH1 0x1 PUSH1 0x58 SHL DUP3 DIV AND SWAP2 DUP4 ADD SWAP2 SWAP1 SWAP2 MSTORE PUSH1 0xFF PUSH1 0x1 PUSH1 0xF8 SHL SWAP1 SWAP2 DIV AND ISZERO ISZERO PUSH1 0x60 DUP3 ADD DUP2 SWAP1 MSTORE SWAP1 SWAP3 POP PUSH2 0x4F62 JUMPI PUSH1 0x40 DUP1 MLOAD PUSH1 0x80 DUP2 ADD DUP3 MSTORE DUP11 SLOAD PUSH4 0xFFFFFFFF DUP2 AND DUP3 MSTORE PUSH5 0x100000000 DUP2 DIV PUSH1 0x6 SWAP1 DUP2 SIGNEXTEND DUP2 SIGNEXTEND SWAP1 SIGNEXTEND PUSH1 0x20 DUP4 ADD MSTORE PUSH1 0x1 PUSH1 0x58 SHL DUP2 DIV PUSH1 0x1 PUSH1 0x1 PUSH1 0xA0 SHL SUB AND SWAP3 DUP3 ADD SWAP3 SWAP1 SWAP3 MSTORE PUSH1 0x1 PUSH1 0xF8 SHL SWAP1 SWAP2 DIV PUSH1 0xFF AND ISZERO ISZERO PUSH1 0x60 DUP3 ADD MSTORE SWAP2 POP JUMPDEST PUSH2 0x4F71 DUP9 DUP4 PUSH1 0x0 ADD MLOAD DUP10 PUSH2 0x53FA JUMP JUMPDEST PUSH2 0x4FC2 JUMPI PUSH1 0x40 DUP1 MLOAD PUSH3 0x461BCD PUSH1 0xE5 SHL DUP2 MSTORE PUSH1 0x20 PUSH1 0x4 DUP3 ADD MSTORE PUSH1 0x3 PUSH1 0x24 DUP3 ADD MSTORE PUSH32 0x4F4C440000000000000000000000000000000000000000000000000000000000 PUSH1 0x44 DUP3 ADD MSTORE SWAP1 MLOAD SWAP1 DUP2 SWAP1 SUB PUSH1 0x64 ADD SWAP1 REVERT JUMPDEST PUSH2 0x4FCF DUP10 DUP10 DUP10 DUP9 DUP8 PUSH2 0x54BD JUMP JUMPDEST SWAP2 POP SWAP2 POP SWAP8 POP SWAP8 SWAP6 POP POP POP POP POP POP JUMP JUMPDEST PUSH1 0x0 PUSH2 0x4FEE PUSH1 0x7 DUP8 DUP8 DUP8 PUSH2 0x45B4 JUMP JUMPDEST PUSH1 0x1 SLOAD PUSH1 0x2 SLOAD SWAP2 SWAP3 POP SWAP1 PUSH1 0x0 DUP1 PUSH1 0xF DUP8 SWAP1 SIGNEXTEND ISZERO PUSH2 0x5134 JUMPI PUSH1 0x0 PUSH2 0x500F PUSH2 0x2E35 JUMP JUMPDEST PUSH1 0x0 DUP1 SLOAD PUSH1 0x4 SLOAD SWAP3 SWAP4 POP SWAP1 SWAP2 DUP3 SWAP2 PUSH2 0x5059 SWAP2 PUSH1 0x8 SWAP2 DUP7 SWAP2 DUP6 SWAP2 PUSH1 0x1 PUSH1 0xA0 SHL DUP2 DIV PUSH1 0x2 SIGNEXTEND SWAP2 PUSH2 0xFFFF PUSH1 0x1 PUSH1 0xB8 SHL DUP4 DIV DUP2 AND SWAP3 PUSH1 0x1 PUSH1 0x1 PUSH1 0x80 SHL SUB SWAP1 SWAP3 AND SWAP2 PUSH1 0x1 PUSH1 0xC8 SHL SWAP1 DIV AND PUSH2 0x35CF JUMP JUMPDEST SWAP1 SWAP3 POP SWAP1 POP PUSH2 0x5093 PUSH1 0x5 DUP14 DUP12 DUP14 DUP12 DUP12 DUP8 DUP10 DUP12 PUSH1 0x0 PUSH32 0x0 PUSH2 0x565D JUMP JUMPDEST SWAP5 POP PUSH2 0x50CA PUSH1 0x5 DUP13 DUP12 DUP14 DUP12 DUP12 DUP8 DUP10 DUP12 PUSH1 0x1 PUSH32 0x0 PUSH2 0x565D JUMP JUMPDEST SWAP4 POP DUP5 ISZERO PUSH2 0x50FE JUMPI PUSH2 0x50FE PUSH1 0x6 DUP14 PUSH32 0x0 PUSH2 0x5883 JUMP JUMPDEST DUP4 ISZERO PUSH2 0x5130 JUMPI PUSH2 0x5130 PUSH1 0x6 DUP13 PUSH32 0x0 PUSH2 0x5883 JUMP JUMPDEST POP POP POP JUMPDEST PUSH1 0x0 DUP1 PUSH2 0x5146 PUSH1 0x5 DUP13 DUP13 DUP12 DUP11 DUP11 PUSH2 0x58E9 JUMP JUMPDEST SWAP1 SWAP3 POP SWAP1 POP PUSH2 0x5157 DUP8 DUP11 DUP5 DUP5 PUSH2 0x5995 JUMP JUMPDEST PUSH1 0x0 DUP10 PUSH1 0xF SIGNEXTEND SLT ISZERO PUSH2 0x5185 JUMPI DUP4 ISZERO PUSH2 0x5174 JUMPI PUSH2 0x5174 PUSH1 0x5 DUP13 PUSH2 0x5B57 JUMP JUMPDEST DUP3 ISZERO PUSH2 0x5185 JUMPI PUSH2 0x5185 PUSH1 0x5 DUP12 PUSH2 0x5B57 JUMP JUMPDEST POP POP POP POP POP POP SWAP6 SWAP5 POP POP POP POP POP JUMP JUMPDEST PUSH1 0x0 DUP1 DUP3 PUSH1 0xF SIGNEXTEND SLT PUSH2 0x51BA JUMPI PUSH2 0x51B5 PUSH2 0x51B0 DUP6 DUP6 DUP6 PUSH1 0x1 PUSH2 0x4BC3 JUMP JUMPDEST PUSH2 0x34BB JUMP JUMPDEST PUSH2 0x4BBB JUMP JUMPDEST PUSH2 0x51CD PUSH2 0x51B0 DUP6 DUP6 DUP6 PUSH1 0x0 SUB PUSH1 0x0 PUSH2 0x4BC3 JUMP JUMPDEST PUSH1 0x0 SUB SWAP5 SWAP4 POP POP POP POP JUMP JUMPDEST PUSH1 0x0 DUP1 DUP3 PUSH1 0xF SIGNEXTEND SLT PUSH2 0x51F4 JUMPI PUSH2 0x51B5 PUSH2 0x51B0 DUP6 DUP6 DUP6 PUSH1 0x1 PUSH2 0x4B36 JUMP JUMPDEST PUSH2 0x51CD PUSH2 0x51B0 DUP6 DUP6 DUP6 PUSH1 0x0 SUB PUSH1 0x0 PUSH2 0x4B36 JUMP JUMPDEST DUP1 DUP3 DIV SWAP2 MOD ISZERO ISZERO ADD SWAP1 JUMP JUMPDEST PUSH1 0x0 DUP2 ISZERO PUSH2 0x528E JUMPI PUSH1 0x0 PUSH1 0x1 PUSH1 0x1 PUSH1 0xA0 SHL SUB DUP5 GT ISZERO PUSH2 0x5251 JUMPI PUSH2 0x524C DUP5 PUSH13 0x1000000000000000000000000 DUP8 PUSH1 0x1 PUSH1 0x1 PUSH1 0x80 SHL SUB AND PUSH2 0x351F JUMP JUMPDEST PUSH2 0x5269 JUMP JUMPDEST PUSH1 0x1 PUSH1 0x1 PUSH1 0x80 SHL SUB DUP6 AND PUSH1 0x60 DUP6 SWAP1 SHL DUP2 PUSH2 0x5267 JUMPI INVALID JUMPDEST DIV JUMPDEST SWAP1 POP PUSH2 0x5286 PUSH2 0x5281 PUSH1 0x1 PUSH1 0x1 PUSH1 0xA0 SHL SUB DUP9 AND DUP4 PUSH2 0x4157 JUMP JUMPDEST PUSH2 0x5B83 JUMP JUMPDEST SWAP2 POP POP PUSH2 0x4BBB JUMP JUMPDEST PUSH1 0x0 PUSH1 0x1 PUSH1 0x1 PUSH1 0xA0 SHL SUB DUP5 GT ISZERO PUSH2 0x52C5 JUMPI PUSH2 0x52C0 DUP5 PUSH13 0x1000000000000000000000000 DUP8 PUSH1 0x1 PUSH1 0x1 PUSH1 0x80 SHL SUB AND PUSH2 0x457A JUMP JUMPDEST PUSH2 0x52DC JUMP JUMPDEST PUSH2 0x52DC PUSH1 0x60 DUP6 SWAP1 SHL PUSH1 0x1 PUSH1 0x1 PUSH1 0x80 SHL SUB DUP8 AND PUSH2 0x5207 JUMP JUMPDEST SWAP1 POP DUP1 DUP7 PUSH1 0x1 PUSH1 0x1 PUSH1 0xA0 SHL SUB AND GT PUSH2 0x52F3 JUMPI PUSH1 0x0 DUP1 REVERT JUMPDEST PUSH1 0x1 PUSH1 0x1 PUSH1 0xA0 SHL SUB DUP7 AND SUB SWAP1 POP PUSH2 0x4BBB JUMP JUMPDEST PUSH1 0x0 DUP3 PUSH2 0x5313 JUMPI POP DUP4 PUSH2 0x4BBB JUMP JUMPDEST PUSH28 0xFFFFFFFFFFFFFFFFFFFFFFFFFFFFFFFF000000000000000000000000 PUSH1 0x60 DUP6 SWAP1 SHL AND DUP3 ISZERO PUSH2 0x53B3 JUMPI PUSH1 0x1 PUSH1 0x1 PUSH1 0xA0 SHL SUB DUP7 AND DUP5 DUP2 MUL SWAP1 DUP6 DUP3 DUP2 PUSH2 0x5353 JUMPI INVALID JUMPDEST DIV EQ ISZERO PUSH2 0x5384 JUMPI DUP2 DUP2 ADD DUP3 DUP2 LT PUSH2 0x5382 JUMPI PUSH2 0x5378 DUP4 DUP10 PUSH1 0x1 PUSH1 0x1 PUSH1 0xA0 SHL SUB AND DUP4 PUSH2 0x457A JUMP JUMPDEST SWAP4 POP POP POP POP PUSH2 0x4BBB JUMP JUMPDEST POP JUMPDEST PUSH2 0x53AA DUP3 PUSH2 0x53A5 DUP8 DUP11 PUSH1 0x1 PUSH1 0x1 PUSH1 0xA0 SHL SUB AND DUP7 DUP2 PUSH2 0x539E JUMPI INVALID JUMPDEST DIV SWAP1 PUSH2 0x4157 JUMP JUMPDEST PUSH2 0x5207 JUMP JUMPDEST SWAP3 POP POP POP PUSH2 0x4BBB JUMP JUMPDEST PUSH1 0x1 PUSH1 0x1 PUSH1 0xA0 SHL SUB DUP7 AND DUP5 DUP2 MUL SWAP1 DUP6 DUP3 DUP2 PUSH2 0x53CA JUMPI INVALID JUMPDEST DIV EQ DUP1 ISZERO PUSH2 0x53D7 JUMPI POP DUP1 DUP3 GT JUMPDEST PUSH2 0x53E0 JUMPI PUSH1 0x0 DUP1 REVERT JUMPDEST DUP1 DUP3 SUB PUSH2 0x5378 PUSH2 0x5281 DUP5 PUSH1 0x1 PUSH1 0x1 PUSH1 0xA0 SHL SUB DUP12 AND DUP5 PUSH2 0x457A JUMP JUMPDEST PUSH1 0x0 DUP4 PUSH4 0xFFFFFFFF AND DUP4 PUSH4 0xFFFFFFFF AND GT ISZERO DUP1 ISZERO PUSH2 0x5424 JUMPI POP DUP4 PUSH4 0xFFFFFFFF AND DUP3 PUSH4 0xFFFFFFFF AND GT ISZERO JUMPDEST ISZERO PUSH2 0x5440 JUMPI DUP2 PUSH4 0xFFFFFFFF AND DUP4 PUSH4 0xFFFFFFFF AND GT ISZERO SWAP1 POP PUSH2 0x35C8 JUMP JUMPDEST PUSH1 0x0 DUP5 PUSH4 0xFFFFFFFF AND DUP5 PUSH4 0xFFFFFFFF AND GT PUSH2 0x5468 JUMPI DUP4 PUSH4 0xFFFFFFFF AND PUSH5 0x100000000 ADD PUSH2 0x5470 JUMP JUMPDEST DUP4 PUSH4 0xFFFFFFFF AND JUMPDEST PUSH5 0xFFFFFFFFFF AND SWAP1 POP PUSH1 0x0 DUP6 PUSH4 0xFFFFFFFF AND DUP5 PUSH4 0xFFFFFFFF AND GT PUSH2 0x54A1 JUMPI DUP4 PUSH4 0xFFFFFFFF AND PUSH5 0x100000000 ADD PUSH2 0x54A9 JUMP JUMPDEST DUP4 PUSH4 0xFFFFFFFF AND JUMPDEST PUSH5 0xFFFFFFFFFF AND SWAP1 SWAP2 GT ISZERO SWAP6 SWAP5 POP POP POP POP POP JUMP JUMPDEST PUSH2 0x54C5 PUSH2 0x5BD5 JUMP JUMPDEST PUSH2 0x54CD PUSH2 0x5BD5 JUMP JUMPDEST PUSH1 0x0 DUP4 PUSH2 0xFFFF AND DUP6 PUSH1 0x1 ADD PUSH2 0xFFFF AND DUP2 PUSH2 0x54E3 JUMPI INVALID JUMPDEST MOD PUSH2 0xFFFF AND SWAP1 POP PUSH1 0x0 PUSH1 0x1 DUP6 PUSH2 0xFFFF AND DUP4 ADD SUB SWAP1 POP PUSH1 0x0 JUMPDEST POP PUSH1 0x2 DUP2 DUP4 ADD DIV DUP10 PUSH2 0xFFFF DUP8 AND DUP3 DUP2 PUSH2 0x5510 JUMPI INVALID JUMPDEST MOD PUSH2 0xFFFF DUP2 LT PUSH2 0x551C JUMPI INVALID JUMPDEST PUSH1 0x40 DUP1 MLOAD PUSH1 0x80 DUP2 ADD DUP3 MSTORE SWAP3 SWAP1 SWAP2 ADD SLOAD PUSH4 0xFFFFFFFF DUP2 AND DUP4 MSTORE PUSH5 0x100000000 DUP2 DIV PUSH1 0x6 SWAP1 DUP2 SIGNEXTEND DUP2 SIGNEXTEND SWAP1 SIGNEXTEND PUSH1 0x20 DUP5 ADD MSTORE PUSH1 0x1 PUSH1 0x1 PUSH1 0xA0 SHL SUB PUSH1 0x1 PUSH1 0x58 SHL DUP3 DIV AND SWAP2 DUP4 ADD SWAP2 SWAP1 SWAP2 MSTORE PUSH1 0xFF PUSH1 0x1 PUSH1 0xF8 SHL SWAP1 SWAP2 DIV AND ISZERO ISZERO PUSH1 0x60 DUP3 ADD DUP2 SWAP1 MSTORE SWAP1 SWAP6 POP PUSH2 0x5587 JUMPI DUP1 PUSH1 0x1 ADD SWAP3 POP PUSH2 0x54FB JUMP JUMPDEST DUP10 DUP7 PUSH2 0xFFFF AND DUP3 PUSH1 0x1 ADD DUP2 PUSH2 0x5598 JUMPI INVALID JUMPDEST MOD PUSH2 0xFFFF DUP2 LT PUSH2 0x55A4 JUMPI INVALID JUMPDEST PUSH1 0x40 DUP1 MLOAD PUSH1 0x80 DUP2 ADD DUP3 MSTORE SWAP3 SWAP1 SWAP2 ADD SLOAD PUSH4 0xFFFFFFFF DUP2 AND DUP4 MSTORE PUSH5 0x100000000 DUP2 DIV PUSH1 0x6 SWAP1 DUP2 SIGNEXTEND DUP2 SIGNEXTEND SWAP1 SIGNEXTEND PUSH1 0x20 DUP5 ADD MSTORE PUSH1 0x1 PUSH1 0x1 PUSH1 0xA0 SHL SUB PUSH1 0x1 PUSH1 0x58 SHL DUP3 DIV AND SWAP2 DUP4 ADD SWAP2 SWAP1 SWAP2 MSTORE PUSH1 0xFF PUSH1 0x1 PUSH1 0xF8 SHL SWAP1 SWAP2 DIV AND ISZERO ISZERO PUSH1 0x60 DUP3 ADD MSTORE DUP6 MLOAD SWAP1 SWAP5 POP PUSH1 0x0 SWAP1 PUSH2 0x560F SWAP1 DUP12 SWAP1 DUP12 PUSH2 0x53FA JUMP JUMPDEST SWAP1 POP DUP1 DUP1 ISZERO PUSH2 0x5628 JUMPI POP PUSH2 0x5628 DUP11 DUP11 DUP8 PUSH1 0x0 ADD MLOAD PUSH2 0x53FA JUMP JUMPDEST ISZERO PUSH2 0x5633 JUMPI POP PUSH2 0x5650 JUMP JUMPDEST DUP1 PUSH2 0x5643 JUMPI PUSH1 0x1 DUP3 SUB SWAP3 POP PUSH2 0x564A JUMP JUMPDEST DUP2 PUSH1 0x1 ADD SWAP4 POP JUMPDEST POP PUSH2 0x54FB JUMP JUMPDEST POP POP POP SWAP6 POP SWAP6 SWAP4 POP POP POP POP JUMP JUMPDEST PUSH1 0x2 DUP11 DUP2 SIGNEXTEND SWAP1 SIGNEXTEND PUSH1 0x0 SWAP1 DUP2 MSTORE PUSH1 0x20 DUP13 SWAP1 MSTORE PUSH1 0x40 DUP2 KECCAK256 DUP1 SLOAD PUSH1 0x1 PUSH1 0x1 PUSH1 0x80 SHL SUB AND DUP3 PUSH2 0x5688 DUP3 DUP14 PUSH2 0x384D JUMP JUMPDEST SWAP1 POP DUP5 PUSH1 0x1 PUSH1 0x1 PUSH1 0x80 SHL SUB AND DUP2 PUSH1 0x1 PUSH1 0x1 PUSH1 0x80 SHL SUB AND GT ISZERO PUSH2 0x56F1 JUMPI PUSH1 0x40 DUP1 MLOAD PUSH3 0x461BCD PUSH1 0xE5 SHL DUP2 MSTORE PUSH1 0x20 PUSH1 0x4 DUP3 ADD MSTORE PUSH1 0x2 PUSH1 0x24 DUP3 ADD MSTORE PUSH32 0x4C4F000000000000000000000000000000000000000000000000000000000000 PUSH1 0x44 DUP3 ADD MSTORE SWAP1 MLOAD SWAP1 DUP2 SWAP1 SUB PUSH1 0x64 ADD SWAP1 REVERT JUMPDEST PUSH1 0x1 PUSH1 0x1 PUSH1 0x80 SHL SUB DUP3 DUP2 AND ISZERO SWAP1 DUP3 AND ISZERO DUP2 EQ ISZERO SWAP5 POP ISZERO PUSH2 0x57DF JUMPI DUP13 PUSH1 0x2 SIGNEXTEND DUP15 PUSH1 0x2 SIGNEXTEND SGT PUSH2 0x57AF JUMPI PUSH1 0x1 DUP4 ADD DUP12 SWAP1 SSTORE PUSH1 0x2 DUP4 ADD DUP11 SWAP1 SSTORE PUSH1 0x3 DUP4 ADD DUP1 SLOAD PUSH32 0xFFFFFFFFFF0000000000000000000000000000000000000000FFFFFFFFFFFFFF AND PUSH8 0x100000000000000 PUSH1 0x1 PUSH1 0x1 PUSH1 0xA0 SHL SUB DUP13 AND MUL OR PUSH7 0xFFFFFFFFFFFFFF NOT AND PUSH7 0xFFFFFFFFFFFFFF PUSH1 0x6 DUP12 SWAP1 SIGNEXTEND AND OR PUSH32 0xFF00000000FFFFFFFFFFFFFFFFFFFFFFFFFFFFFFFFFFFFFFFFFFFFFFFFFFFFFF AND PUSH1 0x1 PUSH1 0xD8 SHL PUSH4 0xFFFFFFFF DUP11 AND MUL OR SWAP1 SSTORE JUMPDEST PUSH1 0x3 DUP4 ADD DUP1 SLOAD PUSH31 0xFFFFFFFFFFFFFFFFFFFFFFFFFFFFFFFFFFFFFFFFFFFFFFFFFFFFFFFFFFFFFF AND PUSH1 0x1 PUSH1 0xF8 SHL OR SWAP1 SSTORE JUMPDEST DUP3 SLOAD PUSH16 0xFFFFFFFFFFFFFFFFFFFFFFFFFFFFFFFF NOT AND PUSH1 0x1 PUSH1 0x1 PUSH1 0x80 SHL SUB DUP3 AND OR DUP4 SSTORE DUP6 PUSH2 0x5831 JUMPI DUP3 SLOAD PUSH2 0x582C SWAP1 PUSH2 0x5827 SWAP1 PUSH1 0x1 PUSH1 0x80 SHL SWAP1 DIV PUSH1 0xF SWAP1 DUP2 SIGNEXTEND DUP2 SIGNEXTEND SWAP1 DUP16 SWAP1 SIGNEXTEND PUSH2 0x3509 JUMP JUMPDEST PUSH2 0x42EC JUMP JUMPDEST PUSH2 0x5852 JUMP JUMPDEST DUP3 SLOAD PUSH2 0x5852 SWAP1 PUSH2 0x5827 SWAP1 PUSH1 0x1 PUSH1 0x80 SHL SWAP1 DIV PUSH1 0xF SWAP1 DUP2 SIGNEXTEND DUP2 SIGNEXTEND SWAP1 DUP16 SWAP1 SIGNEXTEND PUSH2 0x34ED JUMP JUMPDEST DUP4 SLOAD PUSH1 0xF SWAP2 SWAP1 SWAP2 SIGNEXTEND PUSH1 0x1 PUSH1 0x1 PUSH1 0x80 SHL SUB SWAP1 DUP2 AND PUSH1 0x1 PUSH1 0x80 SHL MUL SWAP2 AND OR SWAP1 SWAP3 SSTORE POP SWAP1 SWAP13 SWAP12 POP POP POP POP POP POP POP POP POP POP POP POP JUMP JUMPDEST DUP1 PUSH1 0x2 SIGNEXTEND DUP3 PUSH1 0x2 SIGNEXTEND DUP2 PUSH2 0x5892 JUMPI INVALID JUMPDEST SMOD PUSH1 0x2 SIGNEXTEND ISZERO PUSH2 0x58A0 JUMPI PUSH1 0x0 DUP1 REVERT JUMPDEST PUSH1 0x0 DUP1 PUSH2 0x58BB DUP4 PUSH1 0x2 SIGNEXTEND DUP6 PUSH1 0x2 SIGNEXTEND DUP2 PUSH2 0x58B5 JUMPI INVALID JUMPDEST SDIV PUSH2 0x4904 JUMP JUMPDEST PUSH1 0x1 SWAP2 DUP3 SIGNEXTEND DUP3 SIGNEXTEND PUSH1 0x0 SWAP1 DUP2 MSTORE PUSH1 0x20 SWAP8 SWAP1 SWAP8 MSTORE PUSH1 0x40 SWAP1 SWAP7 KECCAK256 DUP1 SLOAD PUSH1 0xFF SWAP1 SWAP8 AND SWAP2 SWAP1 SWAP2 SHL SWAP1 SWAP6 XOR SWAP1 SWAP5 SSTORE POP POP POP POP JUMP JUMPDEST PUSH1 0x2 DUP6 DUP2 SIGNEXTEND DUP1 DUP3 SIGNEXTEND PUSH1 0x0 SWAP1 DUP2 MSTORE PUSH1 0x20 DUP10 SWAP1 MSTORE PUSH1 0x40 DUP1 DUP3 KECCAK256 DUP9 DUP6 SIGNEXTEND DUP6 SIGNEXTEND DUP4 MSTORE SWAP1 DUP3 KECCAK256 SWAP2 SWAP4 DUP5 SWAP4 SWAP2 SWAP3 SWAP2 DUP5 SWAP2 DUP3 SWAP2 SWAP1 DUP11 SWAP1 SIGNEXTEND SLT PUSH2 0x592F JUMPI POP POP PUSH1 0x1 DUP3 ADD SLOAD PUSH1 0x2 DUP4 ADD SLOAD PUSH2 0x5942 JUMP JUMPDEST DUP4 PUSH1 0x1 ADD SLOAD DUP9 SUB SWAP2 POP DUP4 PUSH1 0x2 ADD SLOAD DUP8 SUB SWAP1 POP JUMPDEST PUSH1 0x0 DUP1 DUP12 PUSH1 0x2 SIGNEXTEND DUP12 PUSH1 0x2 SIGNEXTEND SLT ISZERO PUSH2 0x5964 JUMPI POP POP PUSH1 0x1 DUP4 ADD SLOAD PUSH1 0x2 DUP5 ADD SLOAD PUSH2 0x5977 JUMP JUMPDEST DUP5 PUSH1 0x1 ADD SLOAD DUP11 SUB SWAP2 POP DUP5 PUSH1 0x2 ADD SLOAD DUP10 SUB SWAP1 POP JUMPDEST SWAP3 SWAP1 SWAP9 SUB SWAP8 SWAP1 SWAP8 SUB SWAP12 SWAP7 SWAP1 SWAP6 SUB SWAP5 SWAP1 SWAP5 SUB SWAP9 POP SWAP4 SWAP7 POP POP POP POP POP POP POP JUMP JUMPDEST PUSH1 0x40 DUP1 MLOAD PUSH1 0xA0 DUP2 ADD DUP3 MSTORE DUP6 SLOAD PUSH1 0x1 PUSH1 0x1 PUSH1 0x80 SHL SUB SWAP1 DUP2 AND DUP3 MSTORE PUSH1 0x1 DUP8 ADD SLOAD PUSH1 0x20 DUP4 ADD MSTORE PUSH1 0x2 DUP8 ADD SLOAD SWAP3 DUP3 ADD SWAP3 SWAP1 SWAP3 MSTORE PUSH1 0x3 DUP7 ADD SLOAD DUP1 DUP4 AND PUSH1 0x60 DUP4 ADD MSTORE PUSH1 0x1 PUSH1 0x80 SHL SWAP1 DIV SWAP1 SWAP2 AND PUSH1 0x80 DUP3 ADD MSTORE PUSH1 0x0 PUSH1 0xF DUP6 SWAP1 SIGNEXTEND PUSH2 0x5A4F JUMPI DUP2 MLOAD PUSH1 0x1 PUSH1 0x1 PUSH1 0x80 SHL SUB AND PUSH2 0x5A47 JUMPI PUSH1 0x40 DUP1 MLOAD PUSH3 0x461BCD PUSH1 0xE5 SHL DUP2 MSTORE PUSH1 0x20 PUSH1 0x4 DUP3 ADD MSTORE PUSH1 0x2 PUSH1 0x24 DUP3 ADD MSTORE PUSH32 0x4E50000000000000000000000000000000000000000000000000000000000000 PUSH1 0x44 DUP3 ADD MSTORE SWAP1 MLOAD SWAP1 DUP2 SWAP1 SUB PUSH1 0x64 ADD SWAP1 REVERT JUMPDEST POP DUP1 MLOAD PUSH2 0x5A5E JUMP JUMPDEST DUP2 MLOAD PUSH2 0x5A5B SWAP1 DUP7 PUSH2 0x384D JUMP JUMPDEST SWAP1 POP JUMPDEST PUSH1 0x0 PUSH2 0x5A82 DUP4 PUSH1 0x20 ADD MLOAD DUP7 SUB DUP5 PUSH1 0x0 ADD MLOAD PUSH1 0x1 PUSH1 0x1 PUSH1 0x80 SHL SUB AND PUSH1 0x1 PUSH1 0x80 SHL PUSH2 0x351F JUMP JUMPDEST SWAP1 POP PUSH1 0x0 PUSH2 0x5AA8 DUP5 PUSH1 0x40 ADD MLOAD DUP7 SUB DUP6 PUSH1 0x0 ADD MLOAD PUSH1 0x1 PUSH1 0x1 PUSH1 0x80 SHL SUB AND PUSH1 0x1 PUSH1 0x80 SHL PUSH2 0x351F JUMP JUMPDEST SWAP1 POP DUP7 PUSH1 0xF SIGNEXTEND PUSH1 0x0 EQ PUSH2 0x5AD8 JUMPI DUP8 SLOAD PUSH16 0xFFFFFFFFFFFFFFFFFFFFFFFFFFFFFFFF NOT AND PUSH1 0x1 PUSH1 0x1 PUSH1 0x80 SHL SUB DUP5 AND OR DUP9 SSTORE JUMPDEST PUSH1 0x1 DUP9 ADD DUP7 SWAP1 SSTORE PUSH1 0x2 DUP9 ADD DUP6 SWAP1 SSTORE PUSH1 0x1 PUSH1 0x1 PUSH1 0x80 SHL SUB DUP3 AND ISZERO ISZERO DUP1 PUSH2 0x5B06 JUMPI POP PUSH1 0x0 DUP2 PUSH1 0x1 PUSH1 0x1 PUSH1 0x80 SHL SUB AND GT JUMPDEST ISZERO PUSH2 0x5B4D JUMPI PUSH1 0x3 DUP9 ADD DUP1 SLOAD PUSH16 0xFFFFFFFFFFFFFFFFFFFFFFFFFFFFFFFF NOT DUP2 AND PUSH1 0x1 PUSH1 0x1 PUSH1 0x80 SHL SUB SWAP2 DUP3 AND DUP6 ADD DUP3 AND OR DUP1 DUP3 AND PUSH1 0x1 PUSH1 0x80 SHL SWAP2 DUP3 SWAP1 DIV DUP4 AND DUP6 ADD SWAP1 SWAP3 AND MUL OR SWAP1 SSTORE JUMPDEST POP POP POP POP POP POP POP POP JUMP JUMPDEST PUSH1 0x2 SWAP1 DUP2 SIGNEXTEND DUP2 SIGNEXTEND PUSH1 0x0 SWAP1 DUP2 MSTORE PUSH1 0x20 SWAP3 SWAP1 SWAP3 MSTORE PUSH1 0x40 DUP3 KECCAK256 DUP3 DUP2 SSTORE PUSH1 0x1 DUP2 ADD DUP4 SWAP1 SSTORE SWAP1 DUP2 ADD DUP3 SWAP1 SSTORE PUSH1 0x3 ADD SSTORE JUMP JUMPDEST DUP1 PUSH1 0x1 PUSH1 0x1 PUSH1 0xA0 SHL SUB DUP2 AND DUP2 EQ PUSH2 0x2DF9 JUMPI PUSH1 0x0 DUP1 REVERT JUMPDEST PUSH1 0x40 DUP1 MLOAD PUSH1 0xE0 DUP2 ADD DUP3 MSTORE PUSH1 0x0 DUP1 DUP3 MSTORE PUSH1 0x20 DUP3 ADD DUP2 SWAP1 MSTORE SWAP2 DUP2 ADD DUP3 SWAP1 MSTORE PUSH1 0x60 DUP2 ADD DUP3 SWAP1 MSTORE PUSH1 0x80 DUP2 ADD DUP3 SWAP1 MSTORE PUSH1 0xA0 DUP2 ADD DUP3 SWAP1 MSTORE PUSH1 0xC0 DUP2 ADD SWAP2 SWAP1 SWAP2 MSTORE SWAP1 JUMP JUMPDEST PUSH1 0x40 DUP1 MLOAD PUSH1 0x80 DUP2 ADD DUP3 MSTORE PUSH1 0x0 DUP1 DUP3 MSTORE PUSH1 0x20 DUP3 ADD DUP2 SWAP1 MSTORE SWAP2 DUP2 ADD DUP3 SWAP1 MSTORE PUSH1 0x60 DUP2 ADD SWAP2 SWAP1 SWAP2 MSTORE SWAP1 JUMP INVALID LOG2 PUSH5 0x6970667358 0x22 SLT KECCAK256 DUP9 0x24 0x21 0xBF 0x25 PUSH15 0xD91EAA30DAB35DECEBB7D5D3CFD8BB 0x2B RETURN 0xC6 0xC3 0xED 0x4F 0x25 0xD2 0xD6 0xFB 0xD0 PUSH5 0x736F6C6343 STOP SMOD MOD STOP CALLER "
		},
		"gasEstimates": {
			"creation": {
				"codeDepositCost": "4720400",
				"executionCost": "infinite",
				"totalCost": "infinite"
			},
			"external": {
				"burn(int24,int24,uint128)": "infinite",
				"collect(address,int24,int24,uint128,uint128)": "infinite",
				"collectProtocol(address,uint128,uint128)": "infinite",
				"factory()": "infinite",
				"fee()": "infinite",
				"feeGrowthGlobal0X128()": "1064",
				"feeGrowthGlobal1X128()": "1088",
				"flash(address,uint256,uint256,bytes)": "infinite",
				"increaseObservationCardinalityNext(uint16)": "infinite",
				"initialize(uint160)": "47353",
				"liquidity()": "1128",
				"maxLiquidityPerTick()": "infinite",
				"mint(address,int24,int24,uint128,bytes)": "infinite",
				"observations(uint256)": "1335",
				"observe(uint32[])": "infinite",
				"positions(bytes32)": "3813",
				"protocolFees()": "1154",
				"setFeeProtocol(uint8,uint8)": "infinite",
				"slot0()": "1396",
				"snapshotCumulativesInside(int24,int24)": "infinite",
				"swap(address,bool,int256,uint160,bytes)": "infinite",
				"tickBitmap(int16)": "1225",
				"tickSpacing()": "infinite",
				"ticks(int24)": "3999",
				"token0()": "infinite",
				"token1()": "infinite"
			},
			"internal": {
				"_blockTimestamp()": "14",
				"_modifyPosition(struct UniswapV3Pool.ModifyPositionParams memory)": "infinite",
				"_updatePosition(address,int24,int24,int128,int24)": "infinite",
				"balance0()": "infinite",
				"balance1()": "infinite",
				"checkTicks(int24,int24)": "infinite"
			}
		},
		"methodIdentifiers": {
			"burn(int24,int24,uint128)": "a34123a7",
			"collect(address,int24,int24,uint128,uint128)": "4f1eb3d8",
			"collectProtocol(address,uint128,uint128)": "85b66729",
			"factory()": "c45a0155",
			"fee()": "ddca3f43",
			"feeGrowthGlobal0X128()": "f3058399",
			"feeGrowthGlobal1X128()": "46141319",
			"flash(address,uint256,uint256,bytes)": "490e6cbc",
			"increaseObservationCardinalityNext(uint16)": "32148f67",
			"initialize(uint160)": "f637731d",
			"liquidity()": "1a686502",
			"maxLiquidityPerTick()": "70cf754a",
			"mint(address,int24,int24,uint128,bytes)": "3c8a7d8d",
			"observations(uint256)": "252c09d7",
			"observe(uint32[])": "883bdbfd",
			"positions(bytes32)": "514ea4bf",
			"protocolFees()": "1ad8b03b",
			"setFeeProtocol(uint8,uint8)": "8206a4d1",
			"slot0()": "3850c7bd",
			"snapshotCumulativesInside(int24,int24)": "a38807f2",
			"swap(address,bool,int256,uint160,bytes)": "128acb08",
			"tickBitmap(int16)": "5339c296",
			"tickSpacing()": "d0c93a7c",
			"ticks(int24)": "f30dba93",
			"token0()": "0dfe1681",
			"token1()": "d21220a7"
		}
	},
	"abi": [
		{
			"inputs": [],
			"stateMutability": "nonpayable",
			"type": "constructor"
		},
		{
			"anonymous": false,
			"inputs": [
				{
					"indexed": true,
					"internalType": "address",
					"name": "owner",
					"type": "address"
				},
				{
					"indexed": true,
					"internalType": "int24",
					"name": "tickLower",
					"type": "int24"
				},
				{
					"indexed": true,
					"internalType": "int24",
					"name": "tickUpper",
					"type": "int24"
				},
				{
					"indexed": false,
					"internalType": "uint128",
					"name": "amount",
					"type": "uint128"
				},
				{
					"indexed": false,
					"internalType": "uint256",
					"name": "amount0",
					"type": "uint256"
				},
				{
					"indexed": false,
					"internalType": "uint256",
					"name": "amount1",
					"type": "uint256"
				}
			],
			"name": "Burn",
			"type": "event"
		},
		{
			"anonymous": false,
			"inputs": [
				{
					"indexed": true,
					"internalType": "address",
					"name": "owner",
					"type": "address"
				},
				{
					"indexed": false,
					"internalType": "address",
					"name": "recipient",
					"type": "address"
				},
				{
					"indexed": true,
					"internalType": "int24",
					"name": "tickLower",
					"type": "int24"
				},
				{
					"indexed": true,
					"internalType": "int24",
					"name": "tickUpper",
					"type": "int24"
				},
				{
					"indexed": false,
					"internalType": "uint128",
					"name": "amount0",
					"type": "uint128"
				},
				{
					"indexed": false,
					"internalType": "uint128",
					"name": "amount1",
					"type": "uint128"
				}
			],
			"name": "Collect",
			"type": "event"
		},
		{
			"anonymous": false,
			"inputs": [
				{
					"indexed": true,
					"internalType": "address",
					"name": "sender",
					"type": "address"
				},
				{
					"indexed": true,
					"internalType": "address",
					"name": "recipient",
					"type": "address"
				},
				{
					"indexed": false,
					"internalType": "uint128",
					"name": "amount0",
					"type": "uint128"
				},
				{
					"indexed": false,
					"internalType": "uint128",
					"name": "amount1",
					"type": "uint128"
				}
			],
			"name": "CollectProtocol",
			"type": "event"
		},
		{
			"anonymous": false,
			"inputs": [
				{
					"indexed": true,
					"internalType": "address",
					"name": "sender",
					"type": "address"
				},
				{
					"indexed": true,
					"internalType": "address",
					"name": "recipient",
					"type": "address"
				},
				{
					"indexed": false,
					"internalType": "uint256",
					"name": "amount0",
					"type": "uint256"
				},
				{
					"indexed": false,
					"internalType": "uint256",
					"name": "amount1",
					"type": "uint256"
				},
				{
					"indexed": false,
					"internalType": "uint256",
					"name": "paid0",
					"type": "uint256"
				},
				{
					"indexed": false,
					"internalType": "uint256",
					"name": "paid1",
					"type": "uint256"
				}
			],
			"name": "Flash",
			"type": "event"
		},
		{
			"anonymous": false,
			"inputs": [
				{
					"indexed": false,
					"internalType": "uint16",
					"name": "observationCardinalityNextOld",
					"type": "uint16"
				},
				{
					"indexed": false,
					"internalType": "uint16",
					"name": "observationCardinalityNextNew",
					"type": "uint16"
				}
			],
			"name": "IncreaseObservationCardinalityNext",
			"type": "event"
		},
		{
			"anonymous": false,
			"inputs": [
				{
					"indexed": false,
					"internalType": "uint160",
					"name": "sqrtPriceX96",
					"type": "uint160"
				},
				{
					"indexed": false,
					"internalType": "int24",
					"name": "tick",
					"type": "int24"
				}
			],
			"name": "Initialize",
			"type": "event"
		},
		{
			"anonymous": false,
			"inputs": [
				{
					"indexed": false,
					"internalType": "address",
					"name": "sender",
					"type": "address"
				},
				{
					"indexed": true,
					"internalType": "address",
					"name": "owner",
					"type": "address"
				},
				{
					"indexed": true,
					"internalType": "int24",
					"name": "tickLower",
					"type": "int24"
				},
				{
					"indexed": true,
					"internalType": "int24",
					"name": "tickUpper",
					"type": "int24"
				},
				{
					"indexed": false,
					"internalType": "uint128",
					"name": "amount",
					"type": "uint128"
				},
				{
					"indexed": false,
					"internalType": "uint256",
					"name": "amount0",
					"type": "uint256"
				},
				{
					"indexed": false,
					"internalType": "uint256",
					"name": "amount1",
					"type": "uint256"
				}
			],
			"name": "Mint",
			"type": "event"
		},
		{
			"anonymous": false,
			"inputs": [
				{
					"indexed": false,
					"internalType": "uint8",
					"name": "feeProtocol0Old",
					"type": "uint8"
				},
				{
					"indexed": false,
					"internalType": "uint8",
					"name": "feeProtocol1Old",
					"type": "uint8"
				},
				{
					"indexed": false,
					"internalType": "uint8",
					"name": "feeProtocol0New",
					"type": "uint8"
				},
				{
					"indexed": false,
					"internalType": "uint8",
					"name": "feeProtocol1New",
					"type": "uint8"
				}
			],
			"name": "SetFeeProtocol",
			"type": "event"
		},
		{
			"anonymous": false,
			"inputs": [
				{
					"indexed": true,
					"internalType": "address",
					"name": "sender",
					"type": "address"
				},
				{
					"indexed": true,
					"internalType": "address",
					"name": "recipient",
					"type": "address"
				},
				{
					"indexed": false,
					"internalType": "int256",
					"name": "amount0",
					"type": "int256"
				},
				{
					"indexed": false,
					"internalType": "int256",
					"name": "amount1",
					"type": "int256"
				},
				{
					"indexed": false,
					"internalType": "uint160",
					"name": "sqrtPriceX96",
					"type": "uint160"
				},
				{
					"indexed": false,
					"internalType": "uint128",
					"name": "liquidity",
					"type": "uint128"
				},
				{
					"indexed": false,
					"internalType": "int24",
					"name": "tick",
					"type": "int24"
				}
			],
			"name": "Swap",
			"type": "event"
		},
		{
			"inputs": [
				{
					"internalType": "int24",
					"name": "tickLower",
					"type": "int24"
				},
				{
					"internalType": "int24",
					"name": "tickUpper",
					"type": "int24"
				},
				{
					"internalType": "uint128",
					"name": "amount",
					"type": "uint128"
				}
			],
			"name": "burn",
			"outputs": [
				{
					"internalType": "uint256",
					"name": "amount0",
					"type": "uint256"
				},
				{
					"internalType": "uint256",
					"name": "amount1",
					"type": "uint256"
				}
			],
			"stateMutability": "nonpayable",
			"type": "function"
		},
		{
			"inputs": [
				{
					"internalType": "address",
					"name": "recipient",
					"type": "address"
				},
				{
					"internalType": "int24",
					"name": "tickLower",
					"type": "int24"
				},
				{
					"internalType": "int24",
					"name": "tickUpper",
					"type": "int24"
				},
				{
					"internalType": "uint128",
					"name": "amount0Requested",
					"type": "uint128"
				},
				{
					"internalType": "uint128",
					"name": "amount1Requested",
					"type": "uint128"
				}
			],
			"name": "collect",
			"outputs": [
				{
					"internalType": "uint128",
					"name": "amount0",
					"type": "uint128"
				},
				{
					"internalType": "uint128",
					"name": "amount1",
					"type": "uint128"
				}
			],
			"stateMutability": "nonpayable",
			"type": "function"
		},
		{
			"inputs": [
				{
					"internalType": "address",
					"name": "recipient",
					"type": "address"
				},
				{
					"internalType": "uint128",
					"name": "amount0Requested",
					"type": "uint128"
				},
				{
					"internalType": "uint128",
					"name": "amount1Requested",
					"type": "uint128"
				}
			],
			"name": "collectProtocol",
			"outputs": [
				{
					"internalType": "uint128",
					"name": "amount0",
					"type": "uint128"
				},
				{
					"internalType": "uint128",
					"name": "amount1",
					"type": "uint128"
				}
			],
			"stateMutability": "nonpayable",
			"type": "function"
		},
		{
			"inputs": [],
			"name": "factory",
			"outputs": [
				{
					"internalType": "address",
					"name": "",
					"type": "address"
				}
			],
			"stateMutability": "view",
			"type": "function"
		},
		{
			"inputs": [],
			"name": "fee",
			"outputs": [
				{
					"internalType": "uint24",
					"name": "",
					"type": "uint24"
				}
			],
			"stateMutability": "view",
			"type": "function"
		},
		{
			"inputs": [],
			"name": "feeGrowthGlobal0X128",
			"outputs": [
				{
					"internalType": "uint256",
					"name": "",
					"type": "uint256"
				}
			],
			"stateMutability": "view",
			"type": "function"
		},
		{
			"inputs": [],
			"name": "feeGrowthGlobal1X128",
			"outputs": [
				{
					"internalType": "uint256",
					"name": "",
					"type": "uint256"
				}
			],
			"stateMutability": "view",
			"type": "function"
		},
		{
			"inputs": [
				{
					"internalType": "address",
					"name": "recipient",
					"type": "address"
				},
				{
					"internalType": "uint256",
					"name": "amount0",
					"type": "uint256"
				},
				{
					"internalType": "uint256",
					"name": "amount1",
					"type": "uint256"
				},
				{
					"internalType": "bytes",
					"name": "data",
					"type": "bytes"
				}
			],
			"name": "flash",
			"outputs": [],
			"stateMutability": "nonpayable",
			"type": "function"
		},
		{
			"inputs": [
				{
					"internalType": "uint16",
					"name": "observationCardinalityNext",
					"type": "uint16"
				}
			],
			"name": "increaseObservationCardinalityNext",
			"outputs": [],
			"stateMutability": "nonpayable",
			"type": "function"
		},
		{
			"inputs": [
				{
					"internalType": "uint160",
					"name": "sqrtPriceX96",
					"type": "uint160"
				}
			],
			"name": "initialize",
			"outputs": [],
			"stateMutability": "nonpayable",
			"type": "function"
		},
		{
			"inputs": [],
			"name": "liquidity",
			"outputs": [
				{
					"internalType": "uint128",
					"name": "",
					"type": "uint128"
				}
			],
			"stateMutability": "view",
			"type": "function"
		},
		{
			"inputs": [],
			"name": "maxLiquidityPerTick",
			"outputs": [
				{
					"internalType": "uint128",
					"name": "",
					"type": "uint128"
				}
			],
			"stateMutability": "view",
			"type": "function"
		},
		{
			"inputs": [
				{
					"internalType": "address",
					"name": "recipient",
					"type": "address"
				},
				{
					"internalType": "int24",
					"name": "tickLower",
					"type": "int24"
				},
				{
					"internalType": "int24",
					"name": "tickUpper",
					"type": "int24"
				},
				{
					"internalType": "uint128",
					"name": "amount",
					"type": "uint128"
				},
				{
					"internalType": "bytes",
					"name": "data",
					"type": "bytes"
				}
			],
			"name": "mint",
			"outputs": [
				{
					"internalType": "uint256",
					"name": "amount0",
					"type": "uint256"
				},
				{
					"internalType": "uint256",
					"name": "amount1",
					"type": "uint256"
				}
			],
			"stateMutability": "nonpayable",
			"type": "function"
		},
		{
			"inputs": [
				{
					"internalType": "uint256",
					"name": "",
					"type": "uint256"
				}
			],
			"name": "observations",
			"outputs": [
				{
					"internalType": "uint32",
					"name": "blockTimestamp",
					"type": "uint32"
				},
				{
					"internalType": "int56",
					"name": "tickCumulative",
					"type": "int56"
				},
				{
					"internalType": "uint160",
					"name": "secondsPerLiquidityCumulativeX128",
					"type": "uint160"
				},
				{
					"internalType": "bool",
					"name": "initialized",
					"type": "bool"
				}
			],
			"stateMutability": "view",
			"type": "function"
		},
		{
			"inputs": [
				{
					"internalType": "uint32[]",
					"name": "secondsAgos",
					"type": "uint32[]"
				}
			],
			"name": "observe",
			"outputs": [
				{
					"internalType": "int56[]",
					"name": "tickCumulatives",
					"type": "int56[]"
				},
				{
					"internalType": "uint160[]",
					"name": "secondsPerLiquidityCumulativeX128s",
					"type": "uint160[]"
				}
			],
			"stateMutability": "view",
			"type": "function"
		},
		{
			"inputs": [
				{
					"internalType": "bytes32",
					"name": "",
					"type": "bytes32"
				}
			],
			"name": "positions",
			"outputs": [
				{
					"internalType": "uint128",
					"name": "liquidity",
					"type": "uint128"
				},
				{
					"internalType": "uint256",
					"name": "feeGrowthInside0LastX128",
					"type": "uint256"
				},
				{
					"internalType": "uint256",
					"name": "feeGrowthInside1LastX128",
					"type": "uint256"
				},
				{
					"internalType": "uint128",
					"name": "tokensOwed0",
					"type": "uint128"
				},
				{
					"internalType": "uint128",
					"name": "tokensOwed1",
					"type": "uint128"
				}
			],
			"stateMutability": "view",
			"type": "function"
		},
		{
			"inputs": [],
			"name": "protocolFees",
			"outputs": [
				{
					"internalType": "uint128",
					"name": "token0",
					"type": "uint128"
				},
				{
					"internalType": "uint128",
					"name": "token1",
					"type": "uint128"
				}
			],
			"stateMutability": "view",
			"type": "function"
		},
		{
			"inputs": [
				{
					"internalType": "uint8",
					"name": "feeProtocol0",
					"type": "uint8"
				},
				{
					"internalType": "uint8",
					"name": "feeProtocol1",
					"type": "uint8"
				}
			],
			"name": "setFeeProtocol",
			"outputs": [],
			"stateMutability": "nonpayable",
			"type": "function"
		},
		{
			"inputs": [],
			"name": "slot0",
			"outputs": [
				{
					"internalType": "uint160",
					"name": "sqrtPriceX96",
					"type": "uint160"
				},
				{
					"internalType": "int24",
					"name": "tick",
					"type": "int24"
				},
				{
					"internalType": "uint16",
					"name": "observationIndex",
					"type": "uint16"
				},
				{
					"internalType": "uint16",
					"name": "observationCardinality",
					"type": "uint16"
				},
				{
					"internalType": "uint16",
					"name": "observationCardinalityNext",
					"type": "uint16"
				},
				{
					"internalType": "uint8",
					"name": "feeProtocol",
					"type": "uint8"
				},
				{
					"internalType": "bool",
					"name": "unlocked",
					"type": "bool"
				}
			],
			"stateMutability": "view",
			"type": "function"
		},
		{
			"inputs": [
				{
					"internalType": "int24",
					"name": "tickLower",
					"type": "int24"
				},
				{
					"internalType": "int24",
					"name": "tickUpper",
					"type": "int24"
				}
			],
			"name": "snapshotCumulativesInside",
			"outputs": [
				{
					"internalType": "int56",
					"name": "tickCumulativeInside",
					"type": "int56"
				},
				{
					"internalType": "uint160",
					"name": "secondsPerLiquidityInsideX128",
					"type": "uint160"
				},
				{
					"internalType": "uint32",
					"name": "secondsInside",
					"type": "uint32"
				}
			],
			"stateMutability": "view",
			"type": "function"
		},
		{
			"inputs": [
				{
					"internalType": "address",
					"name": "recipient",
					"type": "address"
				},
				{
					"internalType": "bool",
					"name": "zeroForOne",
					"type": "bool"
				},
				{
					"internalType": "int256",
					"name": "amountSpecified",
					"type": "int256"
				},
				{
					"internalType": "uint160",
					"name": "sqrtPriceLimitX96",
					"type": "uint160"
				},
				{
					"internalType": "bytes",
					"name": "data",
					"type": "bytes"
				}
			],
			"name": "swap",
			"outputs": [
				{
					"internalType": "int256",
					"name": "amount0",
					"type": "int256"
				},
				{
					"internalType": "int256",
					"name": "amount1",
					"type": "int256"
				}
			],
			"stateMutability": "nonpayable",
			"type": "function"
		},
		{
			"inputs": [
				{
					"internalType": "int16",
					"name": "",
					"type": "int16"
				}
			],
			"name": "tickBitmap",
			"outputs": [
				{
					"internalType": "uint256",
					"name": "",
					"type": "uint256"
				}
			],
			"stateMutability": "view",
			"type": "function"
		},
		{
			"inputs": [],
			"name": "tickSpacing",
			"outputs": [
				{
					"internalType": "int24",
					"name": "",
					"type": "int24"
				}
			],
			"stateMutability": "view",
			"type": "function"
		},
		{
			"inputs": [
				{
					"internalType": "int24",
					"name": "",
					"type": "int24"
				}
			],
			"name": "ticks",
			"outputs": [
				{
					"internalType": "uint128",
					"name": "liquidityGross",
					"type": "uint128"
				},
				{
					"internalType": "int128",
					"name": "liquidityNet",
					"type": "int128"
				},
				{
					"internalType": "uint256",
					"name": "feeGrowthOutside0X128",
					"type": "uint256"
				},
				{
					"internalType": "uint256",
					"name": "feeGrowthOutside1X128",
					"type": "uint256"
				},
				{
					"internalType": "int56",
					"name": "tickCumulativeOutside",
					"type": "int56"
				},
				{
					"internalType": "uint160",
					"name": "secondsPerLiquidityOutsideX128",
					"type": "uint160"
				},
				{
					"internalType": "uint32",
					"name": "secondsOutside",
					"type": "uint32"
				},
				{
					"internalType": "bool",
					"name": "initialized",
					"type": "bool"
				}
			],
			"stateMutability": "view",
			"type": "function"
		},
		{
			"inputs": [],
			"name": "token0",
			"outputs": [
				{
					"internalType": "address",
					"name": "",
					"type": "address"
				}
			],
			"stateMutability": "view",
			"type": "function"
		},
		{
			"inputs": [],
			"name": "token1",
			"outputs": [
				{
					"internalType": "address",
					"name": "",
					"type": "address"
				}
			],
			"stateMutability": "view",
			"type": "function"
		}
	]
}