{
	"data": {
		"bytecode": {
			"linkReferences": {},
			"object": "60a060405234801561001057600080fd5b503060601b608052600380546001600160a01b031916339081179091556040516000907fb532073b38c83145e3e5135377a08bf9aab55bc0fd7c1179cd4fb995d2a5159c908290a36101f4600081815260046020527ffb8cf1d12598d1a039dd1d106665851a96aadf67d0d9ed76fceea282119208b7805462ffffff1916600a90811790915560405190929160008051602061608083398151915291a3610bb8600081815260046020527f72dffa9b822156d9cf4b0090fa0b656bcb9cc2b2c60eb6acfc20a34f54b31743805462ffffff1916603c90811790915560405190929160008051602061608083398151915291a3612710600081815260046020527f8cc740d51daa94ff54f33bd779c2d20149f524c340519b49181be5a08615f829805462ffffff191660c890811790915560405190929160008051602061608083398151915291a360805160601c615f0c610174600039806105515250615f0c6000f3fe608060405234801561001057600080fd5b506004361061007d5760003560e01c8063890357301161005b578063890357301461013b5780638a7c195f146101855780638da5cb5b146101b0578063a1671295146101b85761007d565b806313af4035146100825780631698ee82146100aa57806322afcccb14610102575b600080fd5b6100a86004803603602081101561009857600080fd5b50356001600160a01b03166101f4565b005b6100e6600480360360608110156100c057600080fd5b5080356001600160a01b03908116916020810135909116906040013562ffffff16610267565b604080516001600160a01b039092168252519081900360200190f35b6101246004803603602081101561011857600080fd5b503562ffffff16610293565b6040805160029290920b8252519081900360200190f35b6101436102a8565b604080516001600160a01b0396871681529486166020860152929094168383015262ffffff16606083015260029290920b608082015290519081900360a00190f35b6100a86004803603604081101561019b57600080fd5b5062ffffff813516906020013560020b6102de565b6100e66103a1565b6100e6600480360360608110156101ce57600080fd5b5080356001600160a01b03908116916020810135909116906040013562ffffff166103b0565b6003546001600160a01b0316331461020b57600080fd5b6003546040516001600160a01b038084169216907fb532073b38c83145e3e5135377a08bf9aab55bc0fd7c1179cd4fb995d2a5159c90600090a3600380546001600160a01b0319166001600160a01b0392909216919091179055565b60056020908152600093845260408085208252928452828420905282529020546001600160a01b031681565b60046020526000908152604090205460020b81565b600054600154600280546001600160a01b03938416939283169281169162ffffff600160a01b83041691600160b81b9004900b85565b6003546001600160a01b031633146102f557600080fd5b620f42408262ffffff161061030957600080fd5b60008160020b13801561032057506140008160020b125b61032957600080fd5b62ffffff8216600090815260046020526040902054600290810b900b1561034f57600080fd5b62ffffff828116600081815260046020526040808220805462ffffff1916600287900b958616179055517fc66a3fdf07232cdd185febcc6579d408c241b47ae2f9907d84be655141eeaecc9190a35050565b6003546001600160a01b031681565b60006103ba610546565b826001600160a01b0316846001600160a01b031614156103d957600080fd5b600080846001600160a01b0316866001600160a01b0316106103fc5784866103ff565b85855b90925090506001600160a01b03821661041757600080fd5b62ffffff8416600090815260046020526040902054600290810b9081900b61043e57600080fd5b6001600160a01b0383811660009081526005602090815260408083208685168452825280832062ffffff8a168452909152902054161561047d57600080fd5b61048a308484888561057d565b6001600160a01b03808516600081815260056020818152604080842089871680865290835281852062ffffff8e168087529084528286208054988a166001600160a01b0319998a1681179091558287529484528286208787528452828620818752845294829020805490971684179096558051600289900b815291820192909252815195995091947f783cca1c0412dd0d695e784568c96da2e9c22ff989357a2e8b1d9b2b4e6b71189281900390910190a45050509392505050565b306001600160a01b037f0000000000000000000000000000000000000000000000000000000000000000161461057b57600080fd5b565b6040805160a0810182526001600160a01b03878116808352878216602080850182905292881684860181905262ffffff888116606080880182905260028a810b6080998a01819052600080546001600160a01b03199081169099178155600180548a16891790558254909816861762ffffff60a01b1916600160a01b85021762ffffff60b81b1916600160b81b91830b9095160293909317909255875180870194909452838801929092528281019190915285518083039091018152930193849052825192909101919091209091610654906106c3565b8190604051809103906000f5905080158015610674573d6000803e3d6000fd5b50600080546001600160a01b0319908116909155600180549091169055600280547fffffffffffff00000000000000000000000000000000000000000000000000001690559695505050505050565b615806806106d18339019056fe6101606040523480156200001257600080fd5b503060601b60805260408051630890357360e41b81529051600091339163890357309160048082019260a092909190829003018186803b1580156200005657600080fd5b505afa1580156200006b573d6000803e3d6000fd5b505050506040513d60a08110156200008257600080fd5b508051602080830151604084015160608086015160809096015160e896871b6001600160e81b0319166101005291811b6001600160601b031990811660e05292811b831660c0529390931b1660a052600282810b900b90921b610120529150620000f79082906200010f811b62002afb17901c565b60801b6001600160801b03191661014052506200017d565b60008082600281900b620d89e719816200012557fe5b05029050600083600281900b620d89e8816200013d57fe5b0502905060008460020b83830360020b816200015557fe5b0560010190508062ffffff166001600160801b038016816200017357fe5b0495945050505050565b60805160601c60a05160601c60c05160601c60e05160601c6101005160e81c6101205160e81c6101405160801c6155bc6200024a60003980611fcb5280614aa15280614ad8525080610bf852806128b75280614b0c5280614b3e525080610ce752806119a852806119df52806128ff5250806111a55280611a625280611ed1528061240652806128db5280613dba5250806108ca52806112d35280611a315280611e6b52806123805280613c71525080612058528061223f5280612893525080612b7252506155bc6000f3fe608060405234801561001057600080fd5b50600436106101ae5760003560e01c806370cf754a116100ee578063c45a015511610097578063ddca3f4311610071578063ddca3f43146107f8578063f305839914610818578063f30dba9314610820578063f637731d146108a2576101ae565b8063c45a0155146107c9578063d0c93a7c146107d1578063d21220a7146107f0576101ae565b8063883bdbfd116100c8578063883bdbfd1461062d578063a34123a714610734578063a38807f21461076e576101ae565b806370cf754a146105c05780638206a4d1146105c857806385b66729146105f0576101ae565b80633850c7bd1161015b578063490e6cbc11610135578063490e6cbc1461046c5780634f1eb3d8146104f6578063514ea4bf146105475780635339c296146105a0576101ae565b80633850c7bd146103595780633c8a7d8d146103b25780634614131914610452576101ae565b80631ad8b03b1161018c5780631ad8b03b146102a8578063252c09d7146102df57806332148f6714610336576101ae565b80630dfe1681146101b3578063128acb08146101d75780631a68650214610284575b600080fd5b6101bb6108c8565b604080516001600160a01b039092168252519081900360200190f35b61026b600480360360a08110156101ed57600080fd5b6001600160a01b0382358116926020810135151592604082013592606083013516919081019060a081016080820135600160201b81111561022d57600080fd5b82018360208201111561023f57600080fd5b803590602001918460018302840111600160201b8311171561026057600080fd5b5090925090506108ec565b6040805192835260208301919091528051918290030190f35b61028c61148b565b604080516001600160801b039092168252519081900360200190f35b6102b061149a565b60405180836001600160801b03168152602001826001600160801b031681526020019250505060405180910390f35b6102fc600480360360208110156102f557600080fd5b50356114b4565b6040805163ffffffff909516855260069390930b60208501526001600160a01b039091168383015215156060830152519081900360800190f35b6103576004803603602081101561034c57600080fd5b503561ffff166114f9565b005b6103616115f3565b604080516001600160a01b03909816885260029690960b602088015261ffff9485168787015292841660608701529216608085015260ff90911660a0840152151560c0830152519081900360e00190f35b61026b600480360360a08110156103c857600080fd5b6001600160a01b03823516916020810135600290810b92604083013590910b916001600160801b036060820135169181019060a081016080820135600160201b81111561041457600080fd5b82018360208201111561042657600080fd5b803590602001918460018302840111600160201b8311171561044757600080fd5b509092509050611643565b61045a6118ff565b60408051918252519081900360200190f35b6103576004803603608081101561048257600080fd5b6001600160a01b038235169160208101359160408201359190810190608081016060820135600160201b8111156104b857600080fd5b8201836020820111156104ca57600080fd5b803590602001918460018302840111600160201b831117156104eb57600080fd5b509092509050611905565b6102b0600480360360a081101561050c57600080fd5b506001600160a01b03813516906020810135600290810b91604081013590910b906001600160801b0360608201358116916080013516611d60565b6105646004803603602081101561055d57600080fd5b5035611f7a565b604080516001600160801b0396871681526020810195909552848101939093529084166060840152909216608082015290519081900360a00190f35b61045a600480360360208110156105b657600080fd5b503560010b611fb7565b61028c611fc9565b610357600480360360408110156105de57600080fd5b5060ff81358116916020013516611fed565b6102b06004803603606081101561060657600080fd5b506001600160a01b03813516906001600160801b03602082013581169160400135166121d1565b61069b6004803603602081101561064357600080fd5b810190602081018135600160201b81111561065d57600080fd5b82018360208201111561066f57600080fd5b803590602001918460208302840111600160201b8311171561069057600080fd5b50909250905061249e565b604051808060200180602001838103835285818151815260200191508051906020019060200280838360005b838110156106df5781810151838201526020016106c7565b50505050905001838103825284818151815260200191508051906020019060200280838360005b8381101561071e578181015183820152602001610706565b5050505090500194505050505060405180910390f35b61026b6004803603606081101561074a57600080fd5b508035600290810b91602081013590910b90604001356001600160801b031661252b565b6107986004803603604081101561078457600080fd5b508035600290810b9160200135900b6126a2565b6040805160069490940b84526001600160a01b03909216602084015263ffffffff1682820152519081900360600190f35b6101bb612891565b6107d96128b5565b6040805160029290920b8252519081900360200190f35b6101bb6128d9565b6108006128fd565b6040805162ffffff9092168252519081900360200190f35b61045a612921565b6108406004803603602081101561083657600080fd5b503560020b612927565b604080516001600160801b039099168952600f9790970b602089015287870195909552606087019390935260069190910b60808601526001600160a01b031660a085015263ffffffff1660c0840152151560e083015251908190036101000190f35b610357600480360360208110156108b857600080fd5b50356001600160a01b0316612991565b7f000000000000000000000000000000000000000000000000000000000000000081565b6000806108f7612b67565b8561092e576040805162461bcd60e51b8152602060048201526002602482015261415360f01b604482015290519081900360640190fd5b6040805160e0810182526000546001600160a01b0381168252600160a01b8104600290810b810b900b602083015261ffff600160b81b8204811693830193909352600160c81b810483166060830152600160d81b8104909216608082015260ff600160e81b8304811660a0830152600160f01b909204909116151560c082018190526109e7576040805162461bcd60e51b81526020600482015260036024820152624c4f4b60e81b604482015290519081900360640190fd5b87610a325780600001516001600160a01b0316866001600160a01b0316118015610a2d575073fffd8963efd1fc6a506488495d951d5263988d266001600160a01b038716105b610a64565b80600001516001600160a01b0316866001600160a01b0316108015610a6457506401000276a36001600160a01b038716115b610a9b576040805162461bcd60e51b815260206004820152600360248201526214d41360ea1b604482015290519081900360640190fd5b6000805460ff60f01b191681556040805160c08101909152808a610aca5760048460a0015160ff16901c610add565b60108460a0015160ff1681610adb57fe5b065b60ff1681526004546001600160801b03166020820152604001610afe612b9e565b63ffffffff168152602001600060060b815260200160006001600160a01b031681526020016000151581525090506000808913905060006040518060e001604052808b81526020016000815260200185600001516001600160a01b03168152602001856020015160020b81526020018c610b7a57600254610b7e565b6001545b815260200160006001600160801b0316815260200184602001516001600160801b031681525090505b805115801590610bcd5750886001600160a01b031681604001516001600160a01b031614155b15610f9757610bda615523565b60408201516001600160a01b031681526060820151610c1d906006907f00000000000000000000000000000000000000000000000000000000000000008f612ba2565b15156040830152600290810b810b60208301819052620d89e719910b1215610c4e57620d89e7196020820152610c6d565b6020810151620d89e860029190910b1315610c6d57620d89e860208201525b610c7a8160200151612ce4565b6001600160a01b031660608201526040820151610d0b908d610cb4578b6001600160a01b031683606001516001600160a01b031611610cce565b8b6001600160a01b031683606001516001600160a01b0316105b610cdc578260600151610cde565b8b5b60c085015185517f0000000000000000000000000000000000000000000000000000000000000000613015565b60c085015260a084015260808301526001600160a01b031660408301528215610d6d57610d418160c00151826080015101613207565b825103825260a0810151610d6390610d5890613207565b60208401519061321d565b6020830152610da8565b610d7a8160a00151613207565b825101825260c08101516080820151610da291610d979101613207565b602084015190613239565b60208301525b835160ff1615610dee576000846000015160ff168260c0015181610dc857fe5b60c0840180519290910491829003905260a0840180519091016001600160801b03169052505b60c08201516001600160801b031615610e2d57610e218160c00151600160801b8460c001516001600160801b031661324f565b60808301805190910190525b80606001516001600160a01b031682604001516001600160a01b03161415610f5657806040015115610f2d578360a00151610eb757610e95846040015160008760200151886040015188602001518a6060015160086132ff909695949392919063ffffffff16565b6001600160a01b03166080860152600690810b900b6060850152600160a08501525b6000610f0382602001518e610ece57600154610ed4565b84608001515b8f610ee3578560800151610ee7565b6002545b608089015160608a015160408b01516005959493929190613491565b90508c15610f0f576000035b610f1d8360c001518261355c565b6001600160801b031660c0840152505b8b610f3c578060200151610f45565b60018160200151035b600290810b900b6060830152610f91565b80600001516001600160a01b031682604001516001600160a01b031614610f9157610f848260400151613612565b600290810b900b60608301525b50610ba7565b836020015160020b816060015160020b1461106557600080610fe586604001518660400151886020015188602001518a606001518b60800151600861393a909695949392919063ffffffff16565b604085015160608601516000805461ffff60c81b1916600160c81b61ffff958616021761ffff60b81b1916600160b81b95909416949094029290921762ffffff60a01b1916600160a01b62ffffff60029490940b9390931692909202919091176001600160a01b0319166001600160a01b039091161790555061108a9050565b6040810151600080546001600160a01b0319166001600160a01b039092169190911790555b8060c001516001600160801b031683602001516001600160801b0316146110d05760c0810151600480546001600160801b0319166001600160801b039092169190911790555b8a1561112057608081015160015560a08101516001600160801b03161561111b5760a0810151600380546001600160801b031981166001600160801b03918216909301169190911790555b611166565b608081015160025560a08101516001600160801b0316156111665760a0810151600380546001600160801b03808216600160801b92839004821690940116029190911790555b8115158b15151461117f57602081015181518b0361118c565b80600001518a0381602001515b90965094508a156112c55760008512156111ce576111ce7f00000000000000000000000000000000000000000000000000000000000000008d87600003613ad5565b60006111d8613c23565b9050336001600160a01b031663fa461e3388888c8c6040518563ffffffff1660e01b815260040180858152602001848152602001806020018281038252848482818152602001925080828437600081840152601f19601f82011690508083019250505095505050505050600060405180830381600087803b15801561125c57600080fd5b505af1158015611270573d6000803e3d6000fd5b5050505061127c613c23565b6112868289613d5c565b11156112bf576040805162461bcd60e51b815260206004820152600360248201526249494160e81b604482015290519081900360640190fd5b506113ef565b60008612156112fc576112fc7f00000000000000000000000000000000000000000000000000000000000000008d88600003613ad5565b6000611306613d6c565b9050336001600160a01b031663fa461e3388888c8c6040518563ffffffff1660e01b815260040180858152602001848152602001806020018281038252848482818152602001925080828437600081840152601f19601f82011690508083019250505095505050505050600060405180830381600087803b15801561138a57600080fd5b505af115801561139e573d6000803e3d6000fd5b505050506113aa613d6c565b6113b48288613d5c565b11156113ed576040805162461bcd60e51b815260206004820152600360248201526249494160e81b604482015290519081900360640190fd5b505b60408082015160c083015160608085015184518b8152602081018b90526001600160a01b03948516818701526001600160801b039093169183019190915260020b60808201529151908e169133917fc42079f94a6350d7e6235f29174924f928cc2ac818eb64fed8004e115fbcca679181900360a00190a350506000805460ff60f01b1916600160f01b17905550919890975095505050505050565b6004546001600160801b031681565b6003546001600160801b0380821691600160801b90041682565b60088161ffff81106114c557600080fd5b015463ffffffff81169150600160201b810460060b90600160581b81046001600160a01b031690600160f81b900460ff1684565b600054600160f01b900460ff1661153d576040805162461bcd60e51b81526020600482015260036024820152624c4f4b60e81b604482015290519081900360640190fd5b6000805460ff60f01b19169055611552612b67565b60008054600160d81b900461ffff169061156e60088385613e04565b6000805461ffff808416600160d81b810261ffff60d81b19909316929092179092559192508316146115db576040805161ffff80851682528316602082015281517fac49e518f90a358f652e4400164f05a5d8f7e35e7747279bc3a93dbf584e125a929181900390910190a15b50506000805460ff60f01b1916600160f01b17905550565b6000546001600160a01b03811690600160a01b810460020b9061ffff600160b81b8204811691600160c81b8104821691600160d81b8204169060ff600160e81b8204811691600160f01b90041687565b600080548190600160f01b900460ff1661168a576040805162461bcd60e51b81526020600482015260036024820152624c4f4b60e81b604482015290519081900360640190fd5b6000805460ff60f01b191690556001600160801b0385166116aa57600080fd5b6000806116f860405180608001604052808c6001600160a01b031681526020018b60020b81526020018a60020b81526020016116ee8a6001600160801b0316613ea7565b600f0b9052613eb8565b9250925050819350809250600080600086111561171a57611717613c23565b91505b841561172b57611728613d6c565b90505b336001600160a01b031663d348799787878b8b6040518563ffffffff1660e01b815260040180858152602001848152602001806020018281038252848482818152602001925080828437600081840152601f19601f82011690508083019250505095505050505050600060405180830381600087803b1580156117ad57600080fd5b505af11580156117c1573d6000803e3d6000fd5b505050506000861115611818576117d6613c23565b6117e08388613d5c565b1115611818576040805162461bcd60e51b815260206004820152600260248201526104d360f41b604482015290519081900360640190fd5b841561186857611826613d6c565b6118308287613d5c565b1115611868576040805162461bcd60e51b81526020600482015260026024820152614d3160f01b604482015290519081900360640190fd5b8960020b8b60020b8d6001600160a01b03167f7a53080ba414158be7ec69b987b5fb7d07dee101fe85488f0853ae16239d0bde338d8b8b60405180856001600160a01b03168152602001846001600160801b0316815260200183815260200182815260200194505050505060405180910390a450506000805460ff60f01b1916600160f01b17905550919890975095505050505050565b60025481565b600054600160f01b900460ff16611949576040805162461bcd60e51b81526020600482015260036024820152624c4f4b60e81b604482015290519081900360640190fd5b6000805460ff60f01b1916905561195e612b67565b6004546001600160801b0316806119a0576040805162461bcd60e51b81526020600482015260016024820152601360fa1b604482015290519081900360640190fd5b60006119d5867f000000000000000000000000000000000000000000000000000000000000000062ffffff16620f42406140f8565b90506000611a0c867f000000000000000000000000000000000000000000000000000000000000000062ffffff16620f42406140f8565b90506000611a18613c23565b90506000611a24613d6c565b90508815611a5757611a577f00000000000000000000000000000000000000000000000000000000000000008b8b613ad5565b8715611a8857611a887f00000000000000000000000000000000000000000000000000000000000000008b8a613ad5565b336001600160a01b031663e9cbafb085858a8a6040518563ffffffff1660e01b815260040180858152602001848152602001806020018281038252848482818152602001925080828437600081840152601f19601f82011690508083019250505095505050505050600060405180830381600087803b158015611b0a57600080fd5b505af1158015611b1e573d6000803e3d6000fd5b505050506000611b2c613c23565b90506000611b38613d6c565b905081611b458588613d5c565b1115611b7d576040805162461bcd60e51b8152602060048201526002602482015261046360f41b604482015290519081900360640190fd5b80611b888487613d5c565b1115611bc0576040805162461bcd60e51b8152602060048201526002602482015261463160f01b604482015290519081900360640190fd5b8382038382038115611c4f5760008054600160e81b9004600f16908115611bf3578160ff168481611bed57fe5b04611bf6565b60005b90506001600160801b03811615611c2957600380546001600160801b038082168401166001600160801b03199091161790555b611c43818503600160801b8d6001600160801b031661324f565b60018054909101905550505b8015611cda5760008054600160e81b900460041c600f16908115611c7f578160ff168381611c7957fe5b04611c82565b60005b90506001600160801b03811615611cb457600380546001600160801b03600160801b8083048216850182160291161790555b611cce818403600160801b8d6001600160801b031661324f565b60028054909101905550505b8d6001600160a01b0316336001600160a01b03167fbdbdb71d7860376ba52b25a5028beea23581364a40522f6bcfb86bb1f2dca6338f8f86866040518085815260200184815260200183815260200182815260200194505050505060405180910390a350506000805460ff60f01b1916600160f01b179055505050505050505050505050565b600080548190600160f01b900460ff16611da7576040805162461bcd60e51b81526020600482015260036024820152624c4f4b60e81b604482015290519081900360640190fd5b6000805460ff60f01b19168155611dc16007338989614132565b60038101549091506001600160801b0390811690861611611de25784611df1565b60038101546001600160801b03165b60038201549093506001600160801b03600160801b909104811690851611611e195783611e2f565b6003810154600160801b90046001600160801b03165b91506001600160801b03831615611e94576003810180546001600160801b031981166001600160801b03918216869003821617909155611e94907f0000000000000000000000000000000000000000000000000000000000000000908a908616613ad5565b6001600160801b03821615611efa576003810180546001600160801b03600160801b808304821686900382160291811691909117909155611efa907f0000000000000000000000000000000000000000000000000000000000000000908a908516613ad5565b604080516001600160a01b038a1681526001600160801b0380861660208301528416818301529051600288810b92908a900b9133917f70935338e69775456a85ddef226c395fb668b63fa0115f5f20610b388e6ca9c0919081900360600190a4506000805460ff60f01b1916600160f01b17905590969095509350505050565b60076020526000908152604090208054600182015460028301546003909301546001600160801b0392831693919281811691600160801b90041685565b60066020526000908152604090205481565b7f000000000000000000000000000000000000000000000000000000000000000081565b600054600160f01b900460ff16612031576040805162461bcd60e51b81526020600482015260036024820152624c4f4b60e81b604482015290519081900360640190fd5b6000805460ff60f01b1916905560408051638da5cb5b60e01b815290516001600160a01b037f00000000000000000000000000000000000000000000000000000000000000001691638da5cb5b916004808301926020929190829003018186803b15801561209e57600080fd5b505afa1580156120b2573d6000803e3d6000fd5b505050506040513d60208110156120c857600080fd5b50516001600160a01b031633146120de57600080fd5b60ff82161580612101575060048260ff16101580156121015750600a8260ff1611155b801561212b575060ff8116158061212b575060048160ff161015801561212b5750600a8160ff1611155b61213457600080fd5b60008054610ff0600484901b16840160ff908116600160e81b90810260ff60e81b19841617909355919004167f973d8d92bb299f4af6ce49b52a8adb85ae46b9f214c4c4fc06ac77401237b1336010826040805160ff9390920683168252600f600486901c16602083015286831682820152918516606082015290519081900360800190a150506000805460ff60f01b1916600160f01b17905550565b600080548190600160f01b900460ff16612218576040805162461bcd60e51b81526020600482015260036024820152624c4f4b60e81b604482015290519081900360640190fd5b6000805460ff60f01b1916905560408051638da5cb5b60e01b815290516001600160a01b037f00000000000000000000000000000000000000000000000000000000000000001691638da5cb5b916004808301926020929190829003018186803b15801561228557600080fd5b505afa158015612299573d6000803e3d6000fd5b505050506040513d60208110156122af57600080fd5b50516001600160a01b031633146122c557600080fd5b6003546001600160801b03908116908516116122e157836122ee565b6003546001600160801b03165b6003549092506001600160801b03600160801b9091048116908416116123145782612328565b600354600160801b90046001600160801b03165b90506001600160801b038216156123a9576003546001600160801b038381169116141561235757600019909101905b600380546001600160801b031981166001600160801b039182168590038216179091556123a9907f00000000000000000000000000000000000000000000000000000000000000009087908516613ad5565b6001600160801b0381161561242f576003546001600160801b03828116600160801b9092041614156123da57600019015b600380546001600160801b03600160801b80830482168590038216029181169190911790915561242f907f00000000000000000000000000000000000000000000000000000000000000009087908416613ad5565b604080516001600160801b0380851682528316602082015281516001600160a01b0388169233927f596b573906218d3411850b26a6b437d6c4522fdb43d2d2386263f86d50b8b151929081900390910190a36000805460ff60f01b1916600160f01b1790559094909350915050565b6060806124a9612b67565b6125206124b4612b9e565b858580806020026020016040519081016040528093929190818152602001838360200280828437600092018290525054600454600896959450600160a01b820460020b935061ffff600160b81b8304811693506001600160801b0390911691600160c81b900416614196565b915091509250929050565b600080548190600160f01b900460ff16612572576040805162461bcd60e51b81526020600482015260036024820152624c4f4b60e81b604482015290519081900360640190fd5b6000805460ff60f01b1916815560408051608081018252338152600288810b602083015287900b91810191909152819081906125cb90606081016125be6001600160801b038a16613ea7565b600003600f0b9052613eb8565b92509250925081600003945080600003935060008511806125ec5750600084115b1561262b576003830180546001600160801b038082168089018216600160801b93849004831689019092169092029091176001600160801b0319161790555b604080516001600160801b0388168152602081018790528082018690529051600289810b92908b900b9133917f0c396cd989a39f4459b5fa1aed6a9a8dcdbc45908acfd67e028cd568da98982c919081900360600190a450506000805460ff60f01b1916600160f01b179055509094909350915050565b60008060006126af612b67565b6126b985856142f0565b600285810b810b60009081526005602052604080822087840b90930b825281206003830154600681900b93600160381b82046001600160a01b0316928492600160d81b810463ffffffff169284929091600160f81b900460ff168061271d57600080fd5b6003820154600681900b9850600160381b81046001600160a01b03169650600160d81b810463ffffffff169450600160f81b900460ff168061275e57600080fd5b50506040805160e0810182526000546001600160a01b0381168252600160a01b8104600290810b810b810b6020840181905261ffff600160b81b8404811695850195909552600160c81b830485166060850152600160d81b8304909416608084015260ff600160e81b8304811660a0850152600160f01b909204909116151560c08301529093508e810b91900b121590506128075750939094039650900393509003905061288a565b8a60020b816020015160020b121561287b576000612823612b9e565b6020830151604084015160045460608601519394506000938493612859936008938893879392916001600160801b0316906132ff565b9a9003989098039b50509490960392909203965090910303925061288a915050565b50949093039650039350900390505b9250925092565b7f000000000000000000000000000000000000000000000000000000000000000081565b7f000000000000000000000000000000000000000000000000000000000000000081565b7f000000000000000000000000000000000000000000000000000000000000000081565b7f000000000000000000000000000000000000000000000000000000000000000081565b60015481565b60056020526000908152604090208054600182015460028301546003909301546001600160801b03831693600160801b909304600f0b9290600681900b90600160381b81046001600160a01b031690600160d81b810463ffffffff1690600160f81b900460ff1688565b6000546001600160a01b0316156129d4576040805162461bcd60e51b8152602060048201526002602482015261414960f01b604482015290519081900360640190fd5b60006129df82613612565b90506000806129f76129ef612b9e565b6008906143b9565b6040805160e0810182526001600160a01b038816808252600288810b6020808501829052600085870181905261ffff898116606088018190529089166080880181905260a08801839052600160c0909801979097528154600160f01b6001600160a01b0319909116871762ffffff60a01b1916600160a01b62ffffff9787900b97909716969096029590951763ffffffff60b81b1916600160c81b9091021761ffff60d81b1916600160d81b9096029590951761ffff60e81b191692909217909355835191825281019190915281519395509193507f98636036cb66a9c19a37435efc1e90142190214e8abeb821bdba3f2990dd4c9592918290030190a150505050565b60008082600281900b620d89e71981612b1057fe5b05029050600083600281900b620d89e881612b2757fe5b0502905060008460020b83830360020b81612b3e57fe5b0560010190508062ffffff166001600160801b03801681612b5b57fe5b0493505050505b919050565b306001600160a01b037f00000000000000000000000000000000000000000000000000000000000000001614612b9c57600080fd5b565b4290565b60008060008460020b8660020b81612bb657fe5b05905060008660020b128015612bdd57508460020b8660020b81612bd657fe5b0760020b15155b15612be757600019015b8315612c5c57600080612bf983614405565b600182810b810b600090815260208d9052604090205460ff83169190911b80016000190190811680151597509294509092509085612c3e57888360ff16860302612c51565b88612c4882614417565b840360ff168603025b965050505050612cda565b600080612c6b83600101614405565b91509150600060018260ff166001901b031990506000818b60008660010b60010b8152602001908152602001600020541690508060001415955085612cbd57888360ff0360ff16866001010102612cd3565b8883612cc8836144b6565b0360ff168660010101025b9650505050505b5094509492505050565b60008060008360020b12612cfb578260020b612d03565b8260020b6000035b9050620d89e8811115612d41576040805162461bcd60e51b81526020600482015260016024820152601560fa1b604482015290519081900360640190fd5b600060018216612d5557600160801b612d67565b6ffffcb933bd6fad37aa2d162d1a5940015b70ffffffffffffffffffffffffffffffffff1690506002821615612d9b576ffff97272373d413259a46990580e213a0260801c5b6004821615612dba576ffff2e50f5f656932ef12357cf3c7fdcc0260801c5b6008821615612dd9576fffe5caca7e10e4e61c3624eaa0941cd00260801c5b6010821615612df8576fffcb9843d60f6159c9db58835c9266440260801c5b6020821615612e17576fff973b41fa98c081472e6896dfb254c00260801c5b6040821615612e36576fff2ea16466c96a3843ec78b326b528610260801c5b6080821615612e55576ffe5dee046a99a2a811c461f1969c30530260801c5b610100821615612e75576ffcbe86c7900a88aedcffc83b479aa3a40260801c5b610200821615612e95576ff987a7253ac413176f2b074cf7815e540260801c5b610400821615612eb5576ff3392b0822b70005940c7a398e4b70f30260801c5b610800821615612ed5576fe7159475a2c29b7443b29c7fa6e889d90260801c5b611000821615612ef5576fd097f3bdfd2022b8845ad8f792aa58250260801c5b612000821615612f15576fa9f746462d870fdf8a65dc1f90e061e50260801c5b614000821615612f35576f70d869a156d2a1b890bb3df62baf32f70260801c5b618000821615612f55576f31be135f97d08fd981231505542fcfa60260801c5b62010000821615612f76576f09aa508b5b7a84e1c677de54f3e99bc90260801c5b62020000821615612f96576e5d6af8dedb81196699c329225ee6040260801c5b62040000821615612fb5576d2216e584f5fa1ea926041bedfe980260801c5b62080000821615612fd2576b048a170391f7dc42444e8fa20260801c5b60008460020b1315612fed578060001981612fe957fe5b0490505b600160201b810615613000576001613003565b60005b60ff16602082901c0192505050919050565b60008080806001600160a01b03808916908a16101581871280159061309a57600061304e8989620f42400362ffffff16620f424061324f565b905082613067576130628c8c8c60016145a0565b613074565b6130748b8d8c600161461b565b9550858110613085578a9650613094565b6130918c8b83866146cf565b96505b506130e4565b816130b1576130ac8b8b8b600061461b565b6130be565b6130be8a8c8b60006145a0565b93508388600003106130d2578995506130e4565b6130e18b8a8a6000038561471b565b95505b6001600160a01b038a8116908716148215613147578080156131035750815b61311957613114878d8c600161461b565b61311b565b855b9550808015613128575081155b61313e57613139878d8c60006145a0565b613140565b845b9450613191565b8080156131515750815b613167576131628c888c60016145a0565b613169565b855b9550808015613176575081155b61318c576131878c888c600061461b565b61318e565b845b94505b811580156131a157508860000385115b156131ad578860000394505b8180156131cc57508a6001600160a01b0316876001600160a01b031614155b156131db5785890393506131f8565b6131f5868962ffffff168a620f42400362ffffff166140f8565b93505b50505095509550955095915050565b6000600160ff1b821061321957600080fd5b5090565b8082038281131560008312151461323357600080fd5b92915050565b8181018281121560008312151461323357600080fd5b6000808060001985870986860292508281109083900303905080613285576000841161327a57600080fd5b5082900490506132f8565b80841161329157600080fd5b6000848688096000868103871696879004966002600389028118808a02820302808a02820302808a02820302808a02820302808a02820302808a02909103029181900381900460010186841190950394909402919094039290920491909117919091029150505b9392505050565b60008063ffffffff87166133a5576000898661ffff1661ffff811061332057fe5b60408051608081018252919092015463ffffffff808216808452600160201b8304600690810b810b900b6020850152600160581b83046001600160a01b031694840194909452600160f81b90910460ff16151560608301529092508a16146133915761338e818a8988614767565b90505b806020015181604001519250925050613485565b8688036000806133ba8c8c858c8c8c8c614817565b91509150816000015163ffffffff168363ffffffff1614156133ec578160200151826040015194509450505050613485565b805163ffffffff84811691161415613414578060200151816040015194509450505050613485565b8151815160208085015190840151918390039286039163ffffffff80841692908516910360060b8161344257fe5b05028460200151018263ffffffff168263ffffffff1686604001518660400151036001600160a01b0316028161347457fe5b048560400151019650965050505050505b97509795505050505050565b600295860b860b60009081526020979097526040909620600181018054909503909455938301805490920390915560038201805463ffffffff600160d81b6001600160a01b03600160381b8085048216909603169094027affffffffffffffffffffffffffffffffffffffff000000000000001990921691909117600681810b90960390950b66ffffffffffffff1666ffffffffffffff199095169490941782810485169095039093160263ffffffff60d81b1990931692909217905554600160801b9004600f0b90565b60008082600f0b12156135c157826001600160801b03168260000384039150816001600160801b0316106135bc576040805162461bcd60e51b81526020600482015260026024820152614c5360f01b604482015290519081900360640190fd5b613233565b826001600160801b03168284019150816001600160801b03161015613233576040805162461bcd60e51b81526020600482015260026024820152614c4160f01b604482015290519081900360640190fd5b60006401000276a36001600160a01b0383161080159061364e575073fffd8963efd1fc6a506488495d951d5263988d266001600160a01b038316105b613683576040805162461bcd60e51b81526020600482015260016024820152602960f91b604482015290519081900360640190fd5b77ffffffffffffffffffffffffffffffffffffffff00000000602083901b166001600160801b03811160071b81811c67ffffffffffffffff811160061b90811c63ffffffff811160051b90811c61ffff811160041b90811c60ff8111600390811b91821c600f811160021b90811c918211600190811b92831c9790881196179094179092171790911717176080811061372457607f810383901c915061372e565b80607f0383901b91505b908002607f81811c60ff83811c9190911c800280831c81831c1c800280841c81841c1c800280851c81851c1c800280861c81861c1c800280871c81871c1c800280881c81881c1c800280891c81891c1c8002808a1c818a1c1c8002808b1c818b1c1c8002808c1c818c1c1c8002808d1c818d1c1c8002808e1c9c81901c9c909c1c80029c8d901c9e9d607f198f0160401b60c09190911c678000000000000000161760c19b909b1c674000000000000000169a909a1760c29990991c672000000000000000169890981760c39790971c671000000000000000169690961760c49590951c670800000000000000169490941760c59390931c670400000000000000169290921760c69190911c670200000000000000161760c79190911c600160381b161760c89190911c6680000000000000161760c99190911c6640000000000000161760ca9190911c6620000000000000161760cb9190911c6610000000000000161760cc9190911c6608000000000000161760cd9190911c66040000000000001617693627a301d71055774c8581026f028f6481ab7f045a5af012a19d003aa9198101608090811d906fdb2df09e81959a81455e260799a0632f8301901d600281810b9083900b1461392b57886001600160a01b031661390f82612ce4565b6001600160a01b031611156139245781613926565b805b61392d565b815b9998505050505050505050565b6000806000898961ffff1661ffff811061395057fe5b60408051608081018252919092015463ffffffff808216808452600160201b8304600690810b810b900b6020850152600160581b83046001600160a01b031694840194909452600160f81b90910460ff1615156060830152909250891614156139bf5788859250925050613485565b8461ffff168461ffff161180156139e057506001850361ffff168961ffff16145b156139ed578391506139f1565b8491505b8161ffff168960010161ffff1681613a0557fe5b069250613a1481898989614767565b8a8461ffff1661ffff8110613a2557fe5b825191018054602084015160408501516060909501511515600160f81b026001600160f81b036001600160a01b03909616600160581b027fff0000000000000000000000000000000000000000ffffffffffffffffffffff60069390930b66ffffffffffffff16600160201b026affffffffffffff000000001963ffffffff90971663ffffffff199095169490941795909516929092171692909217929092161790555097509795505050505050565b604080516001600160a01b038481166024830152604480830185905283518084039091018152606490920183526020820180516001600160e01b031663a9059cbb60e01b1781529251825160009485949389169392918291908083835b60208310613b515780518252601f199092019160209182019101613b32565b6001836020036101000a0380198251168184511680821785525050505050509050019150506000604051808303816000865af19150503d8060008114613bb3576040519150601f19603f3d011682016040523d82523d6000602084013e613bb8565b606091505b5091509150818015613be6575080511580613be65750808060200190516020811015613be357600080fd5b50515b613c1c576040805162461bcd60e51b81526020600482015260026024820152612a2360f11b604482015290519081900360640190fd5b5050505050565b604080513060248083019190915282518083039091018152604490910182526020810180516001600160e01b03166370a0823160e01b17815291518151600093849384936001600160a01b037f00000000000000000000000000000000000000000000000000000000000000001693919290918291908083835b60208310613cbc5780518252601f199092019160209182019101613c9d565b6001836020036101000a038019825116818451168082178552505050505050905001915050600060405180830381855afa9150503d8060008114613d1c576040519150601f19603f3d011682016040523d82523d6000602084013e613d21565b606091505b5091509150818015613d3557506020815110155b613d3e57600080fd5b808060200190516020811015613d5357600080fd5b50519250505090565b8082018281101561323357600080fd5b604080513060248083019190915282518083039091018152604490910182526020810180516001600160e01b03166370a0823160e01b17815291518151600093849384936001600160a01b037f000000000000000000000000000000000000000000000000000000000000000016939192909182919080838360208310613cbc5780518252601f199092019160209182019101613c9d565b6000808361ffff1611613e42576040805162461bcd60e51b81526020600482015260016024820152604960f81b604482015290519081900360640190fd5b8261ffff168261ffff1611613e585750816132f8565b825b8261ffff168161ffff161015613e9e576001858261ffff1661ffff8110613e7d57fe5b01805463ffffffff191663ffffffff92909216919091179055600101613e5a565b50909392505050565b80600f81900b8114612b6257600080fd5b6000806000613ec5612b67565b613ed7846020015185604001516142f0565b6040805160e0810182526000546001600160a01b0381168252600160a01b8104600290810b810b900b602080840182905261ffff600160b81b8404811685870152600160c81b84048116606080870191909152600160d81b8504909116608086015260ff600160e81b8504811660a0870152600160f01b909404909316151560c085015288519089015194890151928901519394613f7b9491939092909190614a11565b93508460600151600f0b6000146140f057846020015160020b816020015160020b1215613fd057613fc9613fb28660200151612ce4565b613fbf8760400151612ce4565b8760600151614bc6565b92506140f0565b846040015160020b816020015160020b12156140c65760045460408201516001600160801b039091169061402290614006612b9e565b602085015160608601516080870151600894939291879161393a565b6000805461ffff60c81b1916600160c81b61ffff938416021761ffff60b81b1916600160b81b939092169290920217905581516040870151614072919061406890612ce4565b8860600151614bc6565b93506140906140848760200151612ce4565b83516060890151614c0a565b92506140a081876060015161355c565b600480546001600160801b0319166001600160801b0392909216919091179055506140f0565b6140ed6140d68660200151612ce4565b6140e38760400151612ce4565b8760600151614c0a565b91505b509193909250565b600061410584848461324f565b90506000828061411157fe5b84860911156132f857600019811061412857600080fd5b6001019392505050565b6040805160609490941b6bffffffffffffffffffffffff1916602080860191909152600293840b60e890811b60348701529290930b90911b60378401528051808403601a018152603a90930181528251928201929092206000908152929052902090565b60608060008361ffff16116141d6576040805162461bcd60e51b81526020600482015260016024820152604960f81b604482015290519081900360640190fd5b865167ffffffffffffffff811180156141ee57600080fd5b50604051908082528060200260200182016040528015614218578160200160208202803683370190505b509150865167ffffffffffffffff8111801561423357600080fd5b5060405190808252806020026020018201604052801561425d578160200160208202803683370190505b50905060005b87518110156142e35761428e8a8a8a848151811061427d57fe5b60200260200101518a8a8a8a6132ff565b84838151811061429a57fe5b602002602001018484815181106142ad57fe5b60200260200101826001600160a01b03166001600160a01b03168152508260060b60060b81525050508080600101915050614263565b5097509795505050505050565b8060020b8260020b12614330576040805162461bcd60e51b8152602060048201526003602482015262544c5560e81b604482015290519081900360640190fd5b620d89e719600283900b1215614373576040805162461bcd60e51b8152602060048201526003602482015262544c4d60e81b604482015290519081900360640190fd5b620d89e8600282900b13156143b5576040805162461bcd60e51b815260206004820152600360248201526254554d60e81b604482015290519081900360640190fd5b5050565b6040805160808101825263ffffffff9283168082526000602083018190529282019290925260016060909101819052835463ffffffff1916909117909116600160f81b17909155908190565b60020b600881901d9161010090910790565b600080821161442557600080fd5b600160801b821061443857608091821c91015b68010000000000000000821061445057604091821c91015b600160201b821061446357602091821c91015b62010000821061447557601091821c91015b610100821061448657600891821c91015b6010821061449657600491821c91015b600482106144a657600291821c91015b60028210612b6257600101919050565b60008082116144c457600080fd5b5060ff6001600160801b038216156144df57607f19016144e7565b608082901c91505b67ffffffffffffffff82161561450057603f1901614508565b604082901c91505b63ffffffff82161561451d57601f1901614525565b602082901c91505b61ffff82161561453857600f1901614540565b601082901c91505b60ff821615614552576007190161455a565b600882901c91505b600f82161561456c5760031901614574565b600482901c91505b6003821615614586576001190161458e565b600282901c91505b6001821615612b625760001901919050565b6000836001600160a01b0316856001600160a01b031611156145c0579293925b816145ed576145e8836001600160801b03168686036001600160a01b0316600160601b61324f565b614610565b614610836001600160801b03168686036001600160a01b0316600160601b6140f8565b90505b949350505050565b6000836001600160a01b0316856001600160a01b0316111561463b579293925b6fffffffffffffffffffffffffffffffff60601b606084901b166001600160a01b03868603811690871661466e57600080fd5b8361469e57866001600160a01b03166146918383896001600160a01b031661324f565b8161469857fe5b046146c4565b6146c46146b58383896001600160a01b03166140f8565b886001600160a01b0316614c39565b979650505050505050565b600080856001600160a01b0316116146e657600080fd5b6000846001600160801b0316116146fc57600080fd5b8161470e576145e88585856001614c44565b6146108585856001614d25565b600080856001600160a01b03161161473257600080fd5b6000846001600160801b03161161474857600080fd5b8161475a576145e88585856000614d25565b6146108585856000614c44565b61476f61555f565b600085600001518503905060405180608001604052808663ffffffff1681526020018263ffffffff168660020b0288602001510160060b81526020016000856001600160801b0316116147c35760016147c5565b845b6001600160801b031673ffffffff00000000000000000000000000000000608085901b16816147f057fe5b048860400151016001600160a01b0316815260200160011515815250915050949350505050565b61481f61555f565b61482761555f565b888561ffff1661ffff811061483857fe5b60408051608081018252919092015463ffffffff8116808352600160201b8204600690810b810b900b6020840152600160581b82046001600160a01b031693830193909352600160f81b900460ff1615156060820152925061489c90899089614e11565b156148d4578663ffffffff16826000015163ffffffff1614156148be57613485565b816148cb83898988614767565b91509150613485565b888361ffff168660010161ffff16816148e957fe5b0661ffff1661ffff81106148f957fe5b60408051608081018252929091015463ffffffff81168352600160201b8104600690810b810b900b60208401526001600160a01b03600160581b8204169183019190915260ff600160f81b909104161515606082018190529092506149ae57604080516080810182528a5463ffffffff81168252600160201b8104600690810b810b900b6020830152600160581b81046001600160a01b031692820192909252600160f81b90910460ff161515606082015291505b6149bd88836000015189614e11565b6149f4576040805162461bcd60e51b815260206004820152600360248201526213d31160ea1b604482015290519081900360640190fd5b614a018989898887614ed2565b9150915097509795505050505050565b6000614a206007878787614132565b60015460025491925090600080600f87900b15614b66576000614a41612b9e565b6000805460045492935090918291614a8b9160089186918591600160a01b810460020b9161ffff600160b81b83048116926001600160801b0390921691600160c81b9004166132ff565b9092509050614ac560058d8b8d8b8b87898b60007f0000000000000000000000000000000000000000000000000000000000000000615070565b9450614afc60058c8b8d8b8b87898b60017f0000000000000000000000000000000000000000000000000000000000000000615070565b93508415614b3057614b3060068d7f000000000000000000000000000000000000000000000000000000000000000061523a565b8315614b6257614b6260068c7f000000000000000000000000000000000000000000000000000000000000000061523a565b5050505b600080614b7860058c8c8b8a8a6152a0565b9092509050614b89878a848461534c565b600089600f0b1215614bb7578315614ba657614ba660058c6154e1565b8215614bb757614bb760058b6154e1565b50505050505095945050505050565b60008082600f0b12614bec57614be7614be2858585600161461b565b613207565b614613565b614bff614be2858585600003600061461b565b600003949350505050565b60008082600f0b12614c2657614be7614be285858560016145a0565b614bff614be285858560000360006145a0565b808204910615150190565b60008115614cb75760006001600160a01b03841115614c7a57614c7584600160601b876001600160801b031661324f565b614c92565b6001600160801b038516606085901b81614c9057fe5b045b9050614caf614caa6001600160a01b03881683613d5c565b61550d565b915050614613565b60006001600160a01b03841115614ce557614ce084600160601b876001600160801b03166140f8565b614cfc565b614cfc606085901b6001600160801b038716614c39565b905080866001600160a01b031611614d1357600080fd5b6001600160a01b038616039050614613565b600082614d33575083614613565b6fffffffffffffffffffffffffffffffff60601b606085901b168215614dca576001600160a01b03861684810290858281614d6a57fe5b041415614d9b57818101828110614d9957614d8f83896001600160a01b0316836140f8565b9350505050614613565b505b614dc182614dbc878a6001600160a01b03168681614db557fe5b0490613d5c565b614c39565b92505050614613565b6001600160a01b03861684810290858281614de157fe5b04148015614dee57508082115b614df757600080fd5b808203614d8f614caa846001600160a01b038b16846140f8565b60008363ffffffff168363ffffffff1611158015614e3b57508363ffffffff168263ffffffff1611155b15614e57578163ffffffff168363ffffffff16111590506132f8565b60008463ffffffff168463ffffffff1611614e7e578363ffffffff16600160201b01614e86565b8363ffffffff165b64ffffffffff16905060008563ffffffff168463ffffffff1611614eb6578363ffffffff16600160201b01614ebe565b8363ffffffff165b64ffffffffff169091111595945050505050565b614eda61555f565b614ee261555f565b60008361ffff168560010161ffff1681614ef857fe5b0661ffff169050600060018561ffff16830103905060005b506002818301048961ffff87168281614f2557fe5b0661ffff8110614f3157fe5b60408051608081018252929091015463ffffffff81168352600160201b8104600690810b810b900b60208401526001600160a01b03600160581b8204169183019190915260ff600160f81b90910416151560608201819052909550614f9b57806001019250614f10565b898661ffff168260010181614fac57fe5b0661ffff8110614fb857fe5b60408051608081018252929091015463ffffffff81168352600160201b8104600690810b810b900b60208401526001600160a01b03600160581b8204169183019190915260ff600160f81b90910416151560608201528551909450600090615022908b908b614e11565b905080801561503b575061503b8a8a8760000151614e11565b156150465750615063565b806150565760018203925061505d565b8160010193505b50614f10565b5050509550959350505050565b60028a810b900b600090815260208c90526040812080546001600160801b03168261509b828d61355c565b9050846001600160801b0316816001600160801b031611156150e9576040805162461bcd60e51b81526020600482015260026024820152614c4f60f01b604482015290519081900360640190fd5b6001600160801b03828116159082161581141594501561519f578c60020b8e60020b1361518757600183018b9055600283018a90556003830180547affffffffffffffffffffffffffffffffffffffff000000000000001916600160381b6001600160a01b038c16021766ffffffffffffff191666ffffffffffffff60068b900b161763ffffffff60d81b1916600160d81b63ffffffff8a16021790555b6003830180546001600160f81b0316600160f81b1790555b82546001600160801b0319166001600160801b038216178355856151e85782546151e3906151de90600160801b9004600f90810b810b908f900b613239565b613ea7565b615209565b8254615209906151de90600160801b9004600f90810b810b908f900b61321d565b8354600f9190910b6001600160801b03908116600160801b0291161790925550909c9b505050505050505050505050565b8060020b8260020b8161524957fe5b0760020b1561525757600080fd5b6000806152728360020b8560020b8161526c57fe5b05614405565b600191820b820b60009081526020979097526040909620805460ff9097169190911b90951890945550505050565b600285810b80820b60009081526020899052604080822088850b850b83529082209193849391929184918291908a900b126152e6575050600182015460028301546152f9565b8360010154880391508360020154870390505b6000808b60020b8b60020b121561531b5750506001830154600284015461532e565b84600101548a0391508460020154890390505b92909803979097039b96909503949094039850939650505050505050565b6040805160a08101825285546001600160801b0390811682526001870154602083015260028701549282019290925260038601548083166060830152600160801b900490911660808201526000600f85900b6153eb5781516001600160801b03166153e3576040805162461bcd60e51b815260206004820152600260248201526104e560f41b604482015290519081900360640190fd5b5080516153fa565b81516153f7908661355c565b90505b600061541e8360200151860384600001516001600160801b0316600160801b61324f565b905060006154448460400151860385600001516001600160801b0316600160801b61324f565b905086600f0b60001461546b5787546001600160801b0319166001600160801b0384161788555b60018801869055600288018590556001600160801b03821615158061549957506000816001600160801b0316115b156154d7576003880180546001600160801b031981166001600160801b039182168501821617808216600160801b9182900483168501909216021790555b5050505050505050565b600290810b810b6000908152602092909252604082208281556001810183905590810182905560030155565b806001600160a01b0381168114612b6257600080fd5b6040805160e081018252600080825260208201819052918101829052606081018290526080810182905260a0810182905260c081019190915290565b6040805160808101825260008082526020820181905291810182905260608101919091529056fea264697066735822122091b98317828aa441864d8ad15c50d29e3ad642495dd0ec40305330146bd600a864736f6c63430007060033a26469706673582212201bedd3521a74914854fb2c64ebd48c19ec57c2d1907c3608fb45af86a91a076664736f6c63430007060033c66a3fdf07232cdd185febcc6579d408c241b47ae2f9907d84be655141eeaecc",
			"opcodes": "PUSH1 0xA0 PUSH1 0x40 MSTORE CALLVALUE DUP1 ISZERO PUSH2 0x10 JUMPI PUSH1 0x0 DUP1 REVERT JUMPDEST POP ADDRESS PUSH1 0x60 SHL PUSH1 0x80 MSTORE PUSH1 0x3 DUP1 SLOAD PUSH1 0x1 PUSH1 0x1 PUSH1 0xA0 SHL SUB NOT AND CALLER SWAP1 DUP2 OR SWAP1 SWAP2 SSTORE PUSH1 0x40 MLOAD PUSH1 0x0 SWAP1 PUSH32 0xB532073B38C83145E3E5135377A08BF9AAB55BC0FD7C1179CD4FB995D2A5159C SWAP1 DUP3 SWAP1 LOG3 PUSH2 0x1F4 PUSH1 0x0 DUP2 DUP2 MSTORE PUSH1 0x4 PUSH1 0x20 MSTORE PUSH32 0xFB8CF1D12598D1A039DD1D106665851A96AADF67D0D9ED76FCEEA282119208B7 DUP1 SLOAD PUSH3 0xFFFFFF NOT AND PUSH1 0xA SWAP1 DUP2 OR SWAP1 SWAP2 SSTORE PUSH1 0x40 MLOAD SWAP1 SWAP3 SWAP2 PUSH1 0x0 DUP1 MLOAD PUSH1 0x20 PUSH2 0x6080 DUP4 CODECOPY DUP2 MLOAD SWAP2 MSTORE SWAP2 LOG3 PUSH2 0xBB8 PUSH1 0x0 DUP2 DUP2 MSTORE PUSH1 0x4 PUSH1 0x20 MSTORE PUSH32 0x72DFFA9B822156D9CF4B0090FA0B656BCB9CC2B2C60EB6ACFC20A34F54B31743 DUP1 SLOAD PUSH3 0xFFFFFF NOT AND PUSH1 0x3C SWAP1 DUP2 OR SWAP1 SWAP2 SSTORE PUSH1 0x40 MLOAD SWAP1 SWAP3 SWAP2 PUSH1 0x0 DUP1 MLOAD PUSH1 0x20 PUSH2 0x6080 DUP4 CODECOPY DUP2 MLOAD SWAP2 MSTORE SWAP2 LOG3 PUSH2 0x2710 PUSH1 0x0 DUP2 DUP2 MSTORE PUSH1 0x4 PUSH1 0x20 MSTORE PUSH32 0x8CC740D51DAA94FF54F33BD779C2D20149F524C340519B49181BE5A08615F829 DUP1 SLOAD PUSH3 0xFFFFFF NOT AND PUSH1 0xC8 SWAP1 DUP2 OR SWAP1 SWAP2 SSTORE PUSH1 0x40 MLOAD SWAP1 SWAP3 SWAP2 PUSH1 0x0 DUP1 MLOAD PUSH1 0x20 PUSH2 0x6080 DUP4 CODECOPY DUP2 MLOAD SWAP2 MSTORE SWAP2 LOG3 PUSH1 0x80 MLOAD PUSH1 0x60 SHR PUSH2 0x5F0C PUSH2 0x174 PUSH1 0x0 CODECOPY DUP1 PUSH2 0x551 MSTORE POP PUSH2 0x5F0C PUSH1 0x0 RETURN INVALID PUSH1 0x80 PUSH1 0x40 MSTORE CALLVALUE DUP1 ISZERO PUSH2 0x10 JUMPI PUSH1 0x0 DUP1 REVERT JUMPDEST POP PUSH1 0x4 CALLDATASIZE LT PUSH2 0x7D JUMPI PUSH1 0x0 CALLDATALOAD PUSH1 0xE0 SHR DUP1 PUSH4 0x89035730 GT PUSH2 0x5B JUMPI DUP1 PUSH4 0x89035730 EQ PUSH2 0x13B JUMPI DUP1 PUSH4 0x8A7C195F EQ PUSH2 0x185 JUMPI DUP1 PUSH4 0x8DA5CB5B EQ PUSH2 0x1B0 JUMPI DUP1 PUSH4 0xA1671295 EQ PUSH2 0x1B8 JUMPI PUSH2 0x7D JUMP JUMPDEST DUP1 PUSH4 0x13AF4035 EQ PUSH2 0x82 JUMPI DUP1 PUSH4 0x1698EE82 EQ PUSH2 0xAA JUMPI DUP1 PUSH4 0x22AFCCCB EQ PUSH2 0x102 JUMPI JUMPDEST PUSH1 0x0 DUP1 REVERT JUMPDEST PUSH2 0xA8 PUSH1 0x4 DUP1 CALLDATASIZE SUB PUSH1 0x20 DUP2 LT ISZERO PUSH2 0x98 JUMPI PUSH1 0x0 DUP1 REVERT JUMPDEST POP CALLDATALOAD PUSH1 0x1 PUSH1 0x1 PUSH1 0xA0 SHL SUB AND PUSH2 0x1F4 JUMP JUMPDEST STOP JUMPDEST PUSH2 0xE6 PUSH1 0x4 DUP1 CALLDATASIZE SUB PUSH1 0x60 DUP2 LT ISZERO PUSH2 0xC0 JUMPI PUSH1 0x0 DUP1 REVERT JUMPDEST POP DUP1 CALLDATALOAD PUSH1 0x1 PUSH1 0x1 PUSH1 0xA0 SHL SUB SWAP1 DUP2 AND SWAP2 PUSH1 0x20 DUP2 ADD CALLDATALOAD SWAP1 SWAP2 AND SWAP1 PUSH1 0x40 ADD CALLDATALOAD PUSH3 0xFFFFFF AND PUSH2 0x267 JUMP JUMPDEST PUSH1 0x40 DUP1 MLOAD PUSH1 0x1 PUSH1 0x1 PUSH1 0xA0 SHL SUB SWAP1 SWAP3 AND DUP3 MSTORE MLOAD SWAP1 DUP2 SWAP1 SUB PUSH1 0x20 ADD SWAP1 RETURN JUMPDEST PUSH2 0x124 PUSH1 0x4 DUP1 CALLDATASIZE SUB PUSH1 0x20 DUP2 LT ISZERO PUSH2 0x118 JUMPI PUSH1 0x0 DUP1 REVERT JUMPDEST POP CALLDATALOAD PUSH3 0xFFFFFF AND PUSH2 0x293 JUMP JUMPDEST PUSH1 0x40 DUP1 MLOAD PUSH1 0x2 SWAP3 SWAP1 SWAP3 SIGNEXTEND DUP3 MSTORE MLOAD SWAP1 DUP2 SWAP1 SUB PUSH1 0x20 ADD SWAP1 RETURN JUMPDEST PUSH2 0x143 PUSH2 0x2A8 JUMP JUMPDEST PUSH1 0x40 DUP1 MLOAD PUSH1 0x1 PUSH1 0x1 PUSH1 0xA0 SHL SUB SWAP7 DUP8 AND DUP2 MSTORE SWAP5 DUP7 AND PUSH1 0x20 DUP7 ADD MSTORE SWAP3 SWAP1 SWAP5 AND DUP4 DUP4 ADD MSTORE PUSH3 0xFFFFFF AND PUSH1 0x60 DUP4 ADD MSTORE PUSH1 0x2 SWAP3 SWAP1 SWAP3 SIGNEXTEND PUSH1 0x80 DUP3 ADD MSTORE SWAP1 MLOAD SWAP1 DUP2 SWAP1 SUB PUSH1 0xA0 ADD SWAP1 RETURN JUMPDEST PUSH2 0xA8 PUSH1 0x4 DUP1 CALLDATASIZE SUB PUSH1 0x40 DUP2 LT ISZERO PUSH2 0x19B JUMPI PUSH1 0x0 DUP1 REVERT JUMPDEST POP PUSH3 0xFFFFFF DUP2 CALLDATALOAD AND SWAP1 PUSH1 0x20 ADD CALLDATALOAD PUSH1 0x2 SIGNEXTEND PUSH2 0x2DE JUMP JUMPDEST PUSH2 0xE6 PUSH2 0x3A1 JUMP JUMPDEST PUSH2 0xE6 PUSH1 0x4 DUP1 CALLDATASIZE SUB PUSH1 0x60 DUP2 LT ISZERO PUSH2 0x1CE JUMPI PUSH1 0x0 DUP1 REVERT JUMPDEST POP DUP1 CALLDATALOAD PUSH1 0x1 PUSH1 0x1 PUSH1 0xA0 SHL SUB SWAP1 DUP2 AND SWAP2 PUSH1 0x20 DUP2 ADD CALLDATALOAD SWAP1 SWAP2 AND SWAP1 PUSH1 0x40 ADD CALLDATALOAD PUSH3 0xFFFFFF AND PUSH2 0x3B0 JUMP JUMPDEST PUSH1 0x3 SLOAD PUSH1 0x1 PUSH1 0x1 PUSH1 0xA0 SHL SUB AND CALLER EQ PUSH2 0x20B JUMPI PUSH1 0x0 DUP1 REVERT JUMPDEST PUSH1 0x3 SLOAD PUSH1 0x40 MLOAD PUSH1 0x1 PUSH1 0x1 PUSH1 0xA0 SHL SUB DUP1 DUP5 AND SWAP3 AND SWAP1 PUSH32 0xB532073B38C83145E3E5135377A08BF9AAB55BC0FD7C1179CD4FB995D2A5159C SWAP1 PUSH1 0x0 SWAP1 LOG3 PUSH1 0x3 DUP1 SLOAD PUSH1 0x1 PUSH1 0x1 PUSH1 0xA0 SHL SUB NOT AND PUSH1 0x1 PUSH1 0x1 PUSH1 0xA0 SHL SUB SWAP3 SWAP1 SWAP3 AND SWAP2 SWAP1 SWAP2 OR SWAP1 SSTORE JUMP JUMPDEST PUSH1 0x5 PUSH1 0x20 SWAP1 DUP2 MSTORE PUSH1 0x0 SWAP4 DUP5 MSTORE PUSH1 0x40 DUP1 DUP6 KECCAK256 DUP3 MSTORE SWAP3 DUP5 MSTORE DUP3 DUP5 KECCAK256 SWAP1 MSTORE DUP3 MSTORE SWAP1 KECCAK256 SLOAD PUSH1 0x1 PUSH1 0x1 PUSH1 0xA0 SHL SUB AND DUP2 JUMP JUMPDEST PUSH1 0x4 PUSH1 0x20 MSTORE PUSH1 0x0 SWAP1 DUP2 MSTORE PUSH1 0x40 SWAP1 KECCAK256 SLOAD PUSH1 0x2 SIGNEXTEND DUP2 JUMP JUMPDEST PUSH1 0x0 SLOAD PUSH1 0x1 SLOAD PUSH1 0x2 DUP1 SLOAD PUSH1 0x1 PUSH1 0x1 PUSH1 0xA0 SHL SUB SWAP4 DUP5 AND SWAP4 SWAP3 DUP4 AND SWAP3 DUP2 AND SWAP2 PUSH3 0xFFFFFF PUSH1 0x1 PUSH1 0xA0 SHL DUP4 DIV AND SWAP2 PUSH1 0x1 PUSH1 0xB8 SHL SWAP1 DIV SWAP1 SIGNEXTEND DUP6 JUMP JUMPDEST PUSH1 0x3 SLOAD PUSH1 0x1 PUSH1 0x1 PUSH1 0xA0 SHL SUB AND CALLER EQ PUSH2 0x2F5 JUMPI PUSH1 0x0 DUP1 REVERT JUMPDEST PUSH3 0xF4240 DUP3 PUSH3 0xFFFFFF AND LT PUSH2 0x309 JUMPI PUSH1 0x0 DUP1 REVERT JUMPDEST PUSH1 0x0 DUP2 PUSH1 0x2 SIGNEXTEND SGT DUP1 ISZERO PUSH2 0x320 JUMPI POP PUSH2 0x4000 DUP2 PUSH1 0x2 SIGNEXTEND SLT JUMPDEST PUSH2 0x329 JUMPI PUSH1 0x0 DUP1 REVERT JUMPDEST PUSH3 0xFFFFFF DUP3 AND PUSH1 0x0 SWAP1 DUP2 MSTORE PUSH1 0x4 PUSH1 0x20 MSTORE PUSH1 0x40 SWAP1 KECCAK256 SLOAD PUSH1 0x2 SWAP1 DUP2 SIGNEXTEND SWAP1 SIGNEXTEND ISZERO PUSH2 0x34F JUMPI PUSH1 0x0 DUP1 REVERT JUMPDEST PUSH3 0xFFFFFF DUP3 DUP2 AND PUSH1 0x0 DUP2 DUP2 MSTORE PUSH1 0x4 PUSH1 0x20 MSTORE PUSH1 0x40 DUP1 DUP3 KECCAK256 DUP1 SLOAD PUSH3 0xFFFFFF NOT AND PUSH1 0x2 DUP8 SWAP1 SIGNEXTEND SWAP6 DUP7 AND OR SWAP1 SSTORE MLOAD PUSH32 0xC66A3FDF07232CDD185FEBCC6579D408C241B47AE2F9907D84BE655141EEAECC SWAP2 SWAP1 LOG3 POP POP JUMP JUMPDEST PUSH1 0x3 SLOAD PUSH1 0x1 PUSH1 0x1 PUSH1 0xA0 SHL SUB AND DUP2 JUMP JUMPDEST PUSH1 0x0 PUSH2 0x3BA PUSH2 0x546 JUMP JUMPDEST DUP3 PUSH1 0x1 PUSH1 0x1 PUSH1 0xA0 SHL SUB AND DUP5 PUSH1 0x1 PUSH1 0x1 PUSH1 0xA0 SHL SUB AND EQ ISZERO PUSH2 0x3D9 JUMPI PUSH1 0x0 DUP1 REVERT JUMPDEST PUSH1 0x0 DUP1 DUP5 PUSH1 0x1 PUSH1 0x1 PUSH1 0xA0 SHL SUB AND DUP7 PUSH1 0x1 PUSH1 0x1 PUSH1 0xA0 SHL SUB AND LT PUSH2 0x3FC JUMPI DUP5 DUP7 PUSH2 0x3FF JUMP JUMPDEST DUP6 DUP6 JUMPDEST SWAP1 SWAP3 POP SWAP1 POP PUSH1 0x1 PUSH1 0x1 PUSH1 0xA0 SHL SUB DUP3 AND PUSH2 0x417 JUMPI PUSH1 0x0 DUP1 REVERT JUMPDEST PUSH3 0xFFFFFF DUP5 AND PUSH1 0x0 SWAP1 DUP2 MSTORE PUSH1 0x4 PUSH1 0x20 MSTORE PUSH1 0x40 SWAP1 KECCAK256 SLOAD PUSH1 0x2 SWAP1 DUP2 SIGNEXTEND SWAP1 DUP2 SWAP1 SIGNEXTEND PUSH2 0x43E JUMPI PUSH1 0x0 DUP1 REVERT JUMPDEST PUSH1 0x1 PUSH1 0x1 PUSH1 0xA0 SHL SUB DUP4 DUP2 AND PUSH1 0x0 SWAP1 DUP2 MSTORE PUSH1 0x5 PUSH1 0x20 SWAP1 DUP2 MSTORE PUSH1 0x40 DUP1 DUP4 KECCAK256 DUP7 DUP6 AND DUP5 MSTORE DUP3 MSTORE DUP1 DUP4 KECCAK256 PUSH3 0xFFFFFF DUP11 AND DUP5 MSTORE SWAP1 SWAP2 MSTORE SWAP1 KECCAK256 SLOAD AND ISZERO PUSH2 0x47D JUMPI PUSH1 0x0 DUP1 REVERT JUMPDEST PUSH2 0x48A ADDRESS DUP5 DUP5 DUP9 DUP6 PUSH2 0x57D JUMP JUMPDEST PUSH1 0x1 PUSH1 0x1 PUSH1 0xA0 SHL SUB DUP1 DUP6 AND PUSH1 0x0 DUP2 DUP2 MSTORE PUSH1 0x5 PUSH1 0x20 DUP2 DUP2 MSTORE PUSH1 0x40 DUP1 DUP5 KECCAK256 DUP10 DUP8 AND DUP1 DUP7 MSTORE SWAP1 DUP4 MSTORE DUP2 DUP6 KECCAK256 PUSH3 0xFFFFFF DUP15 AND DUP1 DUP8 MSTORE SWAP1 DUP5 MSTORE DUP3 DUP7 KECCAK256 DUP1 SLOAD SWAP9 DUP11 AND PUSH1 0x1 PUSH1 0x1 PUSH1 0xA0 SHL SUB NOT SWAP10 DUP11 AND DUP2 OR SWAP1 SWAP2 SSTORE DUP3 DUP8 MSTORE SWAP5 DUP5 MSTORE DUP3 DUP7 KECCAK256 DUP8 DUP8 MSTORE DUP5 MSTORE DUP3 DUP7 KECCAK256 DUP2 DUP8 MSTORE DUP5 MSTORE SWAP5 DUP3 SWAP1 KECCAK256 DUP1 SLOAD SWAP1 SWAP8 AND DUP5 OR SWAP1 SWAP7 SSTORE DUP1 MLOAD PUSH1 0x2 DUP10 SWAP1 SIGNEXTEND DUP2 MSTORE SWAP2 DUP3 ADD SWAP3 SWAP1 SWAP3 MSTORE DUP2 MLOAD SWAP6 SWAP10 POP SWAP2 SWAP5 PUSH32 0x783CCA1C0412DD0D695E784568C96DA2E9C22FF989357A2E8B1D9B2B4E6B7118 SWAP3 DUP2 SWAP1 SUB SWAP1 SWAP2 ADD SWAP1 LOG4 POP POP POP SWAP4 SWAP3 POP POP POP JUMP JUMPDEST ADDRESS PUSH1 0x1 PUSH1 0x1 PUSH1 0xA0 SHL SUB PUSH32 0x0 AND EQ PUSH2 0x57B JUMPI PUSH1 0x0 DUP1 REVERT JUMPDEST JUMP JUMPDEST PUSH1 0x40 DUP1 MLOAD PUSH1 0xA0 DUP2 ADD DUP3 MSTORE PUSH1 0x1 PUSH1 0x1 PUSH1 0xA0 SHL SUB DUP8 DUP2 AND DUP1 DUP4 MSTORE DUP8 DUP3 AND PUSH1 0x20 DUP1 DUP6 ADD DUP3 SWAP1 MSTORE SWAP3 DUP9 AND DUP5 DUP7 ADD DUP2 SWAP1 MSTORE PUSH3 0xFFFFFF DUP9 DUP2 AND PUSH1 0x60 DUP1 DUP9 ADD DUP3 SWAP1 MSTORE PUSH1 0x2 DUP11 DUP2 SIGNEXTEND PUSH1 0x80 SWAP10 DUP11 ADD DUP2 SWAP1 MSTORE PUSH1 0x0 DUP1 SLOAD PUSH1 0x1 PUSH1 0x1 PUSH1 0xA0 SHL SUB NOT SWAP1 DUP2 AND SWAP1 SWAP10 OR DUP2 SSTORE PUSH1 0x1 DUP1 SLOAD DUP11 AND DUP10 OR SWAP1 SSTORE DUP3 SLOAD SWAP1 SWAP9 AND DUP7 OR PUSH3 0xFFFFFF PUSH1 0xA0 SHL NOT AND PUSH1 0x1 PUSH1 0xA0 SHL DUP6 MUL OR PUSH3 0xFFFFFF PUSH1 0xB8 SHL NOT AND PUSH1 0x1 PUSH1 0xB8 SHL SWAP2 DUP4 SIGNEXTEND SWAP1 SWAP6 AND MUL SWAP4 SWAP1 SWAP4 OR SWAP1 SWAP3 SSTORE DUP8 MLOAD DUP1 DUP8 ADD SWAP5 SWAP1 SWAP5 MSTORE DUP4 DUP9 ADD SWAP3 SWAP1 SWAP3 MSTORE DUP3 DUP2 ADD SWAP2 SWAP1 SWAP2 MSTORE DUP6 MLOAD DUP1 DUP4 SUB SWAP1 SWAP2 ADD DUP2 MSTORE SWAP4 ADD SWAP4 DUP5 SWAP1 MSTORE DUP3 MLOAD SWAP3 SWAP1 SWAP2 ADD SWAP2 SWAP1 SWAP2 KECCAK256 SWAP1 SWAP2 PUSH2 0x654 SWAP1 PUSH2 0x6C3 JUMP JUMPDEST DUP2 SWAP1 PUSH1 0x40 MLOAD DUP1 SWAP2 SUB SWAP1 PUSH1 0x0 CREATE2 SWAP1 POP DUP1 ISZERO DUP1 ISZERO PUSH2 0x674 JUMPI RETURNDATASIZE PUSH1 0x0 DUP1 RETURNDATACOPY RETURNDATASIZE PUSH1 0x0 REVERT JUMPDEST POP PUSH1 0x0 DUP1 SLOAD PUSH1 0x1 PUSH1 0x1 PUSH1 0xA0 SHL SUB NOT SWAP1 DUP2 AND SWAP1 SWAP2 SSTORE PUSH1 0x1 DUP1 SLOAD SWAP1 SWAP2 AND SWAP1 SSTORE PUSH1 0x2 DUP1 SLOAD PUSH32 0xFFFFFFFFFFFF0000000000000000000000000000000000000000000000000000 AND SWAP1 SSTORE SWAP7 SWAP6 POP POP POP POP POP POP JUMP JUMPDEST PUSH2 0x5806 DUP1 PUSH2 0x6D1 DUP4 CODECOPY ADD SWAP1 JUMP INVALID PUSH2 0x160 PUSH1 0x40 MSTORE CALLVALUE DUP1 ISZERO PUSH3 0x12 JUMPI PUSH1 0x0 DUP1 REVERT JUMPDEST POP ADDRESS PUSH1 0x60 SHL PUSH1 0x80 MSTORE PUSH1 0x40 DUP1 MLOAD PUSH4 0x8903573 PUSH1 0xE4 SHL DUP2 MSTORE SWAP1 MLOAD PUSH1 0x0 SWAP2 CALLER SWAP2 PUSH4 0x89035730 SWAP2 PUSH1 0x4 DUP1 DUP3 ADD SWAP3 PUSH1 0xA0 SWAP3 SWAP1 SWAP2 SWAP1 DUP3 SWAP1 SUB ADD DUP2 DUP7 DUP1 EXTCODESIZE ISZERO DUP1 ISZERO PUSH3 0x56 JUMPI PUSH1 0x0 DUP1 REVERT JUMPDEST POP GAS STATICCALL ISZERO DUP1 ISZERO PUSH3 0x6B JUMPI RETURNDATASIZE PUSH1 0x0 DUP1 RETURNDATACOPY RETURNDATASIZE PUSH1 0x0 REVERT JUMPDEST POP POP POP POP PUSH1 0x40 MLOAD RETURNDATASIZE PUSH1 0xA0 DUP2 LT ISZERO PUSH3 0x82 JUMPI PUSH1 0x0 DUP1 REVERT JUMPDEST POP DUP1 MLOAD PUSH1 0x20 DUP1 DUP4 ADD MLOAD PUSH1 0x40 DUP5 ADD MLOAD PUSH1 0x60 DUP1 DUP7 ADD MLOAD PUSH1 0x80 SWAP1 SWAP7 ADD MLOAD PUSH1 0xE8 SWAP7 DUP8 SHL PUSH1 0x1 PUSH1 0x1 PUSH1 0xE8 SHL SUB NOT AND PUSH2 0x100 MSTORE SWAP2 DUP2 SHL PUSH1 0x1 PUSH1 0x1 PUSH1 0x60 SHL SUB NOT SWAP1 DUP2 AND PUSH1 0xE0 MSTORE SWAP3 DUP2 SHL DUP4 AND PUSH1 0xC0 MSTORE SWAP4 SWAP1 SWAP4 SHL AND PUSH1 0xA0 MSTORE PUSH1 0x2 DUP3 DUP2 SIGNEXTEND SWAP1 SIGNEXTEND SWAP1 SWAP3 SHL PUSH2 0x120 MSTORE SWAP2 POP PUSH3 0xF7 SWAP1 DUP3 SWAP1 PUSH3 0x10F DUP2 SHL PUSH3 0x2AFB OR SWAP1 SHR JUMP JUMPDEST PUSH1 0x80 SHL PUSH1 0x1 PUSH1 0x1 PUSH1 0x80 SHL SUB NOT AND PUSH2 0x140 MSTORE POP PUSH3 0x17D JUMP JUMPDEST PUSH1 0x0 DUP1 DUP3 PUSH1 0x2 DUP2 SWAP1 SIGNEXTEND PUSH3 0xD89E7 NOT DUP2 PUSH3 0x125 JUMPI INVALID JUMPDEST SDIV MUL SWAP1 POP PUSH1 0x0 DUP4 PUSH1 0x2 DUP2 SWAP1 SIGNEXTEND PUSH3 0xD89E8 DUP2 PUSH3 0x13D JUMPI INVALID JUMPDEST SDIV MUL SWAP1 POP PUSH1 0x0 DUP5 PUSH1 0x2 SIGNEXTEND DUP4 DUP4 SUB PUSH1 0x2 SIGNEXTEND DUP2 PUSH3 0x155 JUMPI INVALID JUMPDEST SDIV PUSH1 0x1 ADD SWAP1 POP DUP1 PUSH3 0xFFFFFF AND PUSH1 0x1 PUSH1 0x1 PUSH1 0x80 SHL SUB DUP1 AND DUP2 PUSH3 0x173 JUMPI INVALID JUMPDEST DIV SWAP6 SWAP5 POP POP POP POP POP JUMP JUMPDEST PUSH1 0x80 MLOAD PUSH1 0x60 SHR PUSH1 0xA0 MLOAD PUSH1 0x60 SHR PUSH1 0xC0 MLOAD PUSH1 0x60 SHR PUSH1 0xE0 MLOAD PUSH1 0x60 SHR PUSH2 0x100 MLOAD PUSH1 0xE8 SHR PUSH2 0x120 MLOAD PUSH1 0xE8 SHR PUSH2 0x140 MLOAD PUSH1 0x80 SHR PUSH2 0x55BC PUSH3 0x24A PUSH1 0x0 CODECOPY DUP1 PUSH2 0x1FCB MSTORE DUP1 PUSH2 0x4AA1 MSTORE DUP1 PUSH2 0x4AD8 MSTORE POP DUP1 PUSH2 0xBF8 MSTORE DUP1 PUSH2 0x28B7 MSTORE DUP1 PUSH2 0x4B0C MSTORE DUP1 PUSH2 0x4B3E MSTORE POP DUP1 PUSH2 0xCE7 MSTORE DUP1 PUSH2 0x19A8 MSTORE DUP1 PUSH2 0x19DF MSTORE DUP1 PUSH2 0x28FF MSTORE POP DUP1 PUSH2 0x11A5 MSTORE DUP1 PUSH2 0x1A62 MSTORE DUP1 PUSH2 0x1ED1 MSTORE DUP1 PUSH2 0x2406 MSTORE DUP1 PUSH2 0x28DB MSTORE DUP1 PUSH2 0x3DBA MSTORE POP DUP1 PUSH2 0x8CA MSTORE DUP1 PUSH2 0x12D3 MSTORE DUP1 PUSH2 0x1A31 MSTORE DUP1 PUSH2 0x1E6B MSTORE DUP1 PUSH2 0x2380 MSTORE DUP1 PUSH2 0x3C71 MSTORE POP DUP1 PUSH2 0x2058 MSTORE DUP1 PUSH2 0x223F MSTORE DUP1 PUSH2 0x2893 MSTORE POP DUP1 PUSH2 0x2B72 MSTORE POP PUSH2 0x55BC PUSH1 0x0 RETURN INVALID PUSH1 0x80 PUSH1 0x40 MSTORE CALLVALUE DUP1 ISZERO PUSH2 0x10 JUMPI PUSH1 0x0 DUP1 REVERT JUMPDEST POP PUSH1 0x4 CALLDATASIZE LT PUSH2 0x1AE JUMPI PUSH1 0x0 CALLDATALOAD PUSH1 0xE0 SHR DUP1 PUSH4 0x70CF754A GT PUSH2 0xEE JUMPI DUP1 PUSH4 0xC45A0155 GT PUSH2 0x97 JUMPI DUP1 PUSH4 0xDDCA3F43 GT PUSH2 0x71 JUMPI DUP1 PUSH4 0xDDCA3F43 EQ PUSH2 0x7F8 JUMPI DUP1 PUSH4 0xF3058399 EQ PUSH2 0x818 JUMPI DUP1 PUSH4 0xF30DBA93 EQ PUSH2 0x820 JUMPI DUP1 PUSH4 0xF637731D EQ PUSH2 0x8A2 JUMPI PUSH2 0x1AE JUMP JUMPDEST DUP1 PUSH4 0xC45A0155 EQ PUSH2 0x7C9 JUMPI DUP1 PUSH4 0xD0C93A7C EQ PUSH2 0x7D1 JUMPI DUP1 PUSH4 0xD21220A7 EQ PUSH2 0x7F0 JUMPI PUSH2 0x1AE JUMP JUMPDEST DUP1 PUSH4 0x883BDBFD GT PUSH2 0xC8 JUMPI DUP1 PUSH4 0x883BDBFD EQ PUSH2 0x62D JUMPI DUP1 PUSH4 0xA34123A7 EQ PUSH2 0x734 JUMPI DUP1 PUSH4 0xA38807F2 EQ PUSH2 0x76E JUMPI PUSH2 0x1AE JUMP JUMPDEST DUP1 PUSH4 0x70CF754A EQ PUSH2 0x5C0 JUMPI DUP1 PUSH4 0x8206A4D1 EQ PUSH2 0x5C8 JUMPI DUP1 PUSH4 0x85B66729 EQ PUSH2 0x5F0 JUMPI PUSH2 0x1AE JUMP JUMPDEST DUP1 PUSH4 0x3850C7BD GT PUSH2 0x15B JUMPI DUP1 PUSH4 0x490E6CBC GT PUSH2 0x135 JUMPI DUP1 PUSH4 0x490E6CBC EQ PUSH2 0x46C JUMPI DUP1 PUSH4 0x4F1EB3D8 EQ PUSH2 0x4F6 JUMPI DUP1 PUSH4 0x514EA4BF EQ PUSH2 0x547 JUMPI DUP1 PUSH4 0x5339C296 EQ PUSH2 0x5A0 JUMPI PUSH2 0x1AE JUMP JUMPDEST DUP1 PUSH4 0x3850C7BD EQ PUSH2 0x359 JUMPI DUP1 PUSH4 0x3C8A7D8D EQ PUSH2 0x3B2 JUMPI DUP1 PUSH4 0x46141319 EQ PUSH2 0x452 JUMPI PUSH2 0x1AE JUMP JUMPDEST DUP1 PUSH4 0x1AD8B03B GT PUSH2 0x18C JUMPI DUP1 PUSH4 0x1AD8B03B EQ PUSH2 0x2A8 JUMPI DUP1 PUSH4 0x252C09D7 EQ PUSH2 0x2DF JUMPI DUP1 PUSH4 0x32148F67 EQ PUSH2 0x336 JUMPI PUSH2 0x1AE JUMP JUMPDEST DUP1 PUSH4 0xDFE1681 EQ PUSH2 0x1B3 JUMPI DUP1 PUSH4 0x128ACB08 EQ PUSH2 0x1D7 JUMPI DUP1 PUSH4 0x1A686502 EQ PUSH2 0x284 JUMPI JUMPDEST PUSH1 0x0 DUP1 REVERT JUMPDEST PUSH2 0x1BB PUSH2 0x8C8 JUMP JUMPDEST PUSH1 0x40 DUP1 MLOAD PUSH1 0x1 PUSH1 0x1 PUSH1 0xA0 SHL SUB SWAP1 SWAP3 AND DUP3 MSTORE MLOAD SWAP1 DUP2 SWAP1 SUB PUSH1 0x20 ADD SWAP1 RETURN JUMPDEST PUSH2 0x26B PUSH1 0x4 DUP1 CALLDATASIZE SUB PUSH1 0xA0 DUP2 LT ISZERO PUSH2 0x1ED JUMPI PUSH1 0x0 DUP1 REVERT JUMPDEST PUSH1 0x1 PUSH1 0x1 PUSH1 0xA0 SHL SUB DUP3 CALLDATALOAD DUP2 AND SWAP3 PUSH1 0x20 DUP2 ADD CALLDATALOAD ISZERO ISZERO SWAP3 PUSH1 0x40 DUP3 ADD CALLDATALOAD SWAP3 PUSH1 0x60 DUP4 ADD CALLDATALOAD AND SWAP2 SWAP1 DUP2 ADD SWAP1 PUSH1 0xA0 DUP2 ADD PUSH1 0x80 DUP3 ADD CALLDATALOAD PUSH1 0x1 PUSH1 0x20 SHL DUP2 GT ISZERO PUSH2 0x22D JUMPI PUSH1 0x0 DUP1 REVERT JUMPDEST DUP3 ADD DUP4 PUSH1 0x20 DUP3 ADD GT ISZERO PUSH2 0x23F JUMPI PUSH1 0x0 DUP1 REVERT JUMPDEST DUP1 CALLDATALOAD SWAP1 PUSH1 0x20 ADD SWAP2 DUP5 PUSH1 0x1 DUP4 MUL DUP5 ADD GT PUSH1 0x1 PUSH1 0x20 SHL DUP4 GT OR ISZERO PUSH2 0x260 JUMPI PUSH1 0x0 DUP1 REVERT JUMPDEST POP SWAP1 SWAP3 POP SWAP1 POP PUSH2 0x8EC JUMP JUMPDEST PUSH1 0x40 DUP1 MLOAD SWAP3 DUP4 MSTORE PUSH1 0x20 DUP4 ADD SWAP2 SWAP1 SWAP2 MSTORE DUP1 MLOAD SWAP2 DUP3 SWAP1 SUB ADD SWAP1 RETURN JUMPDEST PUSH2 0x28C PUSH2 0x148B JUMP JUMPDEST PUSH1 0x40 DUP1 MLOAD PUSH1 0x1 PUSH1 0x1 PUSH1 0x80 SHL SUB SWAP1 SWAP3 AND DUP3 MSTORE MLOAD SWAP1 DUP2 SWAP1 SUB PUSH1 0x20 ADD SWAP1 RETURN JUMPDEST PUSH2 0x2B0 PUSH2 0x149A JUMP JUMPDEST PUSH1 0x40 MLOAD DUP1 DUP4 PUSH1 0x1 PUSH1 0x1 PUSH1 0x80 SHL SUB AND DUP2 MSTORE PUSH1 0x20 ADD DUP3 PUSH1 0x1 PUSH1 0x1 PUSH1 0x80 SHL SUB AND DUP2 MSTORE PUSH1 0x20 ADD SWAP3 POP POP POP PUSH1 0x40 MLOAD DUP1 SWAP2 SUB SWAP1 RETURN JUMPDEST PUSH2 0x2FC PUSH1 0x4 DUP1 CALLDATASIZE SUB PUSH1 0x20 DUP2 LT ISZERO PUSH2 0x2F5 JUMPI PUSH1 0x0 DUP1 REVERT JUMPDEST POP CALLDATALOAD PUSH2 0x14B4 JUMP JUMPDEST PUSH1 0x40 DUP1 MLOAD PUSH4 0xFFFFFFFF SWAP1 SWAP6 AND DUP6 MSTORE PUSH1 0x6 SWAP4 SWAP1 SWAP4 SIGNEXTEND PUSH1 0x20 DUP6 ADD MSTORE PUSH1 0x1 PUSH1 0x1 PUSH1 0xA0 SHL SUB SWAP1 SWAP2 AND DUP4 DUP4 ADD MSTORE ISZERO ISZERO PUSH1 0x60 DUP4 ADD MSTORE MLOAD SWAP1 DUP2 SWAP1 SUB PUSH1 0x80 ADD SWAP1 RETURN JUMPDEST PUSH2 0x357 PUSH1 0x4 DUP1 CALLDATASIZE SUB PUSH1 0x20 DUP2 LT ISZERO PUSH2 0x34C JUMPI PUSH1 0x0 DUP1 REVERT JUMPDEST POP CALLDATALOAD PUSH2 0xFFFF AND PUSH2 0x14F9 JUMP JUMPDEST STOP JUMPDEST PUSH2 0x361 PUSH2 0x15F3 JUMP JUMPDEST PUSH1 0x40 DUP1 MLOAD PUSH1 0x1 PUSH1 0x1 PUSH1 0xA0 SHL SUB SWAP1 SWAP9 AND DUP9 MSTORE PUSH1 0x2 SWAP7 SWAP1 SWAP7 SIGNEXTEND PUSH1 0x20 DUP9 ADD MSTORE PUSH2 0xFFFF SWAP5 DUP6 AND DUP8 DUP8 ADD MSTORE SWAP3 DUP5 AND PUSH1 0x60 DUP8 ADD MSTORE SWAP3 AND PUSH1 0x80 DUP6 ADD MSTORE PUSH1 0xFF SWAP1 SWAP2 AND PUSH1 0xA0 DUP5 ADD MSTORE ISZERO ISZERO PUSH1 0xC0 DUP4 ADD MSTORE MLOAD SWAP1 DUP2 SWAP1 SUB PUSH1 0xE0 ADD SWAP1 RETURN JUMPDEST PUSH2 0x26B PUSH1 0x4 DUP1 CALLDATASIZE SUB PUSH1 0xA0 DUP2 LT ISZERO PUSH2 0x3C8 JUMPI PUSH1 0x0 DUP1 REVERT JUMPDEST PUSH1 0x1 PUSH1 0x1 PUSH1 0xA0 SHL SUB DUP3 CALLDATALOAD AND SWAP2 PUSH1 0x20 DUP2 ADD CALLDATALOAD PUSH1 0x2 SWAP1 DUP2 SIGNEXTEND SWAP3 PUSH1 0x40 DUP4 ADD CALLDATALOAD SWAP1 SWAP2 SIGNEXTEND SWAP2 PUSH1 0x1 PUSH1 0x1 PUSH1 0x80 SHL SUB PUSH1 0x60 DUP3 ADD CALLDATALOAD AND SWAP2 DUP2 ADD SWAP1 PUSH1 0xA0 DUP2 ADD PUSH1 0x80 DUP3 ADD CALLDATALOAD PUSH1 0x1 PUSH1 0x20 SHL DUP2 GT ISZERO PUSH2 0x414 JUMPI PUSH1 0x0 DUP1 REVERT JUMPDEST DUP3 ADD DUP4 PUSH1 0x20 DUP3 ADD GT ISZERO PUSH2 0x426 JUMPI PUSH1 0x0 DUP1 REVERT JUMPDEST DUP1 CALLDATALOAD SWAP1 PUSH1 0x20 ADD SWAP2 DUP5 PUSH1 0x1 DUP4 MUL DUP5 ADD GT PUSH1 0x1 PUSH1 0x20 SHL DUP4 GT OR ISZERO PUSH2 0x447 JUMPI PUSH1 0x0 DUP1 REVERT JUMPDEST POP SWAP1 SWAP3 POP SWAP1 POP PUSH2 0x1643 JUMP JUMPDEST PUSH2 0x45A PUSH2 0x18FF JUMP JUMPDEST PUSH1 0x40 DUP1 MLOAD SWAP2 DUP3 MSTORE MLOAD SWAP1 DUP2 SWAP1 SUB PUSH1 0x20 ADD SWAP1 RETURN JUMPDEST PUSH2 0x357 PUSH1 0x4 DUP1 CALLDATASIZE SUB PUSH1 0x80 DUP2 LT ISZERO PUSH2 0x482 JUMPI PUSH1 0x0 DUP1 REVERT JUMPDEST PUSH1 0x1 PUSH1 0x1 PUSH1 0xA0 SHL SUB DUP3 CALLDATALOAD AND SWAP2 PUSH1 0x20 DUP2 ADD CALLDATALOAD SWAP2 PUSH1 0x40 DUP3 ADD CALLDATALOAD SWAP2 SWAP1 DUP2 ADD SWAP1 PUSH1 0x80 DUP2 ADD PUSH1 0x60 DUP3 ADD CALLDATALOAD PUSH1 0x1 PUSH1 0x20 SHL DUP2 GT ISZERO PUSH2 0x4B8 JUMPI PUSH1 0x0 DUP1 REVERT JUMPDEST DUP3 ADD DUP4 PUSH1 0x20 DUP3 ADD GT ISZERO PUSH2 0x4CA JUMPI PUSH1 0x0 DUP1 REVERT JUMPDEST DUP1 CALLDATALOAD SWAP1 PUSH1 0x20 ADD SWAP2 DUP5 PUSH1 0x1 DUP4 MUL DUP5 ADD GT PUSH1 0x1 PUSH1 0x20 SHL DUP4 GT OR ISZERO PUSH2 0x4EB JUMPI PUSH1 0x0 DUP1 REVERT JUMPDEST POP SWAP1 SWAP3 POP SWAP1 POP PUSH2 0x1905 JUMP JUMPDEST PUSH2 0x2B0 PUSH1 0x4 DUP1 CALLDATASIZE SUB PUSH1 0xA0 DUP2 LT ISZERO PUSH2 0x50C JUMPI PUSH1 0x0 DUP1 REVERT JUMPDEST POP PUSH1 0x1 PUSH1 0x1 PUSH1 0xA0 SHL SUB DUP2 CALLDATALOAD AND SWAP1 PUSH1 0x20 DUP2 ADD CALLDATALOAD PUSH1 0x2 SWAP1 DUP2 SIGNEXTEND SWAP2 PUSH1 0x40 DUP2 ADD CALLDATALOAD SWAP1 SWAP2 SIGNEXTEND SWAP1 PUSH1 0x1 PUSH1 0x1 PUSH1 0x80 SHL SUB PUSH1 0x60 DUP3 ADD CALLDATALOAD DUP2 AND SWAP2 PUSH1 0x80 ADD CALLDATALOAD AND PUSH2 0x1D60 JUMP JUMPDEST PUSH2 0x564 PUSH1 0x4 DUP1 CALLDATASIZE SUB PUSH1 0x20 DUP2 LT ISZERO PUSH2 0x55D JUMPI PUSH1 0x0 DUP1 REVERT JUMPDEST POP CALLDATALOAD PUSH2 0x1F7A JUMP JUMPDEST PUSH1 0x40 DUP1 MLOAD PUSH1 0x1 PUSH1 0x1 PUSH1 0x80 SHL SUB SWAP7 DUP8 AND DUP2 MSTORE PUSH1 0x20 DUP2 ADD SWAP6 SWAP1 SWAP6 MSTORE DUP5 DUP2 ADD SWAP4 SWAP1 SWAP4 MSTORE SWAP1 DUP5 AND PUSH1 0x60 DUP5 ADD MSTORE SWAP1 SWAP3 AND PUSH1 0x80 DUP3 ADD MSTORE SWAP1 MLOAD SWAP1 DUP2 SWAP1 SUB PUSH1 0xA0 ADD SWAP1 RETURN JUMPDEST PUSH2 0x45A PUSH1 0x4 DUP1 CALLDATASIZE SUB PUSH1 0x20 DUP2 LT ISZERO PUSH2 0x5B6 JUMPI PUSH1 0x0 DUP1 REVERT JUMPDEST POP CALLDATALOAD PUSH1 0x1 SIGNEXTEND PUSH2 0x1FB7 JUMP JUMPDEST PUSH2 0x28C PUSH2 0x1FC9 JUMP JUMPDEST PUSH2 0x357 PUSH1 0x4 DUP1 CALLDATASIZE SUB PUSH1 0x40 DUP2 LT ISZERO PUSH2 0x5DE JUMPI PUSH1 0x0 DUP1 REVERT JUMPDEST POP PUSH1 0xFF DUP2 CALLDATALOAD DUP2 AND SWAP2 PUSH1 0x20 ADD CALLDATALOAD AND PUSH2 0x1FED JUMP JUMPDEST PUSH2 0x2B0 PUSH1 0x4 DUP1 CALLDATASIZE SUB PUSH1 0x60 DUP2 LT ISZERO PUSH2 0x606 JUMPI PUSH1 0x0 DUP1 REVERT JUMPDEST POP PUSH1 0x1 PUSH1 0x1 PUSH1 0xA0 SHL SUB DUP2 CALLDATALOAD AND SWAP1 PUSH1 0x1 PUSH1 0x1 PUSH1 0x80 SHL SUB PUSH1 0x20 DUP3 ADD CALLDATALOAD DUP2 AND SWAP2 PUSH1 0x40 ADD CALLDATALOAD AND PUSH2 0x21D1 JUMP JUMPDEST PUSH2 0x69B PUSH1 0x4 DUP1 CALLDATASIZE SUB PUSH1 0x20 DUP2 LT ISZERO PUSH2 0x643 JUMPI PUSH1 0x0 DUP1 REVERT JUMPDEST DUP2 ADD SWAP1 PUSH1 0x20 DUP2 ADD DUP2 CALLDATALOAD PUSH1 0x1 PUSH1 0x20 SHL DUP2 GT ISZERO PUSH2 0x65D JUMPI PUSH1 0x0 DUP1 REVERT JUMPDEST DUP3 ADD DUP4 PUSH1 0x20 DUP3 ADD GT ISZERO PUSH2 0x66F JUMPI PUSH1 0x0 DUP1 REVERT JUMPDEST DUP1 CALLDATALOAD SWAP1 PUSH1 0x20 ADD SWAP2 DUP5 PUSH1 0x20 DUP4 MUL DUP5 ADD GT PUSH1 0x1 PUSH1 0x20 SHL DUP4 GT OR ISZERO PUSH2 0x690 JUMPI PUSH1 0x0 DUP1 REVERT JUMPDEST POP SWAP1 SWAP3 POP SWAP1 POP PUSH2 0x249E JUMP JUMPDEST PUSH1 0x40 MLOAD DUP1 DUP1 PUSH1 0x20 ADD DUP1 PUSH1 0x20 ADD DUP4 DUP2 SUB DUP4 MSTORE DUP6 DUP2 DUP2 MLOAD DUP2 MSTORE PUSH1 0x20 ADD SWAP2 POP DUP1 MLOAD SWAP1 PUSH1 0x20 ADD SWAP1 PUSH1 0x20 MUL DUP1 DUP4 DUP4 PUSH1 0x0 JUMPDEST DUP4 DUP2 LT ISZERO PUSH2 0x6DF JUMPI DUP2 DUP2 ADD MLOAD DUP4 DUP3 ADD MSTORE PUSH1 0x20 ADD PUSH2 0x6C7 JUMP JUMPDEST POP POP POP POP SWAP1 POP ADD DUP4 DUP2 SUB DUP3 MSTORE DUP5 DUP2 DUP2 MLOAD DUP2 MSTORE PUSH1 0x20 ADD SWAP2 POP DUP1 MLOAD SWAP1 PUSH1 0x20 ADD SWAP1 PUSH1 0x20 MUL DUP1 DUP4 DUP4 PUSH1 0x0 JUMPDEST DUP4 DUP2 LT ISZERO PUSH2 0x71E JUMPI DUP2 DUP2 ADD MLOAD DUP4 DUP3 ADD MSTORE PUSH1 0x20 ADD PUSH2 0x706 JUMP JUMPDEST POP POP POP POP SWAP1 POP ADD SWAP5 POP POP POP POP POP PUSH1 0x40 MLOAD DUP1 SWAP2 SUB SWAP1 RETURN JUMPDEST PUSH2 0x26B PUSH1 0x4 DUP1 CALLDATASIZE SUB PUSH1 0x60 DUP2 LT ISZERO PUSH2 0x74A JUMPI PUSH1 0x0 DUP1 REVERT JUMPDEST POP DUP1 CALLDATALOAD PUSH1 0x2 SWAP1 DUP2 SIGNEXTEND SWAP2 PUSH1 0x20 DUP2 ADD CALLDATALOAD SWAP1 SWAP2 SIGNEXTEND SWAP1 PUSH1 0x40 ADD CALLDATALOAD PUSH1 0x1 PUSH1 0x1 PUSH1 0x80 SHL SUB AND PUSH2 0x252B JUMP JUMPDEST PUSH2 0x798 PUSH1 0x4 DUP1 CALLDATASIZE SUB PUSH1 0x40 DUP2 LT ISZERO PUSH2 0x784 JUMPI PUSH1 0x0 DUP1 REVERT JUMPDEST POP DUP1 CALLDATALOAD PUSH1 0x2 SWAP1 DUP2 SIGNEXTEND SWAP2 PUSH1 0x20 ADD CALLDATALOAD SWAP1 SIGNEXTEND PUSH2 0x26A2 JUMP JUMPDEST PUSH1 0x40 DUP1 MLOAD PUSH1 0x6 SWAP5 SWAP1 SWAP5 SIGNEXTEND DUP5 MSTORE PUSH1 0x1 PUSH1 0x1 PUSH1 0xA0 SHL SUB SWAP1 SWAP3 AND PUSH1 0x20 DUP5 ADD MSTORE PUSH4 0xFFFFFFFF AND DUP3 DUP3 ADD MSTORE MLOAD SWAP1 DUP2 SWAP1 SUB PUSH1 0x60 ADD SWAP1 RETURN JUMPDEST PUSH2 0x1BB PUSH2 0x2891 JUMP JUMPDEST PUSH2 0x7D9 PUSH2 0x28B5 JUMP JUMPDEST PUSH1 0x40 DUP1 MLOAD PUSH1 0x2 SWAP3 SWAP1 SWAP3 SIGNEXTEND DUP3 MSTORE MLOAD SWAP1 DUP2 SWAP1 SUB PUSH1 0x20 ADD SWAP1 RETURN JUMPDEST PUSH2 0x1BB PUSH2 0x28D9 JUMP JUMPDEST PUSH2 0x800 PUSH2 0x28FD JUMP JUMPDEST PUSH1 0x40 DUP1 MLOAD PUSH3 0xFFFFFF SWAP1 SWAP3 AND DUP3 MSTORE MLOAD SWAP1 DUP2 SWAP1 SUB PUSH1 0x20 ADD SWAP1 RETURN JUMPDEST PUSH2 0x45A PUSH2 0x2921 JUMP JUMPDEST PUSH2 0x840 PUSH1 0x4 DUP1 CALLDATASIZE SUB PUSH1 0x20 DUP2 LT ISZERO PUSH2 0x836 JUMPI PUSH1 0x0 DUP1 REVERT JUMPDEST POP CALLDATALOAD PUSH1 0x2 SIGNEXTEND PUSH2 0x2927 JUMP JUMPDEST PUSH1 0x40 DUP1 MLOAD PUSH1 0x1 PUSH1 0x1 PUSH1 0x80 SHL SUB SWAP1 SWAP10 AND DUP10 MSTORE PUSH1 0xF SWAP8 SWAP1 SWAP8 SIGNEXTEND PUSH1 0x20 DUP10 ADD MSTORE DUP8 DUP8 ADD SWAP6 SWAP1 SWAP6 MSTORE PUSH1 0x60 DUP8 ADD SWAP4 SWAP1 SWAP4 MSTORE PUSH1 0x6 SWAP2 SWAP1 SWAP2 SIGNEXTEND PUSH1 0x80 DUP7 ADD MSTORE PUSH1 0x1 PUSH1 0x1 PUSH1 0xA0 SHL SUB AND PUSH1 0xA0 DUP6 ADD MSTORE PUSH4 0xFFFFFFFF AND PUSH1 0xC0 DUP5 ADD MSTORE ISZERO ISZERO PUSH1 0xE0 DUP4 ADD MSTORE MLOAD SWAP1 DUP2 SWAP1 SUB PUSH2 0x100 ADD SWAP1 RETURN JUMPDEST PUSH2 0x357 PUSH1 0x4 DUP1 CALLDATASIZE SUB PUSH1 0x20 DUP2 LT ISZERO PUSH2 0x8B8 JUMPI PUSH1 0x0 DUP1 REVERT JUMPDEST POP CALLDATALOAD PUSH1 0x1 PUSH1 0x1 PUSH1 0xA0 SHL SUB AND PUSH2 0x2991 JUMP JUMPDEST PUSH32 0x0 DUP2 JUMP JUMPDEST PUSH1 0x0 DUP1 PUSH2 0x8F7 PUSH2 0x2B67 JUMP JUMPDEST DUP6 PUSH2 0x92E JUMPI PUSH1 0x40 DUP1 MLOAD PUSH3 0x461BCD PUSH1 0xE5 SHL DUP2 MSTORE PUSH1 0x20 PUSH1 0x4 DUP3 ADD MSTORE PUSH1 0x2 PUSH1 0x24 DUP3 ADD MSTORE PUSH2 0x4153 PUSH1 0xF0 SHL PUSH1 0x44 DUP3 ADD MSTORE SWAP1 MLOAD SWAP1 DUP2 SWAP1 SUB PUSH1 0x64 ADD SWAP1 REVERT JUMPDEST PUSH1 0x40 DUP1 MLOAD PUSH1 0xE0 DUP2 ADD DUP3 MSTORE PUSH1 0x0 SLOAD PUSH1 0x1 PUSH1 0x1 PUSH1 0xA0 SHL SUB DUP2 AND DUP3 MSTORE PUSH1 0x1 PUSH1 0xA0 SHL DUP2 DIV PUSH1 0x2 SWAP1 DUP2 SIGNEXTEND DUP2 SIGNEXTEND SWAP1 SIGNEXTEND PUSH1 0x20 DUP4 ADD MSTORE PUSH2 0xFFFF PUSH1 0x1 PUSH1 0xB8 SHL DUP3 DIV DUP2 AND SWAP4 DUP4 ADD SWAP4 SWAP1 SWAP4 MSTORE PUSH1 0x1 PUSH1 0xC8 SHL DUP2 DIV DUP4 AND PUSH1 0x60 DUP4 ADD MSTORE PUSH1 0x1 PUSH1 0xD8 SHL DUP2 DIV SWAP1 SWAP3 AND PUSH1 0x80 DUP3 ADD MSTORE PUSH1 0xFF PUSH1 0x1 PUSH1 0xE8 SHL DUP4 DIV DUP2 AND PUSH1 0xA0 DUP4 ADD MSTORE PUSH1 0x1 PUSH1 0xF0 SHL SWAP1 SWAP3 DIV SWAP1 SWAP2 AND ISZERO ISZERO PUSH1 0xC0 DUP3 ADD DUP2 SWAP1 MSTORE PUSH2 0x9E7 JUMPI PUSH1 0x40 DUP1 MLOAD PUSH3 0x461BCD PUSH1 0xE5 SHL DUP2 MSTORE PUSH1 0x20 PUSH1 0x4 DUP3 ADD MSTORE PUSH1 0x3 PUSH1 0x24 DUP3 ADD MSTORE PUSH3 0x4C4F4B PUSH1 0xE8 SHL PUSH1 0x44 DUP3 ADD MSTORE SWAP1 MLOAD SWAP1 DUP2 SWAP1 SUB PUSH1 0x64 ADD SWAP1 REVERT JUMPDEST DUP8 PUSH2 0xA32 JUMPI DUP1 PUSH1 0x0 ADD MLOAD PUSH1 0x1 PUSH1 0x1 PUSH1 0xA0 SHL SUB AND DUP7 PUSH1 0x1 PUSH1 0x1 PUSH1 0xA0 SHL SUB AND GT DUP1 ISZERO PUSH2 0xA2D JUMPI POP PUSH20 0xFFFD8963EFD1FC6A506488495D951D5263988D26 PUSH1 0x1 PUSH1 0x1 PUSH1 0xA0 SHL SUB DUP8 AND LT JUMPDEST PUSH2 0xA64 JUMP JUMPDEST DUP1 PUSH1 0x0 ADD MLOAD PUSH1 0x1 PUSH1 0x1 PUSH1 0xA0 SHL SUB AND DUP7 PUSH1 0x1 PUSH1 0x1 PUSH1 0xA0 SHL SUB AND LT DUP1 ISZERO PUSH2 0xA64 JUMPI POP PUSH5 0x1000276A3 PUSH1 0x1 PUSH1 0x1 PUSH1 0xA0 SHL SUB DUP8 AND GT JUMPDEST PUSH2 0xA9B JUMPI PUSH1 0x40 DUP1 MLOAD PUSH3 0x461BCD PUSH1 0xE5 SHL DUP2 MSTORE PUSH1 0x20 PUSH1 0x4 DUP3 ADD MSTORE PUSH1 0x3 PUSH1 0x24 DUP3 ADD MSTORE PUSH3 0x14D413 PUSH1 0xEA SHL PUSH1 0x44 DUP3 ADD MSTORE SWAP1 MLOAD SWAP1 DUP2 SWAP1 SUB PUSH1 0x64 ADD SWAP1 REVERT JUMPDEST PUSH1 0x0 DUP1 SLOAD PUSH1 0xFF PUSH1 0xF0 SHL NOT AND DUP2 SSTORE PUSH1 0x40 DUP1 MLOAD PUSH1 0xC0 DUP2 ADD SWAP1 SWAP2 MSTORE DUP1 DUP11 PUSH2 0xACA JUMPI PUSH1 0x4 DUP5 PUSH1 0xA0 ADD MLOAD PUSH1 0xFF AND SWAP1 SHR PUSH2 0xADD JUMP JUMPDEST PUSH1 0x10 DUP5 PUSH1 0xA0 ADD MLOAD PUSH1 0xFF AND DUP2 PUSH2 0xADB JUMPI INVALID JUMPDEST MOD JUMPDEST PUSH1 0xFF AND DUP2 MSTORE PUSH1 0x4 SLOAD PUSH1 0x1 PUSH1 0x1 PUSH1 0x80 SHL SUB AND PUSH1 0x20 DUP3 ADD MSTORE PUSH1 0x40 ADD PUSH2 0xAFE PUSH2 0x2B9E JUMP JUMPDEST PUSH4 0xFFFFFFFF AND DUP2 MSTORE PUSH1 0x20 ADD PUSH1 0x0 PUSH1 0x6 SIGNEXTEND DUP2 MSTORE PUSH1 0x20 ADD PUSH1 0x0 PUSH1 0x1 PUSH1 0x1 PUSH1 0xA0 SHL SUB AND DUP2 MSTORE PUSH1 0x20 ADD PUSH1 0x0 ISZERO ISZERO DUP2 MSTORE POP SWAP1 POP PUSH1 0x0 DUP1 DUP10 SGT SWAP1 POP PUSH1 0x0 PUSH1 0x40 MLOAD DUP1 PUSH1 0xE0 ADD PUSH1 0x40 MSTORE DUP1 DUP12 DUP2 MSTORE PUSH1 0x20 ADD PUSH1 0x0 DUP2 MSTORE PUSH1 0x20 ADD DUP6 PUSH1 0x0 ADD MLOAD PUSH1 0x1 PUSH1 0x1 PUSH1 0xA0 SHL SUB AND DUP2 MSTORE PUSH1 0x20 ADD DUP6 PUSH1 0x20 ADD MLOAD PUSH1 0x2 SIGNEXTEND DUP2 MSTORE PUSH1 0x20 ADD DUP13 PUSH2 0xB7A JUMPI PUSH1 0x2 SLOAD PUSH2 0xB7E JUMP JUMPDEST PUSH1 0x1 SLOAD JUMPDEST DUP2 MSTORE PUSH1 0x20 ADD PUSH1 0x0 PUSH1 0x1 PUSH1 0x1 PUSH1 0x80 SHL SUB AND DUP2 MSTORE PUSH1 0x20 ADD DUP5 PUSH1 0x20 ADD MLOAD PUSH1 0x1 PUSH1 0x1 PUSH1 0x80 SHL SUB AND DUP2 MSTORE POP SWAP1 POP JUMPDEST DUP1 MLOAD ISZERO DUP1 ISZERO SWAP1 PUSH2 0xBCD JUMPI POP DUP9 PUSH1 0x1 PUSH1 0x1 PUSH1 0xA0 SHL SUB AND DUP2 PUSH1 0x40 ADD MLOAD PUSH1 0x1 PUSH1 0x1 PUSH1 0xA0 SHL SUB AND EQ ISZERO JUMPDEST ISZERO PUSH2 0xF97 JUMPI PUSH2 0xBDA PUSH2 0x5523 JUMP JUMPDEST PUSH1 0x40 DUP3 ADD MLOAD PUSH1 0x1 PUSH1 0x1 PUSH1 0xA0 SHL SUB AND DUP2 MSTORE PUSH1 0x60 DUP3 ADD MLOAD PUSH2 0xC1D SWAP1 PUSH1 0x6 SWAP1 PUSH32 0x0 DUP16 PUSH2 0x2BA2 JUMP JUMPDEST ISZERO ISZERO PUSH1 0x40 DUP4 ADD MSTORE PUSH1 0x2 SWAP1 DUP2 SIGNEXTEND DUP2 SIGNEXTEND PUSH1 0x20 DUP4 ADD DUP2 SWAP1 MSTORE PUSH3 0xD89E7 NOT SWAP2 SIGNEXTEND SLT ISZERO PUSH2 0xC4E JUMPI PUSH3 0xD89E7 NOT PUSH1 0x20 DUP3 ADD MSTORE PUSH2 0xC6D JUMP JUMPDEST PUSH1 0x20 DUP2 ADD MLOAD PUSH3 0xD89E8 PUSH1 0x2 SWAP2 SWAP1 SWAP2 SIGNEXTEND SGT ISZERO PUSH2 0xC6D JUMPI PUSH3 0xD89E8 PUSH1 0x20 DUP3 ADD MSTORE JUMPDEST PUSH2 0xC7A DUP2 PUSH1 0x20 ADD MLOAD PUSH2 0x2CE4 JUMP JUMPDEST PUSH1 0x1 PUSH1 0x1 PUSH1 0xA0 SHL SUB AND PUSH1 0x60 DUP3 ADD MSTORE PUSH1 0x40 DUP3 ADD MLOAD PUSH2 0xD0B SWAP1 DUP14 PUSH2 0xCB4 JUMPI DUP12 PUSH1 0x1 PUSH1 0x1 PUSH1 0xA0 SHL SUB AND DUP4 PUSH1 0x60 ADD MLOAD PUSH1 0x1 PUSH1 0x1 PUSH1 0xA0 SHL SUB AND GT PUSH2 0xCCE JUMP JUMPDEST DUP12 PUSH1 0x1 PUSH1 0x1 PUSH1 0xA0 SHL SUB AND DUP4 PUSH1 0x60 ADD MLOAD PUSH1 0x1 PUSH1 0x1 PUSH1 0xA0 SHL SUB AND LT JUMPDEST PUSH2 0xCDC JUMPI DUP3 PUSH1 0x60 ADD MLOAD PUSH2 0xCDE JUMP JUMPDEST DUP12 JUMPDEST PUSH1 0xC0 DUP6 ADD MLOAD DUP6 MLOAD PUSH32 0x0 PUSH2 0x3015 JUMP JUMPDEST PUSH1 0xC0 DUP6 ADD MSTORE PUSH1 0xA0 DUP5 ADD MSTORE PUSH1 0x80 DUP4 ADD MSTORE PUSH1 0x1 PUSH1 0x1 PUSH1 0xA0 SHL SUB AND PUSH1 0x40 DUP4 ADD MSTORE DUP3 ISZERO PUSH2 0xD6D JUMPI PUSH2 0xD41 DUP2 PUSH1 0xC0 ADD MLOAD DUP3 PUSH1 0x80 ADD MLOAD ADD PUSH2 0x3207 JUMP JUMPDEST DUP3 MLOAD SUB DUP3 MSTORE PUSH1 0xA0 DUP2 ADD MLOAD PUSH2 0xD63 SWAP1 PUSH2 0xD58 SWAP1 PUSH2 0x3207 JUMP JUMPDEST PUSH1 0x20 DUP5 ADD MLOAD SWAP1 PUSH2 0x321D JUMP JUMPDEST PUSH1 0x20 DUP4 ADD MSTORE PUSH2 0xDA8 JUMP JUMPDEST PUSH2 0xD7A DUP2 PUSH1 0xA0 ADD MLOAD PUSH2 0x3207 JUMP JUMPDEST DUP3 MLOAD ADD DUP3 MSTORE PUSH1 0xC0 DUP2 ADD MLOAD PUSH1 0x80 DUP3 ADD MLOAD PUSH2 0xDA2 SWAP2 PUSH2 0xD97 SWAP2 ADD PUSH2 0x3207 JUMP JUMPDEST PUSH1 0x20 DUP5 ADD MLOAD SWAP1 PUSH2 0x3239 JUMP JUMPDEST PUSH1 0x20 DUP4 ADD MSTORE JUMPDEST DUP4 MLOAD PUSH1 0xFF AND ISZERO PUSH2 0xDEE JUMPI PUSH1 0x0 DUP5 PUSH1 0x0 ADD MLOAD PUSH1 0xFF AND DUP3 PUSH1 0xC0 ADD MLOAD DUP2 PUSH2 0xDC8 JUMPI INVALID JUMPDEST PUSH1 0xC0 DUP5 ADD DUP1 MLOAD SWAP3 SWAP1 SWAP2 DIV SWAP2 DUP3 SWAP1 SUB SWAP1 MSTORE PUSH1 0xA0 DUP5 ADD DUP1 MLOAD SWAP1 SWAP2 ADD PUSH1 0x1 PUSH1 0x1 PUSH1 0x80 SHL SUB AND SWAP1 MSTORE POP JUMPDEST PUSH1 0xC0 DUP3 ADD MLOAD PUSH1 0x1 PUSH1 0x1 PUSH1 0x80 SHL SUB AND ISZERO PUSH2 0xE2D JUMPI PUSH2 0xE21 DUP2 PUSH1 0xC0 ADD MLOAD PUSH1 0x1 PUSH1 0x80 SHL DUP5 PUSH1 0xC0 ADD MLOAD PUSH1 0x1 PUSH1 0x1 PUSH1 0x80 SHL SUB AND PUSH2 0x324F JUMP JUMPDEST PUSH1 0x80 DUP4 ADD DUP1 MLOAD SWAP1 SWAP2 ADD SWAP1 MSTORE JUMPDEST DUP1 PUSH1 0x60 ADD MLOAD PUSH1 0x1 PUSH1 0x1 PUSH1 0xA0 SHL SUB AND DUP3 PUSH1 0x40 ADD MLOAD PUSH1 0x1 PUSH1 0x1 PUSH1 0xA0 SHL SUB AND EQ ISZERO PUSH2 0xF56 JUMPI DUP1 PUSH1 0x40 ADD MLOAD ISZERO PUSH2 0xF2D JUMPI DUP4 PUSH1 0xA0 ADD MLOAD PUSH2 0xEB7 JUMPI PUSH2 0xE95 DUP5 PUSH1 0x40 ADD MLOAD PUSH1 0x0 DUP8 PUSH1 0x20 ADD MLOAD DUP9 PUSH1 0x40 ADD MLOAD DUP9 PUSH1 0x20 ADD MLOAD DUP11 PUSH1 0x60 ADD MLOAD PUSH1 0x8 PUSH2 0x32FF SWAP1 SWAP7 SWAP6 SWAP5 SWAP4 SWAP3 SWAP2 SWAP1 PUSH4 0xFFFFFFFF AND JUMP JUMPDEST PUSH1 0x1 PUSH1 0x1 PUSH1 0xA0 SHL SUB AND PUSH1 0x80 DUP7 ADD MSTORE PUSH1 0x6 SWAP1 DUP2 SIGNEXTEND SWAP1 SIGNEXTEND PUSH1 0x60 DUP6 ADD MSTORE PUSH1 0x1 PUSH1 0xA0 DUP6 ADD MSTORE JUMPDEST PUSH1 0x0 PUSH2 0xF03 DUP3 PUSH1 0x20 ADD MLOAD DUP15 PUSH2 0xECE JUMPI PUSH1 0x1 SLOAD PUSH2 0xED4 JUMP JUMPDEST DUP5 PUSH1 0x80 ADD MLOAD JUMPDEST DUP16 PUSH2 0xEE3 JUMPI DUP6 PUSH1 0x80 ADD MLOAD PUSH2 0xEE7 JUMP JUMPDEST PUSH1 0x2 SLOAD JUMPDEST PUSH1 0x80 DUP10 ADD MLOAD PUSH1 0x60 DUP11 ADD MLOAD PUSH1 0x40 DUP12 ADD MLOAD PUSH1 0x5 SWAP6 SWAP5 SWAP4 SWAP3 SWAP2 SWAP1 PUSH2 0x3491 JUMP JUMPDEST SWAP1 POP DUP13 ISZERO PUSH2 0xF0F JUMPI PUSH1 0x0 SUB JUMPDEST PUSH2 0xF1D DUP4 PUSH1 0xC0 ADD MLOAD DUP3 PUSH2 0x355C JUMP JUMPDEST PUSH1 0x1 PUSH1 0x1 PUSH1 0x80 SHL SUB AND PUSH1 0xC0 DUP5 ADD MSTORE POP JUMPDEST DUP12 PUSH2 0xF3C JUMPI DUP1 PUSH1 0x20 ADD MLOAD PUSH2 0xF45 JUMP JUMPDEST PUSH1 0x1 DUP2 PUSH1 0x20 ADD MLOAD SUB JUMPDEST PUSH1 0x2 SWAP1 DUP2 SIGNEXTEND SWAP1 SIGNEXTEND PUSH1 0x60 DUP4 ADD MSTORE PUSH2 0xF91 JUMP JUMPDEST DUP1 PUSH1 0x0 ADD MLOAD PUSH1 0x1 PUSH1 0x1 PUSH1 0xA0 SHL SUB AND DUP3 PUSH1 0x40 ADD MLOAD PUSH1 0x1 PUSH1 0x1 PUSH1 0xA0 SHL SUB AND EQ PUSH2 0xF91 JUMPI PUSH2 0xF84 DUP3 PUSH1 0x40 ADD MLOAD PUSH2 0x3612 JUMP JUMPDEST PUSH1 0x2 SWAP1 DUP2 SIGNEXTEND SWAP1 SIGNEXTEND PUSH1 0x60 DUP4 ADD MSTORE JUMPDEST POP PUSH2 0xBA7 JUMP JUMPDEST DUP4 PUSH1 0x20 ADD MLOAD PUSH1 0x2 SIGNEXTEND DUP2 PUSH1 0x60 ADD MLOAD PUSH1 0x2 SIGNEXTEND EQ PUSH2 0x1065 JUMPI PUSH1 0x0 DUP1 PUSH2 0xFE5 DUP7 PUSH1 0x40 ADD MLOAD DUP7 PUSH1 0x40 ADD MLOAD DUP9 PUSH1 0x20 ADD MLOAD DUP9 PUSH1 0x20 ADD MLOAD DUP11 PUSH1 0x60 ADD MLOAD DUP12 PUSH1 0x80 ADD MLOAD PUSH1 0x8 PUSH2 0x393A SWAP1 SWAP7 SWAP6 SWAP5 SWAP4 SWAP3 SWAP2 SWAP1 PUSH4 0xFFFFFFFF AND JUMP JUMPDEST PUSH1 0x40 DUP6 ADD MLOAD PUSH1 0x60 DUP7 ADD MLOAD PUSH1 0x0 DUP1 SLOAD PUSH2 0xFFFF PUSH1 0xC8 SHL NOT AND PUSH1 0x1 PUSH1 0xC8 SHL PUSH2 0xFFFF SWAP6 DUP7 AND MUL OR PUSH2 0xFFFF PUSH1 0xB8 SHL NOT AND PUSH1 0x1 PUSH1 0xB8 SHL SWAP6 SWAP1 SWAP5 AND SWAP5 SWAP1 SWAP5 MUL SWAP3 SWAP1 SWAP3 OR PUSH3 0xFFFFFF PUSH1 0xA0 SHL NOT AND PUSH1 0x1 PUSH1 0xA0 SHL PUSH3 0xFFFFFF PUSH1 0x2 SWAP5 SWAP1 SWAP5 SIGNEXTEND SWAP4 SWAP1 SWAP4 AND SWAP3 SWAP1 SWAP3 MUL SWAP2 SWAP1 SWAP2 OR PUSH1 0x1 PUSH1 0x1 PUSH1 0xA0 SHL SUB NOT AND PUSH1 0x1 PUSH1 0x1 PUSH1 0xA0 SHL SUB SWAP1 SWAP2 AND OR SWAP1 SSTORE POP PUSH2 0x108A SWAP1 POP JUMP JUMPDEST PUSH1 0x40 DUP2 ADD MLOAD PUSH1 0x0 DUP1 SLOAD PUSH1 0x1 PUSH1 0x1 PUSH1 0xA0 SHL SUB NOT AND PUSH1 0x1 PUSH1 0x1 PUSH1 0xA0 SHL SUB SWAP1 SWAP3 AND SWAP2 SWAP1 SWAP2 OR SWAP1 SSTORE JUMPDEST DUP1 PUSH1 0xC0 ADD MLOAD PUSH1 0x1 PUSH1 0x1 PUSH1 0x80 SHL SUB AND DUP4 PUSH1 0x20 ADD MLOAD PUSH1 0x1 PUSH1 0x1 PUSH1 0x80 SHL SUB AND EQ PUSH2 0x10D0 JUMPI PUSH1 0xC0 DUP2 ADD MLOAD PUSH1 0x4 DUP1 SLOAD PUSH1 0x1 PUSH1 0x1 PUSH1 0x80 SHL SUB NOT AND PUSH1 0x1 PUSH1 0x1 PUSH1 0x80 SHL SUB SWAP1 SWAP3 AND SWAP2 SWAP1 SWAP2 OR SWAP1 SSTORE JUMPDEST DUP11 ISZERO PUSH2 0x1120 JUMPI PUSH1 0x80 DUP2 ADD MLOAD PUSH1 0x1 SSTORE PUSH1 0xA0 DUP2 ADD MLOAD PUSH1 0x1 PUSH1 0x1 PUSH1 0x80 SHL SUB AND ISZERO PUSH2 0x111B JUMPI PUSH1 0xA0 DUP2 ADD MLOAD PUSH1 0x3 DUP1 SLOAD PUSH1 0x1 PUSH1 0x1 PUSH1 0x80 SHL SUB NOT DUP2 AND PUSH1 0x1 PUSH1 0x1 PUSH1 0x80 SHL SUB SWAP2 DUP3 AND SWAP1 SWAP4 ADD AND SWAP2 SWAP1 SWAP2 OR SWAP1 SSTORE JUMPDEST PUSH2 0x1166 JUMP JUMPDEST PUSH1 0x80 DUP2 ADD MLOAD PUSH1 0x2 SSTORE PUSH1 0xA0 DUP2 ADD MLOAD PUSH1 0x1 PUSH1 0x1 PUSH1 0x80 SHL SUB AND ISZERO PUSH2 0x1166 JUMPI PUSH1 0xA0 DUP2 ADD MLOAD PUSH1 0x3 DUP1 SLOAD PUSH1 0x1 PUSH1 0x1 PUSH1 0x80 SHL SUB DUP1 DUP3 AND PUSH1 0x1 PUSH1 0x80 SHL SWAP3 DUP4 SWAP1 DIV DUP3 AND SWAP1 SWAP5 ADD AND MUL SWAP2 SWAP1 SWAP2 OR SWAP1 SSTORE JUMPDEST DUP2 ISZERO ISZERO DUP12 ISZERO ISZERO EQ PUSH2 0x117F JUMPI PUSH1 0x20 DUP2 ADD MLOAD DUP2 MLOAD DUP12 SUB PUSH2 0x118C JUMP JUMPDEST DUP1 PUSH1 0x0 ADD MLOAD DUP11 SUB DUP2 PUSH1 0x20 ADD MLOAD JUMPDEST SWAP1 SWAP7 POP SWAP5 POP DUP11 ISZERO PUSH2 0x12C5 JUMPI PUSH1 0x0 DUP6 SLT ISZERO PUSH2 0x11CE JUMPI PUSH2 0x11CE PUSH32 0x0 DUP14 DUP8 PUSH1 0x0 SUB PUSH2 0x3AD5 JUMP JUMPDEST PUSH1 0x0 PUSH2 0x11D8 PUSH2 0x3C23 JUMP JUMPDEST SWAP1 POP CALLER PUSH1 0x1 PUSH1 0x1 PUSH1 0xA0 SHL SUB AND PUSH4 0xFA461E33 DUP9 DUP9 DUP13 DUP13 PUSH1 0x40 MLOAD DUP6 PUSH4 0xFFFFFFFF AND PUSH1 0xE0 SHL DUP2 MSTORE PUSH1 0x4 ADD DUP1 DUP6 DUP2 MSTORE PUSH1 0x20 ADD DUP5 DUP2 MSTORE PUSH1 0x20 ADD DUP1 PUSH1 0x20 ADD DUP3 DUP2 SUB DUP3 MSTORE DUP5 DUP5 DUP3 DUP2 DUP2 MSTORE PUSH1 0x20 ADD SWAP3 POP DUP1 DUP3 DUP5 CALLDATACOPY PUSH1 0x0 DUP2 DUP5 ADD MSTORE PUSH1 0x1F NOT PUSH1 0x1F DUP3 ADD AND SWAP1 POP DUP1 DUP4 ADD SWAP3 POP POP POP SWAP6 POP POP POP POP POP POP PUSH1 0x0 PUSH1 0x40 MLOAD DUP1 DUP4 SUB DUP2 PUSH1 0x0 DUP8 DUP1 EXTCODESIZE ISZERO DUP1 ISZERO PUSH2 0x125C JUMPI PUSH1 0x0 DUP1 REVERT JUMPDEST POP GAS CALL ISZERO DUP1 ISZERO PUSH2 0x1270 JUMPI RETURNDATASIZE PUSH1 0x0 DUP1 RETURNDATACOPY RETURNDATASIZE PUSH1 0x0 REVERT JUMPDEST POP POP POP POP PUSH2 0x127C PUSH2 0x3C23 JUMP JUMPDEST PUSH2 0x1286 DUP3 DUP10 PUSH2 0x3D5C JUMP JUMPDEST GT ISZERO PUSH2 0x12BF JUMPI PUSH1 0x40 DUP1 MLOAD PUSH3 0x461BCD PUSH1 0xE5 SHL DUP2 MSTORE PUSH1 0x20 PUSH1 0x4 DUP3 ADD MSTORE PUSH1 0x3 PUSH1 0x24 DUP3 ADD MSTORE PUSH3 0x494941 PUSH1 0xE8 SHL PUSH1 0x44 DUP3 ADD MSTORE SWAP1 MLOAD SWAP1 DUP2 SWAP1 SUB PUSH1 0x64 ADD SWAP1 REVERT JUMPDEST POP PUSH2 0x13EF JUMP JUMPDEST PUSH1 0x0 DUP7 SLT ISZERO PUSH2 0x12FC JUMPI PUSH2 0x12FC PUSH32 0x0 DUP14 DUP9 PUSH1 0x0 SUB PUSH2 0x3AD5 JUMP JUMPDEST PUSH1 0x0 PUSH2 0x1306 PUSH2 0x3D6C JUMP JUMPDEST SWAP1 POP CALLER PUSH1 0x1 PUSH1 0x1 PUSH1 0xA0 SHL SUB AND PUSH4 0xFA461E33 DUP9 DUP9 DUP13 DUP13 PUSH1 0x40 MLOAD DUP6 PUSH4 0xFFFFFFFF AND PUSH1 0xE0 SHL DUP2 MSTORE PUSH1 0x4 ADD DUP1 DUP6 DUP2 MSTORE PUSH1 0x20 ADD DUP5 DUP2 MSTORE PUSH1 0x20 ADD DUP1 PUSH1 0x20 ADD DUP3 DUP2 SUB DUP3 MSTORE DUP5 DUP5 DUP3 DUP2 DUP2 MSTORE PUSH1 0x20 ADD SWAP3 POP DUP1 DUP3 DUP5 CALLDATACOPY PUSH1 0x0 DUP2 DUP5 ADD MSTORE PUSH1 0x1F NOT PUSH1 0x1F DUP3 ADD AND SWAP1 POP DUP1 DUP4 ADD SWAP3 POP POP POP SWAP6 POP POP POP POP POP POP PUSH1 0x0 PUSH1 0x40 MLOAD DUP1 DUP4 SUB DUP2 PUSH1 0x0 DUP8 DUP1 EXTCODESIZE ISZERO DUP1 ISZERO PUSH2 0x138A JUMPI PUSH1 0x0 DUP1 REVERT JUMPDEST POP GAS CALL ISZERO DUP1 ISZERO PUSH2 0x139E JUMPI RETURNDATASIZE PUSH1 0x0 DUP1 RETURNDATACOPY RETURNDATASIZE PUSH1 0x0 REVERT JUMPDEST POP POP POP POP PUSH2 0x13AA PUSH2 0x3D6C JUMP JUMPDEST PUSH2 0x13B4 DUP3 DUP9 PUSH2 0x3D5C JUMP JUMPDEST GT ISZERO PUSH2 0x13ED JUMPI PUSH1 0x40 DUP1 MLOAD PUSH3 0x461BCD PUSH1 0xE5 SHL DUP2 MSTORE PUSH1 0x20 PUSH1 0x4 DUP3 ADD MSTORE PUSH1 0x3 PUSH1 0x24 DUP3 ADD MSTORE PUSH3 0x494941 PUSH1 0xE8 SHL PUSH1 0x44 DUP3 ADD MSTORE SWAP1 MLOAD SWAP1 DUP2 SWAP1 SUB PUSH1 0x64 ADD SWAP1 REVERT JUMPDEST POP JUMPDEST PUSH1 0x40 DUP1 DUP3 ADD MLOAD PUSH1 0xC0 DUP4 ADD MLOAD PUSH1 0x60 DUP1 DUP6 ADD MLOAD DUP5 MLOAD DUP12 DUP2 MSTORE PUSH1 0x20 DUP2 ADD DUP12 SWAP1 MSTORE PUSH1 0x1 PUSH1 0x1 PUSH1 0xA0 SHL SUB SWAP5 DUP6 AND DUP2 DUP8 ADD MSTORE PUSH1 0x1 PUSH1 0x1 PUSH1 0x80 SHL SUB SWAP1 SWAP4 AND SWAP2 DUP4 ADD SWAP2 SWAP1 SWAP2 MSTORE PUSH1 0x2 SIGNEXTEND PUSH1 0x80 DUP3 ADD MSTORE SWAP2 MLOAD SWAP1 DUP15 AND SWAP2 CALLER SWAP2 PUSH32 0xC42079F94A6350D7E6235F29174924F928CC2AC818EB64FED8004E115FBCCA67 SWAP2 DUP2 SWAP1 SUB PUSH1 0xA0 ADD SWAP1 LOG3 POP POP PUSH1 0x0 DUP1 SLOAD PUSH1 0xFF PUSH1 0xF0 SHL NOT AND PUSH1 0x1 PUSH1 0xF0 SHL OR SWAP1 SSTORE POP SWAP2 SWAP9 SWAP1 SWAP8 POP SWAP6 POP POP POP POP POP POP JUMP JUMPDEST PUSH1 0x4 SLOAD PUSH1 0x1 PUSH1 0x1 PUSH1 0x80 SHL SUB AND DUP2 JUMP JUMPDEST PUSH1 0x3 SLOAD PUSH1 0x1 PUSH1 0x1 PUSH1 0x80 SHL SUB DUP1 DUP3 AND SWAP2 PUSH1 0x1 PUSH1 0x80 SHL SWAP1 DIV AND DUP3 JUMP JUMPDEST PUSH1 0x8 DUP2 PUSH2 0xFFFF DUP2 LT PUSH2 0x14C5 JUMPI PUSH1 0x0 DUP1 REVERT JUMPDEST ADD SLOAD PUSH4 0xFFFFFFFF DUP2 AND SWAP2 POP PUSH1 0x1 PUSH1 0x20 SHL DUP2 DIV PUSH1 0x6 SIGNEXTEND SWAP1 PUSH1 0x1 PUSH1 0x58 SHL DUP2 DIV PUSH1 0x1 PUSH1 0x1 PUSH1 0xA0 SHL SUB AND SWAP1 PUSH1 0x1 PUSH1 0xF8 SHL SWAP1 DIV PUSH1 0xFF AND DUP5 JUMP JUMPDEST PUSH1 0x0 SLOAD PUSH1 0x1 PUSH1 0xF0 SHL SWAP1 DIV PUSH1 0xFF AND PUSH2 0x153D JUMPI PUSH1 0x40 DUP1 MLOAD PUSH3 0x461BCD PUSH1 0xE5 SHL DUP2 MSTORE PUSH1 0x20 PUSH1 0x4 DUP3 ADD MSTORE PUSH1 0x3 PUSH1 0x24 DUP3 ADD MSTORE PUSH3 0x4C4F4B PUSH1 0xE8 SHL PUSH1 0x44 DUP3 ADD MSTORE SWAP1 MLOAD SWAP1 DUP2 SWAP1 SUB PUSH1 0x64 ADD SWAP1 REVERT JUMPDEST PUSH1 0x0 DUP1 SLOAD PUSH1 0xFF PUSH1 0xF0 SHL NOT AND SWAP1 SSTORE PUSH2 0x1552 PUSH2 0x2B67 JUMP JUMPDEST PUSH1 0x0 DUP1 SLOAD PUSH1 0x1 PUSH1 0xD8 SHL SWAP1 DIV PUSH2 0xFFFF AND SWAP1 PUSH2 0x156E PUSH1 0x8 DUP4 DUP6 PUSH2 0x3E04 JUMP JUMPDEST PUSH1 0x0 DUP1 SLOAD PUSH2 0xFFFF DUP1 DUP5 AND PUSH1 0x1 PUSH1 0xD8 SHL DUP2 MUL PUSH2 0xFFFF PUSH1 0xD8 SHL NOT SWAP1 SWAP4 AND SWAP3 SWAP1 SWAP3 OR SWAP1 SWAP3 SSTORE SWAP2 SWAP3 POP DUP4 AND EQ PUSH2 0x15DB JUMPI PUSH1 0x40 DUP1 MLOAD PUSH2 0xFFFF DUP1 DUP6 AND DUP3 MSTORE DUP4 AND PUSH1 0x20 DUP3 ADD MSTORE DUP2 MLOAD PUSH32 0xAC49E518F90A358F652E4400164F05A5D8F7E35E7747279BC3A93DBF584E125A SWAP3 SWAP2 DUP2 SWAP1 SUB SWAP1 SWAP2 ADD SWAP1 LOG1 JUMPDEST POP POP PUSH1 0x0 DUP1 SLOAD PUSH1 0xFF PUSH1 0xF0 SHL NOT AND PUSH1 0x1 PUSH1 0xF0 SHL OR SWAP1 SSTORE POP JUMP JUMPDEST PUSH1 0x0 SLOAD PUSH1 0x1 PUSH1 0x1 PUSH1 0xA0 SHL SUB DUP2 AND SWAP1 PUSH1 0x1 PUSH1 0xA0 SHL DUP2 DIV PUSH1 0x2 SIGNEXTEND SWAP1 PUSH2 0xFFFF PUSH1 0x1 PUSH1 0xB8 SHL DUP3 DIV DUP2 AND SWAP2 PUSH1 0x1 PUSH1 0xC8 SHL DUP2 DIV DUP3 AND SWAP2 PUSH1 0x1 PUSH1 0xD8 SHL DUP3 DIV AND SWAP1 PUSH1 0xFF PUSH1 0x1 PUSH1 0xE8 SHL DUP3 DIV DUP2 AND SWAP2 PUSH1 0x1 PUSH1 0xF0 SHL SWAP1 DIV AND DUP8 JUMP JUMPDEST PUSH1 0x0 DUP1 SLOAD DUP2 SWAP1 PUSH1 0x1 PUSH1 0xF0 SHL SWAP1 DIV PUSH1 0xFF AND PUSH2 0x168A JUMPI PUSH1 0x40 DUP1 MLOAD PUSH3 0x461BCD PUSH1 0xE5 SHL DUP2 MSTORE PUSH1 0x20 PUSH1 0x4 DUP3 ADD MSTORE PUSH1 0x3 PUSH1 0x24 DUP3 ADD MSTORE PUSH3 0x4C4F4B PUSH1 0xE8 SHL PUSH1 0x44 DUP3 ADD MSTORE SWAP1 MLOAD SWAP1 DUP2 SWAP1 SUB PUSH1 0x64 ADD SWAP1 REVERT JUMPDEST PUSH1 0x0 DUP1 SLOAD PUSH1 0xFF PUSH1 0xF0 SHL NOT AND SWAP1 SSTORE PUSH1 0x1 PUSH1 0x1 PUSH1 0x80 SHL SUB DUP6 AND PUSH2 0x16AA JUMPI PUSH1 0x0 DUP1 REVERT JUMPDEST PUSH1 0x0 DUP1 PUSH2 0x16F8 PUSH1 0x40 MLOAD DUP1 PUSH1 0x80 ADD PUSH1 0x40 MSTORE DUP1 DUP13 PUSH1 0x1 PUSH1 0x1 PUSH1 0xA0 SHL SUB AND DUP2 MSTORE PUSH1 0x20 ADD DUP12 PUSH1 0x2 SIGNEXTEND DUP2 MSTORE PUSH1 0x20 ADD DUP11 PUSH1 0x2 SIGNEXTEND DUP2 MSTORE PUSH1 0x20 ADD PUSH2 0x16EE DUP11 PUSH1 0x1 PUSH1 0x1 PUSH1 0x80 SHL SUB AND PUSH2 0x3EA7 JUMP JUMPDEST PUSH1 0xF SIGNEXTEND SWAP1 MSTORE PUSH2 0x3EB8 JUMP JUMPDEST SWAP3 POP SWAP3 POP POP DUP2 SWAP4 POP DUP1 SWAP3 POP PUSH1 0x0 DUP1 PUSH1 0x0 DUP7 GT ISZERO PUSH2 0x171A JUMPI PUSH2 0x1717 PUSH2 0x3C23 JUMP JUMPDEST SWAP2 POP JUMPDEST DUP5 ISZERO PUSH2 0x172B JUMPI PUSH2 0x1728 PUSH2 0x3D6C JUMP JUMPDEST SWAP1 POP JUMPDEST CALLER PUSH1 0x1 PUSH1 0x1 PUSH1 0xA0 SHL SUB AND PUSH4 0xD3487997 DUP8 DUP8 DUP12 DUP12 PUSH1 0x40 MLOAD DUP6 PUSH4 0xFFFFFFFF AND PUSH1 0xE0 SHL DUP2 MSTORE PUSH1 0x4 ADD DUP1 DUP6 DUP2 MSTORE PUSH1 0x20 ADD DUP5 DUP2 MSTORE PUSH1 0x20 ADD DUP1 PUSH1 0x20 ADD DUP3 DUP2 SUB DUP3 MSTORE DUP5 DUP5 DUP3 DUP2 DUP2 MSTORE PUSH1 0x20 ADD SWAP3 POP DUP1 DUP3 DUP5 CALLDATACOPY PUSH1 0x0 DUP2 DUP5 ADD MSTORE PUSH1 0x1F NOT PUSH1 0x1F DUP3 ADD AND SWAP1 POP DUP1 DUP4 ADD SWAP3 POP POP POP SWAP6 POP POP POP POP POP POP PUSH1 0x0 PUSH1 0x40 MLOAD DUP1 DUP4 SUB DUP2 PUSH1 0x0 DUP8 DUP1 EXTCODESIZE ISZERO DUP1 ISZERO PUSH2 0x17AD JUMPI PUSH1 0x0 DUP1 REVERT JUMPDEST POP GAS CALL ISZERO DUP1 ISZERO PUSH2 0x17C1 JUMPI RETURNDATASIZE PUSH1 0x0 DUP1 RETURNDATACOPY RETURNDATASIZE PUSH1 0x0 REVERT JUMPDEST POP POP POP POP PUSH1 0x0 DUP7 GT ISZERO PUSH2 0x1818 JUMPI PUSH2 0x17D6 PUSH2 0x3C23 JUMP JUMPDEST PUSH2 0x17E0 DUP4 DUP9 PUSH2 0x3D5C JUMP JUMPDEST GT ISZERO PUSH2 0x1818 JUMPI PUSH1 0x40 DUP1 MLOAD PUSH3 0x461BCD PUSH1 0xE5 SHL DUP2 MSTORE PUSH1 0x20 PUSH1 0x4 DUP3 ADD MSTORE PUSH1 0x2 PUSH1 0x24 DUP3 ADD MSTORE PUSH2 0x4D3 PUSH1 0xF4 SHL PUSH1 0x44 DUP3 ADD MSTORE SWAP1 MLOAD SWAP1 DUP2 SWAP1 SUB PUSH1 0x64 ADD SWAP1 REVERT JUMPDEST DUP5 ISZERO PUSH2 0x1868 JUMPI PUSH2 0x1826 PUSH2 0x3D6C JUMP JUMPDEST PUSH2 0x1830 DUP3 DUP8 PUSH2 0x3D5C JUMP JUMPDEST GT ISZERO PUSH2 0x1868 JUMPI PUSH1 0x40 DUP1 MLOAD PUSH3 0x461BCD PUSH1 0xE5 SHL DUP2 MSTORE PUSH1 0x20 PUSH1 0x4 DUP3 ADD MSTORE PUSH1 0x2 PUSH1 0x24 DUP3 ADD MSTORE PUSH2 0x4D31 PUSH1 0xF0 SHL PUSH1 0x44 DUP3 ADD MSTORE SWAP1 MLOAD SWAP1 DUP2 SWAP1 SUB PUSH1 0x64 ADD SWAP1 REVERT JUMPDEST DUP10 PUSH1 0x2 SIGNEXTEND DUP12 PUSH1 0x2 SIGNEXTEND DUP14 PUSH1 0x1 PUSH1 0x1 PUSH1 0xA0 SHL SUB AND PUSH32 0x7A53080BA414158BE7EC69B987B5FB7D07DEE101FE85488F0853AE16239D0BDE CALLER DUP14 DUP12 DUP12 PUSH1 0x40 MLOAD DUP1 DUP6 PUSH1 0x1 PUSH1 0x1 PUSH1 0xA0 SHL SUB AND DUP2 MSTORE PUSH1 0x20 ADD DUP5 PUSH1 0x1 PUSH1 0x1 PUSH1 0x80 SHL SUB AND DUP2 MSTORE PUSH1 0x20 ADD DUP4 DUP2 MSTORE PUSH1 0x20 ADD DUP3 DUP2 MSTORE PUSH1 0x20 ADD SWAP5 POP POP POP POP POP PUSH1 0x40 MLOAD DUP1 SWAP2 SUB SWAP1 LOG4 POP POP PUSH1 0x0 DUP1 SLOAD PUSH1 0xFF PUSH1 0xF0 SHL NOT AND PUSH1 0x1 PUSH1 0xF0 SHL OR SWAP1 SSTORE POP SWAP2 SWAP9 SWAP1 SWAP8 POP SWAP6 POP POP POP POP POP POP JUMP JUMPDEST PUSH1 0x2 SLOAD DUP2 JUMP JUMPDEST PUSH1 0x0 SLOAD PUSH1 0x1 PUSH1 0xF0 SHL SWAP1 DIV PUSH1 0xFF AND PUSH2 0x1949 JUMPI PUSH1 0x40 DUP1 MLOAD PUSH3 0x461BCD PUSH1 0xE5 SHL DUP2 MSTORE PUSH1 0x20 PUSH1 0x4 DUP3 ADD MSTORE PUSH1 0x3 PUSH1 0x24 DUP3 ADD MSTORE PUSH3 0x4C4F4B PUSH1 0xE8 SHL PUSH1 0x44 DUP3 ADD MSTORE SWAP1 MLOAD SWAP1 DUP2 SWAP1 SUB PUSH1 0x64 ADD SWAP1 REVERT JUMPDEST PUSH1 0x0 DUP1 SLOAD PUSH1 0xFF PUSH1 0xF0 SHL NOT AND SWAP1 SSTORE PUSH2 0x195E PUSH2 0x2B67 JUMP JUMPDEST PUSH1 0x4 SLOAD PUSH1 0x1 PUSH1 0x1 PUSH1 0x80 SHL SUB AND DUP1 PUSH2 0x19A0 JUMPI PUSH1 0x40 DUP1 MLOAD PUSH3 0x461BCD PUSH1 0xE5 SHL DUP2 MSTORE PUSH1 0x20 PUSH1 0x4 DUP3 ADD MSTORE PUSH1 0x1 PUSH1 0x24 DUP3 ADD MSTORE PUSH1 0x13 PUSH1 0xFA SHL PUSH1 0x44 DUP3 ADD MSTORE SWAP1 MLOAD SWAP1 DUP2 SWAP1 SUB PUSH1 0x64 ADD SWAP1 REVERT JUMPDEST PUSH1 0x0 PUSH2 0x19D5 DUP7 PUSH32 0x0 PUSH3 0xFFFFFF AND PUSH3 0xF4240 PUSH2 0x40F8 JUMP JUMPDEST SWAP1 POP PUSH1 0x0 PUSH2 0x1A0C DUP7 PUSH32 0x0 PUSH3 0xFFFFFF AND PUSH3 0xF4240 PUSH2 0x40F8 JUMP JUMPDEST SWAP1 POP PUSH1 0x0 PUSH2 0x1A18 PUSH2 0x3C23 JUMP JUMPDEST SWAP1 POP PUSH1 0x0 PUSH2 0x1A24 PUSH2 0x3D6C JUMP JUMPDEST SWAP1 POP DUP9 ISZERO PUSH2 0x1A57 JUMPI PUSH2 0x1A57 PUSH32 0x0 DUP12 DUP12 PUSH2 0x3AD5 JUMP JUMPDEST DUP8 ISZERO PUSH2 0x1A88 JUMPI PUSH2 0x1A88 PUSH32 0x0 DUP12 DUP11 PUSH2 0x3AD5 JUMP JUMPDEST CALLER PUSH1 0x1 PUSH1 0x1 PUSH1 0xA0 SHL SUB AND PUSH4 0xE9CBAFB0 DUP6 DUP6 DUP11 DUP11 PUSH1 0x40 MLOAD DUP6 PUSH4 0xFFFFFFFF AND PUSH1 0xE0 SHL DUP2 MSTORE PUSH1 0x4 ADD DUP1 DUP6 DUP2 MSTORE PUSH1 0x20 ADD DUP5 DUP2 MSTORE PUSH1 0x20 ADD DUP1 PUSH1 0x20 ADD DUP3 DUP2 SUB DUP3 MSTORE DUP5 DUP5 DUP3 DUP2 DUP2 MSTORE PUSH1 0x20 ADD SWAP3 POP DUP1 DUP3 DUP5 CALLDATACOPY PUSH1 0x0 DUP2 DUP5 ADD MSTORE PUSH1 0x1F NOT PUSH1 0x1F DUP3 ADD AND SWAP1 POP DUP1 DUP4 ADD SWAP3 POP POP POP SWAP6 POP POP POP POP POP POP PUSH1 0x0 PUSH1 0x40 MLOAD DUP1 DUP4 SUB DUP2 PUSH1 0x0 DUP8 DUP1 EXTCODESIZE ISZERO DUP1 ISZERO PUSH2 0x1B0A JUMPI PUSH1 0x0 DUP1 REVERT JUMPDEST POP GAS CALL ISZERO DUP1 ISZERO PUSH2 0x1B1E JUMPI RETURNDATASIZE PUSH1 0x0 DUP1 RETURNDATACOPY RETURNDATASIZE PUSH1 0x0 REVERT JUMPDEST POP POP POP POP PUSH1 0x0 PUSH2 0x1B2C PUSH2 0x3C23 JUMP JUMPDEST SWAP1 POP PUSH1 0x0 PUSH2 0x1B38 PUSH2 0x3D6C JUMP JUMPDEST SWAP1 POP DUP2 PUSH2 0x1B45 DUP6 DUP9 PUSH2 0x3D5C JUMP JUMPDEST GT ISZERO PUSH2 0x1B7D JUMPI PUSH1 0x40 DUP1 MLOAD PUSH3 0x461BCD PUSH1 0xE5 SHL DUP2 MSTORE PUSH1 0x20 PUSH1 0x4 DUP3 ADD MSTORE PUSH1 0x2 PUSH1 0x24 DUP3 ADD MSTORE PUSH2 0x463 PUSH1 0xF4 SHL PUSH1 0x44 DUP3 ADD MSTORE SWAP1 MLOAD SWAP1 DUP2 SWAP1 SUB PUSH1 0x64 ADD SWAP1 REVERT JUMPDEST DUP1 PUSH2 0x1B88 DUP5 DUP8 PUSH2 0x3D5C JUMP JUMPDEST GT ISZERO PUSH2 0x1BC0 JUMPI PUSH1 0x40 DUP1 MLOAD PUSH3 0x461BCD PUSH1 0xE5 SHL DUP2 MSTORE PUSH1 0x20 PUSH1 0x4 DUP3 ADD MSTORE PUSH1 0x2 PUSH1 0x24 DUP3 ADD MSTORE PUSH2 0x4631 PUSH1 0xF0 SHL PUSH1 0x44 DUP3 ADD MSTORE SWAP1 MLOAD SWAP1 DUP2 SWAP1 SUB PUSH1 0x64 ADD SWAP1 REVERT JUMPDEST DUP4 DUP3 SUB DUP4 DUP3 SUB DUP2 ISZERO PUSH2 0x1C4F JUMPI PUSH1 0x0 DUP1 SLOAD PUSH1 0x1 PUSH1 0xE8 SHL SWAP1 DIV PUSH1 0xF AND SWAP1 DUP2 ISZERO PUSH2 0x1BF3 JUMPI DUP2 PUSH1 0xFF AND DUP5 DUP2 PUSH2 0x1BED JUMPI INVALID JUMPDEST DIV PUSH2 0x1BF6 JUMP JUMPDEST PUSH1 0x0 JUMPDEST SWAP1 POP PUSH1 0x1 PUSH1 0x1 PUSH1 0x80 SHL SUB DUP2 AND ISZERO PUSH2 0x1C29 JUMPI PUSH1 0x3 DUP1 SLOAD PUSH1 0x1 PUSH1 0x1 PUSH1 0x80 SHL SUB DUP1 DUP3 AND DUP5 ADD AND PUSH1 0x1 PUSH1 0x1 PUSH1 0x80 SHL SUB NOT SWAP1 SWAP2 AND OR SWAP1 SSTORE JUMPDEST PUSH2 0x1C43 DUP2 DUP6 SUB PUSH1 0x1 PUSH1 0x80 SHL DUP14 PUSH1 0x1 PUSH1 0x1 PUSH1 0x80 SHL SUB AND PUSH2 0x324F JUMP JUMPDEST PUSH1 0x1 DUP1 SLOAD SWAP1 SWAP2 ADD SWAP1 SSTORE POP POP JUMPDEST DUP1 ISZERO PUSH2 0x1CDA JUMPI PUSH1 0x0 DUP1 SLOAD PUSH1 0x1 PUSH1 0xE8 SHL SWAP1 DIV PUSH1 0x4 SHR PUSH1 0xF AND SWAP1 DUP2 ISZERO PUSH2 0x1C7F JUMPI DUP2 PUSH1 0xFF AND DUP4 DUP2 PUSH2 0x1C79 JUMPI INVALID JUMPDEST DIV PUSH2 0x1C82 JUMP JUMPDEST PUSH1 0x0 JUMPDEST SWAP1 POP PUSH1 0x1 PUSH1 0x1 PUSH1 0x80 SHL SUB DUP2 AND ISZERO PUSH2 0x1CB4 JUMPI PUSH1 0x3 DUP1 SLOAD PUSH1 0x1 PUSH1 0x1 PUSH1 0x80 SHL SUB PUSH1 0x1 PUSH1 0x80 SHL DUP1 DUP4 DIV DUP3 AND DUP6 ADD DUP3 AND MUL SWAP2 AND OR SWAP1 SSTORE JUMPDEST PUSH2 0x1CCE DUP2 DUP5 SUB PUSH1 0x1 PUSH1 0x80 SHL DUP14 PUSH1 0x1 PUSH1 0x1 PUSH1 0x80 SHL SUB AND PUSH2 0x324F JUMP JUMPDEST PUSH1 0x2 DUP1 SLOAD SWAP1 SWAP2 ADD SWAP1 SSTORE POP POP JUMPDEST DUP14 PUSH1 0x1 PUSH1 0x1 PUSH1 0xA0 SHL SUB AND CALLER PUSH1 0x1 PUSH1 0x1 PUSH1 0xA0 SHL SUB AND PUSH32 0xBDBDB71D7860376BA52B25A5028BEEA23581364A40522F6BCFB86BB1F2DCA633 DUP16 DUP16 DUP7 DUP7 PUSH1 0x40 MLOAD DUP1 DUP6 DUP2 MSTORE PUSH1 0x20 ADD DUP5 DUP2 MSTORE PUSH1 0x20 ADD DUP4 DUP2 MSTORE PUSH1 0x20 ADD DUP3 DUP2 MSTORE PUSH1 0x20 ADD SWAP5 POP POP POP POP POP PUSH1 0x40 MLOAD DUP1 SWAP2 SUB SWAP1 LOG3 POP POP PUSH1 0x0 DUP1 SLOAD PUSH1 0xFF PUSH1 0xF0 SHL NOT AND PUSH1 0x1 PUSH1 0xF0 SHL OR SWAP1 SSTORE POP POP POP POP POP POP POP POP POP POP POP POP JUMP JUMPDEST PUSH1 0x0 DUP1 SLOAD DUP2 SWAP1 PUSH1 0x1 PUSH1 0xF0 SHL SWAP1 DIV PUSH1 0xFF AND PUSH2 0x1DA7 JUMPI PUSH1 0x40 DUP1 MLOAD PUSH3 0x461BCD PUSH1 0xE5 SHL DUP2 MSTORE PUSH1 0x20 PUSH1 0x4 DUP3 ADD MSTORE PUSH1 0x3 PUSH1 0x24 DUP3 ADD MSTORE PUSH3 0x4C4F4B PUSH1 0xE8 SHL PUSH1 0x44 DUP3 ADD MSTORE SWAP1 MLOAD SWAP1 DUP2 SWAP1 SUB PUSH1 0x64 ADD SWAP1 REVERT JUMPDEST PUSH1 0x0 DUP1 SLOAD PUSH1 0xFF PUSH1 0xF0 SHL NOT AND DUP2 SSTORE PUSH2 0x1DC1 PUSH1 0x7 CALLER DUP10 DUP10 PUSH2 0x4132 JUMP JUMPDEST PUSH1 0x3 DUP2 ADD SLOAD SWAP1 SWAP2 POP PUSH1 0x1 PUSH1 0x1 PUSH1 0x80 SHL SUB SWAP1 DUP2 AND SWAP1 DUP7 AND GT PUSH2 0x1DE2 JUMPI DUP5 PUSH2 0x1DF1 JUMP JUMPDEST PUSH1 0x3 DUP2 ADD SLOAD PUSH1 0x1 PUSH1 0x1 PUSH1 0x80 SHL SUB AND JUMPDEST PUSH1 0x3 DUP3 ADD SLOAD SWAP1 SWAP4 POP PUSH1 0x1 PUSH1 0x1 PUSH1 0x80 SHL SUB PUSH1 0x1 PUSH1 0x80 SHL SWAP1 SWAP2 DIV DUP2 AND SWAP1 DUP6 AND GT PUSH2 0x1E19 JUMPI DUP4 PUSH2 0x1E2F JUMP JUMPDEST PUSH1 0x3 DUP2 ADD SLOAD PUSH1 0x1 PUSH1 0x80 SHL SWAP1 DIV PUSH1 0x1 PUSH1 0x1 PUSH1 0x80 SHL SUB AND JUMPDEST SWAP2 POP PUSH1 0x1 PUSH1 0x1 PUSH1 0x80 SHL SUB DUP4 AND ISZERO PUSH2 0x1E94 JUMPI PUSH1 0x3 DUP2 ADD DUP1 SLOAD PUSH1 0x1 PUSH1 0x1 PUSH1 0x80 SHL SUB NOT DUP2 AND PUSH1 0x1 PUSH1 0x1 PUSH1 0x80 SHL SUB SWAP2 DUP3 AND DUP7 SWAP1 SUB DUP3 AND OR SWAP1 SWAP2 SSTORE PUSH2 0x1E94 SWAP1 PUSH32 0x0 SWAP1 DUP11 SWAP1 DUP7 AND PUSH2 0x3AD5 JUMP JUMPDEST PUSH1 0x1 PUSH1 0x1 PUSH1 0x80 SHL SUB DUP3 AND ISZERO PUSH2 0x1EFA JUMPI PUSH1 0x3 DUP2 ADD DUP1 SLOAD PUSH1 0x1 PUSH1 0x1 PUSH1 0x80 SHL SUB PUSH1 0x1 PUSH1 0x80 SHL DUP1 DUP4 DIV DUP3 AND DUP7 SWAP1 SUB DUP3 AND MUL SWAP2 DUP2 AND SWAP2 SWAP1 SWAP2 OR SWAP1 SWAP2 SSTORE PUSH2 0x1EFA SWAP1 PUSH32 0x0 SWAP1 DUP11 SWAP1 DUP6 AND PUSH2 0x3AD5 JUMP JUMPDEST PUSH1 0x40 DUP1 MLOAD PUSH1 0x1 PUSH1 0x1 PUSH1 0xA0 SHL SUB DUP11 AND DUP2 MSTORE PUSH1 0x1 PUSH1 0x1 PUSH1 0x80 SHL SUB DUP1 DUP7 AND PUSH1 0x20 DUP4 ADD MSTORE DUP5 AND DUP2 DUP4 ADD MSTORE SWAP1 MLOAD PUSH1 0x2 DUP9 DUP2 SIGNEXTEND SWAP3 SWAP1 DUP11 SWAP1 SIGNEXTEND SWAP2 CALLER SWAP2 PUSH32 0x70935338E69775456A85DDEF226C395FB668B63FA0115F5F20610B388E6CA9C0 SWAP2 SWAP1 DUP2 SWAP1 SUB PUSH1 0x60 ADD SWAP1 LOG4 POP PUSH1 0x0 DUP1 SLOAD PUSH1 0xFF PUSH1 0xF0 SHL NOT AND PUSH1 0x1 PUSH1 0xF0 SHL OR SWAP1 SSTORE SWAP1 SWAP7 SWAP1 SWAP6 POP SWAP4 POP POP POP POP JUMP JUMPDEST PUSH1 0x7 PUSH1 0x20 MSTORE PUSH1 0x0 SWAP1 DUP2 MSTORE PUSH1 0x40 SWAP1 KECCAK256 DUP1 SLOAD PUSH1 0x1 DUP3 ADD SLOAD PUSH1 0x2 DUP4 ADD SLOAD PUSH1 0x3 SWAP1 SWAP4 ADD SLOAD PUSH1 0x1 PUSH1 0x1 PUSH1 0x80 SHL SUB SWAP3 DUP4 AND SWAP4 SWAP2 SWAP3 DUP2 DUP2 AND SWAP2 PUSH1 0x1 PUSH1 0x80 SHL SWAP1 DIV AND DUP6 JUMP JUMPDEST PUSH1 0x6 PUSH1 0x20 MSTORE PUSH1 0x0 SWAP1 DUP2 MSTORE PUSH1 0x40 SWAP1 KECCAK256 SLOAD DUP2 JUMP JUMPDEST PUSH32 0x0 DUP2 JUMP JUMPDEST PUSH1 0x0 SLOAD PUSH1 0x1 PUSH1 0xF0 SHL SWAP1 DIV PUSH1 0xFF AND PUSH2 0x2031 JUMPI PUSH1 0x40 DUP1 MLOAD PUSH3 0x461BCD PUSH1 0xE5 SHL DUP2 MSTORE PUSH1 0x20 PUSH1 0x4 DUP3 ADD MSTORE PUSH1 0x3 PUSH1 0x24 DUP3 ADD MSTORE PUSH3 0x4C4F4B PUSH1 0xE8 SHL PUSH1 0x44 DUP3 ADD MSTORE SWAP1 MLOAD SWAP1 DUP2 SWAP1 SUB PUSH1 0x64 ADD SWAP1 REVERT JUMPDEST PUSH1 0x0 DUP1 SLOAD PUSH1 0xFF PUSH1 0xF0 SHL NOT AND SWAP1 SSTORE PUSH1 0x40 DUP1 MLOAD PUSH4 0x8DA5CB5B PUSH1 0xE0 SHL DUP2 MSTORE SWAP1 MLOAD PUSH1 0x1 PUSH1 0x1 PUSH1 0xA0 SHL SUB PUSH32 0x0 AND SWAP2 PUSH4 0x8DA5CB5B SWAP2 PUSH1 0x4 DUP1 DUP4 ADD SWAP3 PUSH1 0x20 SWAP3 SWAP2 SWAP1 DUP3 SWAP1 SUB ADD DUP2 DUP7 DUP1 EXTCODESIZE ISZERO DUP1 ISZERO PUSH2 0x209E JUMPI PUSH1 0x0 DUP1 REVERT JUMPDEST POP GAS STATICCALL ISZERO DUP1 ISZERO PUSH2 0x20B2 JUMPI RETURNDATASIZE PUSH1 0x0 DUP1 RETURNDATACOPY RETURNDATASIZE PUSH1 0x0 REVERT JUMPDEST POP POP POP POP PUSH1 0x40 MLOAD RETURNDATASIZE PUSH1 0x20 DUP2 LT ISZERO PUSH2 0x20C8 JUMPI PUSH1 0x0 DUP1 REVERT JUMPDEST POP MLOAD PUSH1 0x1 PUSH1 0x1 PUSH1 0xA0 SHL SUB AND CALLER EQ PUSH2 0x20DE JUMPI PUSH1 0x0 DUP1 REVERT JUMPDEST PUSH1 0xFF DUP3 AND ISZERO DUP1 PUSH2 0x2101 JUMPI POP PUSH1 0x4 DUP3 PUSH1 0xFF AND LT ISZERO DUP1 ISZERO PUSH2 0x2101 JUMPI POP PUSH1 0xA DUP3 PUSH1 0xFF AND GT ISZERO JUMPDEST DUP1 ISZERO PUSH2 0x212B JUMPI POP PUSH1 0xFF DUP2 AND ISZERO DUP1 PUSH2 0x212B JUMPI POP PUSH1 0x4 DUP2 PUSH1 0xFF AND LT ISZERO DUP1 ISZERO PUSH2 0x212B JUMPI POP PUSH1 0xA DUP2 PUSH1 0xFF AND GT ISZERO JUMPDEST PUSH2 0x2134 JUMPI PUSH1 0x0 DUP1 REVERT JUMPDEST PUSH1 0x0 DUP1 SLOAD PUSH2 0xFF0 PUSH1 0x4 DUP5 SWAP1 SHL AND DUP5 ADD PUSH1 0xFF SWAP1 DUP2 AND PUSH1 0x1 PUSH1 0xE8 SHL SWAP1 DUP2 MUL PUSH1 0xFF PUSH1 0xE8 SHL NOT DUP5 AND OR SWAP1 SWAP4 SSTORE SWAP2 SWAP1 DIV AND PUSH32 0x973D8D92BB299F4AF6CE49B52A8ADB85AE46B9F214C4C4FC06AC77401237B133 PUSH1 0x10 DUP3 PUSH1 0x40 DUP1 MLOAD PUSH1 0xFF SWAP4 SWAP1 SWAP3 MOD DUP4 AND DUP3 MSTORE PUSH1 0xF PUSH1 0x4 DUP7 SWAP1 SHR AND PUSH1 0x20 DUP4 ADD MSTORE DUP7 DUP4 AND DUP3 DUP3 ADD MSTORE SWAP2 DUP6 AND PUSH1 0x60 DUP3 ADD MSTORE SWAP1 MLOAD SWAP1 DUP2 SWAP1 SUB PUSH1 0x80 ADD SWAP1 LOG1 POP POP PUSH1 0x0 DUP1 SLOAD PUSH1 0xFF PUSH1 0xF0 SHL NOT AND PUSH1 0x1 PUSH1 0xF0 SHL OR SWAP1 SSTORE POP JUMP JUMPDEST PUSH1 0x0 DUP1 SLOAD DUP2 SWAP1 PUSH1 0x1 PUSH1 0xF0 SHL SWAP1 DIV PUSH1 0xFF AND PUSH2 0x2218 JUMPI PUSH1 0x40 DUP1 MLOAD PUSH3 0x461BCD PUSH1 0xE5 SHL DUP2 MSTORE PUSH1 0x20 PUSH1 0x4 DUP3 ADD MSTORE PUSH1 0x3 PUSH1 0x24 DUP3 ADD MSTORE PUSH3 0x4C4F4B PUSH1 0xE8 SHL PUSH1 0x44 DUP3 ADD MSTORE SWAP1 MLOAD SWAP1 DUP2 SWAP1 SUB PUSH1 0x64 ADD SWAP1 REVERT JUMPDEST PUSH1 0x0 DUP1 SLOAD PUSH1 0xFF PUSH1 0xF0 SHL NOT AND SWAP1 SSTORE PUSH1 0x40 DUP1 MLOAD PUSH4 0x8DA5CB5B PUSH1 0xE0 SHL DUP2 MSTORE SWAP1 MLOAD PUSH1 0x1 PUSH1 0x1 PUSH1 0xA0 SHL SUB PUSH32 0x0 AND SWAP2 PUSH4 0x8DA5CB5B SWAP2 PUSH1 0x4 DUP1 DUP4 ADD SWAP3 PUSH1 0x20 SWAP3 SWAP2 SWAP1 DUP3 SWAP1 SUB ADD DUP2 DUP7 DUP1 EXTCODESIZE ISZERO DUP1 ISZERO PUSH2 0x2285 JUMPI PUSH1 0x0 DUP1 REVERT JUMPDEST POP GAS STATICCALL ISZERO DUP1 ISZERO PUSH2 0x2299 JUMPI RETURNDATASIZE PUSH1 0x0 DUP1 RETURNDATACOPY RETURNDATASIZE PUSH1 0x0 REVERT JUMPDEST POP POP POP POP PUSH1 0x40 MLOAD RETURNDATASIZE PUSH1 0x20 DUP2 LT ISZERO PUSH2 0x22AF JUMPI PUSH1 0x0 DUP1 REVERT JUMPDEST POP MLOAD PUSH1 0x1 PUSH1 0x1 PUSH1 0xA0 SHL SUB AND CALLER EQ PUSH2 0x22C5 JUMPI PUSH1 0x0 DUP1 REVERT JUMPDEST PUSH1 0x3 SLOAD PUSH1 0x1 PUSH1 0x1 PUSH1 0x80 SHL SUB SWAP1 DUP2 AND SWAP1 DUP6 AND GT PUSH2 0x22E1 JUMPI DUP4 PUSH2 0x22EE JUMP JUMPDEST PUSH1 0x3 SLOAD PUSH1 0x1 PUSH1 0x1 PUSH1 0x80 SHL SUB AND JUMPDEST PUSH1 0x3 SLOAD SWAP1 SWAP3 POP PUSH1 0x1 PUSH1 0x1 PUSH1 0x80 SHL SUB PUSH1 0x1 PUSH1 0x80 SHL SWAP1 SWAP2 DIV DUP2 AND SWAP1 DUP5 AND GT PUSH2 0x2314 JUMPI DUP3 PUSH2 0x2328 JUMP JUMPDEST PUSH1 0x3 SLOAD PUSH1 0x1 PUSH1 0x80 SHL SWAP1 DIV PUSH1 0x1 PUSH1 0x1 PUSH1 0x80 SHL SUB AND JUMPDEST SWAP1 POP PUSH1 0x1 PUSH1 0x1 PUSH1 0x80 SHL SUB DUP3 AND ISZERO PUSH2 0x23A9 JUMPI PUSH1 0x3 SLOAD PUSH1 0x1 PUSH1 0x1 PUSH1 0x80 SHL SUB DUP4 DUP2 AND SWAP2 AND EQ ISZERO PUSH2 0x2357 JUMPI PUSH1 0x0 NOT SWAP1 SWAP2 ADD SWAP1 JUMPDEST PUSH1 0x3 DUP1 SLOAD PUSH1 0x1 PUSH1 0x1 PUSH1 0x80 SHL SUB NOT DUP2 AND PUSH1 0x1 PUSH1 0x1 PUSH1 0x80 SHL SUB SWAP2 DUP3 AND DUP6 SWAP1 SUB DUP3 AND OR SWAP1 SWAP2 SSTORE PUSH2 0x23A9 SWAP1 PUSH32 0x0 SWAP1 DUP8 SWAP1 DUP6 AND PUSH2 0x3AD5 JUMP JUMPDEST PUSH1 0x1 PUSH1 0x1 PUSH1 0x80 SHL SUB DUP2 AND ISZERO PUSH2 0x242F JUMPI PUSH1 0x3 SLOAD PUSH1 0x1 PUSH1 0x1 PUSH1 0x80 SHL SUB DUP3 DUP2 AND PUSH1 0x1 PUSH1 0x80 SHL SWAP1 SWAP3 DIV AND EQ ISZERO PUSH2 0x23DA JUMPI PUSH1 0x0 NOT ADD JUMPDEST PUSH1 0x3 DUP1 SLOAD PUSH1 0x1 PUSH1 0x1 PUSH1 0x80 SHL SUB PUSH1 0x1 PUSH1 0x80 SHL DUP1 DUP4 DIV DUP3 AND DUP6 SWAP1 SUB DUP3 AND MUL SWAP2 DUP2 AND SWAP2 SWAP1 SWAP2 OR SWAP1 SWAP2 SSTORE PUSH2 0x242F SWAP1 PUSH32 0x0 SWAP1 DUP8 SWAP1 DUP5 AND PUSH2 0x3AD5 JUMP JUMPDEST PUSH1 0x40 DUP1 MLOAD PUSH1 0x1 PUSH1 0x1 PUSH1 0x80 SHL SUB DUP1 DUP6 AND DUP3 MSTORE DUP4 AND PUSH1 0x20 DUP3 ADD MSTORE DUP2 MLOAD PUSH1 0x1 PUSH1 0x1 PUSH1 0xA0 SHL SUB DUP9 AND SWAP3 CALLER SWAP3 PUSH32 0x596B573906218D3411850B26A6B437D6C4522FDB43D2D2386263F86D50B8B151 SWAP3 SWAP1 DUP2 SWAP1 SUB SWAP1 SWAP2 ADD SWAP1 LOG3 PUSH1 0x0 DUP1 SLOAD PUSH1 0xFF PUSH1 0xF0 SHL NOT AND PUSH1 0x1 PUSH1 0xF0 SHL OR SWAP1 SSTORE SWAP1 SWAP5 SWAP1 SWAP4 POP SWAP2 POP POP JUMP JUMPDEST PUSH1 0x60 DUP1 PUSH2 0x24A9 PUSH2 0x2B67 JUMP JUMPDEST PUSH2 0x2520 PUSH2 0x24B4 PUSH2 0x2B9E JUMP JUMPDEST DUP6 DUP6 DUP1 DUP1 PUSH1 0x20 MUL PUSH1 0x20 ADD PUSH1 0x40 MLOAD SWAP1 DUP2 ADD PUSH1 0x40 MSTORE DUP1 SWAP4 SWAP3 SWAP2 SWAP1 DUP2 DUP2 MSTORE PUSH1 0x20 ADD DUP4 DUP4 PUSH1 0x20 MUL DUP1 DUP3 DUP5 CALLDATACOPY PUSH1 0x0 SWAP3 ADD DUP3 SWAP1 MSTORE POP SLOAD PUSH1 0x4 SLOAD PUSH1 0x8 SWAP7 SWAP6 SWAP5 POP PUSH1 0x1 PUSH1 0xA0 SHL DUP3 DIV PUSH1 0x2 SIGNEXTEND SWAP4 POP PUSH2 0xFFFF PUSH1 0x1 PUSH1 0xB8 SHL DUP4 DIV DUP2 AND SWAP4 POP PUSH1 0x1 PUSH1 0x1 PUSH1 0x80 SHL SUB SWAP1 SWAP2 AND SWAP2 PUSH1 0x1 PUSH1 0xC8 SHL SWAP1 DIV AND PUSH2 0x4196 JUMP JUMPDEST SWAP2 POP SWAP2 POP SWAP3 POP SWAP3 SWAP1 POP JUMP JUMPDEST PUSH1 0x0 DUP1 SLOAD DUP2 SWAP1 PUSH1 0x1 PUSH1 0xF0 SHL SWAP1 DIV PUSH1 0xFF AND PUSH2 0x2572 JUMPI PUSH1 0x40 DUP1 MLOAD PUSH3 0x461BCD PUSH1 0xE5 SHL DUP2 MSTORE PUSH1 0x20 PUSH1 0x4 DUP3 ADD MSTORE PUSH1 0x3 PUSH1 0x24 DUP3 ADD MSTORE PUSH3 0x4C4F4B PUSH1 0xE8 SHL PUSH1 0x44 DUP3 ADD MSTORE SWAP1 MLOAD SWAP1 DUP2 SWAP1 SUB PUSH1 0x64 ADD SWAP1 REVERT JUMPDEST PUSH1 0x0 DUP1 SLOAD PUSH1 0xFF PUSH1 0xF0 SHL NOT AND DUP2 SSTORE PUSH1 0x40 DUP1 MLOAD PUSH1 0x80 DUP2 ADD DUP3 MSTORE CALLER DUP2 MSTORE PUSH1 0x2 DUP9 DUP2 SIGNEXTEND PUSH1 0x20 DUP4 ADD MSTORE DUP8 SWAP1 SIGNEXTEND SWAP2 DUP2 ADD SWAP2 SWAP1 SWAP2 MSTORE DUP2 SWAP1 DUP2 SWAP1 PUSH2 0x25CB SWAP1 PUSH1 0x60 DUP2 ADD PUSH2 0x25BE PUSH1 0x1 PUSH1 0x1 PUSH1 0x80 SHL SUB DUP11 AND PUSH2 0x3EA7 JUMP JUMPDEST PUSH1 0x0 SUB PUSH1 0xF SIGNEXTEND SWAP1 MSTORE PUSH2 0x3EB8 JUMP JUMPDEST SWAP3 POP SWAP3 POP SWAP3 POP DUP2 PUSH1 0x0 SUB SWAP5 POP DUP1 PUSH1 0x0 SUB SWAP4 POP PUSH1 0x0 DUP6 GT DUP1 PUSH2 0x25EC JUMPI POP PUSH1 0x0 DUP5 GT JUMPDEST ISZERO PUSH2 0x262B JUMPI PUSH1 0x3 DUP4 ADD DUP1 SLOAD PUSH1 0x1 PUSH1 0x1 PUSH1 0x80 SHL SUB DUP1 DUP3 AND DUP1 DUP10 ADD DUP3 AND PUSH1 0x1 PUSH1 0x80 SHL SWAP4 DUP5 SWAP1 DIV DUP4 AND DUP10 ADD SWAP1 SWAP3 AND SWAP1 SWAP3 MUL SWAP1 SWAP2 OR PUSH1 0x1 PUSH1 0x1 PUSH1 0x80 SHL SUB NOT AND OR SWAP1 SSTORE JUMPDEST PUSH1 0x40 DUP1 MLOAD PUSH1 0x1 PUSH1 0x1 PUSH1 0x80 SHL SUB DUP9 AND DUP2 MSTORE PUSH1 0x20 DUP2 ADD DUP8 SWAP1 MSTORE DUP1 DUP3 ADD DUP7 SWAP1 MSTORE SWAP1 MLOAD PUSH1 0x2 DUP10 DUP2 SIGNEXTEND SWAP3 SWAP1 DUP12 SWAP1 SIGNEXTEND SWAP2 CALLER SWAP2 PUSH32 0xC396CD989A39F4459B5FA1AED6A9A8DCDBC45908ACFD67E028CD568DA98982C SWAP2 SWAP1 DUP2 SWAP1 SUB PUSH1 0x60 ADD SWAP1 LOG4 POP POP PUSH1 0x0 DUP1 SLOAD PUSH1 0xFF PUSH1 0xF0 SHL NOT AND PUSH1 0x1 PUSH1 0xF0 SHL OR SWAP1 SSTORE POP SWAP1 SWAP5 SWAP1 SWAP4 POP SWAP2 POP POP JUMP JUMPDEST PUSH1 0x0 DUP1 PUSH1 0x0 PUSH2 0x26AF PUSH2 0x2B67 JUMP JUMPDEST PUSH2 0x26B9 DUP6 DUP6 PUSH2 0x42F0 JUMP JUMPDEST PUSH1 0x2 DUP6 DUP2 SIGNEXTEND DUP2 SIGNEXTEND PUSH1 0x0 SWAP1 DUP2 MSTORE PUSH1 0x5 PUSH1 0x20 MSTORE PUSH1 0x40 DUP1 DUP3 KECCAK256 DUP8 DUP5 SIGNEXTEND SWAP1 SWAP4 SIGNEXTEND DUP3 MSTORE DUP2 KECCAK256 PUSH1 0x3 DUP4 ADD SLOAD PUSH1 0x6 DUP2 SWAP1 SIGNEXTEND SWAP4 PUSH1 0x1 PUSH1 0x38 SHL DUP3 DIV PUSH1 0x1 PUSH1 0x1 PUSH1 0xA0 SHL SUB AND SWAP3 DUP5 SWAP3 PUSH1 0x1 PUSH1 0xD8 SHL DUP2 DIV PUSH4 0xFFFFFFFF AND SWAP3 DUP5 SWAP3 SWAP1 SWAP2 PUSH1 0x1 PUSH1 0xF8 SHL SWAP1 DIV PUSH1 0xFF AND DUP1 PUSH2 0x271D JUMPI PUSH1 0x0 DUP1 REVERT JUMPDEST PUSH1 0x3 DUP3 ADD SLOAD PUSH1 0x6 DUP2 SWAP1 SIGNEXTEND SWAP9 POP PUSH1 0x1 PUSH1 0x38 SHL DUP2 DIV PUSH1 0x1 PUSH1 0x1 PUSH1 0xA0 SHL SUB AND SWAP7 POP PUSH1 0x1 PUSH1 0xD8 SHL DUP2 DIV PUSH4 0xFFFFFFFF AND SWAP5 POP PUSH1 0x1 PUSH1 0xF8 SHL SWAP1 DIV PUSH1 0xFF AND DUP1 PUSH2 0x275E JUMPI PUSH1 0x0 DUP1 REVERT JUMPDEST POP POP PUSH1 0x40 DUP1 MLOAD PUSH1 0xE0 DUP2 ADD DUP3 MSTORE PUSH1 0x0 SLOAD PUSH1 0x1 PUSH1 0x1 PUSH1 0xA0 SHL SUB DUP2 AND DUP3 MSTORE PUSH1 0x1 PUSH1 0xA0 SHL DUP2 DIV PUSH1 0x2 SWAP1 DUP2 SIGNEXTEND DUP2 SIGNEXTEND DUP2 SIGNEXTEND PUSH1 0x20 DUP5 ADD DUP2 SWAP1 MSTORE PUSH2 0xFFFF PUSH1 0x1 PUSH1 0xB8 SHL DUP5 DIV DUP2 AND SWAP6 DUP6 ADD SWAP6 SWAP1 SWAP6 MSTORE PUSH1 0x1 PUSH1 0xC8 SHL DUP4 DIV DUP6 AND PUSH1 0x60 DUP6 ADD MSTORE PUSH1 0x1 PUSH1 0xD8 SHL DUP4 DIV SWAP1 SWAP5 AND PUSH1 0x80 DUP5 ADD MSTORE PUSH1 0xFF PUSH1 0x1 PUSH1 0xE8 SHL DUP4 DIV DUP2 AND PUSH1 0xA0 DUP6 ADD MSTORE PUSH1 0x1 PUSH1 0xF0 SHL SWAP1 SWAP3 DIV SWAP1 SWAP2 AND ISZERO ISZERO PUSH1 0xC0 DUP4 ADD MSTORE SWAP1 SWAP4 POP DUP15 DUP2 SIGNEXTEND SWAP2 SWAP1 SIGNEXTEND SLT ISZERO SWAP1 POP PUSH2 0x2807 JUMPI POP SWAP4 SWAP1 SWAP5 SUB SWAP7 POP SWAP1 SUB SWAP4 POP SWAP1 SUB SWAP1 POP PUSH2 0x288A JUMP JUMPDEST DUP11 PUSH1 0x2 SIGNEXTEND DUP2 PUSH1 0x20 ADD MLOAD PUSH1 0x2 SIGNEXTEND SLT ISZERO PUSH2 0x287B JUMPI PUSH1 0x0 PUSH2 0x2823 PUSH2 0x2B9E JUMP JUMPDEST PUSH1 0x20 DUP4 ADD MLOAD PUSH1 0x40 DUP5 ADD MLOAD PUSH1 0x4 SLOAD PUSH1 0x60 DUP7 ADD MLOAD SWAP4 SWAP5 POP PUSH1 0x0 SWAP4 DUP5 SWAP4 PUSH2 0x2859 SWAP4 PUSH1 0x8 SWAP4 DUP9 SWAP4 DUP8 SWAP4 SWAP3 SWAP2 PUSH1 0x1 PUSH1 0x1 PUSH1 0x80 SHL SUB AND SWAP1 PUSH2 0x32FF JUMP JUMPDEST SWAP11 SWAP1 SUB SWAP9 SWAP1 SWAP9 SUB SWAP12 POP POP SWAP5 SWAP1 SWAP7 SUB SWAP3 SWAP1 SWAP3 SUB SWAP7 POP SWAP1 SWAP2 SUB SUB SWAP3 POP PUSH2 0x288A SWAP2 POP POP JUMP JUMPDEST POP SWAP5 SWAP1 SWAP4 SUB SWAP7 POP SUB SWAP4 POP SWAP1 SUB SWAP1 POP JUMPDEST SWAP3 POP SWAP3 POP SWAP3 JUMP JUMPDEST PUSH32 0x0 DUP2 JUMP JUMPDEST PUSH32 0x0 DUP2 JUMP JUMPDEST PUSH32 0x0 DUP2 JUMP JUMPDEST PUSH32 0x0 DUP2 JUMP JUMPDEST PUSH1 0x1 SLOAD DUP2 JUMP JUMPDEST PUSH1 0x5 PUSH1 0x20 MSTORE PUSH1 0x0 SWAP1 DUP2 MSTORE PUSH1 0x40 SWAP1 KECCAK256 DUP1 SLOAD PUSH1 0x1 DUP3 ADD SLOAD PUSH1 0x2 DUP4 ADD SLOAD PUSH1 0x3 SWAP1 SWAP4 ADD SLOAD PUSH1 0x1 PUSH1 0x1 PUSH1 0x80 SHL SUB DUP4 AND SWAP4 PUSH1 0x1 PUSH1 0x80 SHL SWAP1 SWAP4 DIV PUSH1 0xF SIGNEXTEND SWAP3 SWAP1 PUSH1 0x6 DUP2 SWAP1 SIGNEXTEND SWAP1 PUSH1 0x1 PUSH1 0x38 SHL DUP2 DIV PUSH1 0x1 PUSH1 0x1 PUSH1 0xA0 SHL SUB AND SWAP1 PUSH1 0x1 PUSH1 0xD8 SHL DUP2 DIV PUSH4 0xFFFFFFFF AND SWAP1 PUSH1 0x1 PUSH1 0xF8 SHL SWAP1 DIV PUSH1 0xFF AND DUP9 JUMP JUMPDEST PUSH1 0x0 SLOAD PUSH1 0x1 PUSH1 0x1 PUSH1 0xA0 SHL SUB AND ISZERO PUSH2 0x29D4 JUMPI PUSH1 0x40 DUP1 MLOAD PUSH3 0x461BCD PUSH1 0xE5 SHL DUP2 MSTORE PUSH1 0x20 PUSH1 0x4 DUP3 ADD MSTORE PUSH1 0x2 PUSH1 0x24 DUP3 ADD MSTORE PUSH2 0x4149 PUSH1 0xF0 SHL PUSH1 0x44 DUP3 ADD MSTORE SWAP1 MLOAD SWAP1 DUP2 SWAP1 SUB PUSH1 0x64 ADD SWAP1 REVERT JUMPDEST PUSH1 0x0 PUSH2 0x29DF DUP3 PUSH2 0x3612 JUMP JUMPDEST SWAP1 POP PUSH1 0x0 DUP1 PUSH2 0x29F7 PUSH2 0x29EF PUSH2 0x2B9E JUMP JUMPDEST PUSH1 0x8 SWAP1 PUSH2 0x43B9 JUMP JUMPDEST PUSH1 0x40 DUP1 MLOAD PUSH1 0xE0 DUP2 ADD DUP3 MSTORE PUSH1 0x1 PUSH1 0x1 PUSH1 0xA0 SHL SUB DUP9 AND DUP1 DUP3 MSTORE PUSH1 0x2 DUP9 DUP2 SIGNEXTEND PUSH1 0x20 DUP1 DUP6 ADD DUP3 SWAP1 MSTORE PUSH1 0x0 DUP6 DUP8 ADD DUP2 SWAP1 MSTORE PUSH2 0xFFFF DUP10 DUP2 AND PUSH1 0x60 DUP9 ADD DUP2 SWAP1 MSTORE SWAP1 DUP10 AND PUSH1 0x80 DUP9 ADD DUP2 SWAP1 MSTORE PUSH1 0xA0 DUP9 ADD DUP4 SWAP1 MSTORE PUSH1 0x1 PUSH1 0xC0 SWAP1 SWAP9 ADD SWAP8 SWAP1 SWAP8 MSTORE DUP2 SLOAD PUSH1 0x1 PUSH1 0xF0 SHL PUSH1 0x1 PUSH1 0x1 PUSH1 0xA0 SHL SUB NOT SWAP1 SWAP2 AND DUP8 OR PUSH3 0xFFFFFF PUSH1 0xA0 SHL NOT AND PUSH1 0x1 PUSH1 0xA0 SHL PUSH3 0xFFFFFF SWAP8 DUP8 SWAP1 SIGNEXTEND SWAP8 SWAP1 SWAP8 AND SWAP7 SWAP1 SWAP7 MUL SWAP6 SWAP1 SWAP6 OR PUSH4 0xFFFFFFFF PUSH1 0xB8 SHL NOT AND PUSH1 0x1 PUSH1 0xC8 SHL SWAP1 SWAP2 MUL OR PUSH2 0xFFFF PUSH1 0xD8 SHL NOT AND PUSH1 0x1 PUSH1 0xD8 SHL SWAP1 SWAP7 MUL SWAP6 SWAP1 SWAP6 OR PUSH2 0xFFFF PUSH1 0xE8 SHL NOT AND SWAP3 SWAP1 SWAP3 OR SWAP1 SWAP4 SSTORE DUP4 MLOAD SWAP2 DUP3 MSTORE DUP2 ADD SWAP2 SWAP1 SWAP2 MSTORE DUP2 MLOAD SWAP4 SWAP6 POP SWAP2 SWAP4 POP PUSH32 0x98636036CB66A9C19A37435EFC1E90142190214E8ABEB821BDBA3F2990DD4C95 SWAP3 SWAP2 DUP3 SWAP1 SUB ADD SWAP1 LOG1 POP POP POP POP JUMP JUMPDEST PUSH1 0x0 DUP1 DUP3 PUSH1 0x2 DUP2 SWAP1 SIGNEXTEND PUSH3 0xD89E7 NOT DUP2 PUSH2 0x2B10 JUMPI INVALID JUMPDEST SDIV MUL SWAP1 POP PUSH1 0x0 DUP4 PUSH1 0x2 DUP2 SWAP1 SIGNEXTEND PUSH3 0xD89E8 DUP2 PUSH2 0x2B27 JUMPI INVALID JUMPDEST SDIV MUL SWAP1 POP PUSH1 0x0 DUP5 PUSH1 0x2 SIGNEXTEND DUP4 DUP4 SUB PUSH1 0x2 SIGNEXTEND DUP2 PUSH2 0x2B3E JUMPI INVALID JUMPDEST SDIV PUSH1 0x1 ADD SWAP1 POP DUP1 PUSH3 0xFFFFFF AND PUSH1 0x1 PUSH1 0x1 PUSH1 0x80 SHL SUB DUP1 AND DUP2 PUSH2 0x2B5B JUMPI INVALID JUMPDEST DIV SWAP4 POP POP POP POP JUMPDEST SWAP2 SWAP1 POP JUMP JUMPDEST ADDRESS PUSH1 0x1 PUSH1 0x1 PUSH1 0xA0 SHL SUB PUSH32 0x0 AND EQ PUSH2 0x2B9C JUMPI PUSH1 0x0 DUP1 REVERT JUMPDEST JUMP JUMPDEST TIMESTAMP SWAP1 JUMP JUMPDEST PUSH1 0x0 DUP1 PUSH1 0x0 DUP5 PUSH1 0x2 SIGNEXTEND DUP7 PUSH1 0x2 SIGNEXTEND DUP2 PUSH2 0x2BB6 JUMPI INVALID JUMPDEST SDIV SWAP1 POP PUSH1 0x0 DUP7 PUSH1 0x2 SIGNEXTEND SLT DUP1 ISZERO PUSH2 0x2BDD JUMPI POP DUP5 PUSH1 0x2 SIGNEXTEND DUP7 PUSH1 0x2 SIGNEXTEND DUP2 PUSH2 0x2BD6 JUMPI INVALID JUMPDEST SMOD PUSH1 0x2 SIGNEXTEND ISZERO ISZERO JUMPDEST ISZERO PUSH2 0x2BE7 JUMPI PUSH1 0x0 NOT ADD JUMPDEST DUP4 ISZERO PUSH2 0x2C5C JUMPI PUSH1 0x0 DUP1 PUSH2 0x2BF9 DUP4 PUSH2 0x4405 JUMP JUMPDEST PUSH1 0x1 DUP3 DUP2 SIGNEXTEND DUP2 SIGNEXTEND PUSH1 0x0 SWAP1 DUP2 MSTORE PUSH1 0x20 DUP14 SWAP1 MSTORE PUSH1 0x40 SWAP1 KECCAK256 SLOAD PUSH1 0xFF DUP4 AND SWAP2 SWAP1 SWAP2 SHL DUP1 ADD PUSH1 0x0 NOT ADD SWAP1 DUP2 AND DUP1 ISZERO ISZERO SWAP8 POP SWAP3 SWAP5 POP SWAP1 SWAP3 POP SWAP1 DUP6 PUSH2 0x2C3E JUMPI DUP9 DUP4 PUSH1 0xFF AND DUP7 SUB MUL PUSH2 0x2C51 JUMP JUMPDEST DUP9 PUSH2 0x2C48 DUP3 PUSH2 0x4417 JUMP JUMPDEST DUP5 SUB PUSH1 0xFF AND DUP7 SUB MUL JUMPDEST SWAP7 POP POP POP POP POP PUSH2 0x2CDA JUMP JUMPDEST PUSH1 0x0 DUP1 PUSH2 0x2C6B DUP4 PUSH1 0x1 ADD PUSH2 0x4405 JUMP JUMPDEST SWAP2 POP SWAP2 POP PUSH1 0x0 PUSH1 0x1 DUP3 PUSH1 0xFF AND PUSH1 0x1 SWAP1 SHL SUB NOT SWAP1 POP PUSH1 0x0 DUP2 DUP12 PUSH1 0x0 DUP7 PUSH1 0x1 SIGNEXTEND PUSH1 0x1 SIGNEXTEND DUP2 MSTORE PUSH1 0x20 ADD SWAP1 DUP2 MSTORE PUSH1 0x20 ADD PUSH1 0x0 KECCAK256 SLOAD AND SWAP1 POP DUP1 PUSH1 0x0 EQ ISZERO SWAP6 POP DUP6 PUSH2 0x2CBD JUMPI DUP9 DUP4 PUSH1 0xFF SUB PUSH1 0xFF AND DUP7 PUSH1 0x1 ADD ADD MUL PUSH2 0x2CD3 JUMP JUMPDEST DUP9 DUP4 PUSH2 0x2CC8 DUP4 PUSH2 0x44B6 JUMP JUMPDEST SUB PUSH1 0xFF AND DUP7 PUSH1 0x1 ADD ADD MUL JUMPDEST SWAP7 POP POP POP POP POP JUMPDEST POP SWAP5 POP SWAP5 SWAP3 POP POP POP JUMP JUMPDEST PUSH1 0x0 DUP1 PUSH1 0x0 DUP4 PUSH1 0x2 SIGNEXTEND SLT PUSH2 0x2CFB JUMPI DUP3 PUSH1 0x2 SIGNEXTEND PUSH2 0x2D03 JUMP JUMPDEST DUP3 PUSH1 0x2 SIGNEXTEND PUSH1 0x0 SUB JUMPDEST SWAP1 POP PUSH3 0xD89E8 DUP2 GT ISZERO PUSH2 0x2D41 JUMPI PUSH1 0x40 DUP1 MLOAD PUSH3 0x461BCD PUSH1 0xE5 SHL DUP2 MSTORE PUSH1 0x20 PUSH1 0x4 DUP3 ADD MSTORE PUSH1 0x1 PUSH1 0x24 DUP3 ADD MSTORE PUSH1 0x15 PUSH1 0xFA SHL PUSH1 0x44 DUP3 ADD MSTORE SWAP1 MLOAD SWAP1 DUP2 SWAP1 SUB PUSH1 0x64 ADD SWAP1 REVERT JUMPDEST PUSH1 0x0 PUSH1 0x1 DUP3 AND PUSH2 0x2D55 JUMPI PUSH1 0x1 PUSH1 0x80 SHL PUSH2 0x2D67 JUMP JUMPDEST PUSH16 0xFFFCB933BD6FAD37AA2D162D1A594001 JUMPDEST PUSH17 0xFFFFFFFFFFFFFFFFFFFFFFFFFFFFFFFFFF AND SWAP1 POP PUSH1 0x2 DUP3 AND ISZERO PUSH2 0x2D9B JUMPI PUSH16 0xFFF97272373D413259A46990580E213A MUL PUSH1 0x80 SHR JUMPDEST PUSH1 0x4 DUP3 AND ISZERO PUSH2 0x2DBA JUMPI PUSH16 0xFFF2E50F5F656932EF12357CF3C7FDCC MUL PUSH1 0x80 SHR JUMPDEST PUSH1 0x8 DUP3 AND ISZERO PUSH2 0x2DD9 JUMPI PUSH16 0xFFE5CACA7E10E4E61C3624EAA0941CD0 MUL PUSH1 0x80 SHR JUMPDEST PUSH1 0x10 DUP3 AND ISZERO PUSH2 0x2DF8 JUMPI PUSH16 0xFFCB9843D60F6159C9DB58835C926644 MUL PUSH1 0x80 SHR JUMPDEST PUSH1 0x20 DUP3 AND ISZERO PUSH2 0x2E17 JUMPI PUSH16 0xFF973B41FA98C081472E6896DFB254C0 MUL PUSH1 0x80 SHR JUMPDEST PUSH1 0x40 DUP3 AND ISZERO PUSH2 0x2E36 JUMPI PUSH16 0xFF2EA16466C96A3843EC78B326B52861 MUL PUSH1 0x80 SHR JUMPDEST PUSH1 0x80 DUP3 AND ISZERO PUSH2 0x2E55 JUMPI PUSH16 0xFE5DEE046A99A2A811C461F1969C3053 MUL PUSH1 0x80 SHR JUMPDEST PUSH2 0x100 DUP3 AND ISZERO PUSH2 0x2E75 JUMPI PUSH16 0xFCBE86C7900A88AEDCFFC83B479AA3A4 MUL PUSH1 0x80 SHR JUMPDEST PUSH2 0x200 DUP3 AND ISZERO PUSH2 0x2E95 JUMPI PUSH16 0xF987A7253AC413176F2B074CF7815E54 MUL PUSH1 0x80 SHR JUMPDEST PUSH2 0x400 DUP3 AND ISZERO PUSH2 0x2EB5 JUMPI PUSH16 0xF3392B0822B70005940C7A398E4B70F3 MUL PUSH1 0x80 SHR JUMPDEST PUSH2 0x800 DUP3 AND ISZERO PUSH2 0x2ED5 JUMPI PUSH16 0xE7159475A2C29B7443B29C7FA6E889D9 MUL PUSH1 0x80 SHR JUMPDEST PUSH2 0x1000 DUP3 AND ISZERO PUSH2 0x2EF5 JUMPI PUSH16 0xD097F3BDFD2022B8845AD8F792AA5825 MUL PUSH1 0x80 SHR JUMPDEST PUSH2 0x2000 DUP3 AND ISZERO PUSH2 0x2F15 JUMPI PUSH16 0xA9F746462D870FDF8A65DC1F90E061E5 MUL PUSH1 0x80 SHR JUMPDEST PUSH2 0x4000 DUP3 AND ISZERO PUSH2 0x2F35 JUMPI PUSH16 0x70D869A156D2A1B890BB3DF62BAF32F7 MUL PUSH1 0x80 SHR JUMPDEST PUSH2 0x8000 DUP3 AND ISZERO PUSH2 0x2F55 JUMPI PUSH16 0x31BE135F97D08FD981231505542FCFA6 MUL PUSH1 0x80 SHR JUMPDEST PUSH3 0x10000 DUP3 AND ISZERO PUSH2 0x2F76 JUMPI PUSH16 0x9AA508B5B7A84E1C677DE54F3E99BC9 MUL PUSH1 0x80 SHR JUMPDEST PUSH3 0x20000 DUP3 AND ISZERO PUSH2 0x2F96 JUMPI PUSH15 0x5D6AF8DEDB81196699C329225EE604 MUL PUSH1 0x80 SHR JUMPDEST PUSH3 0x40000 DUP3 AND ISZERO PUSH2 0x2FB5 JUMPI PUSH14 0x2216E584F5FA1EA926041BEDFE98 MUL PUSH1 0x80 SHR JUMPDEST PUSH3 0x80000 DUP3 AND ISZERO PUSH2 0x2FD2 JUMPI PUSH12 0x48A170391F7DC42444E8FA2 MUL PUSH1 0x80 SHR JUMPDEST PUSH1 0x0 DUP5 PUSH1 0x2 SIGNEXTEND SGT ISZERO PUSH2 0x2FED JUMPI DUP1 PUSH1 0x0 NOT DUP2 PUSH2 0x2FE9 JUMPI INVALID JUMPDEST DIV SWAP1 POP JUMPDEST PUSH1 0x1 PUSH1 0x20 SHL DUP2 MOD ISZERO PUSH2 0x3000 JUMPI PUSH1 0x1 PUSH2 0x3003 JUMP JUMPDEST PUSH1 0x0 JUMPDEST PUSH1 0xFF AND PUSH1 0x20 DUP3 SWAP1 SHR ADD SWAP3 POP POP POP SWAP2 SWAP1 POP JUMP JUMPDEST PUSH1 0x0 DUP1 DUP1 DUP1 PUSH1 0x1 PUSH1 0x1 PUSH1 0xA0 SHL SUB DUP1 DUP10 AND SWAP1 DUP11 AND LT ISZERO DUP2 DUP8 SLT DUP1 ISZERO SWAP1 PUSH2 0x309A JUMPI PUSH1 0x0 PUSH2 0x304E DUP10 DUP10 PUSH3 0xF4240 SUB PUSH3 0xFFFFFF AND PUSH3 0xF4240 PUSH2 0x324F JUMP JUMPDEST SWAP1 POP DUP3 PUSH2 0x3067 JUMPI PUSH2 0x3062 DUP13 DUP13 DUP13 PUSH1 0x1 PUSH2 0x45A0 JUMP JUMPDEST PUSH2 0x3074 JUMP JUMPDEST PUSH2 0x3074 DUP12 DUP14 DUP13 PUSH1 0x1 PUSH2 0x461B JUMP JUMPDEST SWAP6 POP DUP6 DUP2 LT PUSH2 0x3085 JUMPI DUP11 SWAP7 POP PUSH2 0x3094 JUMP JUMPDEST PUSH2 0x3091 DUP13 DUP12 DUP4 DUP7 PUSH2 0x46CF JUMP JUMPDEST SWAP7 POP JUMPDEST POP PUSH2 0x30E4 JUMP JUMPDEST DUP2 PUSH2 0x30B1 JUMPI PUSH2 0x30AC DUP12 DUP12 DUP12 PUSH1 0x0 PUSH2 0x461B JUMP JUMPDEST PUSH2 0x30BE JUMP JUMPDEST PUSH2 0x30BE DUP11 DUP13 DUP12 PUSH1 0x0 PUSH2 0x45A0 JUMP JUMPDEST SWAP4 POP DUP4 DUP9 PUSH1 0x0 SUB LT PUSH2 0x30D2 JUMPI DUP10 SWAP6 POP PUSH2 0x30E4 JUMP JUMPDEST PUSH2 0x30E1 DUP12 DUP11 DUP11 PUSH1 0x0 SUB DUP6 PUSH2 0x471B JUMP JUMPDEST SWAP6 POP JUMPDEST PUSH1 0x1 PUSH1 0x1 PUSH1 0xA0 SHL SUB DUP11 DUP2 AND SWAP1 DUP8 AND EQ DUP3 ISZERO PUSH2 0x3147 JUMPI DUP1 DUP1 ISZERO PUSH2 0x3103 JUMPI POP DUP2 JUMPDEST PUSH2 0x3119 JUMPI PUSH2 0x3114 DUP8 DUP14 DUP13 PUSH1 0x1 PUSH2 0x461B JUMP JUMPDEST PUSH2 0x311B JUMP JUMPDEST DUP6 JUMPDEST SWAP6 POP DUP1 DUP1 ISZERO PUSH2 0x3128 JUMPI POP DUP2 ISZERO JUMPDEST PUSH2 0x313E JUMPI PUSH2 0x3139 DUP8 DUP14 DUP13 PUSH1 0x0 PUSH2 0x45A0 JUMP JUMPDEST PUSH2 0x3140 JUMP JUMPDEST DUP5 JUMPDEST SWAP5 POP PUSH2 0x3191 JUMP JUMPDEST DUP1 DUP1 ISZERO PUSH2 0x3151 JUMPI POP DUP2 JUMPDEST PUSH2 0x3167 JUMPI PUSH2 0x3162 DUP13 DUP9 DUP13 PUSH1 0x1 PUSH2 0x45A0 JUMP JUMPDEST PUSH2 0x3169 JUMP JUMPDEST DUP6 JUMPDEST SWAP6 POP DUP1 DUP1 ISZERO PUSH2 0x3176 JUMPI POP DUP2 ISZERO JUMPDEST PUSH2 0x318C JUMPI PUSH2 0x3187 DUP13 DUP9 DUP13 PUSH1 0x0 PUSH2 0x461B JUMP JUMPDEST PUSH2 0x318E JUMP JUMPDEST DUP5 JUMPDEST SWAP5 POP JUMPDEST DUP2 ISZERO DUP1 ISZERO PUSH2 0x31A1 JUMPI POP DUP9 PUSH1 0x0 SUB DUP6 GT JUMPDEST ISZERO PUSH2 0x31AD JUMPI DUP9 PUSH1 0x0 SUB SWAP5 POP JUMPDEST DUP2 DUP1 ISZERO PUSH2 0x31CC JUMPI POP DUP11 PUSH1 0x1 PUSH1 0x1 PUSH1 0xA0 SHL SUB AND DUP8 PUSH1 0x1 PUSH1 0x1 PUSH1 0xA0 SHL SUB AND EQ ISZERO JUMPDEST ISZERO PUSH2 0x31DB JUMPI DUP6 DUP10 SUB SWAP4 POP PUSH2 0x31F8 JUMP JUMPDEST PUSH2 0x31F5 DUP7 DUP10 PUSH3 0xFFFFFF AND DUP11 PUSH3 0xF4240 SUB PUSH3 0xFFFFFF AND PUSH2 0x40F8 JUMP JUMPDEST SWAP4 POP JUMPDEST POP POP POP SWAP6 POP SWAP6 POP SWAP6 POP SWAP6 SWAP2 POP POP JUMP JUMPDEST PUSH1 0x0 PUSH1 0x1 PUSH1 0xFF SHL DUP3 LT PUSH2 0x3219 JUMPI PUSH1 0x0 DUP1 REVERT JUMPDEST POP SWAP1 JUMP JUMPDEST DUP1 DUP3 SUB DUP3 DUP2 SGT ISZERO PUSH1 0x0 DUP4 SLT ISZERO EQ PUSH2 0x3233 JUMPI PUSH1 0x0 DUP1 REVERT JUMPDEST SWAP3 SWAP2 POP POP JUMP JUMPDEST DUP2 DUP2 ADD DUP3 DUP2 SLT ISZERO PUSH1 0x0 DUP4 SLT ISZERO EQ PUSH2 0x3233 JUMPI PUSH1 0x0 DUP1 REVERT JUMPDEST PUSH1 0x0 DUP1 DUP1 PUSH1 0x0 NOT DUP6 DUP8 MULMOD DUP7 DUP7 MUL SWAP3 POP DUP3 DUP2 LT SWAP1 DUP4 SWAP1 SUB SUB SWAP1 POP DUP1 PUSH2 0x3285 JUMPI PUSH1 0x0 DUP5 GT PUSH2 0x327A JUMPI PUSH1 0x0 DUP1 REVERT JUMPDEST POP DUP3 SWAP1 DIV SWAP1 POP PUSH2 0x32F8 JUMP JUMPDEST DUP1 DUP5 GT PUSH2 0x3291 JUMPI PUSH1 0x0 DUP1 REVERT JUMPDEST PUSH1 0x0 DUP5 DUP7 DUP9 MULMOD PUSH1 0x0 DUP7 DUP2 SUB DUP8 AND SWAP7 DUP8 SWAP1 DIV SWAP7 PUSH1 0x2 PUSH1 0x3 DUP10 MUL DUP2 XOR DUP1 DUP11 MUL DUP3 SUB MUL DUP1 DUP11 MUL DUP3 SUB MUL DUP1 DUP11 MUL DUP3 SUB MUL DUP1 DUP11 MUL DUP3 SUB MUL DUP1 DUP11 MUL DUP3 SUB MUL DUP1 DUP11 MUL SWAP1 SWAP2 SUB MUL SWAP2 DUP2 SWAP1 SUB DUP2 SWAP1 DIV PUSH1 0x1 ADD DUP7 DUP5 GT SWAP1 SWAP6 SUB SWAP5 SWAP1 SWAP5 MUL SWAP2 SWAP1 SWAP5 SUB SWAP3 SWAP1 SWAP3 DIV SWAP2 SWAP1 SWAP2 OR SWAP2 SWAP1 SWAP2 MUL SWAP2 POP POP JUMPDEST SWAP4 SWAP3 POP POP POP JUMP JUMPDEST PUSH1 0x0 DUP1 PUSH4 0xFFFFFFFF DUP8 AND PUSH2 0x33A5 JUMPI PUSH1 0x0 DUP10 DUP7 PUSH2 0xFFFF AND PUSH2 0xFFFF DUP2 LT PUSH2 0x3320 JUMPI INVALID JUMPDEST PUSH1 0x40 DUP1 MLOAD PUSH1 0x80 DUP2 ADD DUP3 MSTORE SWAP2 SWAP1 SWAP3 ADD SLOAD PUSH4 0xFFFFFFFF DUP1 DUP3 AND DUP1 DUP5 MSTORE PUSH1 0x1 PUSH1 0x20 SHL DUP4 DIV PUSH1 0x6 SWAP1 DUP2 SIGNEXTEND DUP2 SIGNEXTEND SWAP1 SIGNEXTEND PUSH1 0x20 DUP6 ADD MSTORE PUSH1 0x1 PUSH1 0x58 SHL DUP4 DIV PUSH1 0x1 PUSH1 0x1 PUSH1 0xA0 SHL SUB AND SWAP5 DUP5 ADD SWAP5 SWAP1 SWAP5 MSTORE PUSH1 0x1 PUSH1 0xF8 SHL SWAP1 SWAP2 DIV PUSH1 0xFF AND ISZERO ISZERO PUSH1 0x60 DUP4 ADD MSTORE SWAP1 SWAP3 POP DUP11 AND EQ PUSH2 0x3391 JUMPI PUSH2 0x338E DUP2 DUP11 DUP10 DUP9 PUSH2 0x4767 JUMP JUMPDEST SWAP1 POP JUMPDEST DUP1 PUSH1 0x20 ADD MLOAD DUP2 PUSH1 0x40 ADD MLOAD SWAP3 POP SWAP3 POP POP PUSH2 0x3485 JUMP JUMPDEST DUP7 DUP9 SUB PUSH1 0x0 DUP1 PUSH2 0x33BA DUP13 DUP13 DUP6 DUP13 DUP13 DUP13 DUP13 PUSH2 0x4817 JUMP JUMPDEST SWAP2 POP SWAP2 POP DUP2 PUSH1 0x0 ADD MLOAD PUSH4 0xFFFFFFFF AND DUP4 PUSH4 0xFFFFFFFF AND EQ ISZERO PUSH2 0x33EC JUMPI DUP2 PUSH1 0x20 ADD MLOAD DUP3 PUSH1 0x40 ADD MLOAD SWAP5 POP SWAP5 POP POP POP POP PUSH2 0x3485 JUMP JUMPDEST DUP1 MLOAD PUSH4 0xFFFFFFFF DUP5 DUP2 AND SWAP2 AND EQ ISZERO PUSH2 0x3414 JUMPI DUP1 PUSH1 0x20 ADD MLOAD DUP2 PUSH1 0x40 ADD MLOAD SWAP5 POP SWAP5 POP POP POP POP PUSH2 0x3485 JUMP JUMPDEST DUP2 MLOAD DUP2 MLOAD PUSH1 0x20 DUP1 DUP6 ADD MLOAD SWAP1 DUP5 ADD MLOAD SWAP2 DUP4 SWAP1 SUB SWAP3 DUP7 SUB SWAP2 PUSH4 0xFFFFFFFF DUP1 DUP5 AND SWAP3 SWAP1 DUP6 AND SWAP2 SUB PUSH1 0x6 SIGNEXTEND DUP2 PUSH2 0x3442 JUMPI INVALID JUMPDEST SDIV MUL DUP5 PUSH1 0x20 ADD MLOAD ADD DUP3 PUSH4 0xFFFFFFFF AND DUP3 PUSH4 0xFFFFFFFF AND DUP7 PUSH1 0x40 ADD MLOAD DUP7 PUSH1 0x40 ADD MLOAD SUB PUSH1 0x1 PUSH1 0x1 PUSH1 0xA0 SHL SUB AND MUL DUP2 PUSH2 0x3474 JUMPI INVALID JUMPDEST DIV DUP6 PUSH1 0x40 ADD MLOAD ADD SWAP7 POP SWAP7 POP POP POP POP POP POP JUMPDEST SWAP8 POP SWAP8 SWAP6 POP POP POP POP POP POP JUMP JUMPDEST PUSH1 0x2 SWAP6 DUP7 SIGNEXTEND DUP7 SIGNEXTEND PUSH1 0x0 SWAP1 DUP2 MSTORE PUSH1 0x20 SWAP8 SWAP1 SWAP8 MSTORE PUSH1 0x40 SWAP1 SWAP7 KECCAK256 PUSH1 0x1 DUP2 ADD DUP1 SLOAD SWAP1 SWAP6 SUB SWAP1 SWAP5 SSTORE SWAP4 DUP4 ADD DUP1 SLOAD SWAP1 SWAP3 SUB SWAP1 SWAP2 SSTORE PUSH1 0x3 DUP3 ADD DUP1 SLOAD PUSH4 0xFFFFFFFF PUSH1 0x1 PUSH1 0xD8 SHL PUSH1 0x1 PUSH1 0x1 PUSH1 0xA0 SHL SUB PUSH1 0x1 PUSH1 0x38 SHL DUP1 DUP6 DIV DUP3 AND SWAP1 SWAP7 SUB AND SWAP1 SWAP5 MUL PUSH27 0xFFFFFFFFFFFFFFFFFFFFFFFFFFFFFFFFFFFFFFFF00000000000000 NOT SWAP1 SWAP3 AND SWAP2 SWAP1 SWAP2 OR PUSH1 0x6 DUP2 DUP2 SIGNEXTEND SWAP1 SWAP7 SUB SWAP1 SWAP6 SIGNEXTEND PUSH7 0xFFFFFFFFFFFFFF AND PUSH7 0xFFFFFFFFFFFFFF NOT SWAP1 SWAP6 AND SWAP5 SWAP1 SWAP5 OR DUP3 DUP2 DIV DUP6 AND SWAP1 SWAP6 SUB SWAP1 SWAP4 AND MUL PUSH4 0xFFFFFFFF PUSH1 0xD8 SHL NOT SWAP1 SWAP4 AND SWAP3 SWAP1 SWAP3 OR SWAP1 SSTORE SLOAD PUSH1 0x1 PUSH1 0x80 SHL SWAP1 DIV PUSH1 0xF SIGNEXTEND SWAP1 JUMP JUMPDEST PUSH1 0x0 DUP1 DUP3 PUSH1 0xF SIGNEXTEND SLT ISZERO PUSH2 0x35C1 JUMPI DUP3 PUSH1 0x1 PUSH1 0x1 PUSH1 0x80 SHL SUB AND DUP3 PUSH1 0x0 SUB DUP5 SUB SWAP2 POP DUP2 PUSH1 0x1 PUSH1 0x1 PUSH1 0x80 SHL SUB AND LT PUSH2 0x35BC JUMPI PUSH1 0x40 DUP1 MLOAD PUSH3 0x461BCD PUSH1 0xE5 SHL DUP2 MSTORE PUSH1 0x20 PUSH1 0x4 DUP3 ADD MSTORE PUSH1 0x2 PUSH1 0x24 DUP3 ADD MSTORE PUSH2 0x4C53 PUSH1 0xF0 SHL PUSH1 0x44 DUP3 ADD MSTORE SWAP1 MLOAD SWAP1 DUP2 SWAP1 SUB PUSH1 0x64 ADD SWAP1 REVERT JUMPDEST PUSH2 0x3233 JUMP JUMPDEST DUP3 PUSH1 0x1 PUSH1 0x1 PUSH1 0x80 SHL SUB AND DUP3 DUP5 ADD SWAP2 POP DUP2 PUSH1 0x1 PUSH1 0x1 PUSH1 0x80 SHL SUB AND LT ISZERO PUSH2 0x3233 JUMPI PUSH1 0x40 DUP1 MLOAD PUSH3 0x461BCD PUSH1 0xE5 SHL DUP2 MSTORE PUSH1 0x20 PUSH1 0x4 DUP3 ADD MSTORE PUSH1 0x2 PUSH1 0x24 DUP3 ADD MSTORE PUSH2 0x4C41 PUSH1 0xF0 SHL PUSH1 0x44 DUP3 ADD MSTORE SWAP1 MLOAD SWAP1 DUP2 SWAP1 SUB PUSH1 0x64 ADD SWAP1 REVERT JUMPDEST PUSH1 0x0 PUSH5 0x1000276A3 PUSH1 0x1 PUSH1 0x1 PUSH1 0xA0 SHL SUB DUP4 AND LT DUP1 ISZERO SWAP1 PUSH2 0x364E JUMPI POP PUSH20 0xFFFD8963EFD1FC6A506488495D951D5263988D26 PUSH1 0x1 PUSH1 0x1 PUSH1 0xA0 SHL SUB DUP4 AND LT JUMPDEST PUSH2 0x3683 JUMPI PUSH1 0x40 DUP1 MLOAD PUSH3 0x461BCD PUSH1 0xE5 SHL DUP2 MSTORE PUSH1 0x20 PUSH1 0x4 DUP3 ADD MSTORE PUSH1 0x1 PUSH1 0x24 DUP3 ADD MSTORE PUSH1 0x29 PUSH1 0xF9 SHL PUSH1 0x44 DUP3 ADD MSTORE SWAP1 MLOAD SWAP1 DUP2 SWAP1 SUB PUSH1 0x64 ADD SWAP1 REVERT JUMPDEST PUSH24 0xFFFFFFFFFFFFFFFFFFFFFFFFFFFFFFFFFFFFFFFF00000000 PUSH1 0x20 DUP4 SWAP1 SHL AND PUSH1 0x1 PUSH1 0x1 PUSH1 0x80 SHL SUB DUP2 GT PUSH1 0x7 SHL DUP2 DUP2 SHR PUSH8 0xFFFFFFFFFFFFFFFF DUP2 GT PUSH1 0x6 SHL SWAP1 DUP2 SHR PUSH4 0xFFFFFFFF DUP2 GT PUSH1 0x5 SHL SWAP1 DUP2 SHR PUSH2 0xFFFF DUP2 GT PUSH1 0x4 SHL SWAP1 DUP2 SHR PUSH1 0xFF DUP2 GT PUSH1 0x3 SWAP1 DUP2 SHL SWAP2 DUP3 SHR PUSH1 0xF DUP2 GT PUSH1 0x2 SHL SWAP1 DUP2 SHR SWAP2 DUP3 GT PUSH1 0x1 SWAP1 DUP2 SHL SWAP3 DUP4 SHR SWAP8 SWAP1 DUP9 GT SWAP7 OR SWAP1 SWAP5 OR SWAP1 SWAP3 OR OR SWAP1 SWAP2 OR OR OR PUSH1 0x80 DUP2 LT PUSH2 0x3724 JUMPI PUSH1 0x7F DUP2 SUB DUP4 SWAP1 SHR SWAP2 POP PUSH2 0x372E JUMP JUMPDEST DUP1 PUSH1 0x7F SUB DUP4 SWAP1 SHL SWAP2 POP JUMPDEST SWAP1 DUP1 MUL PUSH1 0x7F DUP2 DUP2 SHR PUSH1 0xFF DUP4 DUP2 SHR SWAP2 SWAP1 SWAP2 SHR DUP1 MUL DUP1 DUP4 SHR DUP2 DUP4 SHR SHR DUP1 MUL DUP1 DUP5 SHR DUP2 DUP5 SHR SHR DUP1 MUL DUP1 DUP6 SHR DUP2 DUP6 SHR SHR DUP1 MUL DUP1 DUP7 SHR DUP2 DUP7 SHR SHR DUP1 MUL DUP1 DUP8 SHR DUP2 DUP8 SHR SHR DUP1 MUL DUP1 DUP9 SHR DUP2 DUP9 SHR SHR DUP1 MUL DUP1 DUP10 SHR DUP2 DUP10 SHR SHR DUP1 MUL DUP1 DUP11 SHR DUP2 DUP11 SHR SHR DUP1 MUL DUP1 DUP12 SHR DUP2 DUP12 SHR SHR DUP1 MUL DUP1 DUP13 SHR DUP2 DUP13 SHR SHR DUP1 MUL DUP1 DUP14 SHR DUP2 DUP14 SHR SHR DUP1 MUL DUP1 DUP15 SHR SWAP13 DUP2 SWAP1 SHR SWAP13 SWAP1 SWAP13 SHR DUP1 MUL SWAP13 DUP14 SWAP1 SHR SWAP15 SWAP14 PUSH1 0x7F NOT DUP16 ADD PUSH1 0x40 SHL PUSH1 0xC0 SWAP2 SWAP1 SWAP2 SHR PUSH8 0x8000000000000000 AND OR PUSH1 0xC1 SWAP12 SWAP1 SWAP12 SHR PUSH8 0x4000000000000000 AND SWAP11 SWAP1 SWAP11 OR PUSH1 0xC2 SWAP10 SWAP1 SWAP10 SHR PUSH8 0x2000000000000000 AND SWAP9 SWAP1 SWAP9 OR PUSH1 0xC3 SWAP8 SWAP1 SWAP8 SHR PUSH8 0x1000000000000000 AND SWAP7 SWAP1 SWAP7 OR PUSH1 0xC4 SWAP6 SWAP1 SWAP6 SHR PUSH8 0x800000000000000 AND SWAP5 SWAP1 SWAP5 OR PUSH1 0xC5 SWAP4 SWAP1 SWAP4 SHR PUSH8 0x400000000000000 AND SWAP3 SWAP1 SWAP3 OR PUSH1 0xC6 SWAP2 SWAP1 SWAP2 SHR PUSH8 0x200000000000000 AND OR PUSH1 0xC7 SWAP2 SWAP1 SWAP2 SHR PUSH1 0x1 PUSH1 0x38 SHL AND OR PUSH1 0xC8 SWAP2 SWAP1 SWAP2 SHR PUSH7 0x80000000000000 AND OR PUSH1 0xC9 SWAP2 SWAP1 SWAP2 SHR PUSH7 0x40000000000000 AND OR PUSH1 0xCA SWAP2 SWAP1 SWAP2 SHR PUSH7 0x20000000000000 AND OR PUSH1 0xCB SWAP2 SWAP1 SWAP2 SHR PUSH7 0x10000000000000 AND OR PUSH1 0xCC SWAP2 SWAP1 SWAP2 SHR PUSH7 0x8000000000000 AND OR PUSH1 0xCD SWAP2 SWAP1 SWAP2 SHR PUSH7 0x4000000000000 AND OR PUSH10 0x3627A301D71055774C85 DUP2 MUL PUSH16 0x28F6481AB7F045A5AF012A19D003AA9 NOT DUP2 ADD PUSH1 0x80 SWAP1 DUP2 SAR SWAP1 PUSH16 0xDB2DF09E81959A81455E260799A0632F DUP4 ADD SWAP1 SAR PUSH1 0x2 DUP2 DUP2 SIGNEXTEND SWAP1 DUP4 SWAP1 SIGNEXTEND EQ PUSH2 0x392B JUMPI DUP9 PUSH1 0x1 PUSH1 0x1 PUSH1 0xA0 SHL SUB AND PUSH2 0x390F DUP3 PUSH2 0x2CE4 JUMP JUMPDEST PUSH1 0x1 PUSH1 0x1 PUSH1 0xA0 SHL SUB AND GT ISZERO PUSH2 0x3924 JUMPI DUP2 PUSH2 0x3926 JUMP JUMPDEST DUP1 JUMPDEST PUSH2 0x392D JUMP JUMPDEST DUP2 JUMPDEST SWAP10 SWAP9 POP POP POP POP POP POP POP POP POP JUMP JUMPDEST PUSH1 0x0 DUP1 PUSH1 0x0 DUP10 DUP10 PUSH2 0xFFFF AND PUSH2 0xFFFF DUP2 LT PUSH2 0x3950 JUMPI INVALID JUMPDEST PUSH1 0x40 DUP1 MLOAD PUSH1 0x80 DUP2 ADD DUP3 MSTORE SWAP2 SWAP1 SWAP3 ADD SLOAD PUSH4 0xFFFFFFFF DUP1 DUP3 AND DUP1 DUP5 MSTORE PUSH1 0x1 PUSH1 0x20 SHL DUP4 DIV PUSH1 0x6 SWAP1 DUP2 SIGNEXTEND DUP2 SIGNEXTEND SWAP1 SIGNEXTEND PUSH1 0x20 DUP6 ADD MSTORE PUSH1 0x1 PUSH1 0x58 SHL DUP4 DIV PUSH1 0x1 PUSH1 0x1 PUSH1 0xA0 SHL SUB AND SWAP5 DUP5 ADD SWAP5 SWAP1 SWAP5 MSTORE PUSH1 0x1 PUSH1 0xF8 SHL SWAP1 SWAP2 DIV PUSH1 0xFF AND ISZERO ISZERO PUSH1 0x60 DUP4 ADD MSTORE SWAP1 SWAP3 POP DUP10 AND EQ ISZERO PUSH2 0x39BF JUMPI DUP9 DUP6 SWAP3 POP SWAP3 POP POP PUSH2 0x3485 JUMP JUMPDEST DUP5 PUSH2 0xFFFF AND DUP5 PUSH2 0xFFFF AND GT DUP1 ISZERO PUSH2 0x39E0 JUMPI POP PUSH1 0x1 DUP6 SUB PUSH2 0xFFFF AND DUP10 PUSH2 0xFFFF AND EQ JUMPDEST ISZERO PUSH2 0x39ED JUMPI DUP4 SWAP2 POP PUSH2 0x39F1 JUMP JUMPDEST DUP5 SWAP2 POP JUMPDEST DUP2 PUSH2 0xFFFF AND DUP10 PUSH1 0x1 ADD PUSH2 0xFFFF AND DUP2 PUSH2 0x3A05 JUMPI INVALID JUMPDEST MOD SWAP3 POP PUSH2 0x3A14 DUP2 DUP10 DUP10 DUP10 PUSH2 0x4767 JUMP JUMPDEST DUP11 DUP5 PUSH2 0xFFFF AND PUSH2 0xFFFF DUP2 LT PUSH2 0x3A25 JUMPI INVALID JUMPDEST DUP3 MLOAD SWAP2 ADD DUP1 SLOAD PUSH1 0x20 DUP5 ADD MLOAD PUSH1 0x40 DUP6 ADD MLOAD PUSH1 0x60 SWAP1 SWAP6 ADD MLOAD ISZERO ISZERO PUSH1 0x1 PUSH1 0xF8 SHL MUL PUSH1 0x1 PUSH1 0x1 PUSH1 0xF8 SHL SUB PUSH1 0x1 PUSH1 0x1 PUSH1 0xA0 SHL SUB SWAP1 SWAP7 AND PUSH1 0x1 PUSH1 0x58 SHL MUL PUSH32 0xFF0000000000000000000000000000000000000000FFFFFFFFFFFFFFFFFFFFFF PUSH1 0x6 SWAP4 SWAP1 SWAP4 SIGNEXTEND PUSH7 0xFFFFFFFFFFFFFF AND PUSH1 0x1 PUSH1 0x20 SHL MUL PUSH11 0xFFFFFFFFFFFFFF00000000 NOT PUSH4 0xFFFFFFFF SWAP1 SWAP8 AND PUSH4 0xFFFFFFFF NOT SWAP1 SWAP6 AND SWAP5 SWAP1 SWAP5 OR SWAP6 SWAP1 SWAP6 AND SWAP3 SWAP1 SWAP3 OR AND SWAP3 SWAP1 SWAP3 OR SWAP3 SWAP1 SWAP3 AND OR SWAP1 SSTORE POP SWAP8 POP SWAP8 SWAP6 POP POP POP POP POP POP JUMP JUMPDEST PUSH1 0x40 DUP1 MLOAD PUSH1 0x1 PUSH1 0x1 PUSH1 0xA0 SHL SUB DUP5 DUP2 AND PUSH1 0x24 DUP4 ADD MSTORE PUSH1 0x44 DUP1 DUP4 ADD DUP6 SWAP1 MSTORE DUP4 MLOAD DUP1 DUP5 SUB SWAP1 SWAP2 ADD DUP2 MSTORE PUSH1 0x64 SWAP1 SWAP3 ADD DUP4 MSTORE PUSH1 0x20 DUP3 ADD DUP1 MLOAD PUSH1 0x1 PUSH1 0x1 PUSH1 0xE0 SHL SUB AND PUSH4 0xA9059CBB PUSH1 0xE0 SHL OR DUP2 MSTORE SWAP3 MLOAD DUP3 MLOAD PUSH1 0x0 SWAP5 DUP6 SWAP5 SWAP4 DUP10 AND SWAP4 SWAP3 SWAP2 DUP3 SWAP2 SWAP1 DUP1 DUP4 DUP4 JUMPDEST PUSH1 0x20 DUP4 LT PUSH2 0x3B51 JUMPI DUP1 MLOAD DUP3 MSTORE PUSH1 0x1F NOT SWAP1 SWAP3 ADD SWAP2 PUSH1 0x20 SWAP2 DUP3 ADD SWAP2 ADD PUSH2 0x3B32 JUMP JUMPDEST PUSH1 0x1 DUP4 PUSH1 0x20 SUB PUSH2 0x100 EXP SUB DUP1 NOT DUP3 MLOAD AND DUP2 DUP5 MLOAD AND DUP1 DUP3 OR DUP6 MSTORE POP POP POP POP POP POP SWAP1 POP ADD SWAP2 POP POP PUSH1 0x0 PUSH1 0x40 MLOAD DUP1 DUP4 SUB DUP2 PUSH1 0x0 DUP7 GAS CALL SWAP2 POP POP RETURNDATASIZE DUP1 PUSH1 0x0 DUP2 EQ PUSH2 0x3BB3 JUMPI PUSH1 0x40 MLOAD SWAP2 POP PUSH1 0x1F NOT PUSH1 0x3F RETURNDATASIZE ADD AND DUP3 ADD PUSH1 0x40 MSTORE RETURNDATASIZE DUP3 MSTORE RETURNDATASIZE PUSH1 0x0 PUSH1 0x20 DUP5 ADD RETURNDATACOPY PUSH2 0x3BB8 JUMP JUMPDEST PUSH1 0x60 SWAP2 POP JUMPDEST POP SWAP2 POP SWAP2 POP DUP2 DUP1 ISZERO PUSH2 0x3BE6 JUMPI POP DUP1 MLOAD ISZERO DUP1 PUSH2 0x3BE6 JUMPI POP DUP1 DUP1 PUSH1 0x20 ADD SWAP1 MLOAD PUSH1 0x20 DUP2 LT ISZERO PUSH2 0x3BE3 JUMPI PUSH1 0x0 DUP1 REVERT JUMPDEST POP MLOAD JUMPDEST PUSH2 0x3C1C JUMPI PUSH1 0x40 DUP1 MLOAD PUSH3 0x461BCD PUSH1 0xE5 SHL DUP2 MSTORE PUSH1 0x20 PUSH1 0x4 DUP3 ADD MSTORE PUSH1 0x2 PUSH1 0x24 DUP3 ADD MSTORE PUSH2 0x2A23 PUSH1 0xF1 SHL PUSH1 0x44 DUP3 ADD MSTORE SWAP1 MLOAD SWAP1 DUP2 SWAP1 SUB PUSH1 0x64 ADD SWAP1 REVERT JUMPDEST POP POP POP POP POP JUMP JUMPDEST PUSH1 0x40 DUP1 MLOAD ADDRESS PUSH1 0x24 DUP1 DUP4 ADD SWAP2 SWAP1 SWAP2 MSTORE DUP3 MLOAD DUP1 DUP4 SUB SWAP1 SWAP2 ADD DUP2 MSTORE PUSH1 0x44 SWAP1 SWAP2 ADD DUP3 MSTORE PUSH1 0x20 DUP2 ADD DUP1 MLOAD PUSH1 0x1 PUSH1 0x1 PUSH1 0xE0 SHL SUB AND PUSH4 0x70A08231 PUSH1 0xE0 SHL OR DUP2 MSTORE SWAP2 MLOAD DUP2 MLOAD PUSH1 0x0 SWAP4 DUP5 SWAP4 DUP5 SWAP4 PUSH1 0x1 PUSH1 0x1 PUSH1 0xA0 SHL SUB PUSH32 0x0 AND SWAP4 SWAP2 SWAP3 SWAP1 SWAP2 DUP3 SWAP2 SWAP1 DUP1 DUP4 DUP4 JUMPDEST PUSH1 0x20 DUP4 LT PUSH2 0x3CBC JUMPI DUP1 MLOAD DUP3 MSTORE PUSH1 0x1F NOT SWAP1 SWAP3 ADD SWAP2 PUSH1 0x20 SWAP2 DUP3 ADD SWAP2 ADD PUSH2 0x3C9D JUMP JUMPDEST PUSH1 0x1 DUP4 PUSH1 0x20 SUB PUSH2 0x100 EXP SUB DUP1 NOT DUP3 MLOAD AND DUP2 DUP5 MLOAD AND DUP1 DUP3 OR DUP6 MSTORE POP POP POP POP POP POP SWAP1 POP ADD SWAP2 POP POP PUSH1 0x0 PUSH1 0x40 MLOAD DUP1 DUP4 SUB DUP2 DUP6 GAS STATICCALL SWAP2 POP POP RETURNDATASIZE DUP1 PUSH1 0x0 DUP2 EQ PUSH2 0x3D1C JUMPI PUSH1 0x40 MLOAD SWAP2 POP PUSH1 0x1F NOT PUSH1 0x3F RETURNDATASIZE ADD AND DUP3 ADD PUSH1 0x40 MSTORE RETURNDATASIZE DUP3 MSTORE RETURNDATASIZE PUSH1 0x0 PUSH1 0x20 DUP5 ADD RETURNDATACOPY PUSH2 0x3D21 JUMP JUMPDEST PUSH1 0x60 SWAP2 POP JUMPDEST POP SWAP2 POP SWAP2 POP DUP2 DUP1 ISZERO PUSH2 0x3D35 JUMPI POP PUSH1 0x20 DUP2 MLOAD LT ISZERO JUMPDEST PUSH2 0x3D3E JUMPI PUSH1 0x0 DUP1 REVERT JUMPDEST DUP1 DUP1 PUSH1 0x20 ADD SWAP1 MLOAD PUSH1 0x20 DUP2 LT ISZERO PUSH2 0x3D53 JUMPI PUSH1 0x0 DUP1 REVERT JUMPDEST POP MLOAD SWAP3 POP POP POP SWAP1 JUMP JUMPDEST DUP1 DUP3 ADD DUP3 DUP2 LT ISZERO PUSH2 0x3233 JUMPI PUSH1 0x0 DUP1 REVERT JUMPDEST PUSH1 0x40 DUP1 MLOAD ADDRESS PUSH1 0x24 DUP1 DUP4 ADD SWAP2 SWAP1 SWAP2 MSTORE DUP3 MLOAD DUP1 DUP4 SUB SWAP1 SWAP2 ADD DUP2 MSTORE PUSH1 0x44 SWAP1 SWAP2 ADD DUP3 MSTORE PUSH1 0x20 DUP2 ADD DUP1 MLOAD PUSH1 0x1 PUSH1 0x1 PUSH1 0xE0 SHL SUB AND PUSH4 0x70A08231 PUSH1 0xE0 SHL OR DUP2 MSTORE SWAP2 MLOAD DUP2 MLOAD PUSH1 0x0 SWAP4 DUP5 SWAP4 DUP5 SWAP4 PUSH1 0x1 PUSH1 0x1 PUSH1 0xA0 SHL SUB PUSH32 0x0 AND SWAP4 SWAP2 SWAP3 SWAP1 SWAP2 DUP3 SWAP2 SWAP1 DUP1 DUP4 DUP4 PUSH1 0x20 DUP4 LT PUSH2 0x3CBC JUMPI DUP1 MLOAD DUP3 MSTORE PUSH1 0x1F NOT SWAP1 SWAP3 ADD SWAP2 PUSH1 0x20 SWAP2 DUP3 ADD SWAP2 ADD PUSH2 0x3C9D JUMP JUMPDEST PUSH1 0x0 DUP1 DUP4 PUSH2 0xFFFF AND GT PUSH2 0x3E42 JUMPI PUSH1 0x40 DUP1 MLOAD PUSH3 0x461BCD PUSH1 0xE5 SHL DUP2 MSTORE PUSH1 0x20 PUSH1 0x4 DUP3 ADD MSTORE PUSH1 0x1 PUSH1 0x24 DUP3 ADD MSTORE PUSH1 0x49 PUSH1 0xF8 SHL PUSH1 0x44 DUP3 ADD MSTORE SWAP1 MLOAD SWAP1 DUP2 SWAP1 SUB PUSH1 0x64 ADD SWAP1 REVERT JUMPDEST DUP3 PUSH2 0xFFFF AND DUP3 PUSH2 0xFFFF AND GT PUSH2 0x3E58 JUMPI POP DUP2 PUSH2 0x32F8 JUMP JUMPDEST DUP3 JUMPDEST DUP3 PUSH2 0xFFFF AND DUP2 PUSH2 0xFFFF AND LT ISZERO PUSH2 0x3E9E JUMPI PUSH1 0x1 DUP6 DUP3 PUSH2 0xFFFF AND PUSH2 0xFFFF DUP2 LT PUSH2 0x3E7D JUMPI INVALID JUMPDEST ADD DUP1 SLOAD PUSH4 0xFFFFFFFF NOT AND PUSH4 0xFFFFFFFF SWAP3 SWAP1 SWAP3 AND SWAP2 SWAP1 SWAP2 OR SWAP1 SSTORE PUSH1 0x1 ADD PUSH2 0x3E5A JUMP JUMPDEST POP SWAP1 SWAP4 SWAP3 POP POP POP JUMP JUMPDEST DUP1 PUSH1 0xF DUP2 SWAP1 SIGNEXTEND DUP2 EQ PUSH2 0x2B62 JUMPI PUSH1 0x0 DUP1 REVERT JUMPDEST PUSH1 0x0 DUP1 PUSH1 0x0 PUSH2 0x3EC5 PUSH2 0x2B67 JUMP JUMPDEST PUSH2 0x3ED7 DUP5 PUSH1 0x20 ADD MLOAD DUP6 PUSH1 0x40 ADD MLOAD PUSH2 0x42F0 JUMP JUMPDEST PUSH1 0x40 DUP1 MLOAD PUSH1 0xE0 DUP2 ADD DUP3 MSTORE PUSH1 0x0 SLOAD PUSH1 0x1 PUSH1 0x1 PUSH1 0xA0 SHL SUB DUP2 AND DUP3 MSTORE PUSH1 0x1 PUSH1 0xA0 SHL DUP2 DIV PUSH1 0x2 SWAP1 DUP2 SIGNEXTEND DUP2 SIGNEXTEND SWAP1 SIGNEXTEND PUSH1 0x20 DUP1 DUP5 ADD DUP3 SWAP1 MSTORE PUSH2 0xFFFF PUSH1 0x1 PUSH1 0xB8 SHL DUP5 DIV DUP2 AND DUP6 DUP8 ADD MSTORE PUSH1 0x1 PUSH1 0xC8 SHL DUP5 DIV DUP2 AND PUSH1 0x60 DUP1 DUP8 ADD SWAP2 SWAP1 SWAP2 MSTORE PUSH1 0x1 PUSH1 0xD8 SHL DUP6 DIV SWAP1 SWAP2 AND PUSH1 0x80 DUP7 ADD MSTORE PUSH1 0xFF PUSH1 0x1 PUSH1 0xE8 SHL DUP6 DIV DUP2 AND PUSH1 0xA0 DUP8 ADD MSTORE PUSH1 0x1 PUSH1 0xF0 SHL SWAP1 SWAP5 DIV SWAP1 SWAP4 AND ISZERO ISZERO PUSH1 0xC0 DUP6 ADD MSTORE DUP9 MLOAD SWAP1 DUP10 ADD MLOAD SWAP5 DUP10 ADD MLOAD SWAP3 DUP10 ADD MLOAD SWAP4 SWAP5 PUSH2 0x3F7B SWAP5 SWAP2 SWAP4 SWAP1 SWAP3 SWAP1 SWAP2 SWAP1 PUSH2 0x4A11 JUMP JUMPDEST SWAP4 POP DUP5 PUSH1 0x60 ADD MLOAD PUSH1 0xF SIGNEXTEND PUSH1 0x0 EQ PUSH2 0x40F0 JUMPI DUP5 PUSH1 0x20 ADD MLOAD PUSH1 0x2 SIGNEXTEND DUP2 PUSH1 0x20 ADD MLOAD PUSH1 0x2 SIGNEXTEND SLT ISZERO PUSH2 0x3FD0 JUMPI PUSH2 0x3FC9 PUSH2 0x3FB2 DUP7 PUSH1 0x20 ADD MLOAD PUSH2 0x2CE4 JUMP JUMPDEST PUSH2 0x3FBF DUP8 PUSH1 0x40 ADD MLOAD PUSH2 0x2CE4 JUMP JUMPDEST DUP8 PUSH1 0x60 ADD MLOAD PUSH2 0x4BC6 JUMP JUMPDEST SWAP3 POP PUSH2 0x40F0 JUMP JUMPDEST DUP5 PUSH1 0x40 ADD MLOAD PUSH1 0x2 SIGNEXTEND DUP2 PUSH1 0x20 ADD MLOAD PUSH1 0x2 SIGNEXTEND SLT ISZERO PUSH2 0x40C6 JUMPI PUSH1 0x4 SLOAD PUSH1 0x40 DUP3 ADD MLOAD PUSH1 0x1 PUSH1 0x1 PUSH1 0x80 SHL SUB SWAP1 SWAP2 AND SWAP1 PUSH2 0x4022 SWAP1 PUSH2 0x4006 PUSH2 0x2B9E JUMP JUMPDEST PUSH1 0x20 DUP6 ADD MLOAD PUSH1 0x60 DUP7 ADD MLOAD PUSH1 0x80 DUP8 ADD MLOAD PUSH1 0x8 SWAP5 SWAP4 SWAP3 SWAP2 DUP8 SWAP2 PUSH2 0x393A JUMP JUMPDEST PUSH1 0x0 DUP1 SLOAD PUSH2 0xFFFF PUSH1 0xC8 SHL NOT AND PUSH1 0x1 PUSH1 0xC8 SHL PUSH2 0xFFFF SWAP4 DUP5 AND MUL OR PUSH2 0xFFFF PUSH1 0xB8 SHL NOT AND PUSH1 0x1 PUSH1 0xB8 SHL SWAP4 SWAP1 SWAP3 AND SWAP3 SWAP1 SWAP3 MUL OR SWAP1 SSTORE DUP2 MLOAD PUSH1 0x40 DUP8 ADD MLOAD PUSH2 0x4072 SWAP2 SWAP1 PUSH2 0x4068 SWAP1 PUSH2 0x2CE4 JUMP JUMPDEST DUP9 PUSH1 0x60 ADD MLOAD PUSH2 0x4BC6 JUMP JUMPDEST SWAP4 POP PUSH2 0x4090 PUSH2 0x4084 DUP8 PUSH1 0x20 ADD MLOAD PUSH2 0x2CE4 JUMP JUMPDEST DUP4 MLOAD PUSH1 0x60 DUP10 ADD MLOAD PUSH2 0x4C0A JUMP JUMPDEST SWAP3 POP PUSH2 0x40A0 DUP2 DUP8 PUSH1 0x60 ADD MLOAD PUSH2 0x355C JUMP JUMPDEST PUSH1 0x4 DUP1 SLOAD PUSH1 0x1 PUSH1 0x1 PUSH1 0x80 SHL SUB NOT AND PUSH1 0x1 PUSH1 0x1 PUSH1 0x80 SHL SUB SWAP3 SWAP1 SWAP3 AND SWAP2 SWAP1 SWAP2 OR SWAP1 SSTORE POP PUSH2 0x40F0 JUMP JUMPDEST PUSH2 0x40ED PUSH2 0x40D6 DUP7 PUSH1 0x20 ADD MLOAD PUSH2 0x2CE4 JUMP JUMPDEST PUSH2 0x40E3 DUP8 PUSH1 0x40 ADD MLOAD PUSH2 0x2CE4 JUMP JUMPDEST DUP8 PUSH1 0x60 ADD MLOAD PUSH2 0x4C0A JUMP JUMPDEST SWAP2 POP JUMPDEST POP SWAP2 SWAP4 SWAP1 SWAP3 POP JUMP JUMPDEST PUSH1 0x0 PUSH2 0x4105 DUP5 DUP5 DUP5 PUSH2 0x324F JUMP JUMPDEST SWAP1 POP PUSH1 0x0 DUP3 DUP1 PUSH2 0x4111 JUMPI INVALID JUMPDEST DUP5 DUP7 MULMOD GT ISZERO PUSH2 0x32F8 JUMPI PUSH1 0x0 NOT DUP2 LT PUSH2 0x4128 JUMPI PUSH1 0x0 DUP1 REVERT JUMPDEST PUSH1 0x1 ADD SWAP4 SWAP3 POP POP POP JUMP JUMPDEST PUSH1 0x40 DUP1 MLOAD PUSH1 0x60 SWAP5 SWAP1 SWAP5 SHL PUSH12 0xFFFFFFFFFFFFFFFFFFFFFFFF NOT AND PUSH1 0x20 DUP1 DUP7 ADD SWAP2 SWAP1 SWAP2 MSTORE PUSH1 0x2 SWAP4 DUP5 SIGNEXTEND PUSH1 0xE8 SWAP1 DUP2 SHL PUSH1 0x34 DUP8 ADD MSTORE SWAP3 SWAP1 SWAP4 SIGNEXTEND SWAP1 SWAP2 SHL PUSH1 0x37 DUP5 ADD MSTORE DUP1 MLOAD DUP1 DUP5 SUB PUSH1 0x1A ADD DUP2 MSTORE PUSH1 0x3A SWAP1 SWAP4 ADD DUP2 MSTORE DUP3 MLOAD SWAP3 DUP3 ADD SWAP3 SWAP1 SWAP3 KECCAK256 PUSH1 0x0 SWAP1 DUP2 MSTORE SWAP3 SWAP1 MSTORE SWAP1 KECCAK256 SWAP1 JUMP JUMPDEST PUSH1 0x60 DUP1 PUSH1 0x0 DUP4 PUSH2 0xFFFF AND GT PUSH2 0x41D6 JUMPI PUSH1 0x40 DUP1 MLOAD PUSH3 0x461BCD PUSH1 0xE5 SHL DUP2 MSTORE PUSH1 0x20 PUSH1 0x4 DUP3 ADD MSTORE PUSH1 0x1 PUSH1 0x24 DUP3 ADD MSTORE PUSH1 0x49 PUSH1 0xF8 SHL PUSH1 0x44 DUP3 ADD MSTORE SWAP1 MLOAD SWAP1 DUP2 SWAP1 SUB PUSH1 0x64 ADD SWAP1 REVERT JUMPDEST DUP7 MLOAD PUSH8 0xFFFFFFFFFFFFFFFF DUP2 GT DUP1 ISZERO PUSH2 0x41EE JUMPI PUSH1 0x0 DUP1 REVERT JUMPDEST POP PUSH1 0x40 MLOAD SWAP1 DUP1 DUP3 MSTORE DUP1 PUSH1 0x20 MUL PUSH1 0x20 ADD DUP3 ADD PUSH1 0x40 MSTORE DUP1 ISZERO PUSH2 0x4218 JUMPI DUP2 PUSH1 0x20 ADD PUSH1 0x20 DUP3 MUL DUP1 CALLDATASIZE DUP4 CALLDATACOPY ADD SWAP1 POP JUMPDEST POP SWAP2 POP DUP7 MLOAD PUSH8 0xFFFFFFFFFFFFFFFF DUP2 GT DUP1 ISZERO PUSH2 0x4233 JUMPI PUSH1 0x0 DUP1 REVERT JUMPDEST POP PUSH1 0x40 MLOAD SWAP1 DUP1 DUP3 MSTORE DUP1 PUSH1 0x20 MUL PUSH1 0x20 ADD DUP3 ADD PUSH1 0x40 MSTORE DUP1 ISZERO PUSH2 0x425D JUMPI DUP2 PUSH1 0x20 ADD PUSH1 0x20 DUP3 MUL DUP1 CALLDATASIZE DUP4 CALLDATACOPY ADD SWAP1 POP JUMPDEST POP SWAP1 POP PUSH1 0x0 JUMPDEST DUP8 MLOAD DUP2 LT ISZERO PUSH2 0x42E3 JUMPI PUSH2 0x428E DUP11 DUP11 DUP11 DUP5 DUP2 MLOAD DUP2 LT PUSH2 0x427D JUMPI INVALID JUMPDEST PUSH1 0x20 MUL PUSH1 0x20 ADD ADD MLOAD DUP11 DUP11 DUP11 DUP11 PUSH2 0x32FF JUMP JUMPDEST DUP5 DUP4 DUP2 MLOAD DUP2 LT PUSH2 0x429A JUMPI INVALID JUMPDEST PUSH1 0x20 MUL PUSH1 0x20 ADD ADD DUP5 DUP5 DUP2 MLOAD DUP2 LT PUSH2 0x42AD JUMPI INVALID JUMPDEST PUSH1 0x20 MUL PUSH1 0x20 ADD ADD DUP3 PUSH1 0x1 PUSH1 0x1 PUSH1 0xA0 SHL SUB AND PUSH1 0x1 PUSH1 0x1 PUSH1 0xA0 SHL SUB AND DUP2 MSTORE POP DUP3 PUSH1 0x6 SIGNEXTEND PUSH1 0x6 SIGNEXTEND DUP2 MSTORE POP POP POP DUP1 DUP1 PUSH1 0x1 ADD SWAP2 POP POP PUSH2 0x4263 JUMP JUMPDEST POP SWAP8 POP SWAP8 SWAP6 POP POP POP POP POP POP JUMP JUMPDEST DUP1 PUSH1 0x2 SIGNEXTEND DUP3 PUSH1 0x2 SIGNEXTEND SLT PUSH2 0x4330 JUMPI PUSH1 0x40 DUP1 MLOAD PUSH3 0x461BCD PUSH1 0xE5 SHL DUP2 MSTORE PUSH1 0x20 PUSH1 0x4 DUP3 ADD MSTORE PUSH1 0x3 PUSH1 0x24 DUP3 ADD MSTORE PUSH3 0x544C55 PUSH1 0xE8 SHL PUSH1 0x44 DUP3 ADD MSTORE SWAP1 MLOAD SWAP1 DUP2 SWAP1 SUB PUSH1 0x64 ADD SWAP1 REVERT JUMPDEST PUSH3 0xD89E7 NOT PUSH1 0x2 DUP4 SWAP1 SIGNEXTEND SLT ISZERO PUSH2 0x4373 JUMPI PUSH1 0x40 DUP1 MLOAD PUSH3 0x461BCD PUSH1 0xE5 SHL DUP2 MSTORE PUSH1 0x20 PUSH1 0x4 DUP3 ADD MSTORE PUSH1 0x3 PUSH1 0x24 DUP3 ADD MSTORE PUSH3 0x544C4D PUSH1 0xE8 SHL PUSH1 0x44 DUP3 ADD MSTORE SWAP1 MLOAD SWAP1 DUP2 SWAP1 SUB PUSH1 0x64 ADD SWAP1 REVERT JUMPDEST PUSH3 0xD89E8 PUSH1 0x2 DUP3 SWAP1 SIGNEXTEND SGT ISZERO PUSH2 0x43B5 JUMPI PUSH1 0x40 DUP1 MLOAD PUSH3 0x461BCD PUSH1 0xE5 SHL DUP2 MSTORE PUSH1 0x20 PUSH1 0x4 DUP3 ADD MSTORE PUSH1 0x3 PUSH1 0x24 DUP3 ADD MSTORE PUSH3 0x54554D PUSH1 0xE8 SHL PUSH1 0x44 DUP3 ADD MSTORE SWAP1 MLOAD SWAP1 DUP2 SWAP1 SUB PUSH1 0x64 ADD SWAP1 REVERT JUMPDEST POP POP JUMP JUMPDEST PUSH1 0x40 DUP1 MLOAD PUSH1 0x80 DUP2 ADD DUP3 MSTORE PUSH4 0xFFFFFFFF SWAP3 DUP4 AND DUP1 DUP3 MSTORE PUSH1 0x0 PUSH1 0x20 DUP4 ADD DUP2 SWAP1 MSTORE SWAP3 DUP3 ADD SWAP3 SWAP1 SWAP3 MSTORE PUSH1 0x1 PUSH1 0x60 SWAP1 SWAP2 ADD DUP2 SWAP1 MSTORE DUP4 SLOAD PUSH4 0xFFFFFFFF NOT AND SWAP1 SWAP2 OR SWAP1 SWAP2 AND PUSH1 0x1 PUSH1 0xF8 SHL OR SWAP1 SWAP2 SSTORE SWAP1 DUP2 SWAP1 JUMP JUMPDEST PUSH1 0x2 SIGNEXTEND PUSH1 0x8 DUP2 SWAP1 SAR SWAP2 PUSH2 0x100 SWAP1 SWAP2 SMOD SWAP1 JUMP JUMPDEST PUSH1 0x0 DUP1 DUP3 GT PUSH2 0x4425 JUMPI PUSH1 0x0 DUP1 REVERT JUMPDEST PUSH1 0x1 PUSH1 0x80 SHL DUP3 LT PUSH2 0x4438 JUMPI PUSH1 0x80 SWAP2 DUP3 SHR SWAP2 ADD JUMPDEST PUSH9 0x10000000000000000 DUP3 LT PUSH2 0x4450 JUMPI PUSH1 0x40 SWAP2 DUP3 SHR SWAP2 ADD JUMPDEST PUSH1 0x1 PUSH1 0x20 SHL DUP3 LT PUSH2 0x4463 JUMPI PUSH1 0x20 SWAP2 DUP3 SHR SWAP2 ADD JUMPDEST PUSH3 0x10000 DUP3 LT PUSH2 0x4475 JUMPI PUSH1 0x10 SWAP2 DUP3 SHR SWAP2 ADD JUMPDEST PUSH2 0x100 DUP3 LT PUSH2 0x4486 JUMPI PUSH1 0x8 SWAP2 DUP3 SHR SWAP2 ADD JUMPDEST PUSH1 0x10 DUP3 LT PUSH2 0x4496 JUMPI PUSH1 0x4 SWAP2 DUP3 SHR SWAP2 ADD JUMPDEST PUSH1 0x4 DUP3 LT PUSH2 0x44A6 JUMPI PUSH1 0x2 SWAP2 DUP3 SHR SWAP2 ADD JUMPDEST PUSH1 0x2 DUP3 LT PUSH2 0x2B62 JUMPI PUSH1 0x1 ADD SWAP2 SWAP1 POP JUMP JUMPDEST PUSH1 0x0 DUP1 DUP3 GT PUSH2 0x44C4 JUMPI PUSH1 0x0 DUP1 REVERT JUMPDEST POP PUSH1 0xFF PUSH1 0x1 PUSH1 0x1 PUSH1 0x80 SHL SUB DUP3 AND ISZERO PUSH2 0x44DF JUMPI PUSH1 0x7F NOT ADD PUSH2 0x44E7 JUMP JUMPDEST PUSH1 0x80 DUP3 SWAP1 SHR SWAP2 POP JUMPDEST PUSH8 0xFFFFFFFFFFFFFFFF DUP3 AND ISZERO PUSH2 0x4500 JUMPI PUSH1 0x3F NOT ADD PUSH2 0x4508 JUMP JUMPDEST PUSH1 0x40 DUP3 SWAP1 SHR SWAP2 POP JUMPDEST PUSH4 0xFFFFFFFF DUP3 AND ISZERO PUSH2 0x451D JUMPI PUSH1 0x1F NOT ADD PUSH2 0x4525 JUMP JUMPDEST PUSH1 0x20 DUP3 SWAP1 SHR SWAP2 POP JUMPDEST PUSH2 0xFFFF DUP3 AND ISZERO PUSH2 0x4538 JUMPI PUSH1 0xF NOT ADD PUSH2 0x4540 JUMP JUMPDEST PUSH1 0x10 DUP3 SWAP1 SHR SWAP2 POP JUMPDEST PUSH1 0xFF DUP3 AND ISZERO PUSH2 0x4552 JUMPI PUSH1 0x7 NOT ADD PUSH2 0x455A JUMP JUMPDEST PUSH1 0x8 DUP3 SWAP1 SHR SWAP2 POP JUMPDEST PUSH1 0xF DUP3 AND ISZERO PUSH2 0x456C JUMPI PUSH1 0x3 NOT ADD PUSH2 0x4574 JUMP JUMPDEST PUSH1 0x4 DUP3 SWAP1 SHR SWAP2 POP JUMPDEST PUSH1 0x3 DUP3 AND ISZERO PUSH2 0x4586 JUMPI PUSH1 0x1 NOT ADD PUSH2 0x458E JUMP JUMPDEST PUSH1 0x2 DUP3 SWAP1 SHR SWAP2 POP JUMPDEST PUSH1 0x1 DUP3 AND ISZERO PUSH2 0x2B62 JUMPI PUSH1 0x0 NOT ADD SWAP2 SWAP1 POP JUMP JUMPDEST PUSH1 0x0 DUP4 PUSH1 0x1 PUSH1 0x1 PUSH1 0xA0 SHL SUB AND DUP6 PUSH1 0x1 PUSH1 0x1 PUSH1 0xA0 SHL SUB AND GT ISZERO PUSH2 0x45C0 JUMPI SWAP3 SWAP4 SWAP3 JUMPDEST DUP2 PUSH2 0x45ED JUMPI PUSH2 0x45E8 DUP4 PUSH1 0x1 PUSH1 0x1 PUSH1 0x80 SHL SUB AND DUP7 DUP7 SUB PUSH1 0x1 PUSH1 0x1 PUSH1 0xA0 SHL SUB AND PUSH1 0x1 PUSH1 0x60 SHL PUSH2 0x324F JUMP JUMPDEST PUSH2 0x4610 JUMP JUMPDEST PUSH2 0x4610 DUP4 PUSH1 0x1 PUSH1 0x1 PUSH1 0x80 SHL SUB AND DUP7 DUP7 SUB PUSH1 0x1 PUSH1 0x1 PUSH1 0xA0 SHL SUB AND PUSH1 0x1 PUSH1 0x60 SHL PUSH2 0x40F8 JUMP JUMPDEST SWAP1 POP JUMPDEST SWAP5 SWAP4 POP POP POP POP JUMP JUMPDEST PUSH1 0x0 DUP4 PUSH1 0x1 PUSH1 0x1 PUSH1 0xA0 SHL SUB AND DUP6 PUSH1 0x1 PUSH1 0x1 PUSH1 0xA0 SHL SUB AND GT ISZERO PUSH2 0x463B JUMPI SWAP3 SWAP4 SWAP3 JUMPDEST PUSH16 0xFFFFFFFFFFFFFFFFFFFFFFFFFFFFFFFF PUSH1 0x60 SHL PUSH1 0x60 DUP5 SWAP1 SHL AND PUSH1 0x1 PUSH1 0x1 PUSH1 0xA0 SHL SUB DUP7 DUP7 SUB DUP2 AND SWAP1 DUP8 AND PUSH2 0x466E JUMPI PUSH1 0x0 DUP1 REVERT JUMPDEST DUP4 PUSH2 0x469E JUMPI DUP7 PUSH1 0x1 PUSH1 0x1 PUSH1 0xA0 SHL SUB AND PUSH2 0x4691 DUP4 DUP4 DUP10 PUSH1 0x1 PUSH1 0x1 PUSH1 0xA0 SHL SUB AND PUSH2 0x324F JUMP JUMPDEST DUP2 PUSH2 0x4698 JUMPI INVALID JUMPDEST DIV PUSH2 0x46C4 JUMP JUMPDEST PUSH2 0x46C4 PUSH2 0x46B5 DUP4 DUP4 DUP10 PUSH1 0x1 PUSH1 0x1 PUSH1 0xA0 SHL SUB AND PUSH2 0x40F8 JUMP JUMPDEST DUP9 PUSH1 0x1 PUSH1 0x1 PUSH1 0xA0 SHL SUB AND PUSH2 0x4C39 JUMP JUMPDEST SWAP8 SWAP7 POP POP POP POP POP POP POP JUMP JUMPDEST PUSH1 0x0 DUP1 DUP6 PUSH1 0x1 PUSH1 0x1 PUSH1 0xA0 SHL SUB AND GT PUSH2 0x46E6 JUMPI PUSH1 0x0 DUP1 REVERT JUMPDEST PUSH1 0x0 DUP5 PUSH1 0x1 PUSH1 0x1 PUSH1 0x80 SHL SUB AND GT PUSH2 0x46FC JUMPI PUSH1 0x0 DUP1 REVERT JUMPDEST DUP2 PUSH2 0x470E JUMPI PUSH2 0x45E8 DUP6 DUP6 DUP6 PUSH1 0x1 PUSH2 0x4C44 JUMP JUMPDEST PUSH2 0x4610 DUP6 DUP6 DUP6 PUSH1 0x1 PUSH2 0x4D25 JUMP JUMPDEST PUSH1 0x0 DUP1 DUP6 PUSH1 0x1 PUSH1 0x1 PUSH1 0xA0 SHL SUB AND GT PUSH2 0x4732 JUMPI PUSH1 0x0 DUP1 REVERT JUMPDEST PUSH1 0x0 DUP5 PUSH1 0x1 PUSH1 0x1 PUSH1 0x80 SHL SUB AND GT PUSH2 0x4748 JUMPI PUSH1 0x0 DUP1 REVERT JUMPDEST DUP2 PUSH2 0x475A JUMPI PUSH2 0x45E8 DUP6 DUP6 DUP6 PUSH1 0x0 PUSH2 0x4D25 JUMP JUMPDEST PUSH2 0x4610 DUP6 DUP6 DUP6 PUSH1 0x0 PUSH2 0x4C44 JUMP JUMPDEST PUSH2 0x476F PUSH2 0x555F JUMP JUMPDEST PUSH1 0x0 DUP6 PUSH1 0x0 ADD MLOAD DUP6 SUB SWAP1 POP PUSH1 0x40 MLOAD DUP1 PUSH1 0x80 ADD PUSH1 0x40 MSTORE DUP1 DUP7 PUSH4 0xFFFFFFFF AND DUP2 MSTORE PUSH1 0x20 ADD DUP3 PUSH4 0xFFFFFFFF AND DUP7 PUSH1 0x2 SIGNEXTEND MUL DUP9 PUSH1 0x20 ADD MLOAD ADD PUSH1 0x6 SIGNEXTEND DUP2 MSTORE PUSH1 0x20 ADD PUSH1 0x0 DUP6 PUSH1 0x1 PUSH1 0x1 PUSH1 0x80 SHL SUB AND GT PUSH2 0x47C3 JUMPI PUSH1 0x1 PUSH2 0x47C5 JUMP JUMPDEST DUP5 JUMPDEST PUSH1 0x1 PUSH1 0x1 PUSH1 0x80 SHL SUB AND PUSH20 0xFFFFFFFF00000000000000000000000000000000 PUSH1 0x80 DUP6 SWAP1 SHL AND DUP2 PUSH2 0x47F0 JUMPI INVALID JUMPDEST DIV DUP9 PUSH1 0x40 ADD MLOAD ADD PUSH1 0x1 PUSH1 0x1 PUSH1 0xA0 SHL SUB AND DUP2 MSTORE PUSH1 0x20 ADD PUSH1 0x1 ISZERO ISZERO DUP2 MSTORE POP SWAP2 POP POP SWAP5 SWAP4 POP POP POP POP JUMP JUMPDEST PUSH2 0x481F PUSH2 0x555F JUMP JUMPDEST PUSH2 0x4827 PUSH2 0x555F JUMP JUMPDEST DUP9 DUP6 PUSH2 0xFFFF AND PUSH2 0xFFFF DUP2 LT PUSH2 0x4838 JUMPI INVALID JUMPDEST PUSH1 0x40 DUP1 MLOAD PUSH1 0x80 DUP2 ADD DUP3 MSTORE SWAP2 SWAP1 SWAP3 ADD SLOAD PUSH4 0xFFFFFFFF DUP2 AND DUP1 DUP4 MSTORE PUSH1 0x1 PUSH1 0x20 SHL DUP3 DIV PUSH1 0x6 SWAP1 DUP2 SIGNEXTEND DUP2 SIGNEXTEND SWAP1 SIGNEXTEND PUSH1 0x20 DUP5 ADD MSTORE PUSH1 0x1 PUSH1 0x58 SHL DUP3 DIV PUSH1 0x1 PUSH1 0x1 PUSH1 0xA0 SHL SUB AND SWAP4 DUP4 ADD SWAP4 SWAP1 SWAP4 MSTORE PUSH1 0x1 PUSH1 0xF8 SHL SWAP1 DIV PUSH1 0xFF AND ISZERO ISZERO PUSH1 0x60 DUP3 ADD MSTORE SWAP3 POP PUSH2 0x489C SWAP1 DUP10 SWAP1 DUP10 PUSH2 0x4E11 JUMP JUMPDEST ISZERO PUSH2 0x48D4 JUMPI DUP7 PUSH4 0xFFFFFFFF AND DUP3 PUSH1 0x0 ADD MLOAD PUSH4 0xFFFFFFFF AND EQ ISZERO PUSH2 0x48BE JUMPI PUSH2 0x3485 JUMP JUMPDEST DUP2 PUSH2 0x48CB DUP4 DUP10 DUP10 DUP9 PUSH2 0x4767 JUMP JUMPDEST SWAP2 POP SWAP2 POP PUSH2 0x3485 JUMP JUMPDEST DUP9 DUP4 PUSH2 0xFFFF AND DUP7 PUSH1 0x1 ADD PUSH2 0xFFFF AND DUP2 PUSH2 0x48E9 JUMPI INVALID JUMPDEST MOD PUSH2 0xFFFF AND PUSH2 0xFFFF DUP2 LT PUSH2 0x48F9 JUMPI INVALID JUMPDEST PUSH1 0x40 DUP1 MLOAD PUSH1 0x80 DUP2 ADD DUP3 MSTORE SWAP3 SWAP1 SWAP2 ADD SLOAD PUSH4 0xFFFFFFFF DUP2 AND DUP4 MSTORE PUSH1 0x1 PUSH1 0x20 SHL DUP2 DIV PUSH1 0x6 SWAP1 DUP2 SIGNEXTEND DUP2 SIGNEXTEND SWAP1 SIGNEXTEND PUSH1 0x20 DUP5 ADD MSTORE PUSH1 0x1 PUSH1 0x1 PUSH1 0xA0 SHL SUB PUSH1 0x1 PUSH1 0x58 SHL DUP3 DIV AND SWAP2 DUP4 ADD SWAP2 SWAP1 SWAP2 MSTORE PUSH1 0xFF PUSH1 0x1 PUSH1 0xF8 SHL SWAP1 SWAP2 DIV AND ISZERO ISZERO PUSH1 0x60 DUP3 ADD DUP2 SWAP1 MSTORE SWAP1 SWAP3 POP PUSH2 0x49AE JUMPI PUSH1 0x40 DUP1 MLOAD PUSH1 0x80 DUP2 ADD DUP3 MSTORE DUP11 SLOAD PUSH4 0xFFFFFFFF DUP2 AND DUP3 MSTORE PUSH1 0x1 PUSH1 0x20 SHL DUP2 DIV PUSH1 0x6 SWAP1 DUP2 SIGNEXTEND DUP2 SIGNEXTEND SWAP1 SIGNEXTEND PUSH1 0x20 DUP4 ADD MSTORE PUSH1 0x1 PUSH1 0x58 SHL DUP2 DIV PUSH1 0x1 PUSH1 0x1 PUSH1 0xA0 SHL SUB AND SWAP3 DUP3 ADD SWAP3 SWAP1 SWAP3 MSTORE PUSH1 0x1 PUSH1 0xF8 SHL SWAP1 SWAP2 DIV PUSH1 0xFF AND ISZERO ISZERO PUSH1 0x60 DUP3 ADD MSTORE SWAP2 POP JUMPDEST PUSH2 0x49BD DUP9 DUP4 PUSH1 0x0 ADD MLOAD DUP10 PUSH2 0x4E11 JUMP JUMPDEST PUSH2 0x49F4 JUMPI PUSH1 0x40 DUP1 MLOAD PUSH3 0x461BCD PUSH1 0xE5 SHL DUP2 MSTORE PUSH1 0x20 PUSH1 0x4 DUP3 ADD MSTORE PUSH1 0x3 PUSH1 0x24 DUP3 ADD MSTORE PUSH3 0x13D311 PUSH1 0xEA SHL PUSH1 0x44 DUP3 ADD MSTORE SWAP1 MLOAD SWAP1 DUP2 SWAP1 SUB PUSH1 0x64 ADD SWAP1 REVERT JUMPDEST PUSH2 0x4A01 DUP10 DUP10 DUP10 DUP9 DUP8 PUSH2 0x4ED2 JUMP JUMPDEST SWAP2 POP SWAP2 POP SWAP8 POP SWAP8 SWAP6 POP POP POP POP POP POP JUMP JUMPDEST PUSH1 0x0 PUSH2 0x4A20 PUSH1 0x7 DUP8 DUP8 DUP8 PUSH2 0x4132 JUMP JUMPDEST PUSH1 0x1 SLOAD PUSH1 0x2 SLOAD SWAP2 SWAP3 POP SWAP1 PUSH1 0x0 DUP1 PUSH1 0xF DUP8 SWAP1 SIGNEXTEND ISZERO PUSH2 0x4B66 JUMPI PUSH1 0x0 PUSH2 0x4A41 PUSH2 0x2B9E JUMP JUMPDEST PUSH1 0x0 DUP1 SLOAD PUSH1 0x4 SLOAD SWAP3 SWAP4 POP SWAP1 SWAP2 DUP3 SWAP2 PUSH2 0x4A8B SWAP2 PUSH1 0x8 SWAP2 DUP7 SWAP2 DUP6 SWAP2 PUSH1 0x1 PUSH1 0xA0 SHL DUP2 DIV PUSH1 0x2 SIGNEXTEND SWAP2 PUSH2 0xFFFF PUSH1 0x1 PUSH1 0xB8 SHL DUP4 DIV DUP2 AND SWAP3 PUSH1 0x1 PUSH1 0x1 PUSH1 0x80 SHL SUB SWAP1 SWAP3 AND SWAP2 PUSH1 0x1 PUSH1 0xC8 SHL SWAP1 DIV AND PUSH2 0x32FF JUMP JUMPDEST SWAP1 SWAP3 POP SWAP1 POP PUSH2 0x4AC5 PUSH1 0x5 DUP14 DUP12 DUP14 DUP12 DUP12 DUP8 DUP10 DUP12 PUSH1 0x0 PUSH32 0x0 PUSH2 0x5070 JUMP JUMPDEST SWAP5 POP PUSH2 0x4AFC PUSH1 0x5 DUP13 DUP12 DUP14 DUP12 DUP12 DUP8 DUP10 DUP12 PUSH1 0x1 PUSH32 0x0 PUSH2 0x5070 JUMP JUMPDEST SWAP4 POP DUP5 ISZERO PUSH2 0x4B30 JUMPI PUSH2 0x4B30 PUSH1 0x6 DUP14 PUSH32 0x0 PUSH2 0x523A JUMP JUMPDEST DUP4 ISZERO PUSH2 0x4B62 JUMPI PUSH2 0x4B62 PUSH1 0x6 DUP13 PUSH32 0x0 PUSH2 0x523A JUMP JUMPDEST POP POP POP JUMPDEST PUSH1 0x0 DUP1 PUSH2 0x4B78 PUSH1 0x5 DUP13 DUP13 DUP12 DUP11 DUP11 PUSH2 0x52A0 JUMP JUMPDEST SWAP1 SWAP3 POP SWAP1 POP PUSH2 0x4B89 DUP8 DUP11 DUP5 DUP5 PUSH2 0x534C JUMP JUMPDEST PUSH1 0x0 DUP10 PUSH1 0xF SIGNEXTEND SLT ISZERO PUSH2 0x4BB7 JUMPI DUP4 ISZERO PUSH2 0x4BA6 JUMPI PUSH2 0x4BA6 PUSH1 0x5 DUP13 PUSH2 0x54E1 JUMP JUMPDEST DUP3 ISZERO PUSH2 0x4BB7 JUMPI PUSH2 0x4BB7 PUSH1 0x5 DUP12 PUSH2 0x54E1 JUMP JUMPDEST POP POP POP POP POP POP SWAP6 SWAP5 POP POP POP POP POP JUMP JUMPDEST PUSH1 0x0 DUP1 DUP3 PUSH1 0xF SIGNEXTEND SLT PUSH2 0x4BEC JUMPI PUSH2 0x4BE7 PUSH2 0x4BE2 DUP6 DUP6 DUP6 PUSH1 0x1 PUSH2 0x461B JUMP JUMPDEST PUSH2 0x3207 JUMP JUMPDEST PUSH2 0x4613 JUMP JUMPDEST PUSH2 0x4BFF PUSH2 0x4BE2 DUP6 DUP6 DUP6 PUSH1 0x0 SUB PUSH1 0x0 PUSH2 0x461B JUMP JUMPDEST PUSH1 0x0 SUB SWAP5 SWAP4 POP POP POP POP JUMP JUMPDEST PUSH1 0x0 DUP1 DUP3 PUSH1 0xF SIGNEXTEND SLT PUSH2 0x4C26 JUMPI PUSH2 0x4BE7 PUSH2 0x4BE2 DUP6 DUP6 DUP6 PUSH1 0x1 PUSH2 0x45A0 JUMP JUMPDEST PUSH2 0x4BFF PUSH2 0x4BE2 DUP6 DUP6 DUP6 PUSH1 0x0 SUB PUSH1 0x0 PUSH2 0x45A0 JUMP JUMPDEST DUP1 DUP3 DIV SWAP2 MOD ISZERO ISZERO ADD SWAP1 JUMP JUMPDEST PUSH1 0x0 DUP2 ISZERO PUSH2 0x4CB7 JUMPI PUSH1 0x0 PUSH1 0x1 PUSH1 0x1 PUSH1 0xA0 SHL SUB DUP5 GT ISZERO PUSH2 0x4C7A JUMPI PUSH2 0x4C75 DUP5 PUSH1 0x1 PUSH1 0x60 SHL DUP8 PUSH1 0x1 PUSH1 0x1 PUSH1 0x80 SHL SUB AND PUSH2 0x324F JUMP JUMPDEST PUSH2 0x4C92 JUMP JUMPDEST PUSH1 0x1 PUSH1 0x1 PUSH1 0x80 SHL SUB DUP6 AND PUSH1 0x60 DUP6 SWAP1 SHL DUP2 PUSH2 0x4C90 JUMPI INVALID JUMPDEST DIV JUMPDEST SWAP1 POP PUSH2 0x4CAF PUSH2 0x4CAA PUSH1 0x1 PUSH1 0x1 PUSH1 0xA0 SHL SUB DUP9 AND DUP4 PUSH2 0x3D5C JUMP JUMPDEST PUSH2 0x550D JUMP JUMPDEST SWAP2 POP POP PUSH2 0x4613 JUMP JUMPDEST PUSH1 0x0 PUSH1 0x1 PUSH1 0x1 PUSH1 0xA0 SHL SUB DUP5 GT ISZERO PUSH2 0x4CE5 JUMPI PUSH2 0x4CE0 DUP5 PUSH1 0x1 PUSH1 0x60 SHL DUP8 PUSH1 0x1 PUSH1 0x1 PUSH1 0x80 SHL SUB AND PUSH2 0x40F8 JUMP JUMPDEST PUSH2 0x4CFC JUMP JUMPDEST PUSH2 0x4CFC PUSH1 0x60 DUP6 SWAP1 SHL PUSH1 0x1 PUSH1 0x1 PUSH1 0x80 SHL SUB DUP8 AND PUSH2 0x4C39 JUMP JUMPDEST SWAP1 POP DUP1 DUP7 PUSH1 0x1 PUSH1 0x1 PUSH1 0xA0 SHL SUB AND GT PUSH2 0x4D13 JUMPI PUSH1 0x0 DUP1 REVERT JUMPDEST PUSH1 0x1 PUSH1 0x1 PUSH1 0xA0 SHL SUB DUP7 AND SUB SWAP1 POP PUSH2 0x4613 JUMP JUMPDEST PUSH1 0x0 DUP3 PUSH2 0x4D33 JUMPI POP DUP4 PUSH2 0x4613 JUMP JUMPDEST PUSH16 0xFFFFFFFFFFFFFFFFFFFFFFFFFFFFFFFF PUSH1 0x60 SHL PUSH1 0x60 DUP6 SWAP1 SHL AND DUP3 ISZERO PUSH2 0x4DCA JUMPI PUSH1 0x1 PUSH1 0x1 PUSH1 0xA0 SHL SUB DUP7 AND DUP5 DUP2 MUL SWAP1 DUP6 DUP3 DUP2 PUSH2 0x4D6A JUMPI INVALID JUMPDEST DIV EQ ISZERO PUSH2 0x4D9B JUMPI DUP2 DUP2 ADD DUP3 DUP2 LT PUSH2 0x4D99 JUMPI PUSH2 0x4D8F DUP4 DUP10 PUSH1 0x1 PUSH1 0x1 PUSH1 0xA0 SHL SUB AND DUP4 PUSH2 0x40F8 JUMP JUMPDEST SWAP4 POP POP POP POP PUSH2 0x4613 JUMP JUMPDEST POP JUMPDEST PUSH2 0x4DC1 DUP3 PUSH2 0x4DBC DUP8 DUP11 PUSH1 0x1 PUSH1 0x1 PUSH1 0xA0 SHL SUB AND DUP7 DUP2 PUSH2 0x4DB5 JUMPI INVALID JUMPDEST DIV SWAP1 PUSH2 0x3D5C JUMP JUMPDEST PUSH2 0x4C39 JUMP JUMPDEST SWAP3 POP POP POP PUSH2 0x4613 JUMP JUMPDEST PUSH1 0x1 PUSH1 0x1 PUSH1 0xA0 SHL SUB DUP7 AND DUP5 DUP2 MUL SWAP1 DUP6 DUP3 DUP2 PUSH2 0x4DE1 JUMPI INVALID JUMPDEST DIV EQ DUP1 ISZERO PUSH2 0x4DEE JUMPI POP DUP1 DUP3 GT JUMPDEST PUSH2 0x4DF7 JUMPI PUSH1 0x0 DUP1 REVERT JUMPDEST DUP1 DUP3 SUB PUSH2 0x4D8F PUSH2 0x4CAA DUP5 PUSH1 0x1 PUSH1 0x1 PUSH1 0xA0 SHL SUB DUP12 AND DUP5 PUSH2 0x40F8 JUMP JUMPDEST PUSH1 0x0 DUP4 PUSH4 0xFFFFFFFF AND DUP4 PUSH4 0xFFFFFFFF AND GT ISZERO DUP1 ISZERO PUSH2 0x4E3B JUMPI POP DUP4 PUSH4 0xFFFFFFFF AND DUP3 PUSH4 0xFFFFFFFF AND GT ISZERO JUMPDEST ISZERO PUSH2 0x4E57 JUMPI DUP2 PUSH4 0xFFFFFFFF AND DUP4 PUSH4 0xFFFFFFFF AND GT ISZERO SWAP1 POP PUSH2 0x32F8 JUMP JUMPDEST PUSH1 0x0 DUP5 PUSH4 0xFFFFFFFF AND DUP5 PUSH4 0xFFFFFFFF AND GT PUSH2 0x4E7E JUMPI DUP4 PUSH4 0xFFFFFFFF AND PUSH1 0x1 PUSH1 0x20 SHL ADD PUSH2 0x4E86 JUMP JUMPDEST DUP4 PUSH4 0xFFFFFFFF AND JUMPDEST PUSH5 0xFFFFFFFFFF AND SWAP1 POP PUSH1 0x0 DUP6 PUSH4 0xFFFFFFFF AND DUP5 PUSH4 0xFFFFFFFF AND GT PUSH2 0x4EB6 JUMPI DUP4 PUSH4 0xFFFFFFFF AND PUSH1 0x1 PUSH1 0x20 SHL ADD PUSH2 0x4EBE JUMP JUMPDEST DUP4 PUSH4 0xFFFFFFFF AND JUMPDEST PUSH5 0xFFFFFFFFFF AND SWAP1 SWAP2 GT ISZERO SWAP6 SWAP5 POP POP POP POP POP JUMP JUMPDEST PUSH2 0x4EDA PUSH2 0x555F JUMP JUMPDEST PUSH2 0x4EE2 PUSH2 0x555F JUMP JUMPDEST PUSH1 0x0 DUP4 PUSH2 0xFFFF AND DUP6 PUSH1 0x1 ADD PUSH2 0xFFFF AND DUP2 PUSH2 0x4EF8 JUMPI INVALID JUMPDEST MOD PUSH2 0xFFFF AND SWAP1 POP PUSH1 0x0 PUSH1 0x1 DUP6 PUSH2 0xFFFF AND DUP4 ADD SUB SWAP1 POP PUSH1 0x0 JUMPDEST POP PUSH1 0x2 DUP2 DUP4 ADD DIV DUP10 PUSH2 0xFFFF DUP8 AND DUP3 DUP2 PUSH2 0x4F25 JUMPI INVALID JUMPDEST MOD PUSH2 0xFFFF DUP2 LT PUSH2 0x4F31 JUMPI INVALID JUMPDEST PUSH1 0x40 DUP1 MLOAD PUSH1 0x80 DUP2 ADD DUP3 MSTORE SWAP3 SWAP1 SWAP2 ADD SLOAD PUSH4 0xFFFFFFFF DUP2 AND DUP4 MSTORE PUSH1 0x1 PUSH1 0x20 SHL DUP2 DIV PUSH1 0x6 SWAP1 DUP2 SIGNEXTEND DUP2 SIGNEXTEND SWAP1 SIGNEXTEND PUSH1 0x20 DUP5 ADD MSTORE PUSH1 0x1 PUSH1 0x1 PUSH1 0xA0 SHL SUB PUSH1 0x1 PUSH1 0x58 SHL DUP3 DIV AND SWAP2 DUP4 ADD SWAP2 SWAP1 SWAP2 MSTORE PUSH1 0xFF PUSH1 0x1 PUSH1 0xF8 SHL SWAP1 SWAP2 DIV AND ISZERO ISZERO PUSH1 0x60 DUP3 ADD DUP2 SWAP1 MSTORE SWAP1 SWAP6 POP PUSH2 0x4F9B JUMPI DUP1 PUSH1 0x1 ADD SWAP3 POP PUSH2 0x4F10 JUMP JUMPDEST DUP10 DUP7 PUSH2 0xFFFF AND DUP3 PUSH1 0x1 ADD DUP2 PUSH2 0x4FAC JUMPI INVALID JUMPDEST MOD PUSH2 0xFFFF DUP2 LT PUSH2 0x4FB8 JUMPI INVALID JUMPDEST PUSH1 0x40 DUP1 MLOAD PUSH1 0x80 DUP2 ADD DUP3 MSTORE SWAP3 SWAP1 SWAP2 ADD SLOAD PUSH4 0xFFFFFFFF DUP2 AND DUP4 MSTORE PUSH1 0x1 PUSH1 0x20 SHL DUP2 DIV PUSH1 0x6 SWAP1 DUP2 SIGNEXTEND DUP2 SIGNEXTEND SWAP1 SIGNEXTEND PUSH1 0x20 DUP5 ADD MSTORE PUSH1 0x1 PUSH1 0x1 PUSH1 0xA0 SHL SUB PUSH1 0x1 PUSH1 0x58 SHL DUP3 DIV AND SWAP2 DUP4 ADD SWAP2 SWAP1 SWAP2 MSTORE PUSH1 0xFF PUSH1 0x1 PUSH1 0xF8 SHL SWAP1 SWAP2 DIV AND ISZERO ISZERO PUSH1 0x60 DUP3 ADD MSTORE DUP6 MLOAD SWAP1 SWAP5 POP PUSH1 0x0 SWAP1 PUSH2 0x5022 SWAP1 DUP12 SWAP1 DUP12 PUSH2 0x4E11 JUMP JUMPDEST SWAP1 POP DUP1 DUP1 ISZERO PUSH2 0x503B JUMPI POP PUSH2 0x503B DUP11 DUP11 DUP8 PUSH1 0x0 ADD MLOAD PUSH2 0x4E11 JUMP JUMPDEST ISZERO PUSH2 0x5046 JUMPI POP PUSH2 0x5063 JUMP JUMPDEST DUP1 PUSH2 0x5056 JUMPI PUSH1 0x1 DUP3 SUB SWAP3 POP PUSH2 0x505D JUMP JUMPDEST DUP2 PUSH1 0x1 ADD SWAP4 POP JUMPDEST POP PUSH2 0x4F10 JUMP JUMPDEST POP POP POP SWAP6 POP SWAP6 SWAP4 POP POP POP POP JUMP JUMPDEST PUSH1 0x2 DUP11 DUP2 SIGNEXTEND SWAP1 SIGNEXTEND PUSH1 0x0 SWAP1 DUP2 MSTORE PUSH1 0x20 DUP13 SWAP1 MSTORE PUSH1 0x40 DUP2 KECCAK256 DUP1 SLOAD PUSH1 0x1 PUSH1 0x1 PUSH1 0x80 SHL SUB AND DUP3 PUSH2 0x509B DUP3 DUP14 PUSH2 0x355C JUMP JUMPDEST SWAP1 POP DUP5 PUSH1 0x1 PUSH1 0x1 PUSH1 0x80 SHL SUB AND DUP2 PUSH1 0x1 PUSH1 0x1 PUSH1 0x80 SHL SUB AND GT ISZERO PUSH2 0x50E9 JUMPI PUSH1 0x40 DUP1 MLOAD PUSH3 0x461BCD PUSH1 0xE5 SHL DUP2 MSTORE PUSH1 0x20 PUSH1 0x4 DUP3 ADD MSTORE PUSH1 0x2 PUSH1 0x24 DUP3 ADD MSTORE PUSH2 0x4C4F PUSH1 0xF0 SHL PUSH1 0x44 DUP3 ADD MSTORE SWAP1 MLOAD SWAP1 DUP2 SWAP1 SUB PUSH1 0x64 ADD SWAP1 REVERT JUMPDEST PUSH1 0x1 PUSH1 0x1 PUSH1 0x80 SHL SUB DUP3 DUP2 AND ISZERO SWAP1 DUP3 AND ISZERO DUP2 EQ ISZERO SWAP5 POP ISZERO PUSH2 0x519F JUMPI DUP13 PUSH1 0x2 SIGNEXTEND DUP15 PUSH1 0x2 SIGNEXTEND SGT PUSH2 0x5187 JUMPI PUSH1 0x1 DUP4 ADD DUP12 SWAP1 SSTORE PUSH1 0x2 DUP4 ADD DUP11 SWAP1 SSTORE PUSH1 0x3 DUP4 ADD DUP1 SLOAD PUSH27 0xFFFFFFFFFFFFFFFFFFFFFFFFFFFFFFFFFFFFFFFF00000000000000 NOT AND PUSH1 0x1 PUSH1 0x38 SHL PUSH1 0x1 PUSH1 0x1 PUSH1 0xA0 SHL SUB DUP13 AND MUL OR PUSH7 0xFFFFFFFFFFFFFF NOT AND PUSH7 0xFFFFFFFFFFFFFF PUSH1 0x6 DUP12 SWAP1 SIGNEXTEND AND OR PUSH4 0xFFFFFFFF PUSH1 0xD8 SHL NOT AND PUSH1 0x1 PUSH1 0xD8 SHL PUSH4 0xFFFFFFFF DUP11 AND MUL OR SWAP1 SSTORE JUMPDEST PUSH1 0x3 DUP4 ADD DUP1 SLOAD PUSH1 0x1 PUSH1 0x1 PUSH1 0xF8 SHL SUB AND PUSH1 0x1 PUSH1 0xF8 SHL OR SWAP1 SSTORE JUMPDEST DUP3 SLOAD PUSH1 0x1 PUSH1 0x1 PUSH1 0x80 SHL SUB NOT AND PUSH1 0x1 PUSH1 0x1 PUSH1 0x80 SHL SUB DUP3 AND OR DUP4 SSTORE DUP6 PUSH2 0x51E8 JUMPI DUP3 SLOAD PUSH2 0x51E3 SWAP1 PUSH2 0x51DE SWAP1 PUSH1 0x1 PUSH1 0x80 SHL SWAP1 DIV PUSH1 0xF SWAP1 DUP2 SIGNEXTEND DUP2 SIGNEXTEND SWAP1 DUP16 SWAP1 SIGNEXTEND PUSH2 0x3239 JUMP JUMPDEST PUSH2 0x3EA7 JUMP JUMPDEST PUSH2 0x5209 JUMP JUMPDEST DUP3 SLOAD PUSH2 0x5209 SWAP1 PUSH2 0x51DE SWAP1 PUSH1 0x1 PUSH1 0x80 SHL SWAP1 DIV PUSH1 0xF SWAP1 DUP2 SIGNEXTEND DUP2 SIGNEXTEND SWAP1 DUP16 SWAP1 SIGNEXTEND PUSH2 0x321D JUMP JUMPDEST DUP4 SLOAD PUSH1 0xF SWAP2 SWAP1 SWAP2 SIGNEXTEND PUSH1 0x1 PUSH1 0x1 PUSH1 0x80 SHL SUB SWAP1 DUP2 AND PUSH1 0x1 PUSH1 0x80 SHL MUL SWAP2 AND OR SWAP1 SWAP3 SSTORE POP SWAP1 SWAP13 SWAP12 POP POP POP POP POP POP POP POP POP POP POP POP JUMP JUMPDEST DUP1 PUSH1 0x2 SIGNEXTEND DUP3 PUSH1 0x2 SIGNEXTEND DUP2 PUSH2 0x5249 JUMPI INVALID JUMPDEST SMOD PUSH1 0x2 SIGNEXTEND ISZERO PUSH2 0x5257 JUMPI PUSH1 0x0 DUP1 REVERT JUMPDEST PUSH1 0x0 DUP1 PUSH2 0x5272 DUP4 PUSH1 0x2 SIGNEXTEND DUP6 PUSH1 0x2 SIGNEXTEND DUP2 PUSH2 0x526C JUMPI INVALID JUMPDEST SDIV PUSH2 0x4405 JUMP JUMPDEST PUSH1 0x1 SWAP2 DUP3 SIGNEXTEND DUP3 SIGNEXTEND PUSH1 0x0 SWAP1 DUP2 MSTORE PUSH1 0x20 SWAP8 SWAP1 SWAP8 MSTORE PUSH1 0x40 SWAP1 SWAP7 KECCAK256 DUP1 SLOAD PUSH1 0xFF SWAP1 SWAP8 AND SWAP2 SWAP1 SWAP2 SHL SWAP1 SWAP6 XOR SWAP1 SWAP5 SSTORE POP POP POP POP JUMP JUMPDEST PUSH1 0x2 DUP6 DUP2 SIGNEXTEND DUP1 DUP3 SIGNEXTEND PUSH1 0x0 SWAP1 DUP2 MSTORE PUSH1 0x20 DUP10 SWAP1 MSTORE PUSH1 0x40 DUP1 DUP3 KECCAK256 DUP9 DUP6 SIGNEXTEND DUP6 SIGNEXTEND DUP4 MSTORE SWAP1 DUP3 KECCAK256 SWAP2 SWAP4 DUP5 SWAP4 SWAP2 SWAP3 SWAP2 DUP5 SWAP2 DUP3 SWAP2 SWAP1 DUP11 SWAP1 SIGNEXTEND SLT PUSH2 0x52E6 JUMPI POP POP PUSH1 0x1 DUP3 ADD SLOAD PUSH1 0x2 DUP4 ADD SLOAD PUSH2 0x52F9 JUMP JUMPDEST DUP4 PUSH1 0x1 ADD SLOAD DUP9 SUB SWAP2 POP DUP4 PUSH1 0x2 ADD SLOAD DUP8 SUB SWAP1 POP JUMPDEST PUSH1 0x0 DUP1 DUP12 PUSH1 0x2 SIGNEXTEND DUP12 PUSH1 0x2 SIGNEXTEND SLT ISZERO PUSH2 0x531B JUMPI POP POP PUSH1 0x1 DUP4 ADD SLOAD PUSH1 0x2 DUP5 ADD SLOAD PUSH2 0x532E JUMP JUMPDEST DUP5 PUSH1 0x1 ADD SLOAD DUP11 SUB SWAP2 POP DUP5 PUSH1 0x2 ADD SLOAD DUP10 SUB SWAP1 POP JUMPDEST SWAP3 SWAP1 SWAP9 SUB SWAP8 SWAP1 SWAP8 SUB SWAP12 SWAP7 SWAP1 SWAP6 SUB SWAP5 SWAP1 SWAP5 SUB SWAP9 POP SWAP4 SWAP7 POP POP POP POP POP POP POP JUMP JUMPDEST PUSH1 0x40 DUP1 MLOAD PUSH1 0xA0 DUP2 ADD DUP3 MSTORE DUP6 SLOAD PUSH1 0x1 PUSH1 0x1 PUSH1 0x80 SHL SUB SWAP1 DUP2 AND DUP3 MSTORE PUSH1 0x1 DUP8 ADD SLOAD PUSH1 0x20 DUP4 ADD MSTORE PUSH1 0x2 DUP8 ADD SLOAD SWAP3 DUP3 ADD SWAP3 SWAP1 SWAP3 MSTORE PUSH1 0x3 DUP7 ADD SLOAD DUP1 DUP4 AND PUSH1 0x60 DUP4 ADD MSTORE PUSH1 0x1 PUSH1 0x80 SHL SWAP1 DIV SWAP1 SWAP2 AND PUSH1 0x80 DUP3 ADD MSTORE PUSH1 0x0 PUSH1 0xF DUP6 SWAP1 SIGNEXTEND PUSH2 0x53EB JUMPI DUP2 MLOAD PUSH1 0x1 PUSH1 0x1 PUSH1 0x80 SHL SUB AND PUSH2 0x53E3 JUMPI PUSH1 0x40 DUP1 MLOAD PUSH3 0x461BCD PUSH1 0xE5 SHL DUP2 MSTORE PUSH1 0x20 PUSH1 0x4 DUP3 ADD MSTORE PUSH1 0x2 PUSH1 0x24 DUP3 ADD MSTORE PUSH2 0x4E5 PUSH1 0xF4 SHL PUSH1 0x44 DUP3 ADD MSTORE SWAP1 MLOAD SWAP1 DUP2 SWAP1 SUB PUSH1 0x64 ADD SWAP1 REVERT JUMPDEST POP DUP1 MLOAD PUSH2 0x53FA JUMP JUMPDEST DUP2 MLOAD PUSH2 0x53F7 SWAP1 DUP7 PUSH2 0x355C JUMP JUMPDEST SWAP1 POP JUMPDEST PUSH1 0x0 PUSH2 0x541E DUP4 PUSH1 0x20 ADD MLOAD DUP7 SUB DUP5 PUSH1 0x0 ADD MLOAD PUSH1 0x1 PUSH1 0x1 PUSH1 0x80 SHL SUB AND PUSH1 0x1 PUSH1 0x80 SHL PUSH2 0x324F JUMP JUMPDEST SWAP1 POP PUSH1 0x0 PUSH2 0x5444 DUP5 PUSH1 0x40 ADD MLOAD DUP7 SUB DUP6 PUSH1 0x0 ADD MLOAD PUSH1 0x1 PUSH1 0x1 PUSH1 0x80 SHL SUB AND PUSH1 0x1 PUSH1 0x80 SHL PUSH2 0x324F JUMP JUMPDEST SWAP1 POP DUP7 PUSH1 0xF SIGNEXTEND PUSH1 0x0 EQ PUSH2 0x546B JUMPI DUP8 SLOAD PUSH1 0x1 PUSH1 0x1 PUSH1 0x80 SHL SUB NOT AND PUSH1 0x1 PUSH1 0x1 PUSH1 0x80 SHL SUB DUP5 AND OR DUP9 SSTORE JUMPDEST PUSH1 0x1 DUP9 ADD DUP7 SWAP1 SSTORE PUSH1 0x2 DUP9 ADD DUP6 SWAP1 SSTORE PUSH1 0x1 PUSH1 0x1 PUSH1 0x80 SHL SUB DUP3 AND ISZERO ISZERO DUP1 PUSH2 0x5499 JUMPI POP PUSH1 0x0 DUP2 PUSH1 0x1 PUSH1 0x1 PUSH1 0x80 SHL SUB AND GT JUMPDEST ISZERO PUSH2 0x54D7 JUMPI PUSH1 0x3 DUP9 ADD DUP1 SLOAD PUSH1 0x1 PUSH1 0x1 PUSH1 0x80 SHL SUB NOT DUP2 AND PUSH1 0x1 PUSH1 0x1 PUSH1 0x80 SHL SUB SWAP2 DUP3 AND DUP6 ADD DUP3 AND OR DUP1 DUP3 AND PUSH1 0x1 PUSH1 0x80 SHL SWAP2 DUP3 SWAP1 DIV DUP4 AND DUP6 ADD SWAP1 SWAP3 AND MUL OR SWAP1 SSTORE JUMPDEST POP POP POP POP POP POP POP POP JUMP JUMPDEST PUSH1 0x2 SWAP1 DUP2 SIGNEXTEND DUP2 SIGNEXTEND PUSH1 0x0 SWAP1 DUP2 MSTORE PUSH1 0x20 SWAP3 SWAP1 SWAP3 MSTORE PUSH1 0x40 DUP3 KECCAK256 DUP3 DUP2 SSTORE PUSH1 0x1 DUP2 ADD DUP4 SWAP1 SSTORE SWAP1 DUP2 ADD DUP3 SWAP1 SSTORE PUSH1 0x3 ADD SSTORE JUMP JUMPDEST DUP1 PUSH1 0x1 PUSH1 0x1 PUSH1 0xA0 SHL SUB DUP2 AND DUP2 EQ PUSH2 0x2B62 JUMPI PUSH1 0x0 DUP1 REVERT JUMPDEST PUSH1 0x40 DUP1 MLOAD PUSH1 0xE0 DUP2 ADD DUP3 MSTORE PUSH1 0x0 DUP1 DUP3 MSTORE PUSH1 0x20 DUP3 ADD DUP2 SWAP1 MSTORE SWAP2 DUP2 ADD DUP3 SWAP1 MSTORE PUSH1 0x60 DUP2 ADD DUP3 SWAP1 MSTORE PUSH1 0x80 DUP2 ADD DUP3 SWAP1 MSTORE PUSH1 0xA0 DUP2 ADD DUP3 SWAP1 MSTORE PUSH1 0xC0 DUP2 ADD SWAP2 SWAP1 SWAP2 MSTORE SWAP1 JUMP JUMPDEST PUSH1 0x40 DUP1 MLOAD PUSH1 0x80 DUP2 ADD DUP3 MSTORE PUSH1 0x0 DUP1 DUP3 MSTORE PUSH1 0x20 DUP3 ADD DUP2 SWAP1 MSTORE SWAP2 DUP2 ADD DUP3 SWAP1 MSTORE PUSH1 0x60 DUP2 ADD SWAP2 SWAP1 SWAP2 MSTORE SWAP1 JUMP INVALID LOG2 PUSH5 0x6970667358 0x22 SLT KECCAK256 SWAP2 0xB9 DUP4 OR DUP3 DUP11 LOG4 COINBASE DUP7 0x4D DUP11 0xD1 0x5C POP 0xD2 SWAP15 GASPRICE 0xD6 TIMESTAMP 0x49 0x5D 0xD0 0xEC BLOCKHASH ADDRESS MSTORE8 ADDRESS EQ PUSH12 0xD600A864736F6C6343000706 STOP CALLER LOG2 PUSH5 0x6970667358 0x22 SLT KECCAK256 SHL 0xED 0xD3 MSTORE BYTE PUSH21 0x914854FB2C64EBD48C19EC57C2D1907C3608FB45AF DUP7 0xA9 BYTE SMOD PUSH7 0x64736F6C634300 SMOD MOD STOP CALLER 0xC6 PUSH11 0x3FDF07232CDD185FEBCC65 PUSH26 0xD408C241B47AE2F9907D84BE655141EEAECC0000000000000000 "
		},
		"gasEstimates": {
			"creation": {
				"codeDepositCost": "4866400",
				"executionCost": "infinite",
				"totalCost": "infinite"
			},
			"external": {
				"createPool(address,address,uint24)": "infinite",
				"enableFeeAmount(uint24,int24)": "24534",
				"feeAmountTickSpacing(uint24)": "1179",
				"getPool(address,address,uint24)": "1366",
				"owner()": "1081",
				"parameters()": "2834",
				"setOwner(address)": "24268"
			}
		},
		"methodIdentifiers": {
			"createPool(address,address,uint24)": "a1671295",
			"enableFeeAmount(uint24,int24)": "8a7c195f",
			"feeAmountTickSpacing(uint24)": "22afcccb",
			"getPool(address,address,uint24)": "1698ee82",
			"owner()": "8da5cb5b",
			"parameters()": "89035730",
			"setOwner(address)": "13af4035"
		}
	},
	"abi": [
		{
			"inputs": [],
			"stateMutability": "nonpayable",
			"type": "constructor"
		},
		{
			"anonymous": false,
			"inputs": [
				{
					"indexed": true,
					"internalType": "uint24",
					"name": "fee",
					"type": "uint24"
				},
				{
					"indexed": true,
					"internalType": "int24",
					"name": "tickSpacing",
					"type": "int24"
				}
			],
			"name": "FeeAmountEnabled",
			"type": "event"
		},
		{
			"anonymous": false,
			"inputs": [
				{
					"indexed": true,
					"internalType": "address",
					"name": "oldOwner",
					"type": "address"
				},
				{
					"indexed": true,
					"internalType": "address",
					"name": "newOwner",
					"type": "address"
				}
			],
			"name": "OwnerChanged",
			"type": "event"
		},
		{
			"anonymous": false,
			"inputs": [
				{
					"indexed": true,
					"internalType": "address",
					"name": "token0",
					"type": "address"
				},
				{
					"indexed": true,
					"internalType": "address",
					"name": "token1",
					"type": "address"
				},
				{
					"indexed": true,
					"internalType": "uint24",
					"name": "fee",
					"type": "uint24"
				},
				{
					"indexed": false,
					"internalType": "int24",
					"name": "tickSpacing",
					"type": "int24"
				},
				{
					"indexed": false,
					"internalType": "address",
					"name": "pool",
					"type": "address"
				}
			],
			"name": "PoolCreated",
			"type": "event"
		},
		{
			"inputs": [
				{
					"internalType": "address",
					"name": "tokenA",
					"type": "address"
				},
				{
					"internalType": "address",
					"name": "tokenB",
					"type": "address"
				},
				{
					"internalType": "uint24",
					"name": "fee",
					"type": "uint24"
				}
			],
			"name": "createPool",
			"outputs": [
				{
					"internalType": "address",
					"name": "pool",
					"type": "address"
				}
			],
			"stateMutability": "nonpayable",
			"type": "function"
		},
		{
			"inputs": [
				{
					"internalType": "uint24",
					"name": "fee",
					"type": "uint24"
				},
				{
					"internalType": "int24",
					"name": "tickSpacing",
					"type": "int24"
				}
			],
			"name": "enableFeeAmount",
			"outputs": [],
			"stateMutability": "nonpayable",
			"type": "function"
		},
		{
			"inputs": [
				{
					"internalType": "uint24",
					"name": "",
					"type": "uint24"
				}
			],
			"name": "feeAmountTickSpacing",
			"outputs": [
				{
					"internalType": "int24",
					"name": "",
					"type": "int24"
				}
			],
			"stateMutability": "view",
			"type": "function"
		},
		{
			"inputs": [
				{
					"internalType": "address",
					"name": "",
					"type": "address"
				},
				{
					"internalType": "address",
					"name": "",
					"type": "address"
				},
				{
					"internalType": "uint24",
					"name": "",
					"type": "uint24"
				}
			],
			"name": "getPool",
			"outputs": [
				{
					"internalType": "address",
					"name": "",
					"type": "address"
				}
			],
			"stateMutability": "view",
			"type": "function"
		},
		{
			"inputs": [],
			"name": "owner",
			"outputs": [
				{
					"internalType": "address",
					"name": "",
					"type": "address"
				}
			],
			"stateMutability": "view",
			"type": "function"
		},
		{
			"inputs": [],
			"name": "parameters",
			"outputs": [
				{
					"internalType": "address",
					"name": "factory",
					"type": "address"
				},
				{
					"internalType": "address",
					"name": "token0",
					"type": "address"
				},
				{
					"internalType": "address",
					"name": "token1",
					"type": "address"
				},
				{
					"internalType": "uint24",
					"name": "fee",
					"type": "uint24"
				},
				{
					"internalType": "int24",
					"name": "tickSpacing",
					"type": "int24"
				}
			],
			"stateMutability": "view",
			"type": "function"
		},
		{
			"inputs": [
				{
					"internalType": "address",
					"name": "_owner",
					"type": "address"
				}
			],
			"name": "setOwner",
			"outputs": [],
			"stateMutability": "nonpayable",
			"type": "function"
		}
	]
}