{
	"data": {
		"bytecode": {
			"linkReferences": {},
			"object": "608060405234801561001057600080fd5b50610120806100206000396000f3fe6080604052348015600f57600080fd5b506004361060285760003560e01c80638903573014602d575b600080fd5b60336082565b6040805173ffffffffffffffffffffffffffffffffffffffff96871681529486166020860152929094168383015262ffffff16606083015260029290920b608082015290519081900360a00190f35b6000546001546002805473ffffffffffffffffffffffffffffffffffffffff938416939283169281169162ffffff7401000000000000000000000000000000000000000083041691770100000000000000000000000000000000000000000000009004900b8556fea26469706673582212208389b044c3ef425b4067aa6fe303e5ad0fd9c54e95172fb92f1acb97692f4aa764736f6c63430007060033",
			"opcodes": "PUSH1 0x80 PUSH1 0x40 MSTORE CALLVALUE DUP1 ISZERO PUSH2 0x10 JUMPI PUSH1 0x0 DUP1 REVERT JUMPDEST POP PUSH2 0x120 DUP1 PUSH2 0x20 PUSH1 0x0 CODECOPY PUSH1 0x0 RETURN INVALID PUSH1 0x80 PUSH1 0x40 MSTORE CALLVALUE DUP1 ISZERO PUSH1 0xF JUMPI PUSH1 0x0 DUP1 REVERT JUMPDEST POP PUSH1 0x4 CALLDATASIZE LT PUSH1 0x28 JUMPI PUSH1 0x0 CALLDATALOAD PUSH1 0xE0 SHR DUP1 PUSH4 0x89035730 EQ PUSH1 0x2D JUMPI JUMPDEST PUSH1 0x0 DUP1 REVERT JUMPDEST PUSH1 0x33 PUSH1 0x82 JUMP JUMPDEST PUSH1 0x40 DUP1 MLOAD PUSH20 0xFFFFFFFFFFFFFFFFFFFFFFFFFFFFFFFFFFFFFFFF SWAP7 DUP8 AND DUP2 MSTORE SWAP5 DUP7 AND PUSH1 0x20 DUP7 ADD MSTORE SWAP3 SWAP1 SWAP5 AND DUP4 DUP4 ADD MSTORE PUSH3 0xFFFFFF AND PUSH1 0x60 DUP4 ADD MSTORE PUSH1 0x2 SWAP3 SWAP1 SWAP3 SIGNEXTEND PUSH1 0x80 DUP3 ADD MSTORE SWAP1 MLOAD SWAP1 DUP2 SWAP1 SUB PUSH1 0xA0 ADD SWAP1 RETURN JUMPDEST PUSH1 0x0 SLOAD PUSH1 0x1 SLOAD PUSH1 0x2 DUP1 SLOAD PUSH20 0xFFFFFFFFFFFFFFFFFFFFFFFFFFFFFFFFFFFFFFFF SWAP4 DUP5 AND SWAP4 SWAP3 DUP4 AND SWAP3 DUP2 AND SWAP2 PUSH3 0xFFFFFF PUSH21 0x10000000000000000000000000000000000000000 DUP4 DIV AND SWAP2 PUSH24 0x10000000000000000000000000000000000000000000000 SWAP1 DIV SWAP1 SIGNEXTEND DUP6 JUMP INVALID LOG2 PUSH5 0x6970667358 0x22 SLT KECCAK256 DUP4 DUP10 0xB0 DIFFICULTY 0xC3 0xEF TIMESTAMP JUMPDEST BLOCKHASH PUSH8 0xAA6FE303E5AD0FD9 0xC5 0x4E SWAP6 OR 0x2F 0xB9 0x2F BYTE 0xCB SWAP8 PUSH10 0x2F4AA764736F6C634300 SMOD MOD STOP CALLER "
		},
		"gasEstimates": {
			"creation": {
				"codeDepositCost": "57600",
				"executionCost": "105",
				"totalCost": "57705"
			},
			"external": {
				"parameters()": "2776"
			},
			"internal": {
				"deploy(address,address,address,uint24,int24)": "infinite"
			}
		},
		"methodIdentifiers": {
			"parameters()": "89035730"
		}
	},
	"abi": [
		{
			"inputs": [],
			"name": "parameters",
			"outputs": [
				{
					"internalType": "address",
					"name": "factory",
					"type": "address"
				},
				{
					"internalType": "address",
					"name": "token0",
					"type": "address"
				},
				{
					"internalType": "address",
					"name": "token1",
					"type": "address"
				},
				{
					"internalType": "uint24",
					"name": "fee",
					"type": "uint24"
				},
				{
					"internalType": "int24",
					"name": "tickSpacing",
					"type": "int24"
				}
			],
			"stateMutability": "view",
			"type": "function"
		}
	]
}